{
  "_format": "hh-sol-artifact-1",
  "contractName": "KyberAdapter",
  "sourceName": "contracts/release/extensions/integration-manager/integrations/adapters/KyberAdapter.sol",
  "abi": [
    {
      "inputs": [
        {
          "internalType": "address",
          "name": "_integrationManager",
          "type": "address"
        },
        {
          "internalType": "address",
          "name": "_exchange",
          "type": "address"
        },
        {
          "internalType": "address",
          "name": "_wethToken",
          "type": "address"
        }
      ],
      "stateMutability": "nonpayable",
      "type": "constructor"
    },
    {
      "inputs": [],
      "name": "ADD_TRACKED_ASSETS_SELECTOR",
      "outputs": [
        {
          "internalType": "bytes4",
          "name": "",
          "type": "bytes4"
        }
      ],
      "stateMutability": "view",
      "type": "function"
    },
    {
      "inputs": [],
      "name": "APPROVE_ASSETS_SELECTOR",
      "outputs": [
        {
          "internalType": "bytes4",
          "name": "",
          "type": "bytes4"
        }
      ],
      "stateMutability": "view",
      "type": "function"
    },
    {
      "inputs": [],
      "name": "CLAIM_REWARDS_AND_REINVEST_SELECTOR",
      "outputs": [
        {
          "internalType": "bytes4",
          "name": "",
          "type": "bytes4"
        }
      ],
      "stateMutability": "view",
      "type": "function"
    },
    {
      "inputs": [],
      "name": "CLAIM_REWARDS_AND_SWAP_SELECTOR",
      "outputs": [
        {
          "internalType": "bytes4",
          "name": "",
          "type": "bytes4"
        }
      ],
      "stateMutability": "view",
      "type": "function"
    },
    {
      "inputs": [],
      "name": "CLAIM_REWARDS_SELECTOR",
      "outputs": [
        {
          "internalType": "bytes4",
          "name": "",
          "type": "bytes4"
        }
      ],
      "stateMutability": "view",
      "type": "function"
    },
    {
      "inputs": [],
      "name": "LEND_AND_STAKE_SELECTOR",
      "outputs": [
        {
          "internalType": "bytes4",
          "name": "",
          "type": "bytes4"
        }
      ],
      "stateMutability": "view",
      "type": "function"
    },
    {
      "inputs": [],
      "name": "LEND_SELECTOR",
      "outputs": [
        {
          "internalType": "bytes4",
          "name": "",
          "type": "bytes4"
        }
      ],
      "stateMutability": "view",
      "type": "function"
    },
    {
      "inputs": [],
      "name": "REDEEM_SELECTOR",
      "outputs": [
        {
          "internalType": "bytes4",
          "name": "",
          "type": "bytes4"
        }
      ],
      "stateMutability": "view",
      "type": "function"
    },
    {
      "inputs": [],
      "name": "STAKE_SELECTOR",
      "outputs": [
        {
          "internalType": "bytes4",
          "name": "",
          "type": "bytes4"
        }
      ],
      "stateMutability": "view",
      "type": "function"
    },
    {
      "inputs": [],
      "name": "TAKE_ORDER_SELECTOR",
      "outputs": [
        {
          "internalType": "bytes4",
          "name": "",
          "type": "bytes4"
        }
      ],
      "stateMutability": "view",
      "type": "function"
    },
    {
      "inputs": [],
      "name": "UNSTAKE_AND_REDEEM_SELECTOR",
      "outputs": [
        {
          "internalType": "bytes4",
          "name": "",
          "type": "bytes4"
        }
      ],
      "stateMutability": "view",
      "type": "function"
    },
    {
      "inputs": [],
      "name": "UNSTAKE_SELECTOR",
      "outputs": [
        {
          "internalType": "bytes4",
          "name": "",
          "type": "bytes4"
        }
      ],
      "stateMutability": "view",
      "type": "function"
    },
    {
      "inputs": [],
      "name": "getExchange",
      "outputs": [
        {
          "internalType": "address",
          "name": "exchange_",
          "type": "address"
        }
      ],
      "stateMutability": "view",
      "type": "function"
    },
    {
      "inputs": [],
      "name": "getIntegrationManager",
      "outputs": [
        {
          "internalType": "address",
          "name": "integrationManager_",
          "type": "address"
        }
      ],
      "stateMutability": "view",
      "type": "function"
    },
    {
      "inputs": [],
      "name": "getWethToken",
      "outputs": [
        {
          "internalType": "address",
          "name": "wethToken_",
          "type": "address"
        }
      ],
      "stateMutability": "view",
      "type": "function"
    },
    {
      "inputs": [],
      "name": "identifier",
      "outputs": [
        {
          "internalType": "string",
          "name": "identifier_",
          "type": "string"
        }
      ],
      "stateMutability": "pure",
      "type": "function"
    },
    {
      "inputs": [
        {
          "internalType": "bytes4",
          "name": "_selector",
          "type": "bytes4"
        },
        {
          "internalType": "bytes",
          "name": "_encodedCallArgs",
          "type": "bytes"
        }
      ],
      "name": "parseAssetsForMethod",
      "outputs": [
        {
          "internalType": "enum IIntegrationManager.SpendAssetsHandleType",
          "name": "spendAssetsHandleType_",
          "type": "uint8"
        },
        {
          "internalType": "address[]",
          "name": "spendAssets_",
          "type": "address[]"
        },
        {
          "internalType": "uint256[]",
          "name": "spendAssetAmounts_",
          "type": "uint256[]"
        },
        {
          "internalType": "address[]",
          "name": "incomingAssets_",
          "type": "address[]"
        },
        {
          "internalType": "uint256[]",
          "name": "minIncomingAssetAmounts_",
          "type": "uint256[]"
        }
      ],
      "stateMutability": "view",
      "type": "function"
    },
    {
      "inputs": [
        {
          "internalType": "address",
          "name": "",
          "type": "address"
        },
        {
          "internalType": "bytes",
          "name": "",
          "type": "bytes"
        },
        {
          "internalType": "bytes",
          "name": "",
          "type": "bytes"
        }
      ],
      "name": "swapForRedeem",
      "outputs": [],
      "stateMutability": "nonpayable",
      "type": "function"
    },
    {
      "inputs": [
        {
          "internalType": "address",
          "name": "_vaultProxy",
          "type": "address"
        },
        {
          "internalType": "bytes",
          "name": "_encodedCallArgs",
          "type": "bytes"
        },
        {
          "internalType": "bytes",
          "name": "_encodedAssetTransferArgs",
          "type": "bytes"
        }
      ],
      "name": "takeOrder",
      "outputs": [],
      "stateMutability": "nonpayable",
      "type": "function"
    },
    {
      "stateMutability": "payable",
      "type": "receive"
    }
  ],
  "bytecode": "0x60e060405234801561001057600080fd5b50604051611d9e380380611d9e8339818101604052606081101561003357600080fd5b50805160208201516040909201516001600160601b0319606092831b811660805292821b831660a052901b1660c05260805160601c60a05160601c60c05160601c611cd56100c9600039806108fb52806109455280610a7052806110e852806112f6525080610e255280611166528061120c52806112335280611365528061138c5250806106a65280610db95250611cd56000f3fe6080604052600436106101185760003560e01c80637998a1c4116100a0578063e4d9047811610064578063e4d9047814610632578063e7c4569014610647578063f07539941461065c578063f7d882b514610671578063f807cd22146106865761011f565b80637998a1c41461048e578063863e5ad0146105185780639337baac1461052d578063b23228cf14610608578063e27a06b51461061d5761011f565b80633ffc1591116100e75780633ffc15911461025d57806340da225d146102725780634c252f91146102875780635ca62b3c146102b857806376cc7ac6146102cd5761011f565b806303e38a2b14610124578063080456c114610201578063131461c014610233578063257cb1a3146102485761011f565b3661011f57005b600080fd5b34801561013057600080fd5b506101ff6004803603606081101561014757600080fd5b6001600160a01b038235169190810190604081016020820135600160201b81111561017157600080fd5b82018360208201111561018357600080fd5b803590602001918460018302840111600160201b831117156101a457600080fd5b919390929091602081019035600160201b8111156101c157600080fd5b8201836020820111156101d357600080fd5b803590602001918460018302840111600160201b831117156101f457600080fd5b50909250905061069b565b005b34801561020d57600080fd5b506102166109ba565b604080516001600160e01b03199092168252519081900360200190f35b34801561023f57600080fd5b506102166109de565b34801561025457600080fd5b50610216610a02565b34801561026957600080fd5b50610216610a26565b34801561027e57600080fd5b50610216610a4a565b34801561029357600080fd5b5061029c610a6e565b604080516001600160a01b039092168252519081900360200190f35b3480156102c457600080fd5b50610216610a92565b3480156102d957600080fd5b50610359600480360360408110156102f057600080fd5b6001600160e01b03198235169190810190604081016020820135600160201b81111561031b57600080fd5b82018360208201111561032d57600080fd5b803590602001918460018302840111600160201b8311171561034e57600080fd5b509092509050610ab6565b6040518086600381111561036957fe5b815260200180602001806020018060200180602001858103855289818151815260200191508051906020019060200280838360005b838110156103b657818101518382015260200161039e565b50505050905001858103845288818151815260200191508051906020019060200280838360005b838110156103f55781810151838201526020016103dd565b50505050905001858103835287818151815260200191508051906020019060200280838360005b8381101561043457818101518382015260200161041c565b50505050905001858103825286818151815260200191508051906020019060200280838360005b8381101561047357818101518382015260200161045b565b50505050905001995050505050505050505060405180910390f35b34801561049a57600080fd5b506104a3610cf9565b6040805160208082528351818301528351919283929083019185019080838360005b838110156104dd5781810151838201526020016104c5565b50505050905090810190601f16801561050a5780820380516001836020036101000a031916815260200191505b509250505060405180910390f35b34801561052457600080fd5b50610216610d20565b34801561053957600080fd5b506101ff6004803603606081101561055057600080fd5b6001600160a01b038235169190810190604081016020820135600160201b81111561057a57600080fd5b82018360208201111561058c57600080fd5b803590602001918460018302840111600160201b831117156105ad57600080fd5b919390929091602081019035600160201b8111156105ca57600080fd5b8201836020820111156105dc57600080fd5b803590602001918460018302840111600160201b831117156105fd57600080fd5b509092509050610d44565b34801561061457600080fd5b50610216610d4b565b34801561062957600080fd5b50610216610d6f565b34801561063e57600080fd5b50610216610d93565b34801561065357600080fd5b5061029c610db7565b34801561066857600080fd5b50610216610ddb565b34801561067d57600080fd5b50610216610dff565b34801561069257600080fd5b5061029c610e23565b336001600160a01b037f000000000000000000000000000000000000000000000000000000000000000016146107025760405162461bcd60e51b8152600401808060200182810382526032815260200180611b6b6032913960400191505060405180910390fd5b8482828080601f01602080910402602001604051908101604052809392919081815260200183838082843760009201829052509250606091508190508061074885610e47565b92965090945092509050600184600381111561076057fe5b14156107c25760005b83518110156107c0576107b8873085848151811061078357fe5b602002602001015187858151811061079757fe5b60200260200101516001600160a01b031661100f909392919063ffffffff16565b600101610769565b505b6000806000806108078e8e8080601f01602080910402602001604051908101604052809392919081815260200183838082843760009201919091525061106f92505050565b935093509350935060006108f7836001600160a01b031663313ce5676040518163ffffffff1660e01b815260040160206040518083038186803b15801561084d57600080fd5b505afa158015610861573d6000803e3d6000fd5b505050506040513d602081101561087757600080fd5b50516040805163313ce56760e01b8152905160ff9092169185916001600160a01b038a169163313ce56791600480820192602092909190829003018186803b1580156108c257600080fd5b505afa1580156108d6573d6000803e3d6000fd5b505050506040513d60208110156108ec57600080fd5b505160ff16876110ac565b90507f00000000000000000000000000000000000000000000000000000000000000006001600160a01b0316836001600160a01b031614156109435761093e8583836110e6565b610994565b7f00000000000000000000000000000000000000000000000000000000000000006001600160a01b0316856001600160a01b031614156109885761093e838383611206565b6109948584848461135f565b50505050506109a3868261144c565b6109ad868461144c565b5050505050505050505050565b7f8334eb99be0145865eba9889fca2ee920288090caefff4cc776038e20ad9259a81565b7f29fa046e79524c3c5ac4c01df692c35e217802b2b13b21121b76cf0ef02b138c81565b7f099f75155f0e997bf83a7993a71d5e7e7540bd386fe1e84643a09ce6b412521981565b7ffa7dd04da627f433da73c4355ead9c75682a67a8fc84d3f6170ef0922f402d2481565b7fb9dfbaccbe5cd2a84fdcf1d15f23ef25d23086f5afbaa99516065ed4a5bbc7a381565b7f000000000000000000000000000000000000000000000000000000000000000090565b7fdfd5ee0f6067928bf85a7c4430811282840bc99332dda3dab462c02bf95b67cc81565b600060608080806001600160e01b031988166303e38a2b60e01b14610b0c5760405162461bcd60e51b8152600401808060200182810382526027815260200180611b1e6027913960400191505060405180910390fd5b600080600080610b518b8b8080601f01602080910402602001604051908101604052809392919081815260200183838082843760009201919091525061106f92505050565b9350935093509350816001600160a01b0316846001600160a01b03161415610baa5760405162461bcd60e51b815260040180806020018281038252604e815260200180611b9d604e913960600191505060405180910390fd5b60008111610be95760405162461bcd60e51b8152600401808060200182810382526034815260200180611c0c6034913960400191505060405180910390fd5b60408051600180825281830190925290602080830190803683370190505097508188600081518110610c1757fe5b6001600160a01b03929092166020928302919091018201526040805160018082528183019092529182810190803683370190505096508087600081518110610c5b57fe5b6020908102919091010152604080516001808252818301909252908160200160208202803683370190505095508386600081518110610c9657fe5b6001600160a01b03929092166020928302919091018201526040805160018082528183019092529182810190803683370190505094508285600081518110610cda57fe5b6020026020010181815250506002985050505050939792965093509350565b60408051808201909152600d81526c4b594245525f4e4554574f524b60981b602082015290565b7f03e38a2bd7063d45c897edeafc330e71657502dd86434d3c37a489caf116af6981565b5050505050565b7f68e30677f607df46e87da13e15b637784cfa62374b653f35ab43d10361a2f83081565b7f848f3a590fb2f9795d1a275009c54c26c53833277c96b90e0ddd01753a1d590681565b7f3377e18acf9e83665eacd6af109261424fca32a298e2fc2e6095ba563fb8390e81565b7f000000000000000000000000000000000000000000000000000000000000000090565b7f1d51f49b5273d9ddbb643dc349fab8d36dbb470209c2ea71033bea49dd311c2781565b7fc29fa9dde84204c2908778afd0613d802d31cf046179b88f6d2b4a4e507ea2d581565b7f000000000000000000000000000000000000000000000000000000000000000090565b60006060806060848060200190516080811015610e6357600080fd5b815160208301805160405192949293830192919084600160201b821115610e8957600080fd5b908301906020820185811115610e9e57600080fd5b82518660208202830111600160201b82111715610eba57600080fd5b82525081516020918201928201910280838360005b83811015610ee7578181015183820152602001610ecf565b5050505090500160405260200180516040519392919084600160201b821115610f0f57600080fd5b908301906020820185811115610f2457600080fd5b82518660208202830111600160201b82111715610f4057600080fd5b82525081516020918201928201910280838360005b83811015610f6d578181015183820152602001610f55565b5050505090500160405260200180516040519392919084600160201b821115610f9557600080fd5b908301906020820185811115610faa57600080fd5b82518660208202830111600160201b82111715610fc657600080fd5b82525081516020918201928201910280838360005b83811015610ff3578181015183820152602001610fdb565b5050505090500160405250505093509350935093509193509193565b604080516001600160a01b0380861660248301528416604482015260648082018490528251808303909101815260849091019091526020810180516001600160e01b03166323b872dd60e01b17905261106990859061152d565b50505050565b60008060008084806020019051608081101561108a57600080fd5b5080516020820151604083015160609093015191989097509195509350915050565b60006110dd6110bf85600a86900a6115de565b6110d76110cd886012611640565b8590600a0a6115de565b9061169a565b95945050505050565b7f00000000000000000000000000000000000000000000000000000000000000006001600160a01b0316632e1a7d4d836040518263ffffffff1660e01b815260040180828152602001915050600060405180830381600087803b15801561114c57600080fd5b505af1158015611160573d6000803e3d6000fd5b505050507f00000000000000000000000000000000000000000000000000000000000000006001600160a01b0316637a2a04568385846040518463ffffffff1660e01b815260040180836001600160a01b03168152602001828152602001925050506020604051808303818588803b1580156111db57600080fd5b505af11580156111ef573d6000803e3d6000fd5b50505050506040513d6020811015610d4457600080fd5b611231837f000000000000000000000000000000000000000000000000000000000000000084611701565b7f00000000000000000000000000000000000000000000000000000000000000006001600160a01b0316633bba21dc8484846040518463ffffffff1660e01b815260040180846001600160a01b031681526020018381526020018281526020019350505050602060405180830381600087803b1580156112b057600080fd5b505af11580156112c4573d6000803e3d6000fd5b505050506040513d60208110156112da57600080fd5b505060408051630d0e30db60e41b815290516001600160a01b037f0000000000000000000000000000000000000000000000000000000000000000169163d0e30db09130319160048082019260009290919082900301818588803b15801561134157600080fd5b505af1158015611355573d6000803e3d6000fd5b5050505050505050565b61138a837f000000000000000000000000000000000000000000000000000000000000000084611701565b7f00000000000000000000000000000000000000000000000000000000000000006001600160a01b0316637409e2eb848487856040518563ffffffff1660e01b815260040180856001600160a01b03168152602001848152602001836001600160a01b03168152602001828152602001945050505050602060405180830381600087803b15801561141a57600080fd5b505af115801561142e573d6000803e3d6000fd5b505050506040513d602081101561144457600080fd5b505050505050565b60005b815181101561152857600082828151811061146657fe5b60200260200101516001600160a01b03166370a08231306040518263ffffffff1660e01b815260040180826001600160a01b0316815260200191505060206040518083038186803b1580156114ba57600080fd5b505afa1580156114ce573d6000803e3d6000fd5b505050506040513d60208110156114e457600080fd5b50519050801561151f5761151f84828585815181106114ff57fe5b60200260200101516001600160a01b03166117999092919063ffffffff16565b5060010161144f565b505050565b6060611582826040518060400160405280602081526020017f5361666545524332303a206c6f772d6c6576656c2063616c6c206661696c6564815250856001600160a01b03166117eb9092919063ffffffff16565b805190915015611528578080602001905160208110156115a157600080fd5b50516115285760405162461bcd60e51b815260040180806020018281038252602a815260200180611c40602a913960400191505060405180910390fd5b6000826115ed5750600061163a565b828202828482816115fa57fe5b04146116375760405162461bcd60e51b8152600401808060200182810382526021815260200180611beb6021913960400191505060405180910390fd5b90505b92915050565b600082820183811015611637576040805162461bcd60e51b815260206004820152601b60248201527f536166654d6174683a206164646974696f6e206f766572666c6f770000000000604482015290519081900360640190fd5b60008082116116f0576040805162461bcd60e51b815260206004820152601a60248201527f536166654d6174683a206469766973696f6e206279207a65726f000000000000604482015290519081900360640190fd5b8183816116f957fe5b049392505050565b60408051636eb1769f60e11b81523060048201526001600160a01b0384811660248301529151839286169163dd62ed3e916044808301926020929190829003018186803b15801561175157600080fd5b505afa158015611765573d6000803e3d6000fd5b505050506040513d602081101561177b57600080fd5b50511015611528576115286001600160a01b03841683600019611804565b604080516001600160a01b038416602482015260448082018490528251808303909101815260649091019091526020810180516001600160e01b031663a9059cbb60e01b17905261152890849061152d565b60606117fa8484600085611917565b90505b9392505050565b80158061188a575060408051636eb1769f60e11b81523060048201526001600160a01b03848116602483015291519185169163dd62ed3e91604480820192602092909190829003018186803b15801561185c57600080fd5b505afa158015611870573d6000803e3d6000fd5b505050506040513d602081101561188657600080fd5b5051155b6118c55760405162461bcd60e51b8152600401808060200182810382526036815260200180611c6a6036913960400191505060405180910390fd5b604080516001600160a01b038416602482015260448082018490528251808303909101815260649091019091526020810180516001600160e01b031663095ea7b360e01b17905261152890849061152d565b6060824710156119585760405162461bcd60e51b8152600401808060200182810382526026815260200180611b456026913960400191505060405180910390fd5b61196185611a73565b6119b2576040805162461bcd60e51b815260206004820152601d60248201527f416464726573733a2063616c6c20746f206e6f6e2d636f6e7472616374000000604482015290519081900360640190fd5b60006060866001600160a01b031685876040518082805190602001908083835b602083106119f15780518252601f1990920191602091820191016119d2565b6001836020036101000a03801982511681845116808217855250505050505090500191505060006040518083038185875af1925050503d8060008114611a53576040519150601f19603f3d011682016040523d82523d6000602084013e611a58565b606091505b5091509150611a68828286611a79565b979650505050505050565b3b151590565b60608315611a885750816117fd565b825115611a985782518084602001fd5b8160405162461bcd60e51b81526004018080602001828103825283818151815260200191508051906020019080838360005b83811015611ae2578181015183820152602001611aca565b50505050905090810190601f168015611b0f5780820380516001836020036101000a031916815260200191505b509250505060405180910390fdfe7061727365417373657473466f724d6574686f643a205f73656c6563746f7220696e76616c6964416464726573733a20696e73756666696369656e742062616c616e636520666f722063616c6c4f6e6c792074686520496e746567726174696f6e4d616e616765722063616e2063616c6c20746869732066756e6374696f6e7061727365417373657473466f724d6574686f643a20696e636f6d696e67417373657420616e64206f7574676f696e6741737365742061737365742063616e6e6f74206265207468652073616d65536166654d6174683a206d756c7469706c69636174696f6e206f766572666c6f777061727365417373657473466f724d6574686f643a206f7574676f696e674173736574416d6f756e74206d757374206265203e305361666545524332303a204552433230206f7065726174696f6e20646964206e6f7420737563636565645361666545524332303a20617070726f76652066726f6d206e6f6e2d7a65726f20746f206e6f6e2d7a65726f20616c6c6f77616e6365a2646970667358221220a685c43f6df54c735ac6615270ea5f15045858764c92526ac82e4c8da52fc93664736f6c634300060c0033",
  "linkReferences": {},
  "deployedLinkReferences": {}
}