{
  "_format": "hh-sol-artifact-1",
  "contractName": "AaveAdapter",
  "sourceName": "contracts/release/extensions/integration-manager/integrations/adapters/AaveAdapter.sol",
  "abi": [
    {
      "inputs": [
        {
          "internalType": "address",
          "name": "_integrationManager",
          "type": "address"
        },
        {
          "internalType": "address",
          "name": "_lendingPoolAddressProvider",
          "type": "address"
        },
        {
          "internalType": "address",
          "name": "_aavePriceFeed",
          "type": "address"
        }
      ],
      "stateMutability": "nonpayable",
      "type": "constructor"
    },
    {
      "inputs": [],
      "name": "ADD_TRACKED_ASSETS_SELECTOR",
      "outputs": [
        {
          "internalType": "bytes4",
          "name": "",
          "type": "bytes4"
        }
      ],
      "stateMutability": "view",
      "type": "function"
    },
    {
      "inputs": [],
      "name": "APPROVE_ASSETS_SELECTOR",
      "outputs": [
        {
          "internalType": "bytes4",
          "name": "",
          "type": "bytes4"
        }
      ],
      "stateMutability": "view",
      "type": "function"
    },
    {
      "inputs": [],
      "name": "CLAIM_REWARDS_AND_REINVEST_SELECTOR",
      "outputs": [
        {
          "internalType": "bytes4",
          "name": "",
          "type": "bytes4"
        }
      ],
      "stateMutability": "view",
      "type": "function"
    },
    {
      "inputs": [],
      "name": "CLAIM_REWARDS_AND_SWAP_SELECTOR",
      "outputs": [
        {
          "internalType": "bytes4",
          "name": "",
          "type": "bytes4"
        }
      ],
      "stateMutability": "view",
      "type": "function"
    },
    {
      "inputs": [],
      "name": "CLAIM_REWARDS_SELECTOR",
      "outputs": [
        {
          "internalType": "bytes4",
          "name": "",
          "type": "bytes4"
        }
      ],
      "stateMutability": "view",
      "type": "function"
    },
    {
      "inputs": [],
      "name": "LEND_AND_STAKE_SELECTOR",
      "outputs": [
        {
          "internalType": "bytes4",
          "name": "",
          "type": "bytes4"
        }
      ],
      "stateMutability": "view",
      "type": "function"
    },
    {
      "inputs": [],
      "name": "LEND_SELECTOR",
      "outputs": [
        {
          "internalType": "bytes4",
          "name": "",
          "type": "bytes4"
        }
      ],
      "stateMutability": "view",
      "type": "function"
    },
    {
      "inputs": [],
      "name": "REDEEM_SELECTOR",
      "outputs": [
        {
          "internalType": "bytes4",
          "name": "",
          "type": "bytes4"
        }
      ],
      "stateMutability": "view",
      "type": "function"
    },
    {
      "inputs": [],
      "name": "STAKE_SELECTOR",
      "outputs": [
        {
          "internalType": "bytes4",
          "name": "",
          "type": "bytes4"
        }
      ],
      "stateMutability": "view",
      "type": "function"
    },
    {
      "inputs": [],
      "name": "TAKE_ORDER_SELECTOR",
      "outputs": [
        {
          "internalType": "bytes4",
          "name": "",
          "type": "bytes4"
        }
      ],
      "stateMutability": "view",
      "type": "function"
    },
    {
      "inputs": [],
      "name": "UNSTAKE_AND_REDEEM_SELECTOR",
      "outputs": [
        {
          "internalType": "bytes4",
          "name": "",
          "type": "bytes4"
        }
      ],
      "stateMutability": "view",
      "type": "function"
    },
    {
      "inputs": [],
      "name": "UNSTAKE_SELECTOR",
      "outputs": [
        {
          "internalType": "bytes4",
          "name": "",
          "type": "bytes4"
        }
      ],
      "stateMutability": "view",
      "type": "function"
    },
    {
      "inputs": [],
      "name": "getAavePriceFeed",
      "outputs": [
        {
          "internalType": "address",
          "name": "aavePriceFeed_",
          "type": "address"
        }
      ],
      "stateMutability": "view",
      "type": "function"
    },
    {
      "inputs": [],
      "name": "getIntegrationManager",
      "outputs": [
        {
          "internalType": "address",
          "name": "integrationManager_",
          "type": "address"
        }
      ],
      "stateMutability": "view",
      "type": "function"
    },
    {
      "inputs": [],
      "name": "getLendingPoolAddressProvider",
      "outputs": [
        {
          "internalType": "address",
          "name": "lendingPoolAddressProvider_",
          "type": "address"
        }
      ],
      "stateMutability": "view",
      "type": "function"
    },
    {
      "inputs": [],
      "name": "getReferralCode",
      "outputs": [
        {
          "internalType": "uint16",
          "name": "referralCode_",
          "type": "uint16"
        }
      ],
      "stateMutability": "pure",
      "type": "function"
    },
    {
      "inputs": [],
      "name": "identifier",
      "outputs": [
        {
          "internalType": "string",
          "name": "identifier_",
          "type": "string"
        }
      ],
      "stateMutability": "pure",
      "type": "function"
    },
    {
      "inputs": [
        {
          "internalType": "address",
          "name": "_vaultProxy",
          "type": "address"
        },
        {
          "internalType": "bytes",
          "name": "",
          "type": "bytes"
        },
        {
          "internalType": "bytes",
          "name": "_encodedAssetTransferArgs",
          "type": "bytes"
        }
      ],
      "name": "lend",
      "outputs": [],
      "stateMutability": "nonpayable",
      "type": "function"
    },
    {
      "inputs": [
        {
          "internalType": "bytes4",
          "name": "_selector",
          "type": "bytes4"
        },
        {
          "internalType": "bytes",
          "name": "_encodedCallArgs",
          "type": "bytes"
        }
      ],
      "name": "parseAssetsForMethod",
      "outputs": [
        {
          "internalType": "enum IIntegrationManager.SpendAssetsHandleType",
          "name": "spendAssetsHandleType_",
          "type": "uint8"
        },
        {
          "internalType": "address[]",
          "name": "spendAssets_",
          "type": "address[]"
        },
        {
          "internalType": "uint256[]",
          "name": "spendAssetAmounts_",
          "type": "uint256[]"
        },
        {
          "internalType": "address[]",
          "name": "incomingAssets_",
          "type": "address[]"
        },
        {
          "internalType": "uint256[]",
          "name": "minIncomingAssetAmounts_",
          "type": "uint256[]"
        }
      ],
      "stateMutability": "view",
      "type": "function"
    },
    {
      "inputs": [
        {
          "internalType": "address",
          "name": "_vaultProxy",
          "type": "address"
        },
        {
          "internalType": "bytes",
          "name": "",
          "type": "bytes"
        },
        {
          "internalType": "bytes",
          "name": "_encodedAssetTransferArgs",
          "type": "bytes"
        }
      ],
      "name": "redeem",
      "outputs": [],
      "stateMutability": "nonpayable",
      "type": "function"
    },
    {
      "inputs": [
        {
          "internalType": "address",
          "name": "",
          "type": "address"
        },
        {
          "internalType": "bytes",
          "name": "",
          "type": "bytes"
        },
        {
          "internalType": "bytes",
          "name": "",
          "type": "bytes"
        }
      ],
      "name": "swapForRedeem",
      "outputs": [],
      "stateMutability": "nonpayable",
      "type": "function"
    }
  ],
  "bytecode": "0x60e060405234801561001057600080fd5b50604051611a26380380611a268339818101604052606081101561003357600080fd5b50805160208201516040909201516001600160601b0319606092831b811660805292821b831660c052901b1660a05260805160601c60a05160601c60c05160601c6119716100b5600039806107805280610f565280611180525080610a175280610c5d52806110cc5250806106d85280610eab528061113852506119716000f3fe608060405234801561001057600080fd5b50600436106101375760003560e01c8063863e5ad0116100b8578063e27a06b51161007c578063e27a06b514610679578063e4d9047814610681578063e7c4569014610689578063f075399414610691578063f13fd78314610699578063f7d882b5146106a157610137565b8063863e5ad0146104a95780639337baac146104b1578063b23228cf1461057f578063c29fa9dd14610587578063d4e5b16e1461065557610137565b806340da225d116100ff57806340da225d146102495780635ca62b3c1461025157806376cc7ac6146102595780637998a1c41461040d5780637ae68ada1461048a57610137565b8063080456c11461013c578063099f751514610161578063131461c014610231578063257cb1a3146102395780633ffc159114610241575b600080fd5b6101446106a9565b604080516001600160e01b03199092168252519081900360200190f35b61022f6004803603606081101561017757600080fd5b6001600160a01b038235169190810190604081016020820135600160201b8111156101a157600080fd5b8201836020820111156101b357600080fd5b803590602001918460018302840111600160201b831117156101d457600080fd5b919390929091602081019035600160201b8111156101f157600080fd5b82018360208201111561020357600080fd5b803590602001918460018302840111600160201b8311171561022457600080fd5b5090925090506106cd565b005b6101446108f9565b61014461091d565b610144610941565b610144610965565b610144610989565b6102d86004803603604081101561026f57600080fd5b6001600160e01b03198235169190810190604081016020820135600160201b81111561029a57600080fd5b8201836020820111156102ac57600080fd5b803590602001918460018302840111600160201b831117156102cd57600080fd5b5090925090506109ad565b604051808660038111156102e857fe5b815260200180602001806020018060200180602001858103855289818151815260200191508051906020019060200280838360005b8381101561033557818101518382015260200161031d565b50505050905001858103845288818151815260200191508051906020019060200280838360005b8381101561037457818101518382015260200161035c565b50505050905001858103835287818151815260200191508051906020019060200280838360005b838110156103b357818101518382015260200161039b565b50505050905001858103825286818151815260200191508051906020019060200280838360005b838110156103f25781810151838201526020016103da565b50505050905001995050505050505050505060405180910390f35b610415610e2e565b6040805160208082528351818301528351919283929083019185019080838360005b8381101561044f578181015183820152602001610437565b50505050905090810190601f16801561047c5780820380516001836020036101000a031916815260200191505b509250505060405180910390f35b610492610e4c565b6040805161ffff9092168252519081900360200190f35b610144610e51565b61022f600480360360608110156104c757600080fd5b6001600160a01b038235169190810190604081016020820135600160201b8111156104f157600080fd5b82018360208201111561050357600080fd5b803590602001918460018302840111600160201b8311171561052457600080fd5b919390929091602081019035600160201b81111561054157600080fd5b82018360208201111561055357600080fd5b803590602001918460018302840111600160201b8311171561057457600080fd5b509092509050610e75565b610144610e7c565b61022f6004803603606081101561059d57600080fd5b6001600160a01b038235169190810190604081016020820135600160201b8111156105c757600080fd5b8201836020820111156105d957600080fd5b803590602001918460018302840111600160201b831117156105fa57600080fd5b919390929091602081019035600160201b81111561061757600080fd5b82018360208201111561062957600080fd5b803590602001918460018302840111600160201b8311171561064a57600080fd5b509092509050610ea0565b61065d6110ca565b604080516001600160a01b039092168252519081900360200190f35b6101446110ee565b610144611112565b61065d611136565b61014461115a565b61065d61117e565b6101446111a2565b7f8334eb99be0145865eba9889fca2ee920288090caefff4cc776038e20ad9259a81565b336001600160a01b037f000000000000000000000000000000000000000000000000000000000000000016146107345760405162461bcd60e51b81526004018080602001828103825260328152602001806118826032913960400191505060405180910390fd5b60608061077684848080601f0160208091040260200160405190810160405280939291908181526020018383808284376000920191909152506111c692505050565b50925092505060007f00000000000000000000000000000000000000000000000000000000000000006001600160a01b0316630261bf8b6040518163ffffffff1660e01b815260040160206040518083038186803b1580156107d757600080fd5b505afa1580156107eb573d6000803e3d6000fd5b505050506040513d602081101561080157600080fd5b5051835190915061083a90849060009061081757fe5b6020026020010151828460008151811061082d57fe5b602002602001015161138e565b806001600160a01b031663e8eda9df8460008151811061085657fe5b60200260200101518460008151811061086b57fe5b60200260200101518b609e6040518563ffffffff1660e01b815260040180856001600160a01b03168152602001848152602001836001600160a01b031681526020018261ffff168152602001945050505050600060405180830381600087803b1580156108d757600080fd5b505af11580156108eb573d6000803e3d6000fd5b505050505050505050505050565b7f29fa046e79524c3c5ac4c01df692c35e217802b2b13b21121b76cf0ef02b138c81565b7f099f75155f0e997bf83a7993a71d5e7e7540bd386fe1e84643a09ce6b412521981565b7ffa7dd04da627f433da73c4355ead9c75682a67a8fc84d3f6170ef0922f402d2481565b7fb9dfbaccbe5cd2a84fdcf1d15f23ef25d23086f5afbaa99516065ed4a5bbc7a381565b7fdfd5ee0f6067928bf85a7c4430811282840bc99332dda3dab462c02bf95b67cc81565b600060608080806001600160e01b0319881663099f751560e01b1415610bfa57600080610a0f89898080601f01602080910402602001604051908101604052809392919081815260200183838082843760009201919091525061142b92505050565b9150915060007f00000000000000000000000000000000000000000000000000000000000000006001600160a01b03166366adb867846040518263ffffffff1660e01b815260040180826001600160a01b0316815260200191505060206040518083038186803b158015610a8257600080fd5b505afa158015610a96573d6000803e3d6000fd5b505050506040513d6020811015610aac57600080fd5b505190506001600160a01b038116610af55760405162461bcd60e51b81526004018080602001828103825260288152602001806118b46028913960400191505060405180910390fd5b60408051600180825281830190925290602080830190803683370190505096508087600081518110610b2357fe5b6001600160a01b03929092166020928302919091018201526040805160018082528183019092529182810190803683370190505095508186600081518110610b6757fe5b6020908102919091010152604080516001808252818301909252908160200160208202803683370190505094508285600081518110610ba257fe5b6001600160a01b03929092166020928302919091018201526040805160018082528183019092529182810190803683370190505093508184600081518110610be657fe5b602002602001018181525050505050610e1f565b6001600160e01b0319881663c29fa9dd60e01b1415610de857600080610c5589898080601f01602080910402602001604051908101604052809392919081815260200183838082843760009201919091525061142b92505050565b9150915060007f00000000000000000000000000000000000000000000000000000000000000006001600160a01b03166366adb867846040518263ffffffff1660e01b815260040180826001600160a01b0316815260200191505060206040518083038186803b158015610cc857600080fd5b505afa158015610cdc573d6000803e3d6000fd5b505050506040513d6020811015610cf257600080fd5b505190506001600160a01b038116610d3b5760405162461bcd60e51b81526004018080602001828103825260288152602001806118b46028913960400191505060405180910390fd5b60408051600180825281830190925290602080830190803683370190505096508287600081518110610d6957fe5b6001600160a01b03929092166020928302919091018201526040805160018082528183019092529182810190803683370190505095508186600081518110610dad57fe5b6020908102919091010152604080516001808252818301909252908160200160208202803683370190505094508085600081518110610ba257fe5b60405162461bcd60e51b81526004018080602001828103825260278152602001806118356027913960400191505060405180910390fd5b60029450939792965093509350565b6040805180820190915260048152634141564560e01b602082015290565b609e90565b7f03e38a2bd7063d45c897edeafc330e71657502dd86434d3c37a489caf116af6981565b5050505050565b7f68e30677f607df46e87da13e15b637784cfa62374b653f35ab43d10361a2f83081565b336001600160a01b037f00000000000000000000000000000000000000000000000000000000000000001614610f075760405162461bcd60e51b81526004018080602001828103825260328152602001806118826032913960400191505060405180910390fd5b6060806060610f4b85858080601f0160208091040260200160405190810160405280939291908181526020018383808284376000920191909152506111c692505050565b9350935093505060007f00000000000000000000000000000000000000000000000000000000000000006001600160a01b0316630261bf8b6040518163ffffffff1660e01b815260040160206040518083038186803b158015610fad57600080fd5b505afa158015610fc1573d6000803e3d6000fd5b505050506040513d6020811015610fd757600080fd5b50518451909150611003908590600090610fed57fe5b6020026020010151828560008151811061082d57fe5b806001600160a01b03166369328dec8360008151811061101f57fe5b60200260200101518560008151811061103457fe5b60200260200101518c6040518463ffffffff1660e01b815260040180846001600160a01b03168152602001838152602001826001600160a01b031681526020019350505050602060405180830381600087803b15801561109357600080fd5b505af11580156110a7573d6000803e3d6000fd5b505050506040513d60208110156110bd57600080fd5b5050505050505050505050565b7f000000000000000000000000000000000000000000000000000000000000000090565b7f848f3a590fb2f9795d1a275009c54c26c53833277c96b90e0ddd01753a1d590681565b7f3377e18acf9e83665eacd6af109261424fca32a298e2fc2e6095ba563fb8390e81565b7f000000000000000000000000000000000000000000000000000000000000000090565b7f1d51f49b5273d9ddbb643dc349fab8d36dbb470209c2ea71033bea49dd311c2781565b7f000000000000000000000000000000000000000000000000000000000000000090565b7fc29fa9dde84204c2908778afd0613d802d31cf046179b88f6d2b4a4e507ea2d581565b600060608060608480602001905160808110156111e257600080fd5b815160208301805160405192949293830192919084600160201b82111561120857600080fd5b90830190602082018581111561121d57600080fd5b82518660208202830111600160201b8211171561123957600080fd5b82525081516020918201928201910280838360005b8381101561126657818101518382015260200161124e565b5050505090500160405260200180516040519392919084600160201b82111561128e57600080fd5b9083019060208201858111156112a357600080fd5b82518660208202830111600160201b821117156112bf57600080fd5b82525081516020918201928201910280838360005b838110156112ec5781810151838201526020016112d4565b5050505090500160405260200180516040519392919084600160201b82111561131457600080fd5b90830190602082018581111561132957600080fd5b82518660208202830111600160201b8211171561134557600080fd5b82525081516020918201928201910280838360005b8381101561137257818101518382015260200161135a565b5050505090500160405250505093509350935093509193509193565b60408051636eb1769f60e11b81523060048201526001600160a01b0384811660248301529151839286169163dd62ed3e916044808301926020929190829003018186803b1580156113de57600080fd5b505afa1580156113f2573d6000803e3d6000fd5b505050506040513d602081101561140857600080fd5b50511015611426576114266001600160a01b03841683600019611456565b505050565b60008082806020019051604081101561144357600080fd5b5080516020909101519092509050915091565b8015806114dc575060408051636eb1769f60e11b81523060048201526001600160a01b03848116602483015291519185169163dd62ed3e91604480820192602092909190829003018186803b1580156114ae57600080fd5b505afa1580156114c2573d6000803e3d6000fd5b505050506040513d60208110156114d857600080fd5b5051155b6115175760405162461bcd60e51b81526004018080602001828103825260368152602001806119066036913960400191505060405180910390fd5b604080516001600160a01b038416602482015260448082018490528251808303909101815260649091019091526020810180516001600160e01b031663095ea7b360e01b17905261142690849060606115b9826040518060400160405280602081526020017f5361666545524332303a206c6f772d6c6576656c2063616c6c206661696c6564815250856001600160a01b03166116159092919063ffffffff16565b805190915015611426578080602001905160208110156115d857600080fd5b50516114265760405162461bcd60e51b815260040180806020018281038252602a8152602001806118dc602a913960400191505060405180910390fd5b6060611624848460008561162e565b90505b9392505050565b60608247101561166f5760405162461bcd60e51b815260040180806020018281038252602681526020018061185c6026913960400191505060405180910390fd5b6116788561178a565b6116c9576040805162461bcd60e51b815260206004820152601d60248201527f416464726573733a2063616c6c20746f206e6f6e2d636f6e7472616374000000604482015290519081900360640190fd5b60006060866001600160a01b031685876040518082805190602001908083835b602083106117085780518252601f1990920191602091820191016116e9565b6001836020036101000a03801982511681845116808217855250505050505090500191505060006040518083038185875af1925050503d806000811461176a576040519150601f19603f3d011682016040523d82523d6000602084013e61176f565b606091505b509150915061177f828286611790565b979650505050505050565b3b151590565b6060831561179f575081611627565b8251156117af5782518084602001fd5b8160405162461bcd60e51b81526004018080602001828103825283818151815260200191508051906020019080838360005b838110156117f95781810151838201526020016117e1565b50505050905090810190601f1680156118265780820380516001836020036101000a031916815260200191505b509250505060405180910390fdfe7061727365417373657473466f724d6574686f643a205f73656c6563746f7220696e76616c6964416464726573733a20696e73756666696369656e742062616c616e636520666f722063616c6c4f6e6c792074686520496e746567726174696f6e4d616e616765722063616e2063616c6c20746869732066756e6374696f6e7061727365417373657473466f724d6574686f643a20556e737570706f727465642061546f6b656e5361666545524332303a204552433230206f7065726174696f6e20646964206e6f7420737563636565645361666545524332303a20617070726f76652066726f6d206e6f6e2d7a65726f20746f206e6f6e2d7a65726f20616c6c6f77616e6365a2646970667358221220d71db86ff73d61ab5fd6bbec170f5acc3b514b636f05015ee5d36f47de0f7b1164736f6c634300060c0033",
  "linkReferences": {},
  "deployedLinkReferences": {}
}