{
  "_format": "hh-sol-artifact-1",
  "contractName": "MockZeroExV2Integratee",
  "sourceName": "contracts/mocks/integratees/MockZeroExV2Integratee.sol",
  "abi": [
    {
      "inputs": [
        {
          "internalType": "bytes",
          "name": "_zrxAssetData",
          "type": "bytes"
        }
      ],
      "stateMutability": "nonpayable",
      "type": "constructor"
    },
    {
      "inputs": [],
      "name": "ZRX_ASSET_DATA",
      "outputs": [
        {
          "internalType": "bytes",
          "name": "",
          "type": "bytes"
        }
      ],
      "stateMutability": "view",
      "type": "function"
    }
  ],
  "bytecode": "0x608060405234801561001057600080fd5b506040516103103803806103108339818101604052602081101561003357600080fd5b810190808051604051939291908464010000000082111561005357600080fd5b90830190602082018581111561006857600080fd5b825164010000000081118282018810171561008257600080fd5b82525081516020918201929091019080838360005b838110156100af578181015183820152602001610097565b50505050905090810190601f1680156100dc5780820380516001836020036101000a031916815260200191505b50604052505081516100f6915060009060208401906100fd565b5050610190565b828054600181600116156101000203166002900490600052602060002090601f016020900481019282601f1061013e57805160ff191683800117855561016b565b8280016001018555821561016b579182015b8281111561016b578251825591602001919060010190610150565b5061017792915061017b565b5090565b5b80821115610177576000815560010161017c565b6101718061019f6000396000f3fe608060405234801561001057600080fd5b506004361061002b5760003560e01c8063db123b1a14610030575b600080fd5b6100386100ad565b6040805160208082528351818301528351919283929083019185019080838360005b8381101561007257818101518382015260200161005a565b50505050905090810190601f16801561009f5780820380516001836020036101000a031916815260200191505b509250505060405180910390f35b6000805460408051602060026001851615610100026000190190941693909304601f810184900484028201840190925281815292918301828280156101335780601f1061010857610100808354040283529160200191610133565b820191906000526020600020905b81548152906001019060200180831161011657829003601f168201915b50505050508156fea2646970667358221220db89bb52aea1230b06648865d8263d7b85e6faffbb87c475cc5eeb12d088d67964736f6c634300060c0033",
  "linkReferences": {},
  "deployedLinkReferences": {}
}