{
  "_format": "hh-sol-artifact-1",
  "contractName": "AlphaHomoraV1Adapter",
  "sourceName": "contracts/release/extensions/integration-manager/integrations/adapters/AlphaHomoraV1Adapter.sol",
  "abi": [
    {
      "inputs": [
        {
          "internalType": "address",
          "name": "_integrationManager",
          "type": "address"
        },
        {
          "internalType": "address",
          "name": "_ibethToken",
          "type": "address"
        },
        {
          "internalType": "address",
          "name": "_wethToken",
          "type": "address"
        }
      ],
      "stateMutability": "nonpayable",
      "type": "constructor"
    },
    {
      "inputs": [],
      "name": "ADD_TRACKED_ASSETS_SELECTOR",
      "outputs": [
        {
          "internalType": "bytes4",
          "name": "",
          "type": "bytes4"
        }
      ],
      "stateMutability": "view",
      "type": "function"
    },
    {
      "inputs": [],
      "name": "APPROVE_ASSETS_SELECTOR",
      "outputs": [
        {
          "internalType": "bytes4",
          "name": "",
          "type": "bytes4"
        }
      ],
      "stateMutability": "view",
      "type": "function"
    },
    {
      "inputs": [],
      "name": "CLAIM_REWARDS_AND_REINVEST_SELECTOR",
      "outputs": [
        {
          "internalType": "bytes4",
          "name": "",
          "type": "bytes4"
        }
      ],
      "stateMutability": "view",
      "type": "function"
    },
    {
      "inputs": [],
      "name": "CLAIM_REWARDS_AND_SWAP_SELECTOR",
      "outputs": [
        {
          "internalType": "bytes4",
          "name": "",
          "type": "bytes4"
        }
      ],
      "stateMutability": "view",
      "type": "function"
    },
    {
      "inputs": [],
      "name": "CLAIM_REWARDS_SELECTOR",
      "outputs": [
        {
          "internalType": "bytes4",
          "name": "",
          "type": "bytes4"
        }
      ],
      "stateMutability": "view",
      "type": "function"
    },
    {
      "inputs": [],
      "name": "LEND_AND_STAKE_SELECTOR",
      "outputs": [
        {
          "internalType": "bytes4",
          "name": "",
          "type": "bytes4"
        }
      ],
      "stateMutability": "view",
      "type": "function"
    },
    {
      "inputs": [],
      "name": "LEND_SELECTOR",
      "outputs": [
        {
          "internalType": "bytes4",
          "name": "",
          "type": "bytes4"
        }
      ],
      "stateMutability": "view",
      "type": "function"
    },
    {
      "inputs": [],
      "name": "REDEEM_SELECTOR",
      "outputs": [
        {
          "internalType": "bytes4",
          "name": "",
          "type": "bytes4"
        }
      ],
      "stateMutability": "view",
      "type": "function"
    },
    {
      "inputs": [],
      "name": "STAKE_SELECTOR",
      "outputs": [
        {
          "internalType": "bytes4",
          "name": "",
          "type": "bytes4"
        }
      ],
      "stateMutability": "view",
      "type": "function"
    },
    {
      "inputs": [],
      "name": "TAKE_ORDER_SELECTOR",
      "outputs": [
        {
          "internalType": "bytes4",
          "name": "",
          "type": "bytes4"
        }
      ],
      "stateMutability": "view",
      "type": "function"
    },
    {
      "inputs": [],
      "name": "UNSTAKE_AND_REDEEM_SELECTOR",
      "outputs": [
        {
          "internalType": "bytes4",
          "name": "",
          "type": "bytes4"
        }
      ],
      "stateMutability": "view",
      "type": "function"
    },
    {
      "inputs": [],
      "name": "UNSTAKE_SELECTOR",
      "outputs": [
        {
          "internalType": "bytes4",
          "name": "",
          "type": "bytes4"
        }
      ],
      "stateMutability": "view",
      "type": "function"
    },
    {
      "inputs": [],
      "name": "getIbethToken",
      "outputs": [
        {
          "internalType": "address",
          "name": "ibethToken_",
          "type": "address"
        }
      ],
      "stateMutability": "view",
      "type": "function"
    },
    {
      "inputs": [],
      "name": "getIntegrationManager",
      "outputs": [
        {
          "internalType": "address",
          "name": "integrationManager_",
          "type": "address"
        }
      ],
      "stateMutability": "view",
      "type": "function"
    },
    {
      "inputs": [],
      "name": "getWethToken",
      "outputs": [
        {
          "internalType": "address",
          "name": "wethToken_",
          "type": "address"
        }
      ],
      "stateMutability": "view",
      "type": "function"
    },
    {
      "inputs": [],
      "name": "identifier",
      "outputs": [
        {
          "internalType": "string",
          "name": "identifier_",
          "type": "string"
        }
      ],
      "stateMutability": "pure",
      "type": "function"
    },
    {
      "inputs": [
        {
          "internalType": "address",
          "name": "_vaultProxy",
          "type": "address"
        },
        {
          "internalType": "bytes",
          "name": "_encodedCallArgs",
          "type": "bytes"
        },
        {
          "internalType": "bytes",
          "name": "_encodedAssetTransferArgs",
          "type": "bytes"
        }
      ],
      "name": "lend",
      "outputs": [],
      "stateMutability": "nonpayable",
      "type": "function"
    },
    {
      "inputs": [
        {
          "internalType": "bytes4",
          "name": "_selector",
          "type": "bytes4"
        },
        {
          "internalType": "bytes",
          "name": "_encodedCallArgs",
          "type": "bytes"
        }
      ],
      "name": "parseAssetsForMethod",
      "outputs": [
        {
          "internalType": "enum IIntegrationManager.SpendAssetsHandleType",
          "name": "spendAssetsHandleType_",
          "type": "uint8"
        },
        {
          "internalType": "address[]",
          "name": "spendAssets_",
          "type": "address[]"
        },
        {
          "internalType": "uint256[]",
          "name": "spendAssetAmounts_",
          "type": "uint256[]"
        },
        {
          "internalType": "address[]",
          "name": "incomingAssets_",
          "type": "address[]"
        },
        {
          "internalType": "uint256[]",
          "name": "minIncomingAssetAmounts_",
          "type": "uint256[]"
        }
      ],
      "stateMutability": "view",
      "type": "function"
    },
    {
      "inputs": [
        {
          "internalType": "address",
          "name": "_vaultProxy",
          "type": "address"
        },
        {
          "internalType": "bytes",
          "name": "_encodedCallArgs",
          "type": "bytes"
        },
        {
          "internalType": "bytes",
          "name": "_encodedAssetTransferArgs",
          "type": "bytes"
        }
      ],
      "name": "redeem",
      "outputs": [],
      "stateMutability": "nonpayable",
      "type": "function"
    },
    {
      "inputs": [
        {
          "internalType": "address",
          "name": "",
          "type": "address"
        },
        {
          "internalType": "bytes",
          "name": "",
          "type": "bytes"
        },
        {
          "internalType": "bytes",
          "name": "",
          "type": "bytes"
        }
      ],
      "name": "swapForRedeem",
      "outputs": [],
      "stateMutability": "nonpayable",
      "type": "function"
    },
    {
      "stateMutability": "payable",
      "type": "receive"
    }
  ],
  "bytecode": "0x60e060405234801561001057600080fd5b506040516119ab3803806119ab8339818101604052606081101561003357600080fd5b50805160208201516040909201516001600160601b0319606092831b811660805292821b831660a052901b1660c05260805160601c60a05160601c60c05160601c6118e26100c9600039806109125280610ac05280610bb35280610df652806110965250806109905280610b085280610c525280610d5752806110185250806107b05280610eeb528061114352506118e26000f3fe6080604052600436106101235760003560e01c80637998a1c4116100a0578063e27a06b511610064578063e27a06b514610718578063e4d904781461072d578063e7c4569014610742578063f075399414610757578063f7d882b51461076c5761012a565b80637998a1c4146104ae578063863e5ad0146105385780639337baac1461054d578063b23228cf14610628578063c29fa9dd1461063d5761012a565b806340da225d116100e757806340da225d1461027d5780634c252f91146102925780635ca62b3c146102c35780636ea61149146102d857806376cc7ac6146102ed5761012a565b8063080456c11461012f578063099f751514610161578063131461c01461023e578063257cb1a3146102535780633ffc1591146102685761012a565b3661012a57005b600080fd5b34801561013b57600080fd5b50610144610781565b604080516001600160e01b03199092168252519081900360200190f35b34801561016d57600080fd5b5061023c6004803603606081101561018457600080fd5b6001600160a01b038235169190810190604081016020820135600160201b8111156101ae57600080fd5b8201836020820111156101c057600080fd5b803590602001918460018302840111600160201b831117156101e157600080fd5b919390929091602081019035600160201b8111156101fe57600080fd5b82018360208201111561021057600080fd5b803590602001918460018302840111600160201b8311171561023157600080fd5b5090925090506107a5565b005b34801561024a57600080fd5b50610144610a2e565b34801561025f57600080fd5b50610144610a52565b34801561027457600080fd5b50610144610a76565b34801561028957600080fd5b50610144610a9a565b34801561029e57600080fd5b506102a7610abe565b604080516001600160a01b039092168252519081900360200190f35b3480156102cf57600080fd5b50610144610ae2565b3480156102e457600080fd5b506102a7610b06565b3480156102f957600080fd5b506103796004803603604081101561031057600080fd5b6001600160e01b03198235169190810190604081016020820135600160201b81111561033b57600080fd5b82018360208201111561034d57600080fd5b803590602001918460018302840111600160201b8311171561036e57600080fd5b509092509050610b2a565b6040518086600381111561038957fe5b815260200180602001806020018060200180602001858103855289818151815260200191508051906020019060200280838360005b838110156103d65781810151838201526020016103be565b50505050905001858103845288818151815260200191508051906020019060200280838360005b838110156104155781810151838201526020016103fd565b50505050905001858103835287818151815260200191508051906020019060200280838360005b8381101561045457818101518382015260200161043c565b50505050905001858103825286818151815260200191508051906020019060200280838360005b8381101561049357818101518382015260200161047b565b50505050905001995050505050505050505060405180910390f35b3480156104ba57600080fd5b506104c3610e68565b6040805160208082528351818301528351919283929083019185019080838360005b838110156104fd5781810151838201526020016104e5565b50505050905090810190601f16801561052a5780820380516001836020036101000a031916815260200191505b509250505060405180910390f35b34801561054457600080fd5b50610144610e91565b34801561055957600080fd5b5061023c6004803603606081101561057057600080fd5b6001600160a01b038235169190810190604081016020820135600160201b81111561059a57600080fd5b8201836020820111156105ac57600080fd5b803590602001918460018302840111600160201b831117156105cd57600080fd5b919390929091602081019035600160201b8111156105ea57600080fd5b8201836020820111156105fc57600080fd5b803590602001918460018302840111600160201b8311171561061d57600080fd5b509092509050610eb5565b34801561063457600080fd5b50610144610ebc565b34801561064957600080fd5b5061023c6004803603606081101561066057600080fd5b6001600160a01b038235169190810190604081016020820135600160201b81111561068a57600080fd5b82018360208201111561069c57600080fd5b803590602001918460018302840111600160201b831117156106bd57600080fd5b919390929091602081019035600160201b8111156106da57600080fd5b8201836020820111156106ec57600080fd5b803590602001918460018302840111600160201b8311171561070d57600080fd5b509092509050610ee0565b34801561072457600080fd5b506101446110f9565b34801561073957600080fd5b5061014461111d565b34801561074e57600080fd5b506102a7611141565b34801561076357600080fd5b50610144611165565b34801561077857600080fd5b50610144611189565b7f8334eb99be0145865eba9889fca2ee920288090caefff4cc776038e20ad9259a81565b336001600160a01b037f0000000000000000000000000000000000000000000000000000000000000000161461080c5760405162461bcd60e51b81526004018080602001828103825260328152602001806118516032913960400191505060405180910390fd5b8482828080601f016020809104026020016040519081016040528093929190818152602001838380828437600092018290525092506060915081905080610852856111ad565b92965090945092509050600184600381111561086a57fe5b14156108cc5760005b83518110156108ca576108c2873085848151811061088d57fe5b60200260200101518785815181106108a157fe5b60200260200101516001600160a01b0316611375909392919063ffffffff16565b600101610873565b505b600061090d8b8b8080601f0160208091040260200160405190810160405280939291908181526020018383808284376000920191909152506113d592505050565b5090507f00000000000000000000000000000000000000000000000000000000000000006001600160a01b0316632e1a7d4d826040518263ffffffff1660e01b815260040180828152602001915050600060405180830381600087803b15801561097657600080fd5b505af115801561098a573d6000803e3d6000fd5b505050507f00000000000000000000000000000000000000000000000000000000000000006001600160a01b031663d0e30db0306001600160a01b0316316040518263ffffffff1660e01b81526004016000604051808303818588803b1580156109f357600080fd5b505af1158015610a07573d6000803e3d6000fd5b505050505050610a178682611400565b610a218684611400565b5050505050505050505050565b7f29fa046e79524c3c5ac4c01df692c35e217802b2b13b21121b76cf0ef02b138c81565b7f099f75155f0e997bf83a7993a71d5e7e7540bd386fe1e84643a09ce6b412521981565b7ffa7dd04da627f433da73c4355ead9c75682a67a8fc84d3f6170ef0922f402d2481565b7fb9dfbaccbe5cd2a84fdcf1d15f23ef25d23086f5afbaa99516065ed4a5bbc7a381565b7f000000000000000000000000000000000000000000000000000000000000000090565b7fdfd5ee0f6067928bf85a7c4430811282840bc99332dda3dab462c02bf95b67cc81565b7f000000000000000000000000000000000000000000000000000000000000000090565b600060608080806001600160e01b0319881663099f751560e01b1415610cd557600080610b8c89898080601f0160208091040260200160405190810160405280939291908181526020018383808284376000920191909152506113d592505050565b604080516001808252818301909252929450909250602080830190803683370190505095507f000000000000000000000000000000000000000000000000000000000000000086600081518110610bdf57fe5b6001600160a01b03929092166020928302919091018201526040805160018082528183019092529182810190803683370190505094508185600081518110610c2357fe5b6020908102919091010152604080516001808252818301909252908160200160208202803683370190505093507f000000000000000000000000000000000000000000000000000000000000000084600081518110610c7e57fe5b6001600160a01b03929092166020928302919091018201526040805160018082528183019092529182810190803683370190505092508083600081518110610cc257fe5b6020026020010181815250505050610e59565b6001600160e01b0319881663c29fa9dd60e01b1415610e2257600080610d3089898080601f0160208091040260200160405190810160405280939291908181526020018383808284376000920191909152506113d592505050565b604080516001808252818301909252929450909250602080830190803683370190505095507f000000000000000000000000000000000000000000000000000000000000000086600081518110610d8357fe5b6001600160a01b03929092166020928302919091018201526040805160018082528183019092529182810190803683370190505094508185600081518110610dc757fe5b6020908102919091010152604080516001808252818301909252908160200160208202803683370190505093507f000000000000000000000000000000000000000000000000000000000000000084600081518110610c7e57fe5b60405162461bcd60e51b81526004018080602001828103825260278152602001806118046027913960400191505060405180910390fd5b60029450939792965093509350565b60408051808201909152600f81526e414c5048415f484f4d4f52415f563160881b602082015290565b7f03e38a2bd7063d45c897edeafc330e71657502dd86434d3c37a489caf116af6981565b5050505050565b7f68e30677f607df46e87da13e15b637784cfa62374b653f35ab43d10361a2f83081565b336001600160a01b037f00000000000000000000000000000000000000000000000000000000000000001614610f475760405162461bcd60e51b81526004018080602001828103825260328152602001806118516032913960400191505060405180910390fd5b8482828080601f016020809104026020016040519081016040528093929190818152602001838380828437600092018290525092506060915081905080610f8d856111ad565b929650909450925090506001846003811115610fa557fe5b1415610fd25760005b8351811015610fd057610fc8873085848151811061088d57fe5b600101610fae565b505b60006110138b8b8080601f0160208091040260200160405190810160405280939291908181526020018383808284376000920191909152506113d592505050565b5090507f00000000000000000000000000000000000000000000000000000000000000006001600160a01b0316632e1a7d4d826040518263ffffffff1660e01b815260040180828152602001915050600060405180830381600087803b15801561107c57600080fd5b505af1158015611090573d6000803e3d6000fd5b505050507f00000000000000000000000000000000000000000000000000000000000000006001600160a01b031663d0e30db0306001600160a01b0316316040518263ffffffff1660e01b81526004016000604051808303818588803b1580156109f357600080fd5b7f848f3a590fb2f9795d1a275009c54c26c53833277c96b90e0ddd01753a1d590681565b7f3377e18acf9e83665eacd6af109261424fca32a298e2fc2e6095ba563fb8390e81565b7f000000000000000000000000000000000000000000000000000000000000000090565b7f1d51f49b5273d9ddbb643dc349fab8d36dbb470209c2ea71033bea49dd311c2781565b7fc29fa9dde84204c2908778afd0613d802d31cf046179b88f6d2b4a4e507ea2d581565b600060608060608480602001905160808110156111c957600080fd5b815160208301805160405192949293830192919084600160201b8211156111ef57600080fd5b90830190602082018581111561120457600080fd5b82518660208202830111600160201b8211171561122057600080fd5b82525081516020918201928201910280838360005b8381101561124d578181015183820152602001611235565b5050505090500160405260200180516040519392919084600160201b82111561127557600080fd5b90830190602082018581111561128a57600080fd5b82518660208202830111600160201b821117156112a657600080fd5b82525081516020918201928201910280838360005b838110156112d35781810151838201526020016112bb565b5050505090500160405260200180516040519392919084600160201b8211156112fb57600080fd5b90830190602082018581111561131057600080fd5b82518660208202830111600160201b8211171561132c57600080fd5b82525081516020918201928201910280838360005b83811015611359578181015183820152602001611341565b5050505090500160405250505093509350935093509193509193565b604080516001600160a01b0380861660248301528416604482015260648082018490528251808303909101815260849091019091526020810180516001600160e01b03166323b872dd60e01b1790526113cf9085906114e1565b50505050565b6000808280602001905160408110156113ed57600080fd5b5080516020909101519092509050915091565b60005b81518110156114dc57600082828151811061141a57fe5b60200260200101516001600160a01b03166370a08231306040518263ffffffff1660e01b815260040180826001600160a01b0316815260200191505060206040518083038186803b15801561146e57600080fd5b505afa158015611482573d6000803e3d6000fd5b505050506040513d602081101561149857600080fd5b5051905080156114d3576114d384828585815181106114b357fe5b60200260200101516001600160a01b03166115929092919063ffffffff16565b50600101611403565b505050565b6060611536826040518060400160405280602081526020017f5361666545524332303a206c6f772d6c6576656c2063616c6c206661696c6564815250856001600160a01b03166115e49092919063ffffffff16565b8051909150156114dc5780806020019051602081101561155557600080fd5b50516114dc5760405162461bcd60e51b815260040180806020018281038252602a815260200180611883602a913960400191505060405180910390fd5b604080516001600160a01b038416602482015260448082018490528251808303909101815260649091019091526020810180516001600160e01b031663a9059cbb60e01b1790526114dc9084906114e1565b60606115f384846000856115fd565b90505b9392505050565b60608247101561163e5760405162461bcd60e51b815260040180806020018281038252602681526020018061182b6026913960400191505060405180910390fd5b61164785611759565b611698576040805162461bcd60e51b815260206004820152601d60248201527f416464726573733a2063616c6c20746f206e6f6e2d636f6e7472616374000000604482015290519081900360640190fd5b60006060866001600160a01b031685876040518082805190602001908083835b602083106116d75780518252601f1990920191602091820191016116b8565b6001836020036101000a03801982511681845116808217855250505050505090500191505060006040518083038185875af1925050503d8060008114611739576040519150601f19603f3d011682016040523d82523d6000602084013e61173e565b606091505b509150915061174e82828661175f565b979650505050505050565b3b151590565b6060831561176e5750816115f6565b82511561177e5782518084602001fd5b8160405162461bcd60e51b81526004018080602001828103825283818151815260200191508051906020019080838360005b838110156117c85781810151838201526020016117b0565b50505050905090810190601f1680156117f55780820380516001836020036101000a031916815260200191505b509250505060405180910390fdfe7061727365417373657473466f724d6574686f643a205f73656c6563746f7220696e76616c6964416464726573733a20696e73756666696369656e742062616c616e636520666f722063616c6c4f6e6c792074686520496e746567726174696f6e4d616e616765722063616e2063616c6c20746869732066756e6374696f6e5361666545524332303a204552433230206f7065726174696f6e20646964206e6f742073756363656564a26469706673582212208ae4285a6d36507949ca808d53add8745d76a3b1829582d862bc734aebad49ec64736f6c634300060c0033",
  "linkReferences": {},
  "deployedLinkReferences": {}
}