{
  "_format": "hh-sol-artifact-1",
  "contractName": "MockUniswapV2Integratee",
  "sourceName": "contracts/mocks/integratees/MockUniswapV2Integratee.sol",
  "abi": [
    {
      "inputs": [
        {
          "internalType": "address[]",
          "name": "_listOfToken0",
          "type": "address[]"
        },
        {
          "internalType": "address[]",
          "name": "_listOfToken1",
          "type": "address[]"
        },
        {
          "internalType": "address[]",
          "name": "_listOfPair",
          "type": "address[]"
        },
        {
          "internalType": "address",
          "name": "_centralizedRateProvider",
          "type": "address"
        },
        {
          "internalType": "uint256",
          "name": "_blockNumberDeviation",
          "type": "uint256"
        }
      ],
      "stateMutability": "nonpayable",
      "type": "constructor"
    },
    {
      "anonymous": false,
      "inputs": [
        {
          "indexed": true,
          "internalType": "address",
          "name": "previousOwner",
          "type": "address"
        },
        {
          "indexed": true,
          "internalType": "address",
          "name": "newOwner",
          "type": "address"
        }
      ],
      "name": "OwnershipTransferred",
      "type": "event"
    },
    {
      "inputs": [],
      "name": "ETH_ADDRESS",
      "outputs": [
        {
          "internalType": "address",
          "name": "",
          "type": "address"
        }
      ],
      "stateMutability": "view",
      "type": "function"
    },
    {
      "inputs": [
        {
          "internalType": "address",
          "name": "_tokenA",
          "type": "address"
        },
        {
          "internalType": "address",
          "name": "_tokenB",
          "type": "address"
        },
        {
          "internalType": "uint256",
          "name": "_amountADesired",
          "type": "uint256"
        },
        {
          "internalType": "uint256",
          "name": "_amountBDesired",
          "type": "uint256"
        },
        {
          "internalType": "uint256",
          "name": "",
          "type": "uint256"
        },
        {
          "internalType": "uint256",
          "name": "",
          "type": "uint256"
        },
        {
          "internalType": "address",
          "name": "",
          "type": "address"
        },
        {
          "internalType": "uint256",
          "name": "",
          "type": "uint256"
        }
      ],
      "name": "addLiquidity",
      "outputs": [
        {
          "internalType": "uint256",
          "name": "",
          "type": "uint256"
        },
        {
          "internalType": "uint256",
          "name": "",
          "type": "uint256"
        },
        {
          "internalType": "uint256",
          "name": "",
          "type": "uint256"
        }
      ],
      "stateMutability": "nonpayable",
      "type": "function"
    },
    {
      "inputs": [
        {
          "internalType": "address[]",
          "name": "_listOfToken0",
          "type": "address[]"
        },
        {
          "internalType": "address[]",
          "name": "_listOfToken1",
          "type": "address[]"
        },
        {
          "internalType": "address[]",
          "name": "_listOfPair",
          "type": "address[]"
        }
      ],
      "name": "addPair",
      "outputs": [],
      "stateMutability": "nonpayable",
      "type": "function"
    },
    {
      "inputs": [],
      "name": "feeTo",
      "outputs": [
        {
          "internalType": "address",
          "name": "",
          "type": "address"
        }
      ],
      "stateMutability": "pure",
      "type": "function"
    },
    {
      "inputs": [
        {
          "internalType": "uint256",
          "name": "_amountIn",
          "type": "uint256"
        },
        {
          "internalType": "address[]",
          "name": "_path",
          "type": "address[]"
        }
      ],
      "name": "getAmountsOut",
      "outputs": [
        {
          "internalType": "uint256[]",
          "name": "amounts_",
          "type": "uint256[]"
        }
      ],
      "stateMutability": "nonpayable",
      "type": "function"
    },
    {
      "inputs": [],
      "name": "getBlockNumberDeviation",
      "outputs": [
        {
          "internalType": "uint256",
          "name": "",
          "type": "uint256"
        }
      ],
      "stateMutability": "view",
      "type": "function"
    },
    {
      "inputs": [],
      "name": "getCentralizedRateProvider",
      "outputs": [
        {
          "internalType": "address",
          "name": "",
          "type": "address"
        }
      ],
      "stateMutability": "view",
      "type": "function"
    },
    {
      "inputs": [
        {
          "internalType": "address",
          "name": "_token0",
          "type": "address"
        },
        {
          "internalType": "address",
          "name": "_token1",
          "type": "address"
        }
      ],
      "name": "getPair",
      "outputs": [
        {
          "internalType": "address",
          "name": "",
          "type": "address"
        }
      ],
      "stateMutability": "view",
      "type": "function"
    },
    {
      "inputs": [],
      "name": "getPrecision",
      "outputs": [
        {
          "internalType": "uint256",
          "name": "",
          "type": "uint256"
        }
      ],
      "stateMutability": "pure",
      "type": "function"
    },
    {
      "inputs": [],
      "name": "owner",
      "outputs": [
        {
          "internalType": "address",
          "name": "",
          "type": "address"
        }
      ],
      "stateMutability": "view",
      "type": "function"
    },
    {
      "inputs": [
        {
          "internalType": "address",
          "name": "_tokenA",
          "type": "address"
        },
        {
          "internalType": "address",
          "name": "_tokenB",
          "type": "address"
        },
        {
          "internalType": "uint256",
          "name": "_liquidity",
          "type": "uint256"
        },
        {
          "internalType": "uint256",
          "name": "",
          "type": "uint256"
        },
        {
          "internalType": "uint256",
          "name": "",
          "type": "uint256"
        },
        {
          "internalType": "address",
          "name": "",
          "type": "address"
        },
        {
          "internalType": "uint256",
          "name": "",
          "type": "uint256"
        }
      ],
      "name": "removeLiquidity",
      "outputs": [
        {
          "internalType": "uint256",
          "name": "",
          "type": "uint256"
        },
        {
          "internalType": "uint256",
          "name": "",
          "type": "uint256"
        }
      ],
      "stateMutability": "nonpayable",
      "type": "function"
    },
    {
      "inputs": [],
      "name": "renounceOwnership",
      "outputs": [],
      "stateMutability": "nonpayable",
      "type": "function"
    },
    {
      "inputs": [
        {
          "internalType": "uint256",
          "name": "_deviationPct",
          "type": "uint256"
        }
      ],
      "name": "setBlockNumberDeviation",
      "outputs": [],
      "stateMutability": "nonpayable",
      "type": "function"
    },
    {
      "inputs": [
        {
          "internalType": "uint256",
          "name": "amountIn",
          "type": "uint256"
        },
        {
          "internalType": "uint256",
          "name": "",
          "type": "uint256"
        },
        {
          "internalType": "address[]",
          "name": "path",
          "type": "address[]"
        },
        {
          "internalType": "address",
          "name": "",
          "type": "address"
        },
        {
          "internalType": "uint256",
          "name": "",
          "type": "uint256"
        }
      ],
      "name": "swapExactTokensForTokens",
      "outputs": [
        {
          "internalType": "uint256[]",
          "name": "",
          "type": "uint256[]"
        }
      ],
      "stateMutability": "nonpayable",
      "type": "function"
    },
    {
      "inputs": [
        {
          "internalType": "address",
          "name": "newOwner",
          "type": "address"
        }
      ],
      "name": "transferOwnership",
      "outputs": [],
      "stateMutability": "nonpayable",
      "type": "function"
    },
    {
      "stateMutability": "payable",
      "type": "receive"
    }
  ],
  "bytecode": "0x60a06040523480156200001157600080fd5b50604051620024e0380380620024e0833981810160405260a08110156200003757600080fd5b81019080805160405193929190846401000000008211156200005857600080fd5b9083019060208201858111156200006e57600080fd5b82518660208202830111640100000000821117156200008c57600080fd5b82525081516020918201928201910280838360005b83811015620000bb578181015183820152602001620000a1565b5050505090500160405260200180516040519392919084640100000000821115620000e557600080fd5b908301906020820185811115620000fb57600080fd5b82518660208202830111640100000000821117156200011957600080fd5b82525081516020918201928201910280838360005b83811015620001485781810151838201526020016200012e565b50505050905001604052602001805160405193929190846401000000008211156200017257600080fd5b9083019060208201858111156200018857600080fd5b8251866020820283011164010000000082111715620001a657600080fd5b82525081516020918201928201910280838360005b83811015620001d5578181015183820152602001620001bb565b50505050919091016040908152602083015192015191935090915060009050620001fe62000275565b600080546001600160a01b0319166001600160a01b0383169081178255604051929350917f8be0079c531659141344cd1fd0a4f28419497f9722a3daafe3b4186f6b6457e0908290a3506200025585858562000279565b60609190911b6001600160601b0319166080526002555062000447915050565b3390565b6200028362000275565b6001600160a01b03166200029662000438565b6001600160a01b031614620002f2576040805162461bcd60e51b815260206004820181905260248201527f4f776e61626c653a2063616c6c6572206973206e6f7420746865206f776e6572604482015290519081900360640190fd5b8251815114620003345760405162461bcd60e51b81526004018080602001828103825260418152602001806200245e6041913960600191505060405180910390fd5b8151815114620003765760405162461bcd60e51b81526004018080602001828103825260418152602001806200249f6041913960600191505060405180910390fd5b60005b8151811015620004325760008482815181106200039257fe5b602002602001015190506000848381518110620003ab57fe5b602002602001015190506000848481518110620003c457fe5b6020908102919091018101516001600160a01b0394851660008181526001808552604080832097891683529685528682208054989094166001600160a01b03199889168117909455808552868220928252919093529390912080549094161790925591909101905062000379565b50505050565b6000546001600160a01b031690565b60805160601c611fd6620004886000398061066e5280610b595280610de65280610fbd5280611080528061140752806114f052806115bc5250611fd66000f3fe6080604052600436106100ec5760003560e01c80639670c0bc1161008a578063e6a4390511610059578063e6a4390514610560578063e8e337001461059b578063f2fde38b1461061b578063fc3e06c91461064e576100f3565b80639670c0bc1461043e578063a734f06e14610453578063baa2abde14610468578063d06ca61f146104de576100f3565b80635e80eff5116100c65780635e80eff5146102365780636391d489146103ea578063715018a6146104145780638da5cb5b14610429576100f3565b8063017e7e58146100f857806338ed17391461012957806339c7066c1461020f576100f3565b366100f357005b600080fd5b34801561010457600080fd5b5061010d610663565b604080516001600160a01b039092168252519081900360200190f35b34801561013557600080fd5b506101bf600480360360a081101561014c57600080fd5b813591602081013591810190606081016040820135600160201b81111561017257600080fd5b82018360208201111561018457600080fd5b803590602001918460208302840111600160201b831117156101a557600080fd5b91935091506001600160a01b038135169060200135610668565b60408051602080825283518183015283519192839290830191858101910280838360005b838110156101fb5781810151838201526020016101e3565b505050509050019250505060405180910390f35b34801561021b57600080fd5b506102246107b8565b60408051918252519081900360200190f35b34801561024257600080fd5b506103e86004803603606081101561025957600080fd5b810190602081018135600160201b81111561027357600080fd5b82018360208201111561028557600080fd5b803590602001918460208302840111600160201b831117156102a657600080fd5b9190808060200260200160405190810160405280939291908181526020018383602002808284376000920191909152509295949360208101935035915050600160201b8111156102f557600080fd5b82018360208201111561030757600080fd5b803590602001918460208302840111600160201b8311171561032857600080fd5b9190808060200260200160405190810160405280939291908181526020018383602002808284376000920191909152509295949360208101935035915050600160201b81111561037757600080fd5b82018360208201111561038957600080fd5b803590602001918460208302840111600160201b831117156103aa57600080fd5b9190808060200260200160405190810160405280939291908181526020018383602002808284376000920191909152509295506107be945050505050565b005b3480156103f657600080fd5b506103e86004803603602081101561040d57600080fd5b503561095d565b34801561042057600080fd5b506103e86109c4565b34801561043557600080fd5b5061010d610a70565b34801561044a57600080fd5b50610224610a7f565b34801561045f57600080fd5b5061010d610a84565b34801561047457600080fd5b506104c5600480360360e081101561048b57600080fd5b506001600160a01b038135811691602081013582169160408201359160608101359160808201359160a08101359091169060c00135610a9c565b6040805192835260208301919091528051918290030190f35b3480156104ea57600080fd5b506101bf6004803603604081101561050157600080fd5b81359190810190604081016020820135600160201b81111561052257600080fd5b82018360208201111561053457600080fd5b803590602001918460208302840111600160201b8311171561055557600080fd5b509092509050610ab6565b34801561056c57600080fd5b5061010d6004803603604081101561058357600080fd5b506001600160a01b0381358116916020013516610c94565b3480156105a757600080fd5b506105fd60048036036101008110156105bf57600080fd5b506001600160a01b038135811691602081013582169160408201359160608101359160808201359160a08101359160c0820135169060e00135610cc3565b60408051938452602084019290925282820152519081900360600190f35b34801561062757600080fd5b506103e86004803603602081101561063e57600080fd5b50356001600160a01b0316610ce2565b34801561065a57600080fd5b5061010d610de4565b600090565b606060007f00000000000000000000000000000000000000000000000000000000000000006001600160a01b03166365011dd1878760008181106106a857fe5b905060200201356001600160a01b03168a898960018181106106c657fe5b905060200201356001600160a01b03166002546040518563ffffffff1660e01b815260040180856001600160a01b03168152602001848152602001836001600160a01b03168152602001828152602001945050505050602060405180830381600087803b15801561073657600080fd5b505af115801561074a573d6000803e3d6000fd5b505050506040513d602081101561076057600080fd5b505190506107ac33878760008161077357fe5b905060200201356001600160a01b03168a898960018c8c90500381811061079657fe5b905060200201356001600160a01b031685610e08565b50509695505050505050565b60025490565b6107c6610f4c565b6001600160a01b03166107d7610a70565b6001600160a01b031614610820576040805162461bcd60e51b81526020600482018190526024820152600080516020611e19833981519152604482015290519081900360640190fd5b82518151146108605760405162461bcd60e51b8152600401808060200182810382526041815260200180611d456041913960600191505060405180910390fd5b81518151146108a05760405162461bcd60e51b8152600401808060200182810382526041815260200180611d866041913960600191505060405180910390fd5b60005b81518110156109575760008482815181106108ba57fe5b6020026020010151905060008483815181106108d257fe5b6020026020010151905060008484815181106108ea57fe5b6020908102919091018101516001600160a01b0394851660008181526001808552604080832097891683529685528682208054989094166001600160a01b0319988916811790945580855286822092825291909352939091208054909416179092559190910190506108a3565b50505050565b610965610f4c565b6001600160a01b0316610976610a70565b6001600160a01b0316146109bf576040805162461bcd60e51b81526020600482018190526024820152600080516020611e19833981519152604482015290519081900360640190fd5b600255565b6109cc610f4c565b6001600160a01b03166109dd610a70565b6001600160a01b031614610a26576040805162461bcd60e51b81526020600482018190526024820152600080516020611e19833981519152604482015290519081900360640190fd5b600080546040516001600160a01b03909116907f8be0079c531659141344cd1fd0a4f28419497f9722a3daafe3b4186f6b6457e0908390a3600080546001600160a01b0319169055565b6000546001600160a01b031690565b601290565b73eeeeeeeeeeeeeeeeeeeeeeeeeeeeeeeeeeeeeeee81565b600080610aaa898989610f50565b97509795505050505050565b60606002821015610b0e576040805162461bcd60e51b815260206004820181905260248201527f676574416d6f756e74734f75743a2070617468206d757374206265203e3d2032604482015290519081900360640190fd5b600083836000818110610b1d57fe5b905060200201356001600160a01b031690506000848460018787905003818110610b4357fe5b905060200201356001600160a01b0316905060007f00000000000000000000000000000000000000000000000000000000000000006001600160a01b031663c5c031c98489856040518463ffffffff1660e01b815260040180846001600160a01b03168152602001838152602001826001600160a01b031681526020019350505050602060405180830381600087803b158015610bdf57600080fd5b505af1158015610bf3573d6000803e3d6000fd5b505050506040513d6020811015610c0957600080fd5b505190508467ffffffffffffffff81118015610c2457600080fd5b50604051908082528060200260200182016040528015610c4e578160200160208202803683370190505b5093508684600081518110610c5f57fe5b60200260200101818152505080846001888890500381518110610c7e57fe5b6020026020010181815250505050509392505050565b6001600160a01b0380831660009081526001602090815260408083208585168452909152902054165b92915050565b6000806000610cd48b8b8b8b6113f2565b985098509895505050505050565b610cea610f4c565b6001600160a01b0316610cfb610a70565b6001600160a01b031614610d44576040805162461bcd60e51b81526020600482018190526024820152600080516020611e19833981519152604482015290519081900360640190fd5b6001600160a01b038116610d895760405162461bcd60e51b8152600401808060200182810382526026815260200180611d1f6026913960400191505060405180910390fd5b600080546040516001600160a01b03808516939216917f8be0079c531659141344cd1fd0a4f28419497f9722a3daafe3b4186f6b6457e091a3600080546001600160a01b0319166001600160a01b0392909216919091179055565b7f000000000000000000000000000000000000000000000000000000000000000090565b60408051600180825281830190925260009160609190602080830190803683370190505090508581600081518110610e3c57fe5b6001600160a01b0392909216602092830291909101909101526040805160018082528183019092526060918160200160208202803683370190505090508581600081518110610e8757fe5b60209081029190910101526040805160018082528183019092526060918160200160208202803683370190505090508581600081518110610ec457fe5b6001600160a01b0392909216602092830291909101909101526040805160018082528183019092526060918160200160208202803683370190505090508581600081518110610f0f57fe5b602002602001018181525050610f288a858585856118ac565b80600081518110610f3557fe5b602002602001015194505050505095945050505050565b3390565b6001600160a01b03808416600090815260016020908152604080832086851684529091529020541680610fb45760405162461bcd60e51b815260040180806020018281038252602a815260200180611ef0602a913960400191505060405180910390fd5b600061107560027f00000000000000000000000000000000000000000000000000000000000000006001600160a01b0316637733db7d85878a6040518463ffffffff1660e01b815260040180846001600160a01b03168152602001838152602001826001600160a01b031681526020019350505050602060405180830381600087803b15801561104357600080fd5b505af1158015611057573d6000803e3d6000fd5b505050506040513d602081101561106d57600080fd5b505190611bfa565b9050600061110660027f00000000000000000000000000000000000000000000000000000000000000006001600160a01b0316637733db7d86888a6040518463ffffffff1660e01b815260040180846001600160a01b03168152602001838152602001826001600160a01b031681526020019350505050602060405180830381600087803b15801561104357600080fd5b60408051600180825281830190925291925060609190602080830190803683375050604080516001808252818301909252929350606092915060208083019080368337505060408051600280825260608083018452949550909250906020830190803683375050604080516002808252606080830184529495509092509060208301908036833701905050905086846000815181106111a157fe5b60200260200101906001600160a01b031690816001600160a01b03168152505087836000815181106111cf57fe5b60200260200101818152505089826000815181106111e957fe5b60200260200101906001600160a01b031690816001600160a01b031681525050858160008151811061121757fe5b602002602001018181525050888260018151811061123157fe5b60200260200101906001600160a01b031690816001600160a01b031681525050848160018151811061125f57fe5b602002602001018181525050858a6001600160a01b03166370a08231306040518263ffffffff1660e01b815260040180826001600160a01b0316815260200191505060206040518083038186803b1580156112b957600080fd5b505afa1580156112cd573d6000803e3d6000fd5b505050506040513d60208110156112e357600080fd5b505110156113225760405162461bcd60e51b815260040180806020018281038252605d815260200180611cc2605d913960600191505060405180910390fd5b85896001600160a01b03166370a08231306040518263ffffffff1660e01b815260040180826001600160a01b0316815260200191505060206040518083038186803b15801561137057600080fd5b505afa158015611384573d6000803e3d6000fd5b505050506040513d602081101561139a57600080fd5b505110156113d95760405162461bcd60e51b815260040180806020018281038252605d815260200180611f1a605d913960600191505060405180910390fd5b6113e633858585856118ac565b50505050505050505050565b60006113fe8585610c94565b905060008060007f00000000000000000000000000000000000000000000000000000000000000006001600160a01b0316637733db7d89888a6040518463ffffffff1660e01b815260040180846001600160a01b03168152602001838152602001826001600160a01b031681526020019350505050602060405180830381600087803b15801561148d57600080fd5b505af11580156114a1573d6000803e3d6000fd5b505050506040513d60208110156114b757600080fd5b505160408051637733db7d60e01b81526001600160a01b038a81166004830152602482018990528b8116604483015291519293506000927f000000000000000000000000000000000000000000000000000000000000000090921691637733db7d9160648082019260209290919082900301818787803b15801561153a57600080fd5b505af115801561154e573d6000803e3d6000fd5b505050506040513d602081101561156457600080fd5b5051905085821061157a57809350859250611581565b8693508192505b60408051637733db7d60e01b81526001600160a01b038781166004830152670de0b6b3a764000060248301528b8116604483015291516000927f00000000000000000000000000000000000000000000000000000000000000001691637733db7d91606480830192602092919082900301818787803b15801561160357600080fd5b505af1158015611617573d6000803e3d6000fd5b505050506040513d602081101561162d57600080fd5b50519050600061164f82611649670de0b6b3a764000080611c61565b90611bfa565b9050600061167461166c670de0b6b3a76400006116498a86611c61565b600290611c61565b905080886001600160a01b03166370a08231306040518263ffffffff1660e01b815260040180826001600160a01b0316815260200191505060206040518083038186803b1580156116c457600080fd5b505afa1580156116d8573d6000803e3d6000fd5b505050506040513d60208110156116ee57600080fd5b5051101561172d5760405162461bcd60e51b8152600401808060200182810382526058815260200180611e396058913960600191505060405180910390fd5b604080516002808252606080830184529260208301908036833750506040805160028082526060808301845294955090925090602083019080368337505060408051600180825281830190925292935060609291506020808301908036833750506040805160018082528183019092529293506060929150602080830190803683370190505090508f846000815181106117c357fe5b60200260200101906001600160a01b031690816001600160a01b0316815250508a836000815181106117f157fe5b6020026020010181815250508e8460018151811061180b57fe5b60200260200101906001600160a01b031690816001600160a01b031681525050898360018151811061183957fe5b6020026020010181815250508b8260008151811061185357fe5b60200260200101906001600160a01b031690816001600160a01b031681525050848160008151811061188157fe5b60200260200101818152505061189a33858585856118ac565b50505050505050505050505050505050565b60005b8451811015611a355760008582815181106118c657fe5b6020026020010151905060008583815181106118de57fe5b6020026020010151905060006001600160a01b0316826001600160a01b0316141561193a5760405162461bcd60e51b815260040180806020018281038252602a815260200180611f77602a913960400191505060405180910390fd5b600081116119795760405162461bcd60e51b8152600401808060200182810382526031815260200180611dc76031913960400191505060405180910390fd5b6001600160a01b03821673eeeeeeeeeeeeeeeeeeeeeeeeeeeeeeeeeeeeeeee14156119a5575050611a2d565b604080516323b872dd60e01b81526001600160a01b038a81166004830152306024830152604482018490529151918416916323b872dd916064808201926020929091908290030181600087803b1580156119fe57600080fd5b505af1158015611a12573d6000803e3d6000fd5b505050506040513d6020811015611a2857600080fd5b505050505b6001016118af565b5060005b8251811015611bf2576000838281518110611a5057fe5b602002602001015190506000838381518110611a6857fe5b6020026020010151905060006001600160a01b0316826001600160a01b03161415611ac45760405162461bcd60e51b815260040180806020018281038252602c815260200180611e91602c913960400191505060405180910390fd5b60008111611b035760405162461bcd60e51b8152600401808060200182810382526033815260200180611ebd6033913960400191505060405180910390fd5b6001600160a01b03821673eeeeeeeeeeeeeeeeeeeeeeeeeeeeeeeeeeeeeeee1415611b64576040516001600160a01b0389169082156108fc029083906000818181858888f19350505050158015611b5e573d6000803e3d6000fd5b50611be8565b816001600160a01b031663a9059cbb89836040518363ffffffff1660e01b815260040180836001600160a01b0316815260200182815260200192505050602060405180830381600087803b158015611bbb57600080fd5b505af1158015611bcf573d6000803e3d6000fd5b505050506040513d6020811015611be557600080fd5b50505b5050600101611a39565b505050505050565b6000808211611c50576040805162461bcd60e51b815260206004820152601a60248201527f536166654d6174683a206469766973696f6e206279207a65726f000000000000604482015290519081900360640190fd5b818381611c5957fe5b049392505050565b600082611c7057506000610cbd565b82820282848281611c7d57fe5b0414611cba5760405162461bcd60e51b8152600401808060200182810382526021815260200180611df86021913960400191505060405180910390fd5b939250505056fe5f5f72656d6f76654c69717569646974793a20496e746567726174656520646f65736e2774206861766520656e6f75676820746f6b656e412062616c616e636520746f20636f7665722074686520657870656374656420616d6f756e744f776e61626c653a206e6577206f776e657220697320746865207a65726f2061646472657373636f6e7374727563746f723a205f6c6973744f665061697220616e64205f6c6973744f66546f6b656e30206861766520616e20756e657175616c206c656e677468636f6e7374727563746f723a205f6c6973744f665061697220616e64205f6c6973744f66546f6b656e31206861766520616e20756e657175616c206c656e6774685f5f737761703a20656d7074792076616c756520696e205f617373657473546f496e7465677261746565416d6f756e7473536166654d6174683a206d756c7469706c69636174696f6e206f766572666c6f774f776e61626c653a2063616c6c6572206973206e6f7420746865206f776e65725f5f6164644c69717569646974793a20496e746567726174656520646f65736e2774206861766520656e6f75676820706169722062616c616e636520746f20636f7665722074686520657870656374656420616d6f756e745f5f737761703a20656d7074792076616c756520696e205f61737365747346726f6d496e74656772617465655f5f737761703a20656d7074792076616c756520696e205f61737365747346726f6d496e7465677261746565416d6f756e74735f5f72656d6f76654c69717569646974793a2074686973207061697220646f65736e27742065786973745f5f72656d6f76654c69717569646974793a20496e746567726174656520646f65736e2774206861766520656e6f75676820746f6b656e422062616c616e636520746f20636f7665722074686520657870656374656420616d6f756e745f5f737761703a20656d7074792076616c756520696e205f617373657473546f496e7465677261746565a2646970667358221220b267ebbcf923aba48163b546b4eacdad36852c5f1b95c3730e59c338b168001664736f6c634300060c0033636f6e7374727563746f723a205f6c6973744f665061697220616e64205f6c6973744f66546f6b656e30206861766520616e20756e657175616c206c656e677468636f6e7374727563746f723a205f6c6973744f665061697220616e64205f6c6973744f66546f6b656e31206861766520616e20756e657175616c206c656e677468",
  "linkReferences": {},
  "deployedLinkReferences": {}
}