{
  "_format": "hh-sol-artifact-1",
  "contractName": "MockToken",
  "sourceName": "contracts/mocks/tokens/MockToken.sol",
  "abi": [
    {
      "inputs": [
        {
          "internalType": "string",
          "name": "_name",
          "type": "string"
        },
        {
          "internalType": "string",
          "name": "_symbol",
          "type": "string"
        },
        {
          "internalType": "uint8",
          "name": "_decimals",
          "type": "uint8"
        }
      ],
      "stateMutability": "nonpayable",
      "type": "constructor"
    },
    {
      "anonymous": false,
      "inputs": [
        {
          "indexed": true,
          "internalType": "address",
          "name": "owner",
          "type": "address"
        },
        {
          "indexed": true,
          "internalType": "address",
          "name": "spender",
          "type": "address"
        },
        {
          "indexed": false,
          "internalType": "uint256",
          "name": "value",
          "type": "uint256"
        }
      ],
      "name": "Approval",
      "type": "event"
    },
    {
      "anonymous": false,
      "inputs": [
        {
          "indexed": true,
          "internalType": "address",
          "name": "previousOwner",
          "type": "address"
        },
        {
          "indexed": true,
          "internalType": "address",
          "name": "newOwner",
          "type": "address"
        }
      ],
      "name": "OwnershipTransferred",
      "type": "event"
    },
    {
      "anonymous": false,
      "inputs": [
        {
          "indexed": true,
          "internalType": "address",
          "name": "from",
          "type": "address"
        },
        {
          "indexed": true,
          "internalType": "address",
          "name": "to",
          "type": "address"
        },
        {
          "indexed": false,
          "internalType": "uint256",
          "name": "value",
          "type": "uint256"
        }
      ],
      "name": "Transfer",
      "type": "event"
    },
    {
      "inputs": [
        {
          "internalType": "address[]",
          "name": "_minters",
          "type": "address[]"
        }
      ],
      "name": "addMinters",
      "outputs": [],
      "stateMutability": "nonpayable",
      "type": "function"
    },
    {
      "inputs": [
        {
          "internalType": "address",
          "name": "owner",
          "type": "address"
        },
        {
          "internalType": "address",
          "name": "spender",
          "type": "address"
        }
      ],
      "name": "allowance",
      "outputs": [
        {
          "internalType": "uint256",
          "name": "",
          "type": "uint256"
        }
      ],
      "stateMutability": "view",
      "type": "function"
    },
    {
      "inputs": [
        {
          "internalType": "address",
          "name": "spender",
          "type": "address"
        },
        {
          "internalType": "uint256",
          "name": "amount",
          "type": "uint256"
        }
      ],
      "name": "approve",
      "outputs": [
        {
          "internalType": "bool",
          "name": "",
          "type": "bool"
        }
      ],
      "stateMutability": "nonpayable",
      "type": "function"
    },
    {
      "inputs": [
        {
          "internalType": "address",
          "name": "account",
          "type": "address"
        }
      ],
      "name": "balanceOf",
      "outputs": [
        {
          "internalType": "uint256",
          "name": "",
          "type": "uint256"
        }
      ],
      "stateMutability": "view",
      "type": "function"
    },
    {
      "inputs": [
        {
          "internalType": "uint256",
          "name": "amount",
          "type": "uint256"
        }
      ],
      "name": "burn",
      "outputs": [],
      "stateMutability": "nonpayable",
      "type": "function"
    },
    {
      "inputs": [
        {
          "internalType": "address",
          "name": "account",
          "type": "address"
        },
        {
          "internalType": "uint256",
          "name": "amount",
          "type": "uint256"
        }
      ],
      "name": "burnFrom",
      "outputs": [],
      "stateMutability": "nonpayable",
      "type": "function"
    },
    {
      "inputs": [],
      "name": "decimals",
      "outputs": [
        {
          "internalType": "uint8",
          "name": "",
          "type": "uint8"
        }
      ],
      "stateMutability": "view",
      "type": "function"
    },
    {
      "inputs": [
        {
          "internalType": "address",
          "name": "spender",
          "type": "address"
        },
        {
          "internalType": "uint256",
          "name": "subtractedValue",
          "type": "uint256"
        }
      ],
      "name": "decreaseAllowance",
      "outputs": [
        {
          "internalType": "bool",
          "name": "",
          "type": "bool"
        }
      ],
      "stateMutability": "nonpayable",
      "type": "function"
    },
    {
      "inputs": [
        {
          "internalType": "address",
          "name": "spender",
          "type": "address"
        },
        {
          "internalType": "uint256",
          "name": "addedValue",
          "type": "uint256"
        }
      ],
      "name": "increaseAllowance",
      "outputs": [
        {
          "internalType": "bool",
          "name": "",
          "type": "bool"
        }
      ],
      "stateMutability": "nonpayable",
      "type": "function"
    },
    {
      "inputs": [
        {
          "internalType": "uint256",
          "name": "_amount",
          "type": "uint256"
        }
      ],
      "name": "mint",
      "outputs": [],
      "stateMutability": "nonpayable",
      "type": "function"
    },
    {
      "inputs": [
        {
          "internalType": "address",
          "name": "_who",
          "type": "address"
        },
        {
          "internalType": "uint256",
          "name": "_amount",
          "type": "uint256"
        }
      ],
      "name": "mintFor",
      "outputs": [],
      "stateMutability": "nonpayable",
      "type": "function"
    },
    {
      "inputs": [],
      "name": "name",
      "outputs": [
        {
          "internalType": "string",
          "name": "",
          "type": "string"
        }
      ],
      "stateMutability": "view",
      "type": "function"
    },
    {
      "inputs": [],
      "name": "owner",
      "outputs": [
        {
          "internalType": "address",
          "name": "",
          "type": "address"
        }
      ],
      "stateMutability": "view",
      "type": "function"
    },
    {
      "inputs": [],
      "name": "renounceOwnership",
      "outputs": [],
      "stateMutability": "nonpayable",
      "type": "function"
    },
    {
      "inputs": [],
      "name": "symbol",
      "outputs": [
        {
          "internalType": "string",
          "name": "",
          "type": "string"
        }
      ],
      "stateMutability": "view",
      "type": "function"
    },
    {
      "inputs": [],
      "name": "totalSupply",
      "outputs": [
        {
          "internalType": "uint256",
          "name": "",
          "type": "uint256"
        }
      ],
      "stateMutability": "view",
      "type": "function"
    },
    {
      "inputs": [
        {
          "internalType": "address",
          "name": "recipient",
          "type": "address"
        },
        {
          "internalType": "uint256",
          "name": "amount",
          "type": "uint256"
        }
      ],
      "name": "transfer",
      "outputs": [
        {
          "internalType": "bool",
          "name": "",
          "type": "bool"
        }
      ],
      "stateMutability": "nonpayable",
      "type": "function"
    },
    {
      "inputs": [
        {
          "internalType": "address",
          "name": "sender",
          "type": "address"
        },
        {
          "internalType": "address",
          "name": "recipient",
          "type": "address"
        },
        {
          "internalType": "uint256",
          "name": "amount",
          "type": "uint256"
        }
      ],
      "name": "transferFrom",
      "outputs": [
        {
          "internalType": "bool",
          "name": "",
          "type": "bool"
        }
      ],
      "stateMutability": "nonpayable",
      "type": "function"
    },
    {
      "inputs": [
        {
          "internalType": "address",
          "name": "newOwner",
          "type": "address"
        }
      ],
      "name": "transferOwnership",
      "outputs": [],
      "stateMutability": "nonpayable",
      "type": "function"
    }
  ],
  "bytecode": "0x60806040523480156200001157600080fd5b50604051620018bf380380620018bf833981810160405260608110156200003757600080fd5b81019080805160405193929190846401000000008211156200005857600080fd5b9083019060208201858111156200006e57600080fd5b82516401000000008111828201881017156200008957600080fd5b82525081516020918201929091019080838360005b83811015620000b85781810151838201526020016200009e565b50505050905090810190601f168015620000e65780820380516001836020036101000a031916815260200191505b50604052602001805160405193929190846401000000008211156200010a57600080fd5b9083019060208201858111156200012057600080fd5b82516401000000008111828201881017156200013b57600080fd5b82525081516020918201929091019080838360005b838110156200016a57818101518382015260200162000150565b50505050905090810190601f168015620001985780820380516001836020036101000a031916815260200191505b5060405260209081015185519093508592508491620001bd9160039185019062000478565b508051620001d390600490602084019062000478565b50506005805460ff19166012179055506000620001ef62000288565b60058054610100600160a81b0319166101006001600160a01b03841690810291909117909155604051919250906000907f8be0079c531659141344cd1fd0a4f28419497f9722a3daafe3b4186f6b6457e0908290a35062000250816200028c565b6200027f33620002798360ff16600a0a6305f5e100620002a260201b62000b8f1790919060201c565b62000309565b50505062000514565b3390565b6005805460ff191660ff92909216919091179055565b600082620002b35750600062000303565b82820282848281620002c157fe5b0414620003005760405162461bcd60e51b81526004018080602001828103825260218152602001806200189e6021913960400191505060405180910390fd5b90505b92915050565b6001600160a01b03821662000365576040805162461bcd60e51b815260206004820152601f60248201527f45524332303a206d696e7420746f20746865207a65726f206164647265737300604482015290519081900360640190fd5b620003736000838362000418565b6200038f816002546200041d60201b62000bef1790919060201c565b6002556001600160a01b03821660009081526020818152604090912054620003c291839062000bef6200041d821b17901c565b6001600160a01b0383166000818152602081815260408083209490945583518581529351929391927fddf252ad1be2c89b69c2b068fc378daa952ba7f163c4a11628f55a4df523b3ef9281900390910190a35050565b505050565b60008282018381101562000300576040805162461bcd60e51b815260206004820152601b60248201527f536166654d6174683a206164646974696f6e206f766572666c6f770000000000604482015290519081900360640190fd5b828054600181600116156101000203166002900490600052602060002090601f016020900481019282601f10620004bb57805160ff1916838001178555620004eb565b82800160010185558215620004eb579182015b82811115620004eb578251825591602001919060010190620004ce565b50620004f9929150620004fd565b5090565b5b80821115620004f95760008155600101620004fe565b61137a80620005246000396000f3fe608060405234801561001057600080fd5b50600436106101215760003560e01c806371e2a657116100ad578063a457c2d711610071578063a457c2d7146103e2578063a9059cbb1461040e578063da1919b31461043a578063dd62ed3e14610466578063f2fde38b1461049457610121565b806371e2a657146102ca57806379cc67901461036d5780638da5cb5b1461039957806395d89b41146103bd578063a0712d68146103c557610121565b8063313ce567116100f4578063313ce56714610233578063395093511461025157806342966c681461027d57806370a082311461029c578063715018a6146102c257610121565b806306fdde0314610126578063095ea7b3146101a357806318160ddd146101e357806323b872dd146101fd575b600080fd5b61012e6104ba565b6040805160208082528351818301528351919283929083019185019080838360005b83811015610168578181015183820152602001610150565b50505050905090810190601f1680156101955780820380516001836020036101000a031916815260200191505b509250505060405180910390f35b6101cf600480360360408110156101b957600080fd5b506001600160a01b038135169060200135610550565b604080519115158252519081900360200190f35b6101eb61056e565b60408051918252519081900360200190f35b6101cf6004803603606081101561021357600080fd5b506001600160a01b03813581169160208101359091169060400135610574565b61023b6105fb565b6040805160ff9092168252519081900360200190f35b6101cf6004803603604081101561026757600080fd5b506001600160a01b038135169060200135610604565b61029a6004803603602081101561029357600080fd5b5035610652565b005b6101eb600480360360208110156102b257600080fd5b50356001600160a01b0316610666565b61029a610681565b61029a600480360360208110156102e057600080fd5b8101906020810181356401000000008111156102fb57600080fd5b82018360208201111561030d57600080fd5b8035906020019184602083028401116401000000008311171561032f57600080fd5b919080806020026020016040519081016040528093929190818152602001838360200280828437600092019190915250929550610745945050505050565b61029a6004803603604081101561038357600080fd5b506001600160a01b038135169060200135610815565b6103a161086f565b604080516001600160a01b039092168252519081900360200190f35b61012e610883565b61029a600480360360208110156103db57600080fd5b50356108e4565b6101cf600480360360408110156103f857600080fd5b506001600160a01b038135169060200135610956565b6101cf6004803603604081101561042457600080fd5b506001600160a01b0381351690602001356109be565b61029a6004803603604081101561045057600080fd5b506001600160a01b0381351690602001356109d2565b6101eb6004803603604081101561047c57600080fd5b506001600160a01b0381358116916020013516610a44565b61029a600480360360208110156104aa57600080fd5b50356001600160a01b0316610a6f565b60038054604080516020601f60026000196101006001881615020190951694909404938401819004810282018101909252828152606093909290918301828280156105465780601f1061051b57610100808354040283529160200191610546565b820191906000526020600020905b81548152906001019060200180831161052957829003601f168201915b5050505050905090565b600061056461055d610c49565b8484610c4d565b5060015b92915050565b60025490565b6000610581848484610d39565b6105f18461058d610c49565b6105ec85604051806060016040528060288152602001611249602891396001600160a01b038a166000908152600160205260408120906105cb610c49565b6001600160a01b031681526020810191909152604001600020549190610e94565b610c4d565b5060019392505050565b60055460ff1690565b6000610564610611610c49565b846105ec8560016000610622610c49565b6001600160a01b03908116825260208083019390935260409182016000908120918c168152925290205490610bef565b61066361065d610c49565b82610f2b565b50565b6001600160a01b031660009081526020819052604090205490565b610689610c49565b6001600160a01b031661069a61086f565b6001600160a01b0316146106f5576040805162461bcd60e51b815260206004820181905260248201527f4f776e61626c653a2063616c6c6572206973206e6f7420746865206f776e6572604482015290519081900360640190fd5b60055460405160009161010090046001600160a01b0316907f8be0079c531659141344cd1fd0a4f28419497f9722a3daafe3b4186f6b6457e0908390a360058054610100600160a81b0319169055565b61074d610c49565b6001600160a01b031661075e61086f565b6001600160a01b0316146107b9576040805162461bcd60e51b815260206004820181905260248201527f4f776e61626c653a2063616c6c6572206973206e6f7420746865206f776e6572604482015290519081900360640190fd5b60005b8151811015610811576001600660008484815181106107d757fe5b6020908102919091018101516001600160a01b03168252810191909152604001600020805460ff19169115159190911790556001016107bc565b5050565b600061084c826040518060600160405280602481526020016112716024913961084586610840610c49565b610a44565b9190610e94565b90506108608361085a610c49565b83610c4d565b61086a8383610f2b565b505050565b60055461010090046001600160a01b031690565b60048054604080516020601f60026000196101006001881615020190951694909404938401819004810282018101909252828152606093909290918301828280156105465780601f1061051b57610100808354040283529160200191610546565b3360009081526006602052604090205460ff168061091157503361090661086f565b6001600160a01b0316145b61094c5760405162461bcd60e51b81526004018080602001828103825260218152602001806112ff6021913960400191505060405180910390fd5b6106633382611027565b6000610564610963610c49565b846105ec85604051806060016040528060258152602001611320602591396001600061098d610c49565b6001600160a01b03908116825260208083019390935260409182016000908120918d16815292529020549190610e94565b60006105646109cb610c49565b8484610d39565b3360009081526006602052604090205460ff16806109ff5750336109f461086f565b6001600160a01b0316145b610a3a5760405162461bcd60e51b81526004018080602001828103825260218152602001806112ff6021913960400191505060405180910390fd5b6108118282611027565b6001600160a01b03918216600090815260016020908152604080832093909416825291909152205490565b610a77610c49565b6001600160a01b0316610a8861086f565b6001600160a01b031614610ae3576040805162461bcd60e51b815260206004820181905260248201527f4f776e61626c653a2063616c6c6572206973206e6f7420746865206f776e6572604482015290519081900360640190fd5b6001600160a01b038116610b285760405162461bcd60e51b81526004018080602001828103825260268152602001806111ba6026913960400191505060405180910390fd5b6005546040516001600160a01b0380841692610100900416907f8be0079c531659141344cd1fd0a4f28419497f9722a3daafe3b4186f6b6457e090600090a3600580546001600160a01b0390921661010002610100600160a81b0319909216919091179055565b600082610b9e57506000610568565b82820282848281610bab57fe5b0414610be85760405162461bcd60e51b81526004018080602001828103825260218152602001806112286021913960400191505060405180910390fd5b9392505050565b600082820183811015610be8576040805162461bcd60e51b815260206004820152601b60248201527f536166654d6174683a206164646974696f6e206f766572666c6f770000000000604482015290519081900360640190fd5b3390565b6001600160a01b038316610c925760405162461bcd60e51b81526004018080602001828103825260248152602001806112db6024913960400191505060405180910390fd5b6001600160a01b038216610cd75760405162461bcd60e51b81526004018080602001828103825260228152602001806111e06022913960400191505060405180910390fd5b6001600160a01b03808416600081815260016020908152604080832094871680845294825291829020859055815185815291517f8c5be1e5ebec7d5bd14f71427d1e84f3dd0314c0f7b2291e5b200ac8c7c3b9259281900390910190a3505050565b6001600160a01b038316610d7e5760405162461bcd60e51b81526004018080602001828103825260258152602001806112b66025913960400191505060405180910390fd5b6001600160a01b038216610dc35760405162461bcd60e51b81526004018080602001828103825260238152602001806111756023913960400191505060405180910390fd5b610dce83838361086a565b610e0b81604051806060016040528060268152602001611202602691396001600160a01b0386166000908152602081905260409020549190610e94565b6001600160a01b038085166000908152602081905260408082209390935590841681522054610e3a9082610bef565b6001600160a01b038084166000818152602081815260409182902094909455805185815290519193928716927fddf252ad1be2c89b69c2b068fc378daa952ba7f163c4a11628f55a4df523b3ef92918290030190a3505050565b60008184841115610f235760405162461bcd60e51b81526004018080602001828103825283818151815260200191508051906020019080838360005b83811015610ee8578181015183820152602001610ed0565b50505050905090810190601f168015610f155780820380516001836020036101000a031916815260200191505b509250505060405180910390fd5b505050900390565b6001600160a01b038216610f705760405162461bcd60e51b81526004018080602001828103825260218152602001806112956021913960400191505060405180910390fd5b610f7c8260008361086a565b610fb981604051806060016040528060228152602001611198602291396001600160a01b0385166000908152602081905260409020549190610e94565b6001600160a01b038316600090815260208190526040902055600254610fdf9082611117565b6002556040805182815290516000916001600160a01b038516917fddf252ad1be2c89b69c2b068fc378daa952ba7f163c4a11628f55a4df523b3ef9181900360200190a35050565b6001600160a01b038216611082576040805162461bcd60e51b815260206004820152601f60248201527f45524332303a206d696e7420746f20746865207a65726f206164647265737300604482015290519081900360640190fd5b61108e6000838361086a565b60025461109b9082610bef565b6002556001600160a01b0382166000908152602081905260409020546110c19082610bef565b6001600160a01b0383166000818152602081815260408083209490945583518581529351929391927fddf252ad1be2c89b69c2b068fc378daa952ba7f163c4a11628f55a4df523b3ef9281900390910190a35050565b60008282111561116e576040805162461bcd60e51b815260206004820152601e60248201527f536166654d6174683a207375627472616374696f6e206f766572666c6f770000604482015290519081900360640190fd5b5090039056fe45524332303a207472616e7366657220746f20746865207a65726f206164647265737345524332303a206275726e20616d6f756e7420657863656564732062616c616e63654f776e61626c653a206e6577206f776e657220697320746865207a65726f206164647265737345524332303a20617070726f766520746f20746865207a65726f206164647265737345524332303a207472616e7366657220616d6f756e7420657863656564732062616c616e6365536166654d6174683a206d756c7469706c69636174696f6e206f766572666c6f7745524332303a207472616e7366657220616d6f756e74206578636565647320616c6c6f77616e636545524332303a206275726e20616d6f756e74206578636565647320616c6c6f77616e636545524332303a206275726e2066726f6d20746865207a65726f206164647265737345524332303a207472616e736665722066726f6d20746865207a65726f206164647265737345524332303a20617070726f76652066726f6d20746865207a65726f20616464726573736d73672e73656e646572206973206e6f74206f776e6572206f72206d696e74657245524332303a2064656372656173656420616c6c6f77616e63652062656c6f77207a65726fa2646970667358221220ecdbefff91c0dfe14f9fc354c90b54734749f1674cbba567248c78edda0cda3364736f6c634300060c0033536166654d6174683a206d756c7469706c69636174696f6e206f766572666c6f77",
  "linkReferences": {},
  "deployedLinkReferences": {}
}