{
  "_format": "hh-sol-artifact-1",
  "contractName": "ProtocolFee",
  "sourceName": "contracts/release/extensions/fee-manager/fees/ProtocolFee.sol",
  "abi": [
    {
      "inputs": [
        {
          "internalType": "address",
          "name": "_dispatcher",
          "type": "address"
        }
      ],
      "stateMutability": "nonpayable",
      "type": "constructor"
    },
    {
      "anonymous": false,
      "inputs": [
        {
          "indexed": true,
          "internalType": "address",
          "name": "daoAddress",
          "type": "address"
        },
        {
          "indexed": false,
          "internalType": "uint256",
          "name": "feeDeposit",
          "type": "uint256"
        },
        {
          "indexed": false,
          "internalType": "uint256",
          "name": "feeWithdraw",
          "type": "uint256"
        },
        {
          "indexed": false,
          "internalType": "uint256",
          "name": "feePerform",
          "type": "uint256"
        },
        {
          "indexed": false,
          "internalType": "uint256",
          "name": "feeStream",
          "type": "uint256"
        }
      ],
      "name": "FeeSettingsAdded",
      "type": "event"
    },
    {
      "inputs": [
        {
          "internalType": "bytes",
          "name": "_settingsData",
          "type": "bytes"
        }
      ],
      "name": "addFeeSettings",
      "outputs": [],
      "stateMutability": "nonpayable",
      "type": "function"
    },
    {
      "inputs": [],
      "name": "getDaoAddress",
      "outputs": [
        {
          "internalType": "address",
          "name": "daoAddress_",
          "type": "address"
        }
      ],
      "stateMutability": "view",
      "type": "function"
    },
    {
      "inputs": [],
      "name": "getFeeDeposit",
      "outputs": [
        {
          "internalType": "uint256",
          "name": "",
          "type": "uint256"
        }
      ],
      "stateMutability": "view",
      "type": "function"
    },
    {
      "inputs": [],
      "name": "getFeePerform",
      "outputs": [
        {
          "internalType": "uint256",
          "name": "feePerform_",
          "type": "uint256"
        }
      ],
      "stateMutability": "view",
      "type": "function"
    },
    {
      "inputs": [],
      "name": "getFeeStream",
      "outputs": [
        {
          "internalType": "uint256",
          "name": "",
          "type": "uint256"
        }
      ],
      "stateMutability": "view",
      "type": "function"
    },
    {
      "inputs": [],
      "name": "getFeeWithdraw",
      "outputs": [
        {
          "internalType": "uint256",
          "name": "",
          "type": "uint256"
        }
      ],
      "stateMutability": "view",
      "type": "function"
    },
    {
      "inputs": [
        {
          "internalType": "address",
          "name": "_daoAddress",
          "type": "address"
        }
      ],
      "name": "setDAOAddress",
      "outputs": [],
      "stateMutability": "nonpayable",
      "type": "function"
    }
  ],
  "bytecode": "0x60a060405234801561001057600080fd5b5060405161095d38038061095d8339818101604052602081101561003357600080fd5b5051606081901b6001600160601b0319166080526001600160a01b03166108e261007b6000398061018f52806102325280610462528061055352806105f652506108e26000f3fe608060405234801561001057600080fd5b506004361061007d5760003560e01c806348a5f7721161005b57806348a5f772146100c85780636df1bb4e1461013a578063965afa8914610142578063df01be98146101685761007d565b80631d68702d146100825780632e8f4a77146100a6578063305aaae6146100c0575b600080fd5b61008a610170565b604080516001600160a01b039092168252519081900360200190f35b6100ae61017f565b60408051918252519081900360200190f35b6100ae610185565b610138600480360360208110156100de57600080fd5b8101906020810181356401000000008111156100f957600080fd5b82018360208201111561010b57600080fd5b8035906020019184600183028401116401000000008311171561012d57600080fd5b50909250905061018b565b005b6100ae610549565b6101386004803603602081101561015857600080fd5b50356001600160a01b031661054f565b6100ae610786565b6000546001600160a01b031690565b60025490565b60015490565b60007f00000000000000000000000000000000000000000000000000000000000000006001600160a01b031663893d20e86040518163ffffffff1660e01b815260040160206040518083038186803b1580156101e657600080fd5b505afa1580156101fa573d6000803e3d6000fd5b505050506040513d602081101561021057600080fd5b505160408051631445b51b60e11b815290519192506000916001600160a01b037f0000000000000000000000000000000000000000000000000000000000000000169163288b6a36916004808301926020929190829003018186803b15801561027857600080fd5b505afa15801561028c573d6000803e3d6000fd5b505050506040513d60208110156102a257600080fd5b50519050336001600160a01b03831614806102c55750336001600160a01b038216145b61030c576040805162461bcd60e51b81526020600482015260136024820152724f6e6c79206f776e65722063616c6c61626c6560681b604482015290519081900360640190fd5b6000806000808787608081101561032257600080fd5b50803594506020810135935060408101359250606001359050836103775760405162461bcd60e51b815260040180806020018281038252603181526020018061087c6031913960400191505060405180910390fd5b600083116103b65760405162461bcd60e51b81526004018080602001828103825260328152602001806107be6032913960400191505060405180910390fd5b600082116103f55760405162461bcd60e51b815260040180806020018281038252603181526020018061078d6031913960400191505060405180910390fd5b600081116104345760405162461bcd60e51b81526004018080602001828103825260308152602001806108216030913960400191505060405180910390fd5b600184905560028390556003829055600481815560408051631127a41d60e31b815290516001600160a01b037f0000000000000000000000000000000000000000000000000000000000000000169263893d20e892808201926020929091829003018186803b1580156104a657600080fd5b505afa1580156104ba573d6000803e3d6000fd5b505050506040513d60208110156104d057600080fd5b5051600080546001600160a01b039283166001600160a01b03199091161790819055604080518781526020810187905280820186905260608101859052905191909216917f211591bd31a91797212b87d34ba62a0d5f8102648ce7cff1b0db7a346dda4596919081900360800190a25050505050505050565b60035490565b60007f00000000000000000000000000000000000000000000000000000000000000006001600160a01b031663893d20e86040518163ffffffff1660e01b815260040160206040518083038186803b1580156105aa57600080fd5b505afa1580156105be573d6000803e3d6000fd5b505050506040513d60208110156105d457600080fd5b505160408051631445b51b60e11b815290519192506000916001600160a01b037f0000000000000000000000000000000000000000000000000000000000000000169163288b6a36916004808301926020929190829003018186803b15801561063c57600080fd5b505afa158015610650573d6000803e3d6000fd5b505050506040513d602081101561066657600080fd5b50519050336001600160a01b03831614806106895750336001600160a01b038216145b6106d0576040805162461bcd60e51b81526020600482015260136024820152724f6e6c79206f776e65722063616c6c61626c6560681b604482015290519081900360640190fd5b6001600160a01b0383166107155760405162461bcd60e51b815260040180806020018281038252602b815260200180610851602b913960400191505060405180910390fd5b6000546001600160a01b03848116911614156107625760405162461bcd60e51b81526004018080602001828103825260318152602001806107f06031913960400191505060405180910390fd5b5050600080546001600160a01b0319166001600160a01b0392909216919091179055565b6004549056fe61646446656553657474696e67733a20666565506572666f726d206d7573742062652067726561746572207468616e203061646446656553657474696e67733a206665655769746864726177206d7573742062652067726561746572207468616e203073657444414f416464726573733a2064616f41646472657373206d757374206e6f7420626520707265206164647265737361646446656553657474696e67733a2066656553747265616d206d7573742062652067726561746572207468616e203073657444414f416464726573733a2064616f41646472657373206d757374206e6f7420626520656d70747961646446656553657474696e67733a206665654465706f736974206d7573742062652067726561746572207468616e2030a26469706673582212203ef167c674978911e0a4362d1c5adcf7e5a6668a0e8527c5623e464897fa88a464736f6c634300060c0033",
  "linkReferences": {},
  "deployedLinkReferences": {}
}