{
  "_format": "hh-sol-artifact-1",
  "contractName": "UniswapV2Adapter",
  "sourceName": "contracts/release/extensions/integration-manager/integrations/adapters/UniswapV2Adapter.sol",
  "abi": [
    {
      "inputs": [
        {
          "internalType": "address",
          "name": "_integrationManager",
          "type": "address"
        },
        {
          "internalType": "address",
          "name": "_router",
          "type": "address"
        },
        {
          "internalType": "address",
          "name": "_factory",
          "type": "address"
        }
      ],
      "stateMutability": "nonpayable",
      "type": "constructor"
    },
    {
      "inputs": [],
      "name": "ADD_TRACKED_ASSETS_SELECTOR",
      "outputs": [
        {
          "internalType": "bytes4",
          "name": "",
          "type": "bytes4"
        }
      ],
      "stateMutability": "view",
      "type": "function"
    },
    {
      "inputs": [],
      "name": "APPROVE_ASSETS_SELECTOR",
      "outputs": [
        {
          "internalType": "bytes4",
          "name": "",
          "type": "bytes4"
        }
      ],
      "stateMutability": "view",
      "type": "function"
    },
    {
      "inputs": [],
      "name": "CLAIM_REWARDS_AND_REINVEST_SELECTOR",
      "outputs": [
        {
          "internalType": "bytes4",
          "name": "",
          "type": "bytes4"
        }
      ],
      "stateMutability": "view",
      "type": "function"
    },
    {
      "inputs": [],
      "name": "CLAIM_REWARDS_AND_SWAP_SELECTOR",
      "outputs": [
        {
          "internalType": "bytes4",
          "name": "",
          "type": "bytes4"
        }
      ],
      "stateMutability": "view",
      "type": "function"
    },
    {
      "inputs": [],
      "name": "CLAIM_REWARDS_SELECTOR",
      "outputs": [
        {
          "internalType": "bytes4",
          "name": "",
          "type": "bytes4"
        }
      ],
      "stateMutability": "view",
      "type": "function"
    },
    {
      "inputs": [],
      "name": "LEND_AND_STAKE_SELECTOR",
      "outputs": [
        {
          "internalType": "bytes4",
          "name": "",
          "type": "bytes4"
        }
      ],
      "stateMutability": "view",
      "type": "function"
    },
    {
      "inputs": [],
      "name": "LEND_SELECTOR",
      "outputs": [
        {
          "internalType": "bytes4",
          "name": "",
          "type": "bytes4"
        }
      ],
      "stateMutability": "view",
      "type": "function"
    },
    {
      "inputs": [],
      "name": "REDEEM_SELECTOR",
      "outputs": [
        {
          "internalType": "bytes4",
          "name": "",
          "type": "bytes4"
        }
      ],
      "stateMutability": "view",
      "type": "function"
    },
    {
      "inputs": [],
      "name": "STAKE_SELECTOR",
      "outputs": [
        {
          "internalType": "bytes4",
          "name": "",
          "type": "bytes4"
        }
      ],
      "stateMutability": "view",
      "type": "function"
    },
    {
      "inputs": [],
      "name": "TAKE_ORDER_SELECTOR",
      "outputs": [
        {
          "internalType": "bytes4",
          "name": "",
          "type": "bytes4"
        }
      ],
      "stateMutability": "view",
      "type": "function"
    },
    {
      "inputs": [],
      "name": "UNSTAKE_AND_REDEEM_SELECTOR",
      "outputs": [
        {
          "internalType": "bytes4",
          "name": "",
          "type": "bytes4"
        }
      ],
      "stateMutability": "view",
      "type": "function"
    },
    {
      "inputs": [],
      "name": "UNSTAKE_SELECTOR",
      "outputs": [
        {
          "internalType": "bytes4",
          "name": "",
          "type": "bytes4"
        }
      ],
      "stateMutability": "view",
      "type": "function"
    },
    {
      "inputs": [],
      "name": "getFactory",
      "outputs": [
        {
          "internalType": "address",
          "name": "factory_",
          "type": "address"
        }
      ],
      "stateMutability": "view",
      "type": "function"
    },
    {
      "inputs": [],
      "name": "getIntegrationManager",
      "outputs": [
        {
          "internalType": "address",
          "name": "integrationManager_",
          "type": "address"
        }
      ],
      "stateMutability": "view",
      "type": "function"
    },
    {
      "inputs": [],
      "name": "getRouter",
      "outputs": [
        {
          "internalType": "address",
          "name": "router_",
          "type": "address"
        }
      ],
      "stateMutability": "view",
      "type": "function"
    },
    {
      "inputs": [],
      "name": "identifier",
      "outputs": [
        {
          "internalType": "string",
          "name": "identifier_",
          "type": "string"
        }
      ],
      "stateMutability": "pure",
      "type": "function"
    },
    {
      "inputs": [
        {
          "internalType": "address",
          "name": "_vaultProxy",
          "type": "address"
        },
        {
          "internalType": "bytes",
          "name": "_encodedCallArgs",
          "type": "bytes"
        },
        {
          "internalType": "bytes",
          "name": "_encodedAssetTransferArgs",
          "type": "bytes"
        }
      ],
      "name": "lend",
      "outputs": [],
      "stateMutability": "nonpayable",
      "type": "function"
    },
    {
      "inputs": [
        {
          "internalType": "bytes4",
          "name": "_selector",
          "type": "bytes4"
        },
        {
          "internalType": "bytes",
          "name": "_encodedCallArgs",
          "type": "bytes"
        }
      ],
      "name": "parseAssetsForMethod",
      "outputs": [
        {
          "internalType": "enum IIntegrationManager.SpendAssetsHandleType",
          "name": "spendAssetsHandleType_",
          "type": "uint8"
        },
        {
          "internalType": "address[]",
          "name": "spendAssets_",
          "type": "address[]"
        },
        {
          "internalType": "uint256[]",
          "name": "spendAssetAmounts_",
          "type": "uint256[]"
        },
        {
          "internalType": "address[]",
          "name": "incomingAssets_",
          "type": "address[]"
        },
        {
          "internalType": "uint256[]",
          "name": "minIncomingAssetAmounts_",
          "type": "uint256[]"
        }
      ],
      "stateMutability": "view",
      "type": "function"
    },
    {
      "inputs": [
        {
          "internalType": "address",
          "name": "_vaultProxy",
          "type": "address"
        },
        {
          "internalType": "bytes",
          "name": "_encodedCallArgs",
          "type": "bytes"
        },
        {
          "internalType": "bytes",
          "name": "_encodedAssetTransferArgs",
          "type": "bytes"
        }
      ],
      "name": "redeem",
      "outputs": [],
      "stateMutability": "nonpayable",
      "type": "function"
    },
    {
      "inputs": [
        {
          "internalType": "address",
          "name": "_vaultProxy",
          "type": "address"
        },
        {
          "internalType": "bytes",
          "name": "_swapArgs",
          "type": "bytes"
        },
        {
          "internalType": "bytes",
          "name": "_encodedAssetTransferArgs",
          "type": "bytes"
        }
      ],
      "name": "swapForRedeem",
      "outputs": [],
      "stateMutability": "nonpayable",
      "type": "function"
    },
    {
      "inputs": [
        {
          "internalType": "address",
          "name": "_vaultProxy",
          "type": "address"
        },
        {
          "internalType": "bytes",
          "name": "_encodedCallArgs",
          "type": "bytes"
        },
        {
          "internalType": "bytes",
          "name": "_encodedAssetTransferArgs",
          "type": "bytes"
        }
      ],
      "name": "takeOrder",
      "outputs": [],
      "stateMutability": "nonpayable",
      "type": "function"
    }
  ],
  "bytecode": "0x60e060405234801561001057600080fd5b50604051612aa9380380612aa98339818101604052606081101561003357600080fd5b50805160208201516040909201516001600160601b0319606092831b811660805290821b811660a05291901b1660c05260805160601c60a05160601c60c05160601c6129cb6100de6000398061140952806116385280611c165280611c455280611f125280611f3d5280611f6c528061221a5280612249525080610d1d5280610eb352806112515250806107635280610928528061127e528061168952806118ae52506129cb6000f3fe608060405234801561001057600080fd5b50600436106101375760003560e01c8063863e5ad0116100b8578063c29fa9dd1161007c578063c29fa9dd14610662578063e27a06b514610730578063e4d9047814610738578063e7c4569014610740578063f075399414610748578063f7d882b51461075057610137565b8063863e5ad01461055857806388cc58e4146105605780639337baac14610584578063b0f479a114610652578063b23228cf1461065a57610137565b80633ffc1591116100ff5780633ffc15911461030f57806340da225d146103175780635ca62b3c1461031f57806376cc7ac6146103275780637998a1c4146104db57610137565b806303e38a2b1461013c578063080456c11461020c578063099f751514610231578063131461c0146102ff578063257cb1a314610307575b600080fd5b61020a6004803603606081101561015257600080fd5b6001600160a01b038235169190810190604081016020820135600160201b81111561017c57600080fd5b82018360208201111561018e57600080fd5b803590602001918460018302840111600160201b831117156101af57600080fd5b919390929091602081019035600160201b8111156101cc57600080fd5b8201836020820111156101de57600080fd5b803590602001918460018302840111600160201b831117156101ff57600080fd5b509092509050610758565b005b6102146108f9565b604080516001600160e01b03199092168252519081900360200190f35b61020a6004803603606081101561024757600080fd5b6001600160a01b038235169190810190604081016020820135600160201b81111561027157600080fd5b82018360208201111561028357600080fd5b803590602001918460018302840111600160201b831117156102a457600080fd5b919390929091602081019035600160201b8111156102c157600080fd5b8201836020820111156102d357600080fd5b803590602001918460018302840111600160201b831117156102f457600080fd5b50909250905061091d565b610214610aa7565b610214610acb565b610214610aef565b610214610b13565b610214610b37565b6103a66004803603604081101561033d57600080fd5b6001600160e01b03198235169190810190604081016020820135600160201b81111561036857600080fd5b82018360208201111561037a57600080fd5b803590602001918460018302840111600160201b8311171561039b57600080fd5b509092509050610b5b565b604051808660038111156103b657fe5b815260200180602001806020018060200180602001858103855289818151815260200191508051906020019060200280838360005b838110156104035781810151838201526020016103eb565b50505050905001858103845288818151815260200191508051906020019060200280838360005b8381101561044257818101518382015260200161042a565b50505050905001858103835287818151815260200191508051906020019060200280838360005b83811015610481578181015183820152602001610469565b50505050905001858103825286818151815260200191508051906020019060200280838360005b838110156104c05781810151838201526020016104a8565b50505050905001995050505050505050505060405180910390f35b6104e3611207565b6040805160208082528351818301528351919283929083019185019080838360005b8381101561051d578181015183820152602001610505565b50505050905090810190601f16801561054a5780820380516001836020036101000a031916815260200191505b509250505060405180910390f35b61021461122b565b61056861124f565b604080516001600160a01b039092168252519081900360200190f35b61020a6004803603606081101561059a57600080fd5b6001600160a01b038235169190810190604081016020820135600160201b8111156105c457600080fd5b8201836020820111156105d657600080fd5b803590602001918460018302840111600160201b831117156105f757600080fd5b919390929091602081019035600160201b81111561061457600080fd5b82018360208201111561062657600080fd5b803590602001918460018302840111600160201b8311171561064757600080fd5b509092509050611273565b610568611636565b61021461165a565b61020a6004803603606081101561067857600080fd5b6001600160a01b038235169190810190604081016020820135600160201b8111156106a257600080fd5b8201836020820111156106b457600080fd5b803590602001918460018302840111600160201b831117156106d557600080fd5b919390929091602081019035600160201b8111156106f257600080fd5b82018360208201111561070457600080fd5b803590602001918460018302840111600160201b8311171561072557600080fd5b50909250905061167e565b610214611864565b610214611888565b6105686118ac565b6102146118d0565b6102146118f4565b336001600160a01b037f000000000000000000000000000000000000000000000000000000000000000016146107bf5760405162461bcd60e51b81526004018080602001828103825260328152602001806129046032913960400191505060405180910390fd5b8482828080601f01602080910402602001604051908101604052809392919081815260200183838082843760009201829052509250606091508190508061080585611918565b92965090945092509050600184600381111561081d57fe5b141561087f5760005b835181101561087d57610875873085848151811061084057fe5b602002602001015187858151811061085457fe5b60200260200101516001600160a01b0316611ae0909392919063ffffffff16565b600101610826565b505b60606000806108c38d8d8080601f016020809104026020016040519081016040528093929190818152602001838380828437600092019190915250611b4092505050565b9250925092506108d58e838386611bfc565b5050506108e28682611de0565b6108ec8684611de0565b5050505050505050505050565b7f8334eb99be0145865eba9889fca2ee920288090caefff4cc776038e20ad9259a81565b336001600160a01b037f000000000000000000000000000000000000000000000000000000000000000016146109845760405162461bcd60e51b81526004018080602001828103825260328152602001806129046032913960400191505060405180910390fd5b8482828080601f0160208091040260200160405190810160405280939291908181526020018383808284376000920182905250925060609150819050806109ca85611918565b9296509094509250905060018460038111156109e257fe5b1415610a0f5760005b8351811015610a0d57610a05873085848151811061084057fe5b6001016109eb565b505b610a17612870565b610a1f612870565b610a27612870565b610a668d8d8080601f016020809104026020016040519081016040528093929190818152602001838380828437600092019190915250611ec192505050565b50919450925090506108d58e846000602002015185600160200201518560006020020151866001602002015186600060200201518760016020020151611f0c565b7f29fa046e79524c3c5ac4c01df692c35e217802b2b13b21121b76cf0ef02b138c81565b7f099f75155f0e997bf83a7993a71d5e7e7540bd386fe1e84643a09ce6b412521981565b7ffa7dd04da627f433da73c4355ead9c75682a67a8fc84d3f6170ef0922f402d2481565b7fb9dfbaccbe5cd2a84fdcf1d15f23ef25d23086f5afbaa99516065ed4a5bbc7a381565b7fdfd5ee0f6067928bf85a7c4430811282840bc99332dda3dab462c02bf95b67cc81565b600060608080806001600160e01b0319881663099f751560e01b1415610df257610b83612870565b610b8b612870565b6000610bcc8a8a8080601f016020809104026020016040519081016040528093929190818152602001838380828437600092019190915250611ec192505050565b93505092509250600267ffffffffffffffff81118015610beb57600080fd5b50604051908082528060200260200182016040528015610c15578160200160208202803683370190505b509650826000602002015187600081518110610c2d57fe5b6001600160a01b0392909216602092830291909101820152830151875188906001908110610c5757fe5b6001600160a01b039290921660209283029190910182015260408051600280825260608201835290929091908301908036833750508351825192985091889150600090610ca057fe5b6020908102919091010152816001602002015186600181518110610cc057fe5b602090810291909101015260408051600180825281830190925290816020016020820280368337505084516020808701516040805163e6a4390560e01b81526001600160a01b0394851660048201529184166024830152519499507f00000000000000000000000000000000000000000000000000000000000000009092169363e6a439059350604480840193829003018186803b158015610d6157600080fd5b505afa158015610d75573d6000803e3d6000fd5b505050506040513d6020811015610d8b57600080fd5b505185518690600090610d9a57fe5b6001600160a01b03929092166020928302919091018201526040805160018082528183019092529182810190803683370190505093508084600081518110610dde57fe5b6020026020010181815250505050506111f8565b6001600160e01b0319881663c29fa9dd60e01b1415611045576000610e15612870565b610e1d612870565b610e5c8a8a8080601f01602080910402602001604051908101604052809392919081815260200183838082843760009201919091525061205a92505050565b604080516001808252818301909252939650919450925060208083019080368337505083516020808601516040805163e6a4390560e01b81526001600160a01b039485166004820152918416602483015251949b507f00000000000000000000000000000000000000000000000000000000000000009092169363e6a439059350604480840193829003018186803b158015610ef757600080fd5b505afa158015610f0b573d6000803e3d6000fd5b505050506040513d6020811015610f2157600080fd5b505187518890600090610f3057fe5b6001600160a01b03929092166020928302919091018201526040805160018082528183019092529182810190803683370190505095508286600081518110610f7457fe5b6020908102919091010152604080516002808252606082019092529081602001602082028036833750508351825192975091879150600090610fb257fe5b6001600160a01b0392909216602092830291909101820152820151855186906001908110610fdc57fe5b6001600160a01b03929092166020928302919091018201526040805160028082526060820183529092909190830190803683375050825182519296509186915060009061102557fe5b6020908102919091010152806001602002015184600181518110610dde57fe5b6001600160e01b031988166303e38a2b60e01b14156111c15760606000806110a28a8a8080601f016020809104026020016040519081016040528093929190818152602001838380828437600092019190915250611b4092505050565b9250925092506002835110156110e95760405162461bcd60e51b815260040180806020018281038252602881526020018061288f6028913960400191505060405180910390fd5b60408051600180825281830190925290602080830190803683370190505096508260008151811061111657fe5b60200260200101518760008151811061112b57fe5b6001600160a01b0392909216602092830291909101820152604080516001808252818301909252918281019080368337019050509550818660008151811061116f57fe5b602090810291909101015260408051600180825281830190925290816020016020820280368337019050509450826001845103815181106111ac57fe5b602002602001015185600081518110610d9a57fe5b60405162461bcd60e51b81526004018080602001828103825260278152602001806128b76027913960400191505060405180910390fd5b60029450939792965093509350565b60408051808201909152600a8152692aa724a9aba0a82fab1960b11b602082015290565b7f03e38a2bd7063d45c897edeafc330e71657502dd86434d3c37a489caf116af6981565b7f000000000000000000000000000000000000000000000000000000000000000090565b336001600160a01b037f000000000000000000000000000000000000000000000000000000000000000016146112da5760405162461bcd60e51b81526004018080602001828103825260328152602001806129046032913960400191505060405180910390fd5b8482828080601f0160208091040260200160405190810160405280939291908181526020018383808284376000920182905250925082915081905061131e84612097565b9194509250905061133a6001600160a01b038416863085611ae0565b600080600061137e8c8c8080601f01602080910402602001604051908101604052809392919081815260200183838082843760009201919091525061209792505050565b6040805160028082526060808301845295985093965091945090919060208301908036833701905050905082816000815181106113b757fe5b60200260200101906001600160a01b031690816001600160a01b03168152505081816001815181106113e557fe5b60200260200101906001600160a01b031690816001600160a01b03168152505060007f00000000000000000000000000000000000000000000000000000000000000006001600160a01b031663d06ca61f86846040518363ffffffff1660e01b81526004018083815260200180602001828103825283818151815260200191508051906020019060200280838360005b8381101561148d578181015183820152602001611475565b50505050905001935050505060006040518083038186803b1580156114b157600080fd5b505afa1580156114c5573d6000803e3d6000fd5b505050506040513d6000823e601f3d908101601f1916820160405260208110156114ee57600080fd5b8101908080516040519392919084600160201b82111561150d57600080fd5b90830190602082018581111561152257600080fd5b82518660208202830111600160201b8211171561153e57600080fd5b82525081516020918201928201910280838360005b8381101561156b578181015183820152602001611553565b5050505090500160405250505060018151811061158457fe5b602002602001015190506115cd6040518060400160405280601d81526020017f3d3d3d3d736f6c2d657870656374656444656e6f6d416d6f756e743a3a000000815250826120cb565b611605604051806040016040528060168152602001751e9e9e9eb9b7b616b830bcb7baba20b6b7bab73a1d1d60511b815250866120cb565b6116118f868385611bfc565b5050505050611620858261217d565b61162a858461217d565b50505050505050505050565b7f000000000000000000000000000000000000000000000000000000000000000090565b7f68e30677f607df46e87da13e15b637784cfa62374b653f35ab43d10361a2f83081565b336001600160a01b037f000000000000000000000000000000000000000000000000000000000000000016146116e55760405162461bcd60e51b81526004018080602001828103825260328152602001806129046032913960400191505060405180910390fd5b8482828080601f01602080910402602001604051908101604052809392919081815260200183838082843760009201829052509250606091508190508061172b85611918565b92965090945092509050600184600381111561174357fe5b14156117705760005b835181101561176e57611766873085848151811061084057fe5b60010161174c565b505b600061177a612870565b611782612870565b6117c18d8d8080601f01602080910402602001604051908101604052809392919081815260200183838082843760009201919091525061205a92505050565b92509250925060606118088c8c8080601f01602080910402602001604051908101604052809392919081815260200183838082843760009201919091525061191892505050565b50509150506118568f8260008151811061181e57fe5b6020026020010151868660006002811061183457fe5b6020020151876001602002015187600060200201518860016020020151612214565b505050506108e28682611de0565b7f848f3a590fb2f9795d1a275009c54c26c53833277c96b90e0ddd01753a1d590681565b7f3377e18acf9e83665eacd6af109261424fca32a298e2fc2e6095ba563fb8390e81565b7f000000000000000000000000000000000000000000000000000000000000000090565b7f1d51f49b5273d9ddbb643dc349fab8d36dbb470209c2ea71033bea49dd311c2781565b7fc29fa9dde84204c2908778afd0613d802d31cf046179b88f6d2b4a4e507ea2d581565b6000606080606084806020019051608081101561193457600080fd5b815160208301805160405192949293830192919084600160201b82111561195a57600080fd5b90830190602082018581111561196f57600080fd5b82518660208202830111600160201b8211171561198b57600080fd5b82525081516020918201928201910280838360005b838110156119b85781810151838201526020016119a0565b5050505090500160405260200180516040519392919084600160201b8211156119e057600080fd5b9083019060208201858111156119f557600080fd5b82518660208202830111600160201b82111715611a1157600080fd5b82525081516020918201928201910280838360005b83811015611a3e578181015183820152602001611a26565b5050505090500160405260200180516040519392919084600160201b821115611a6657600080fd5b908301906020820185811115611a7b57600080fd5b82518660208202830111600160201b82111715611a9757600080fd5b82525081516020918201928201910280838360005b83811015611ac4578181015183820152602001611aac565b5050505090500160405250505093509350935093509193509193565b604080516001600160a01b0380861660248301528416604482015260648082018490528251808303909101815260849091019091526020810180516001600160e01b03166323b872dd60e01b179052611b3a908590612323565b50505050565b6060600080838060200190516060811015611b5a57600080fd5b8101908080516040519392919084600160201b821115611b7957600080fd5b908301906020820185811115611b8e57600080fd5b82518660208202830111600160201b82111715611baa57600080fd5b82525081516020918201928201910280838360005b83811015611bd7578181015183820152602001611bbf565b5050505091909101604090815260208301519201519499919850939650945050505050565b611c3b81600081518110611c0c57fe5b60200260200101517f0000000000000000000000000000000000000000000000000000000000000000856123d4565b6001600160a01b037f0000000000000000000000000000000000000000000000000000000000000000166338ed173984848488611c7942600161246c565b6040518663ffffffff1660e01b81526004018086815260200185815260200180602001846001600160a01b03168152602001838152602001828103825285818151815260200191508051906020019060200280838360005b83811015611ce9578181015183820152602001611cd1565b505050509050019650505050505050600060405180830381600087803b158015611d1257600080fd5b505af1158015611d26573d6000803e3d6000fd5b505050506040513d6000823e601f3d908101601f191682016040526020811015611d4f57600080fd5b8101908080516040519392919084600160201b821115611d6e57600080fd5b908301906020820185811115611d8357600080fd5b82518660208202830111600160201b82111715611d9f57600080fd5b82525081516020918201928201910280838360005b83811015611dcc578181015183820152602001611db4565b505050509050016040525050505050505050565b60005b8151811015611ebc576000828281518110611dfa57fe5b60200260200101516001600160a01b03166370a08231306040518263ffffffff1660e01b815260040180826001600160a01b0316815260200191505060206040518083038186803b158015611e4e57600080fd5b505afa158015611e62573d6000803e3d6000fd5b505050506040513d6020811015611e7857600080fd5b505190508015611eb357611eb38482858581518110611e9357fe5b60200260200101516001600160a01b03166124cd9092919063ffffffff16565b50600101611de3565b505050565b611ec9612870565b611ed1612870565b611ed9612870565b60008480602001905160e0811015611ef057600080fd5b5060c08101519096604088019650608088019550909350915050565b611f37867f0000000000000000000000000000000000000000000000000000000000000000866123d4565b611f62857f0000000000000000000000000000000000000000000000000000000000000000856123d4565b6001600160a01b037f00000000000000000000000000000000000000000000000000000000000000001663e8e337008787878787878e611fa342600161246c565b6040518963ffffffff1660e01b815260040180896001600160a01b03168152602001886001600160a01b03168152602001878152602001868152602001858152602001848152602001836001600160a01b0316815260200182815260200198505050505050505050606060405180830381600087803b15801561202557600080fd5b505af1158015612039573d6000803e3d6000fd5b505050506040513d606081101561204f57600080fd5b505050505050505050565b6000612064612870565b61206c612870565b8380602001905160a081101561208157600080fd5b5080519560208201955060609091019350915050565b60008060008380602001905160608110156120b157600080fd5b508051602082015160409092015190969195509350915050565b61217982826040516024018080602001838152602001828103825284818151815260200191508051906020019080838360005b838110156121165781810151838201526020016120fe565b50505050905090810190601f1680156121435780820380516001836020036101000a031916815260200191505b5060408051601f198184030181529190526020810180516001600160e01b03166309710a9d60e41b179052935061251f92505050565b5050565b6000816001600160a01b03166370a08231306040518263ffffffff1660e01b815260040180826001600160a01b0316815260200191505060206040518083038186803b1580156121cc57600080fd5b505afa1580156121e0573d6000803e3d6000fd5b505050506040513d60208110156121f657600080fd5b505190508015611ebc57611ebc6001600160a01b03831684836124cd565b61223f867f0000000000000000000000000000000000000000000000000000000000000000876123d4565b6001600160a01b037f00000000000000000000000000000000000000000000000000000000000000001663baa2abde85858886868d61227f42600161246c565b6040518863ffffffff1660e01b815260040180886001600160a01b03168152602001876001600160a01b03168152602001868152602001858152602001848152602001836001600160a01b031681526020018281526020019750505050505050506040805180830381600087803b1580156122f957600080fd5b505af115801561230d573d6000803e3d6000fd5b505050506040513d604081101561204f57600080fd5b6060612378826040518060400160405280602081526020017f5361666545524332303a206c6f772d6c6576656c2063616c6c206661696c6564815250856001600160a01b03166125409092919063ffffffff16565b805190915015611ebc5780806020019051602081101561239757600080fd5b5051611ebc5760405162461bcd60e51b815260040180806020018281038252602a815260200180612936602a913960400191505060405180910390fd5b60408051636eb1769f60e11b81523060048201526001600160a01b0384811660248301529151839286169163dd62ed3e916044808301926020929190829003018186803b15801561242457600080fd5b505afa158015612438573d6000803e3d6000fd5b505050506040513d602081101561244e57600080fd5b50511015611ebc57611ebc6001600160a01b03841683600019612557565b6000828201838110156124c6576040805162461bcd60e51b815260206004820152601b60248201527f536166654d6174683a206164646974696f6e206f766572666c6f770000000000604482015290519081900360640190fd5b9392505050565b604080516001600160a01b038416602482015260448082018490528251808303909101815260649091019091526020810180516001600160e01b031663a9059cbb60e01b179052611ebc908490612323565b80516a636f6e736f6c652e6c6f67602083016000808483855afa5050505050565b606061254f848460008561266a565b949350505050565b8015806125dd575060408051636eb1769f60e11b81523060048201526001600160a01b03848116602483015291519185169163dd62ed3e91604480820192602092909190829003018186803b1580156125af57600080fd5b505afa1580156125c3573d6000803e3d6000fd5b505050506040513d60208110156125d957600080fd5b5051155b6126185760405162461bcd60e51b81526004018080602001828103825260368152602001806129606036913960400191505060405180910390fd5b604080516001600160a01b038416602482015260448082018490528251808303909101815260649091019091526020810180516001600160e01b031663095ea7b360e01b179052611ebc908490612323565b6060824710156126ab5760405162461bcd60e51b81526004018080602001828103825260268152602001806128de6026913960400191505060405180910390fd5b6126b4856127c6565b612705576040805162461bcd60e51b815260206004820152601d60248201527f416464726573733a2063616c6c20746f206e6f6e2d636f6e7472616374000000604482015290519081900360640190fd5b60006060866001600160a01b031685876040518082805190602001908083835b602083106127445780518252601f199092019160209182019101612725565b6001836020036101000a03801982511681845116808217855250505050505090500191505060006040518083038185875af1925050503d80600081146127a6576040519150601f19603f3d011682016040523d82523d6000602084013e6127ab565b606091505b50915091506127bb8282866127cc565b979650505050505050565b3b151590565b606083156127db5750816124c6565b8251156127eb5782518084602001fd5b8160405162461bcd60e51b81526004018080602001828103825283818151815260200191508051906020019080838360005b8381101561283557818101518382015260200161281d565b50505050905090810190601f1680156128625780820380516001836020036101000a031916815260200191505b509250505060405180910390fd5b6040518060400160405280600290602082028036833750919291505056fe7061727365417373657473466f724d6574686f643a205f70617468206d757374206265203e3d20327061727365417373657473466f724d6574686f643a205f73656c6563746f7220696e76616c6964416464726573733a20696e73756666696369656e742062616c616e636520666f722063616c6c4f6e6c792074686520496e746567726174696f6e4d616e616765722063616e2063616c6c20746869732066756e6374696f6e5361666545524332303a204552433230206f7065726174696f6e20646964206e6f7420737563636565645361666545524332303a20617070726f76652066726f6d206e6f6e2d7a65726f20746f206e6f6e2d7a65726f20616c6c6f77616e6365a2646970667358221220008b1145a18c09a195e53dc8367bd8dfc07b44b5e10072857c1a6d95b3ef95ac64736f6c634300060c0033",
  "linkReferences": {},
  "deployedLinkReferences": {}
}