{
  "_format": "hh-sol-artifact-1",
  "contractName": "MockChainlinkPriceSource",
  "sourceName": "contracts/mocks/prices/MockChainlinkPriceSource.sol",
  "abi": [
    {
      "inputs": [
        {
          "internalType": "uint256",
          "name": "_decimals",
          "type": "uint256"
        }
      ],
      "stateMutability": "nonpayable",
      "type": "constructor"
    },
    {
      "anonymous": false,
      "inputs": [
        {
          "indexed": true,
          "internalType": "int256",
          "name": "current",
          "type": "int256"
        },
        {
          "indexed": true,
          "internalType": "uint256",
          "name": "roundId",
          "type": "uint256"
        },
        {
          "indexed": false,
          "internalType": "uint256",
          "name": "timestamp",
          "type": "uint256"
        }
      ],
      "name": "AnswerUpdated",
      "type": "event"
    },
    {
      "inputs": [],
      "name": "DECIMALS",
      "outputs": [
        {
          "internalType": "uint256",
          "name": "",
          "type": "uint256"
        }
      ],
      "stateMutability": "view",
      "type": "function"
    },
    {
      "inputs": [],
      "name": "aggregator",
      "outputs": [
        {
          "internalType": "address",
          "name": "",
          "type": "address"
        }
      ],
      "stateMutability": "view",
      "type": "function"
    },
    {
      "inputs": [],
      "name": "decimals",
      "outputs": [
        {
          "internalType": "uint256",
          "name": "",
          "type": "uint256"
        }
      ],
      "stateMutability": "view",
      "type": "function"
    },
    {
      "inputs": [],
      "name": "latestAnswer",
      "outputs": [
        {
          "internalType": "int256",
          "name": "",
          "type": "int256"
        }
      ],
      "stateMutability": "view",
      "type": "function"
    },
    {
      "inputs": [],
      "name": "latestTimestamp",
      "outputs": [
        {
          "internalType": "uint256",
          "name": "",
          "type": "uint256"
        }
      ],
      "stateMutability": "view",
      "type": "function"
    },
    {
      "inputs": [],
      "name": "roundId",
      "outputs": [
        {
          "internalType": "uint256",
          "name": "",
          "type": "uint256"
        }
      ],
      "stateMutability": "view",
      "type": "function"
    },
    {
      "inputs": [
        {
          "internalType": "address",
          "name": "_nextAggregator",
          "type": "address"
        }
      ],
      "name": "setAggregator",
      "outputs": [],
      "stateMutability": "nonpayable",
      "type": "function"
    },
    {
      "inputs": [
        {
          "internalType": "int256",
          "name": "_nextAnswer",
          "type": "int256"
        },
        {
          "internalType": "uint256",
          "name": "_nextTimestamp",
          "type": "uint256"
        }
      ],
      "name": "setLatestAnswer",
      "outputs": [],
      "stateMutability": "nonpayable",
      "type": "function"
    }
  ],
  "bytecode": "0x608060405234801561001057600080fd5b506040516102743803806102748339818101604052602081101561003357600080fd5b50516000819055600a0a600190815542600255600355600480546001600160a01b0319163017905561020a8061006a6000396000f3fe608060405234801561001057600080fd5b50600436106100885760003560e01c80638205bf6a1161005b5780638205bf6a146100db5780638cd221c9146100e3578063e9c58f85146100eb578063f9120af61461011057610088565b8063245a7bfc1461008d5780632e0f2625146100b1578063313ce567146100cb57806350d25bcd146100d3575b600080fd5b610095610136565b604080516001600160a01b039092168252519081900360200190f35b6100b9610145565b60408051918252519081900360200190f35b6100b961014b565b6100b9610151565b6100b9610157565b6100b961015d565b61010e6004803603604081101561010157600080fd5b5080359060200135610163565b005b61010e6004803603602081101561012657600080fd5b50356001600160a01b03166101b2565b6004546001600160a01b031681565b60005481565b60005490565b60015481565b60025481565b60035481565b60018281556002829055600380549091019081905560408051838152905184917f0559884fd3a460db3073b7fc896cc77986f16e378210ded43186175bf646fc5f919081900360200190a35050565b600480546001600160a01b0319166001600160a01b039290921691909117905556fea264697066735822122011685cf1715b25c215bd11f27a1bec3c27093200445ab06fa07415e68603591e64736f6c634300060c0033",
  "linkReferences": {},
  "deployedLinkReferences": {}
}