{
  "_format": "hh-sol-artifact-1",
  "contractName": "TrackedAssetsAdapter",
  "sourceName": "contracts/release/extensions/integration-manager/integrations/adapters/TrackedAssetsAdapter.sol",
  "abi": [
    {
      "inputs": [
        {
          "internalType": "address",
          "name": "_integrationManager",
          "type": "address"
        }
      ],
      "stateMutability": "nonpayable",
      "type": "constructor"
    },
    {
      "inputs": [],
      "name": "ADD_TRACKED_ASSETS_SELECTOR",
      "outputs": [
        {
          "internalType": "bytes4",
          "name": "",
          "type": "bytes4"
        }
      ],
      "stateMutability": "view",
      "type": "function"
    },
    {
      "inputs": [],
      "name": "APPROVE_ASSETS_SELECTOR",
      "outputs": [
        {
          "internalType": "bytes4",
          "name": "",
          "type": "bytes4"
        }
      ],
      "stateMutability": "view",
      "type": "function"
    },
    {
      "inputs": [],
      "name": "CLAIM_REWARDS_AND_REINVEST_SELECTOR",
      "outputs": [
        {
          "internalType": "bytes4",
          "name": "",
          "type": "bytes4"
        }
      ],
      "stateMutability": "view",
      "type": "function"
    },
    {
      "inputs": [],
      "name": "CLAIM_REWARDS_AND_SWAP_SELECTOR",
      "outputs": [
        {
          "internalType": "bytes4",
          "name": "",
          "type": "bytes4"
        }
      ],
      "stateMutability": "view",
      "type": "function"
    },
    {
      "inputs": [],
      "name": "CLAIM_REWARDS_SELECTOR",
      "outputs": [
        {
          "internalType": "bytes4",
          "name": "",
          "type": "bytes4"
        }
      ],
      "stateMutability": "view",
      "type": "function"
    },
    {
      "inputs": [],
      "name": "LEND_AND_STAKE_SELECTOR",
      "outputs": [
        {
          "internalType": "bytes4",
          "name": "",
          "type": "bytes4"
        }
      ],
      "stateMutability": "view",
      "type": "function"
    },
    {
      "inputs": [],
      "name": "LEND_SELECTOR",
      "outputs": [
        {
          "internalType": "bytes4",
          "name": "",
          "type": "bytes4"
        }
      ],
      "stateMutability": "view",
      "type": "function"
    },
    {
      "inputs": [],
      "name": "REDEEM_SELECTOR",
      "outputs": [
        {
          "internalType": "bytes4",
          "name": "",
          "type": "bytes4"
        }
      ],
      "stateMutability": "view",
      "type": "function"
    },
    {
      "inputs": [],
      "name": "STAKE_SELECTOR",
      "outputs": [
        {
          "internalType": "bytes4",
          "name": "",
          "type": "bytes4"
        }
      ],
      "stateMutability": "view",
      "type": "function"
    },
    {
      "inputs": [],
      "name": "TAKE_ORDER_SELECTOR",
      "outputs": [
        {
          "internalType": "bytes4",
          "name": "",
          "type": "bytes4"
        }
      ],
      "stateMutability": "view",
      "type": "function"
    },
    {
      "inputs": [],
      "name": "UNSTAKE_AND_REDEEM_SELECTOR",
      "outputs": [
        {
          "internalType": "bytes4",
          "name": "",
          "type": "bytes4"
        }
      ],
      "stateMutability": "view",
      "type": "function"
    },
    {
      "inputs": [],
      "name": "UNSTAKE_SELECTOR",
      "outputs": [
        {
          "internalType": "bytes4",
          "name": "",
          "type": "bytes4"
        }
      ],
      "stateMutability": "view",
      "type": "function"
    },
    {
      "inputs": [
        {
          "internalType": "address",
          "name": "",
          "type": "address"
        },
        {
          "internalType": "bytes",
          "name": "",
          "type": "bytes"
        },
        {
          "internalType": "bytes",
          "name": "",
          "type": "bytes"
        }
      ],
      "name": "addTrackedAssets",
      "outputs": [],
      "stateMutability": "view",
      "type": "function"
    },
    {
      "inputs": [],
      "name": "getIntegrationManager",
      "outputs": [
        {
          "internalType": "address",
          "name": "integrationManager_",
          "type": "address"
        }
      ],
      "stateMutability": "view",
      "type": "function"
    },
    {
      "inputs": [],
      "name": "identifier",
      "outputs": [
        {
          "internalType": "string",
          "name": "identifier_",
          "type": "string"
        }
      ],
      "stateMutability": "pure",
      "type": "function"
    },
    {
      "inputs": [
        {
          "internalType": "bytes4",
          "name": "_selector",
          "type": "bytes4"
        },
        {
          "internalType": "bytes",
          "name": "_encodedCallArgs",
          "type": "bytes"
        }
      ],
      "name": "parseAssetsForMethod",
      "outputs": [
        {
          "internalType": "enum IIntegrationManager.SpendAssetsHandleType",
          "name": "spendAssetsHandleType_",
          "type": "uint8"
        },
        {
          "internalType": "address[]",
          "name": "spendAssets_",
          "type": "address[]"
        },
        {
          "internalType": "uint256[]",
          "name": "spendAssetAmounts_",
          "type": "uint256[]"
        },
        {
          "internalType": "address[]",
          "name": "incomingAssets_",
          "type": "address[]"
        },
        {
          "internalType": "uint256[]",
          "name": "minIncomingAssetAmounts_",
          "type": "uint256[]"
        }
      ],
      "stateMutability": "view",
      "type": "function"
    },
    {
      "inputs": [
        {
          "internalType": "address",
          "name": "",
          "type": "address"
        },
        {
          "internalType": "bytes",
          "name": "",
          "type": "bytes"
        },
        {
          "internalType": "bytes",
          "name": "",
          "type": "bytes"
        }
      ],
      "name": "swapForRedeem",
      "outputs": [],
      "stateMutability": "nonpayable",
      "type": "function"
    }
  ],
  "bytecode": "0x60a060405234801561001057600080fd5b506040516109363803806109368339818101604052602081101561003357600080fd5b5051606081901b6001600160601b0319166080526001600160a01b03166108cf6100676000398061076052506108cf6000f3fe608060405234801561001057600080fd5b506004361061010b5760003560e01c8063848f3a59116100a2578063e27a06b511610071578063e27a06b51461046e578063e4d9047814610476578063e7c456901461047e578063f0753994146104a2578063f7d882b5146104aa5761010b565b8063848f3a591461038e578063863e5ad01461045e5780639337baac1461038e578063b23228cf146104665761010b565b806340da225d116100de57806340da225d1461014d5780635ca62b3c1461015557806376cc7ac61461015d5780637998a1c4146103115761010b565b8063080456c114610110578063131461c014610135578063257cb1a31461013d5780633ffc159114610145575b600080fd5b6101186104b2565b604080516001600160e01b03199092168252519081900360200190f35b6101186104d6565b6101186104fa565b61011861051e565b610118610542565b610118610566565b6101dc6004803603604081101561017357600080fd5b6001600160e01b03198235169190810190604081016020820135600160201b81111561019e57600080fd5b8201836020820111156101b057600080fd5b803590602001918460018302840111600160201b831117156101d157600080fd5b50909250905061058a565b604051808660038111156101ec57fe5b815260200180602001806020018060200180602001858103855289818151815260200191508051906020019060200280838360005b83811015610239578181015183820152602001610221565b50505050905001858103845288818151815260200191508051906020019060200280838360005b83811015610278578181015183820152602001610260565b50505050905001858103835287818151815260200191508051906020019060200280838360005b838110156102b757818101518382015260200161029f565b50505050905001858103825286818151815260200191508051906020019060200280838360005b838110156102f65781810151838201526020016102de565b50505050905001995050505050505050505060405180910390f35b61031961069f565b6040805160208082528351818301528351919283929083019185019080838360005b8381101561035357818101518382015260200161033b565b50505050905090810190601f1680156103805780820380516001836020036101000a031916815260200191505b509250505060405180910390f35b61045c600480360360608110156103a457600080fd5b6001600160a01b038235169190810190604081016020820135600160201b8111156103ce57600080fd5b8201836020820111156103e057600080fd5b803590602001918460018302840111600160201b8311171561040157600080fd5b919390929091602081019035600160201b81111561041e57600080fd5b82018360208201111561043057600080fd5b803590602001918460018302840111600160201b8311171561045157600080fd5b5090925090506106c7565b005b6101186106ce565b6101186106f2565b610118610716565b61011861073a565b61048661075e565b604080516001600160a01b039092168252519081900360200190f35b610118610782565b6101186107a6565b7f8334eb99be0145865eba9889fca2ee920288090caefff4cc776038e20ad9259a81565b7f29fa046e79524c3c5ac4c01df692c35e217802b2b13b21121b76cf0ef02b138c81565b7f099f75155f0e997bf83a7993a71d5e7e7540bd386fe1e84643a09ce6b412521981565b7ffa7dd04da627f433da73c4355ead9c75682a67a8fc84d3f6170ef0922f402d2481565b7fb9dfbaccbe5cd2a84fdcf1d15f23ef25d23086f5afbaa99516065ed4a5bbc7a381565b7fdfd5ee0f6067928bf85a7c4430811282840bc99332dda3dab462c02bf95b67cc81565b600060608080806001600160e01b0319881663848f3a5960e01b146105e05760405162461bcd60e51b81526004018080602001828103825260278152602001806108736027913960400191505060405180910390fd5b61061f87878080601f0160208091040260200160405190810160405280939291908181526020018383808284376000920191909152506107ca92505050565b9150815167ffffffffffffffff8111801561063957600080fd5b50604051908082528060200260200182016040528015610663578160200160208202803683370190505b50905060005b815181101561069357600182828151811061068057fe5b6020908102919091010152600101610669565b50939792965093509350565b60408051808201909152600e81526d545241434b45445f41535345545360901b602082015290565b5050505050565b7f03e38a2bd7063d45c897edeafc330e71657502dd86434d3c37a489caf116af6981565b7f68e30677f607df46e87da13e15b637784cfa62374b653f35ab43d10361a2f83081565b7f848f3a590fb2f9795d1a275009c54c26c53833277c96b90e0ddd01753a1d590681565b7f3377e18acf9e83665eacd6af109261424fca32a298e2fc2e6095ba563fb8390e81565b7f000000000000000000000000000000000000000000000000000000000000000090565b7f1d51f49b5273d9ddbb643dc349fab8d36dbb470209c2ea71033bea49dd311c2781565b7fc29fa9dde84204c2908778afd0613d802d31cf046179b88f6d2b4a4e507ea2d581565b60608180602001905160208110156107e157600080fd5b8101908080516040519392919084600160201b82111561080057600080fd5b90830190602082018581111561081557600080fd5b82518660208202830111600160201b8211171561083157600080fd5b82525081516020918201928201910280838360005b8381101561085e578181015183820152602001610846565b50505050905001604052505050905091905056fe7061727365417373657473466f724d6574686f643a205f73656c6563746f7220696e76616c6964a2646970667358221220656782e577c10e0766abb6b2b0c5caffa64daafed43340bf49cb86b5969e5d0964736f6c634300060c0033",
  "linkReferences": {},
  "deployedLinkReferences": {}
}