{
  "_format": "hh-sol-artifact-1",
  "contractName": "IdleAdapter",
  "sourceName": "contracts/release/extensions/integration-manager/integrations/adapters/IdleAdapter.sol",
  "abi": [
    {
      "inputs": [
        {
          "internalType": "address",
          "name": "_integrationManager",
          "type": "address"
        },
        {
          "internalType": "address",
          "name": "_idlePriceFeed",
          "type": "address"
        },
        {
          "internalType": "address",
          "name": "_wethToken",
          "type": "address"
        },
        {
          "internalType": "address",
          "name": "_uniswapV2Router2",
          "type": "address"
        }
      ],
      "stateMutability": "nonpayable",
      "type": "constructor"
    },
    {
      "inputs": [],
      "name": "ADD_TRACKED_ASSETS_SELECTOR",
      "outputs": [
        {
          "internalType": "bytes4",
          "name": "",
          "type": "bytes4"
        }
      ],
      "stateMutability": "view",
      "type": "function"
    },
    {
      "inputs": [],
      "name": "APPROVE_ASSETS_SELECTOR",
      "outputs": [
        {
          "internalType": "bytes4",
          "name": "",
          "type": "bytes4"
        }
      ],
      "stateMutability": "view",
      "type": "function"
    },
    {
      "inputs": [],
      "name": "CLAIM_REWARDS_AND_REINVEST_SELECTOR",
      "outputs": [
        {
          "internalType": "bytes4",
          "name": "",
          "type": "bytes4"
        }
      ],
      "stateMutability": "view",
      "type": "function"
    },
    {
      "inputs": [],
      "name": "CLAIM_REWARDS_AND_SWAP_SELECTOR",
      "outputs": [
        {
          "internalType": "bytes4",
          "name": "",
          "type": "bytes4"
        }
      ],
      "stateMutability": "view",
      "type": "function"
    },
    {
      "inputs": [],
      "name": "CLAIM_REWARDS_SELECTOR",
      "outputs": [
        {
          "internalType": "bytes4",
          "name": "",
          "type": "bytes4"
        }
      ],
      "stateMutability": "view",
      "type": "function"
    },
    {
      "inputs": [],
      "name": "LEND_AND_STAKE_SELECTOR",
      "outputs": [
        {
          "internalType": "bytes4",
          "name": "",
          "type": "bytes4"
        }
      ],
      "stateMutability": "view",
      "type": "function"
    },
    {
      "inputs": [],
      "name": "LEND_SELECTOR",
      "outputs": [
        {
          "internalType": "bytes4",
          "name": "",
          "type": "bytes4"
        }
      ],
      "stateMutability": "view",
      "type": "function"
    },
    {
      "inputs": [],
      "name": "REDEEM_SELECTOR",
      "outputs": [
        {
          "internalType": "bytes4",
          "name": "",
          "type": "bytes4"
        }
      ],
      "stateMutability": "view",
      "type": "function"
    },
    {
      "inputs": [],
      "name": "STAKE_SELECTOR",
      "outputs": [
        {
          "internalType": "bytes4",
          "name": "",
          "type": "bytes4"
        }
      ],
      "stateMutability": "view",
      "type": "function"
    },
    {
      "inputs": [],
      "name": "TAKE_ORDER_SELECTOR",
      "outputs": [
        {
          "internalType": "bytes4",
          "name": "",
          "type": "bytes4"
        }
      ],
      "stateMutability": "view",
      "type": "function"
    },
    {
      "inputs": [],
      "name": "UNSTAKE_AND_REDEEM_SELECTOR",
      "outputs": [
        {
          "internalType": "bytes4",
          "name": "",
          "type": "bytes4"
        }
      ],
      "stateMutability": "view",
      "type": "function"
    },
    {
      "inputs": [],
      "name": "UNSTAKE_SELECTOR",
      "outputs": [
        {
          "internalType": "bytes4",
          "name": "",
          "type": "bytes4"
        }
      ],
      "stateMutability": "view",
      "type": "function"
    },
    {
      "inputs": [
        {
          "internalType": "address",
          "name": "",
          "type": "address"
        },
        {
          "internalType": "bytes",
          "name": "",
          "type": "bytes"
        },
        {
          "internalType": "bytes",
          "name": "",
          "type": "bytes"
        }
      ],
      "name": "approveAssets",
      "outputs": [],
      "stateMutability": "nonpayable",
      "type": "function"
    },
    {
      "inputs": [
        {
          "internalType": "address",
          "name": "_vaultProxy",
          "type": "address"
        },
        {
          "internalType": "bytes",
          "name": "_encodedCallArgs",
          "type": "bytes"
        },
        {
          "internalType": "bytes",
          "name": "_encodedAssetTransferArgs",
          "type": "bytes"
        }
      ],
      "name": "claimRewards",
      "outputs": [],
      "stateMutability": "nonpayable",
      "type": "function"
    },
    {
      "inputs": [
        {
          "internalType": "address",
          "name": "_vaultProxy",
          "type": "address"
        },
        {
          "internalType": "bytes",
          "name": "_encodedCallArgs",
          "type": "bytes"
        },
        {
          "internalType": "bytes",
          "name": "_encodedAssetTransferArgs",
          "type": "bytes"
        }
      ],
      "name": "claimRewardsAndReinvest",
      "outputs": [],
      "stateMutability": "nonpayable",
      "type": "function"
    },
    {
      "inputs": [
        {
          "internalType": "address",
          "name": "_vaultProxy",
          "type": "address"
        },
        {
          "internalType": "bytes",
          "name": "_encodedCallArgs",
          "type": "bytes"
        },
        {
          "internalType": "bytes",
          "name": "_encodedAssetTransferArgs",
          "type": "bytes"
        }
      ],
      "name": "claimRewardsAndSwap",
      "outputs": [],
      "stateMutability": "nonpayable",
      "type": "function"
    },
    {
      "inputs": [],
      "name": "getIdlePriceFeed",
      "outputs": [
        {
          "internalType": "address",
          "name": "idlePriceFeed_",
          "type": "address"
        }
      ],
      "stateMutability": "view",
      "type": "function"
    },
    {
      "inputs": [],
      "name": "getIntegrationManager",
      "outputs": [
        {
          "internalType": "address",
          "name": "integrationManager_",
          "type": "address"
        }
      ],
      "stateMutability": "view",
      "type": "function"
    },
    {
      "inputs": [],
      "name": "getUniswapV2Router2",
      "outputs": [
        {
          "internalType": "address",
          "name": "router_",
          "type": "address"
        }
      ],
      "stateMutability": "view",
      "type": "function"
    },
    {
      "inputs": [],
      "name": "getWethToken",
      "outputs": [
        {
          "internalType": "address",
          "name": "wethToken_",
          "type": "address"
        }
      ],
      "stateMutability": "view",
      "type": "function"
    },
    {
      "inputs": [],
      "name": "identifier",
      "outputs": [
        {
          "internalType": "string",
          "name": "identifier_",
          "type": "string"
        }
      ],
      "stateMutability": "pure",
      "type": "function"
    },
    {
      "inputs": [
        {
          "internalType": "address",
          "name": "_vaultProxy",
          "type": "address"
        },
        {
          "internalType": "bytes",
          "name": "",
          "type": "bytes"
        },
        {
          "internalType": "bytes",
          "name": "_encodedAssetTransferArgs",
          "type": "bytes"
        }
      ],
      "name": "lend",
      "outputs": [],
      "stateMutability": "nonpayable",
      "type": "function"
    },
    {
      "inputs": [
        {
          "internalType": "bytes4",
          "name": "_selector",
          "type": "bytes4"
        },
        {
          "internalType": "bytes",
          "name": "_encodedCallArgs",
          "type": "bytes"
        }
      ],
      "name": "parseAssetsForMethod",
      "outputs": [
        {
          "internalType": "enum IIntegrationManager.SpendAssetsHandleType",
          "name": "spendAssetsHandleType_",
          "type": "uint8"
        },
        {
          "internalType": "address[]",
          "name": "spendAssets_",
          "type": "address[]"
        },
        {
          "internalType": "uint256[]",
          "name": "spendAssetAmounts_",
          "type": "uint256[]"
        },
        {
          "internalType": "address[]",
          "name": "incomingAssets_",
          "type": "address[]"
        },
        {
          "internalType": "uint256[]",
          "name": "minIncomingAssetAmounts_",
          "type": "uint256[]"
        }
      ],
      "stateMutability": "view",
      "type": "function"
    },
    {
      "inputs": [
        {
          "internalType": "address",
          "name": "_vaultProxy",
          "type": "address"
        },
        {
          "internalType": "bytes",
          "name": "_encodedCallArgs",
          "type": "bytes"
        },
        {
          "internalType": "bytes",
          "name": "_encodedAssetTransferArgs",
          "type": "bytes"
        }
      ],
      "name": "redeem",
      "outputs": [],
      "stateMutability": "nonpayable",
      "type": "function"
    },
    {
      "inputs": [
        {
          "internalType": "address",
          "name": "",
          "type": "address"
        },
        {
          "internalType": "bytes",
          "name": "",
          "type": "bytes"
        },
        {
          "internalType": "bytes",
          "name": "",
          "type": "bytes"
        }
      ],
      "name": "swapForRedeem",
      "outputs": [],
      "stateMutability": "nonpayable",
      "type": "function"
    }
  ],
  "bytecode": "0x61010060405234801561001157600080fd5b506040516136f73803806136f78339818101604052608081101561003457600080fd5b508051602082015160408301516060938401516001600160601b031993851b8416608052841b831660a05290831b821660c05290911b1660e05260805160601c60a05160601c60c05160601c60e05160601c6136166100e160003980610bdc5280610c94528061128a525080610e4852806126e65250806111175280612add5280612b045250806109675280610ae35280610e995280610fa25280611144528061139752506136166000f3fe608060405234801561001057600080fd5b50600436106101735760003560e01c8063863e5ad0116100de578063d1ded40811610097578063e4d9047811610071578063e4d9047814610918578063e7c4569014610920578063f075399414610928578063f7d882b51461093057610173565b8063d1ded4081461083a578063dfd5ee0f14610842578063e27a06b51461091057610173565b8063863e5ad0146106865780639337baac1461034b578063a21f9a2c1461068e578063b23228cf14610696578063b9dfbacc1461069e578063c29fa9dd1461076c57610173565b80633ffc1591116101305780633ffc15911461041957806340da225d146104215780634c252f91146104295780635ca62b3c1461044d57806376cc7ac6146104555780637998a1c41461060957610173565b8063080456c114610178578063099f75151461019d578063131461c01461026d5780631d51f49b14610275578063257cb1a3146103435780633377e18a1461034b575b600080fd5b610180610938565b604080516001600160e01b03199092168252519081900360200190f35b61026b600480360360608110156101b357600080fd5b6001600160a01b038235169190810190604081016020820135600160201b8111156101dd57600080fd5b8201836020820111156101ef57600080fd5b803590602001918460018302840111600160201b8311171561021057600080fd5b919390929091602081019035600160201b81111561022d57600080fd5b82018360208201111561023f57600080fd5b803590602001918460018302840111600160201b8311171561026057600080fd5b50909250905061095c565b005b610180610ab4565b61026b6004803603606081101561028b57600080fd5b6001600160a01b038235169190810190604081016020820135600160201b8111156102b557600080fd5b8201836020820111156102c757600080fd5b803590602001918460018302840111600160201b831117156102e857600080fd5b919390929091602081019035600160201b81111561030557600080fd5b82018360208201111561031757600080fd5b803590602001918460018302840111600160201b8311171561033857600080fd5b509092509050610ad8565b610180610c1f565b61026b6004803603606081101561036157600080fd5b6001600160a01b038235169190810190604081016020820135600160201b81111561038b57600080fd5b82018360208201111561039d57600080fd5b803590602001918460018302840111600160201b831117156103be57600080fd5b919390929091602081019035600160201b8111156103db57600080fd5b8201836020820111156103ed57600080fd5b803590602001918460018302840111600160201b8311171561040e57600080fd5b509092509050610c43565b610180610c4a565b610180610c6e565b610431610c92565b604080516001600160a01b039092168252519081900360200190f35b610180610cb6565b6104d46004803603604081101561046b57600080fd5b6001600160e01b03198235169190810190604081016020820135600160201b81111561049657600080fd5b8201836020820111156104a857600080fd5b803590602001918460018302840111600160201b831117156104c957600080fd5b509092509050610cda565b604051808660038111156104e457fe5b815260200180602001806020018060200180602001858103855289818151815260200191508051906020019060200280838360005b83811015610531578181015183820152602001610519565b50505050905001858103845288818151815260200191508051906020019060200280838360005b83811015610570578181015183820152602001610558565b50505050905001858103835287818151815260200191508051906020019060200280838360005b838110156105af578181015183820152602001610597565b50505050905001858103825286818151815260200191508051906020019060200280838360005b838110156105ee5781810151838201526020016105d6565b50505050905001995050505050505050505060405180910390f35b610611610e04565b6040805160208082528351818301528351919283929083019185019080838360005b8381101561064b578181015183820152602001610633565b50505050905090810190601f1680156106785780820380516001836020036101000a031916815260200191505b509250505060405180910390f35b610180610e22565b610431610e46565b610180610e6a565b61026b600480360360608110156106b457600080fd5b6001600160a01b038235169190810190604081016020820135600160201b8111156106de57600080fd5b8201836020820111156106f057600080fd5b803590602001918460018302840111600160201b8311171561071157600080fd5b919390929091602081019035600160201b81111561072e57600080fd5b82018360208201111561074057600080fd5b803590602001918460018302840111600160201b8311171561076157600080fd5b509092509050610e8e565b61026b6004803603606081101561078257600080fd5b6001600160a01b038235169190810190604081016020820135600160201b8111156107ac57600080fd5b8201836020820111156107be57600080fd5b803590602001918460018302840111600160201b831117156107df57600080fd5b919390929091602081019035600160201b8111156107fc57600080fd5b82018360208201111561080e57600080fd5b803590602001918460018302840111600160201b8311171561082f57600080fd5b509092509050610f97565b610431611115565b61026b6004803603606081101561085857600080fd5b6001600160a01b038235169190810190604081016020820135600160201b81111561088257600080fd5b82018360208201111561089457600080fd5b803590602001918460018302840111600160201b831117156108b557600080fd5b919390929091602081019035600160201b8111156108d257600080fd5b8201836020820111156108e457600080fd5b803590602001918460018302840111600160201b8311171561090557600080fd5b509092509050611139565b61018061134d565b610180611371565b610431611395565b6101806113b9565b6101806113dd565b7f8334eb99be0145865eba9889fca2ee920288090caefff4cc776038e20ad9259a81565b336001600160a01b037f000000000000000000000000000000000000000000000000000000000000000016146109c35760405162461bcd60e51b81526004018080602001828103825260328152602001806134536032913960400191505060405180910390fd5b8482828080601f01602080910402602001604051908101604052809392919081815260200183838082843760009201919091525050604080516020601f8801819004810282018101909252868152606093508392508291610a3f9190899089908190840183828082843760009201919091525061140192505050565b93509350935050610a8d81600081518110610a5657fe5b602002602001015184600081518110610a6b57fe5b602002602001015184600081518110610a8057fe5b60200260200101516115c9565b5050506060610a9b82611401565b9350505050610aaa8382611668565b5050505050505050565b7f29fa046e79524c3c5ac4c01df692c35e217802b2b13b21121b76cf0ef02b138c81565b336001600160a01b037f00000000000000000000000000000000000000000000000000000000000000001614610b3f5760405162461bcd60e51b81526004018080602001828103825260328152602001806134536032913960400191505060405180910390fd5b8482828080601f0160208091040260200160405190810160405280939291908181526020018383808284376000920182905250604080516020601f8c018190048102820181019092528a8152919450849350839250610bb991908b908b908190840183828082843760009201919091525061174992505050565b9450509350935050606080610bcf8c868561178f565b91509150610c008c8383877f00000000000000000000000000000000000000000000000000000000000000006117cf565b50505050506060610c1082611401565b5050915050610aaa8382611668565b7f099f75155f0e997bf83a7993a71d5e7e7540bd386fe1e84643a09ce6b412521981565b5050505050565b7ffa7dd04da627f433da73c4355ead9c75682a67a8fc84d3f6170ef0922f402d2481565b7fb9dfbaccbe5cd2a84fdcf1d15f23ef25d23086f5afbaa99516065ed4a5bbc7a381565b7f000000000000000000000000000000000000000000000000000000000000000090565b7fdfd5ee0f6067928bf85a7c4430811282840bc99332dda3dab462c02bf95b67cc81565b600060608080806001600160e01b031988166319bbf0c560e11b1415610d1357610d048787611a43565b94509450945094509450610df9565b6001600160e01b03198816632e77eeb360e21b1415610d3657610d048787611c1a565b6001600160e01b0319881663dfd5ee0f60e01b1415610d5957610d048787611cd5565b6001600160e01b03198816631d51f49b60e01b1415610d7c57610d048787611dc6565b6001600160e01b0319881663099f751560e01b1415610d9f57610d048787611f15565b6001600160e01b0319881663c29fa9dd60e01b1415610dc257610d0487876120aa565b60405162461bcd60e51b81526004018080602001828103825260278152602001806134066027913960400191505060405180910390fd5b939792965093509350565b60408051808201909152600481526349444c4560e01b602082015290565b7f03e38a2bd7063d45c897edeafc330e71657502dd86434d3c37a489caf116af6981565b7f000000000000000000000000000000000000000000000000000000000000000090565b7f68e30677f607df46e87da13e15b637784cfa62374b653f35ab43d10361a2f83081565b336001600160a01b037f00000000000000000000000000000000000000000000000000000000000000001614610ef55760405162461bcd60e51b81526004018080602001828103825260328152602001806134536032913960400191505060405180910390fd5b8482828080601f0160208091040260200160405190810160405280939291908181526020018383808284376000920182905250604080516020601f8c018190048102820181019092528a8152919450610f6c935090915089908990819084018382808284376000920191909152506121fb92505050565b915050610f7881612226565b610f8a88610f8583612297565b61249f565b50506060610c1082611401565b336001600160a01b037f00000000000000000000000000000000000000000000000000000000000000001614610ffe5760405162461bcd60e51b81526004018080602001828103825260328152602001806134536032913960400191505060405180910390fd5b8482828080601f0160208091040260200160405190810160405280939291908181526020018383808284376000920182905250604080516020601f8c018190048102820181019092528a8152919450611075935090915089908990819084018382808284376000920191909152506125fb92505050565b505090506110fb81826001600160a01b03166370a08231306040518263ffffffff1660e01b815260040180826001600160a01b0316815260200191505060206040518083038186803b1580156110ca57600080fd5b505afa1580156110de573d6000803e3d6000fd5b505050506040513d60208110156110f457600080fd5b505161262f565b61110888610f8583612297565b50506060610a9b82611401565b7f000000000000000000000000000000000000000000000000000000000000000090565b336001600160a01b037f000000000000000000000000000000000000000000000000000000000000000016146111a05760405162461bcd60e51b81526004018080602001828103825260328152602001806134536032913960400191505060405180910390fd5b8482828080601f0160208091040260200160405190810160405280939291908181526020018383808284376000920182905250604080516020601f8c018190048102820181019092528a815291945084935061121792508a908a90819084018382808284376000920191909152506126a592505050565b9350509250506000611228836126e2565b90506001600160a01b03811661126f5760405162461bcd60e51b815260040180806020018281038252602e815260200180613485602e913960400191505060405180910390fd5b60608061127d8c868661178f565b915091506112ae308383867f00000000000000000000000000000000000000000000000000000000000000006117cf565b6000836001600160a01b03166370a08231306040518263ffffffff1660e01b815260040180826001600160a01b0316815260200191505060206040518083038186803b1580156112fd57600080fd5b505afa158015611311573d6000803e3d6000fd5b505050506040513d602081101561132757600080fd5b50519050801561133c5761133c8685836115c9565b5050505050506060610c1082611401565b7f848f3a590fb2f9795d1a275009c54c26c53833277c96b90e0ddd01753a1d590681565b7f3377e18acf9e83665eacd6af109261424fca32a298e2fc2e6095ba563fb8390e81565b7f000000000000000000000000000000000000000000000000000000000000000090565b7f1d51f49b5273d9ddbb643dc349fab8d36dbb470209c2ea71033bea49dd311c2781565b7fc29fa9dde84204c2908778afd0613d802d31cf046179b88f6d2b4a4e507ea2d581565b6000606080606084806020019051608081101561141d57600080fd5b815160208301805160405192949293830192919084600160201b82111561144357600080fd5b90830190602082018581111561145857600080fd5b82518660208202830111600160201b8211171561147457600080fd5b82525081516020918201928201910280838360005b838110156114a1578181015183820152602001611489565b5050505090500160405260200180516040519392919084600160201b8211156114c957600080fd5b9083019060208201858111156114de57600080fd5b82518660208202830111600160201b821117156114fa57600080fd5b82525081516020918201928201910280838360005b8381101561152757818101518382015260200161150f565b5050505090500160405260200180516040519392919084600160201b82111561154f57600080fd5b90830190602082018581111561156457600080fd5b82518660208202830111600160201b8211171561158057600080fd5b82525081516020918201928201910280838360005b838110156115ad578181015183820152602001611595565b5050505090500160405250505093509350935093509193509193565b6115d4828483612783565b60408051632befabbf60e01b81526004810183905260016024820152731ad1fc9964c551f456238dd88d6a38344b5319d7604482015290516001600160a01b03851691632befabbf9160648083019260209291908290030181600087803b15801561163e57600080fd5b505af1158015611652573d6000803e3d6000fd5b505050506040513d6020811015610c4357600080fd5b60005b815181101561174457600082828151811061168257fe5b60200260200101516001600160a01b03166370a08231306040518263ffffffff1660e01b815260040180826001600160a01b0316815260200191505060206040518083038186803b1580156116d657600080fd5b505afa1580156116ea573d6000803e3d6000fd5b505050506040513d602081101561170057600080fd5b50519050801561173b5761173b848285858151811061171b57fe5b60200260200101516001600160a01b031661281b9092919063ffffffff16565b5060010161166b565b505050565b60008060008060008580602001905160a081101561176657600080fd5b508051602082015160408301516060840151608090940151929a91995097509195509350915050565b60608061179b84612226565b6117a484612297565b915082156117b8576117b6858361286d565b505b816117c330846129c3565b91509150935093915050565b60006001600160a01b03821615806117f85750826001600160a01b0316826001600160a01b0316145b905060005b8551811015611a3a5784818151811061181257fe5b60200260200101516000148061184d575060006001600160a01b031686828151811061183a57fe5b60200260200101516001600160a01b0316145b8061187c5750836001600160a01b031686828151811061186957fe5b60200260200101516001600160a01b0316145b1561188657611a32565b606082806118b85750836001600160a01b03168783815181106118a557fe5b60200260200101516001600160a01b0316145b156119515760408051600280825260608201835290916020830190803683370190505090508682815181106118e957fe5b6020026020010151816000815181106118fe57fe5b60200260200101906001600160a01b031690816001600160a01b031681525050848160018151811061192c57fe5b60200260200101906001600160a01b031690816001600160a01b031681525050611a10565b60408051600380825260808201909252906020820160608036833701905050905086828151811061197e57fe5b60200260200101518160008151811061199357fe5b60200260200101906001600160a01b031690816001600160a01b03168152505083816001815181106119c157fe5b60200260200101906001600160a01b031690816001600160a01b03168152505084816002815181106119ef57fe5b60200260200101906001600160a01b031690816001600160a01b0316815250505b611a3088878481518110611a2057fe5b6020026020010151600184612ac3565b505b6001016117fd565b50505050505050565b60006060806060806000611a8c88888080601f016020809104026020016040519081016040528093929190818152602001838380828437600092019190915250612ca492505050565b909650945090506000611a9e826126e2565b6001600160a01b03161415611ae45760405162461bcd60e51b815260040180806020018281038252603481526020018061354d6034913960400191505060405180910390fd5b8351855114611b245760405162461bcd60e51b815260040180806020018281038252602d81526020018061337b602d913960400191505060405180910390fd5b6060611b2f82612297565b905060005b8651811015611bc2576000868281518110611b4b57fe5b60200260200101511115611bba57611b7f878281518110611b6857fe5b602002602001015183612de290919063ffffffff16565b611bba5760405162461bcd60e51b81526004018080602001828103825260338152602001806133d36033913960400191505060405180910390fd5b600101611b34565b50600186866000805b50604051908082528060200260200182016040528015611bf5578160200160208202803683370190505b50604080516000815260208101909152939d929c50909a509850909650945050505050565b6000606080606080600080611c6489898080601f0160208091040260200160405190810160405280939291908181526020018383808284376000920191909152506121fb92505050565b90925090506000611c74826126e2565b6001600160a01b03161415611cba5760405162461bcd60e51b81526004018080602001828103825260338152602001806134b36033913960400191505060405180910390fd5b611cc48282612e38565b909650945060028686600080611bcb565b60006060806060806000806000611d218a8a8080601f0160208091040260200160405190810160405280939291908181526020018383808284376000920191909152506126a592505050565b50925092509250611d328383612e38565b604080516001808252818301909252929950909750602080830190803683370190505094508185600081518110611d6557fe5b6001600160a01b03929092166020928302919091018201526040805160018082528183019092529182810190803683370190505093508084600081518110611da957fe5b602002602001018181525050600297505050509295509295909350565b6000606080606080600080600080611e138b8b8080601f01602080910402602001604051908101604052809392919081815260200183838082843760009201919091525061174992505050565b50935093509350935060006001600160a01b0316611e30846126e2565b6001600160a01b03161415611e765760405162461bcd60e51b815260040180806020018281038252603a815260200180613513603a913960400191505060405180910390fd5b611e808484612e38565b604080516001808252818301909252929a50909850602080830190803683370190505095508186600081518110611eb357fe5b6001600160a01b03929092166020928302919091018201526040805160018082528183019092529182810190803683370190505094508085600081518110611ef757fe5b60200260200101818152505060029850505050509295509295909350565b60006060806060806000806000611f618a8a8080601f0160208091040260200160405190810160405280939291908181526020018383808284376000920191909152506125fb92505050565b9250925092506000611f72846126e2565b90506001600160a01b038116611fb95760405162461bcd60e51b815260040180806020018281038252602b8152602001806133a8602b913960400191505060405180910390fd5b60408051600180825281830190925290602080830190803683370190505097508088600081518110611fe757fe5b6001600160a01b0392909216602092830291909101820152604080516001808252818301909252918281019080368337019050509650828760008151811061202b57fe5b602090810291909101015260408051600180825281830190925290816020016020820280368337019050509550838660008151811061206657fe5b6001600160a01b03929092166020928302919091018201526040805160018082528183019092529182810190803683370190505094508185600081518110611ef757fe5b600060608060608060008060006120f68a8a8080601f0160208091040260200160405190810160405280939291908181526020018383808284376000920191909152506125fb92505050565b9250925092506000612107846126e2565b90506001600160a01b03811661214e5760405162461bcd60e51b815260040180806020018281038252602d8152602001806134e6602d913960400191505060405180910390fd5b6040805160018082528183019092529060208083019080368337019050509750838860008151811061217c57fe5b6001600160a01b039290921660209283029190910182015260408051600180825281830190925291828101908036833701905050965082876000815181106121c057fe5b602090810291909101015260408051600180825281830190925290816020016020820280368337019050509550808660008151811061206657fe5b60008082806020019051604081101561221357600080fd5b5080516020909101519092509050915091565b806001600160a01b0316638b30b51660006040518263ffffffff1660e01b815260040180828152602001915050602060405180830381600087803b15801561226d57600080fd5b505af1158015612281573d6000803e3d6000fd5b505050506040513d602081101561174457600080fd5b604080516350b28af760e01b8152600060048201819052915160609284926001600160a01b038416926350b28af792602480840193919291829003018186803b1580156122e357600080fd5b505afa1580156122f7573d6000803e3d6000fd5b505050506040513d6000823e601f3d908101601f19168201604052602081101561232057600080fd5b8101908080516040519392919084600160201b82111561233f57600080fd5b90830190602082018581111561235457600080fd5b82518660208202830111600160201b8211171561237057600080fd5b82525081516020918201928201910280838360005b8381101561239d578181015183820152602001612385565b505050509050016040525050505167ffffffffffffffff811180156123c157600080fd5b506040519080825280602002602001820160405280156123eb578160200160208202803683370190505b50915060005b825181101561249857816001600160a01b031663746daa4e826040518263ffffffff1660e01b81526004018082815260200191505060206040518083038186803b15801561243e57600080fd5b505afa158015612452573d6000803e3d6000fd5b505050506040513d602081101561246857600080fd5b5051835184908390811061247857fe5b6001600160a01b03909216602092830291909101909101526001016123f1565b5050919050565b6060815167ffffffffffffffff811180156124b957600080fd5b506040519080825280602002602001820160405280156124e3578160200160208202803683370190505b50905060005b82518110156125f357600083828151811061250057fe5b60200260200101519050806001600160a01b03166370a08231306040518263ffffffff1660e01b815260040180826001600160a01b0316815260200191505060206040518083038186803b15801561255757600080fd5b505afa15801561256b573d6000803e3d6000fd5b505050506040513d602081101561258157600080fd5b5051835184908490811061259157fe5b60200260200101818152505060008383815181106125ab57fe5b602002602001015111156125ea576125ea858484815181106125c957fe5b6020026020010151836001600160a01b031661281b9092919063ffffffff16565b506001016124e9565b505b92915050565b600080600083806020019051606081101561261557600080fd5b508051602082015160409092015190969195509350915050565b816001600160a01b0316638b30b516826040518263ffffffff1660e01b815260040180828152602001915050602060405180830381600087803b15801561267557600080fd5b505af1158015612689573d6000803e3d6000fd5b505050506040513d602081101561269f57600080fd5b50505050565b6000806000808480602001905160808110156126c057600080fd5b5080516020820151604083015160609093015191989097509195509350915050565b60007f00000000000000000000000000000000000000000000000000000000000000006001600160a01b03166366adb867836040518263ffffffff1660e01b815260040180826001600160a01b0316815260200191505060206040518083038186803b15801561275157600080fd5b505afa158015612765573d6000803e3d6000fd5b505050506040513d602081101561277b57600080fd5b505192915050565b60408051636eb1769f60e11b81523060048201526001600160a01b0384811660248301529151839286169163dd62ed3e916044808301926020929190829003018186803b1580156127d357600080fd5b505afa1580156127e7573d6000803e3d6000fd5b505050506040513d60208110156127fd57600080fd5b50511015611744576117446001600160a01b03841683600019612f3a565b604080516001600160a01b038416602482015260448082018490528251808303909101815260649091019091526020810180516001600160e01b031663a9059cbb60e01b179052611744908490613049565b6060815167ffffffffffffffff8111801561288757600080fd5b506040519080825280602002602001820160405280156128b1578160200160208202803683370190505b50905060005b82518110156125f35760008382815181106128ce57fe5b60200260200101519050806001600160a01b03166370a08231866040518263ffffffff1660e01b815260040180826001600160a01b0316815260200191505060206040518083038186803b15801561292557600080fd5b505afa158015612939573d6000803e3d6000fd5b505050506040513d602081101561294f57600080fd5b5051835184908490811061295f57fe5b602002602001018181525050600083838151811061297957fe5b602002602001015111156129ba576129ba853085858151811061299857fe5b6020026020010151846001600160a01b03166130fa909392919063ffffffff16565b506001016128b7565b6060815167ffffffffffffffff811180156129dd57600080fd5b50604051908082528060200260200182016040528015612a07578160200160208202803683370190505b50905060005b82518110156125f357828181518110612a2257fe5b60200260200101516001600160a01b03166370a08231856040518263ffffffff1660e01b815260040180826001600160a01b0316815260200191505060206040518083038186803b158015612a7657600080fd5b505afa158015612a8a573d6000803e3d6000fd5b505050506040513d6020811015612aa057600080fd5b50518251839083908110612ab057fe5b6020908102919091010152600101612a0d565b612b0281600081518110612ad357fe5b60200260200101517f000000000000000000000000000000000000000000000000000000000000000085612783565b7f00000000000000000000000000000000000000000000000000000000000000006001600160a01b03166338ed173984848488612b3d613154565b6040518663ffffffff1660e01b81526004018086815260200185815260200180602001846001600160a01b03168152602001838152602001828103825285818151815260200191508051906020019060200280838360005b83811015612bad578181015183820152602001612b95565b505050509050019650505050505050600060405180830381600087803b158015612bd657600080fd5b505af1158015612bea573d6000803e3d6000fd5b505050506040513d6000823e601f3d908101601f191682016040526020811015612c1357600080fd5b8101908080516040519392919084600160201b821115612c3257600080fd5b908301906020820185811115612c4757600080fd5b82518660208202830111600160201b82111715612c6357600080fd5b82525081516020918201928201910280838360005b83811015612c90578181015183820152602001612c78565b505050509050016040525050505050505050565b6000606080838060200190516060811015612cbe57600080fd5b815160208301805160405192949293830192919084600160201b821115612ce457600080fd5b908301906020820185811115612cf957600080fd5b82518660208202830111600160201b82111715612d1557600080fd5b82525081516020918201928201910280838360005b83811015612d42578181015183820152602001612d2a565b5050505090500160405260200180516040519392919084600160201b821115612d6a57600080fd5b908301906020820185811115612d7f57600080fd5b82518660208202830111600160201b82111715612d9b57600080fd5b82525081516020918201928201910280838360005b83811015612dc8578181015183820152602001612db0565b505050509050016040525050509250925092509193909250565b6000805b8351811015612e2e57838181518110612dfb57fe5b60200260200101516001600160a01b0316836001600160a01b03161415612e265760019150506125f5565b600101612de6565b5060009392505050565b604080516001808252818301909252606091829190602080830190803683370190505091508282600081518110612e6b57fe5b6001600160a01b0392909216602092830291909101820152604080516001808252818301909252918281019080368337019050509050826001600160a01b03166370a08231856040518263ffffffff1660e01b815260040180826001600160a01b0316815260200191505060206040518083038186803b158015612eee57600080fd5b505afa158015612f02573d6000803e3d6000fd5b505050506040513d6020811015612f1857600080fd5b505181518290600090612f2757fe5b6020026020010181815250509250929050565b801580612fc0575060408051636eb1769f60e11b81523060048201526001600160a01b03848116602483015291519185169163dd62ed3e91604480820192602092909190829003018186803b158015612f9257600080fd5b505afa158015612fa6573d6000803e3d6000fd5b505050506040513d6020811015612fbc57600080fd5b5051155b612ffb5760405162461bcd60e51b81526004018080602001828103825260368152602001806135ab6036913960400191505060405180910390fd5b604080516001600160a01b038416602482015260448082018490528251808303909101815260649091019091526020810180516001600160e01b031663095ea7b360e01b1790526117449084905b606061309e826040518060400160405280602081526020017f5361666545524332303a206c6f772d6c6576656c2063616c6c206661696c6564815250856001600160a01b031661315b9092919063ffffffff16565b805190915015611744578080602001905160208110156130bd57600080fd5b50516117445760405162461bcd60e51b815260040180806020018281038252602a815260200180613581602a913960400191505060405180910390fd5b604080516001600160a01b0380861660248301528416604482015260648082018490528251808303909101815260849091019091526020810180516001600160e01b03166323b872dd60e01b17905261269f908590613049565b6001420190565b606061316a8484600085613174565b90505b9392505050565b6060824710156131b55760405162461bcd60e51b815260040180806020018281038252602681526020018061342d6026913960400191505060405180910390fd5b6131be856132d0565b61320f576040805162461bcd60e51b815260206004820152601d60248201527f416464726573733a2063616c6c20746f206e6f6e2d636f6e7472616374000000604482015290519081900360640190fd5b60006060866001600160a01b031685876040518082805190602001908083835b6020831061324e5780518252601f19909201916020918201910161322f565b6001836020036101000a03801982511681845116808217855250505050505090500191505060006040518083038185875af1925050503d80600081146132b0576040519150601f19603f3d011682016040523d82523d6000602084013e6132b5565b606091505b50915091506132c58282866132d6565b979650505050505050565b3b151590565b606083156132e557508161316d565b8251156132f55782518084602001fd5b8160405162461bcd60e51b81526004018080602001828103825283818151815260200191508051906020019080838360005b8381101561333f578181015183820152602001613327565b50505050905090810190601f16801561336c5780820380516001836020036101000a031916815260200191505b509250505060405180910390fdfe5f5f7061727365417373657473466f72417070726f76654173736574733a20556e657175616c206172726179735f5f7061727365417373657473466f724c656e643a20556e737570706f727465642069646c65546f6b656e5f5f7061727365417373657473466f72417070726f76654173736574733a20496e76616c69642072657761726420746f6b656e7061727365417373657473466f724d6574686f643a205f73656c6563746f7220696e76616c6964416464726573733a20696e73756666696369656e742062616c616e636520666f722063616c6c4f6e6c792074686520496e746567726174696f6e4d616e616765722063616e2063616c6c20746869732066756e6374696f6e636c61696d52657761726473416e645265696e766573743a20556e737570706f727465642069646c65546f6b656e5f5f7061727365417373657473466f72436c61696d526577617264733a20556e737570706f727465642069646c65546f6b656e5f5f7061727365417373657473466f7252656465656d3a20556e737570706f727465642069646c65546f6b656e5f5f7061727365417373657473466f72436c61696d52657761726473416e64537761703a20556e737570706f727465642069646c65546f6b656e5f5f7061727365417373657473466f72417070726f76654173736574733a20556e737570706f727465642069646c65546f6b656e5361666545524332303a204552433230206f7065726174696f6e20646964206e6f7420737563636565645361666545524332303a20617070726f76652066726f6d206e6f6e2d7a65726f20746f206e6f6e2d7a65726f20616c6c6f77616e6365a2646970667358221220fa28186c6efb85d5c93e2c95b79a943aad165a91352e8148cfdda4eb293198ec64736f6c634300060c0033",
  "linkReferences": {},
  "deployedLinkReferences": {}
}