{
  "_format": "hh-sol-artifact-1",
  "contractName": "MockVaultLib",
  "sourceName": "contracts/mocks/MockVaultLib.sol",
  "abi": [
    {
      "anonymous": false,
      "inputs": [
        {
          "indexed": false,
          "internalType": "address",
          "name": "prevAccessor",
          "type": "address"
        },
        {
          "indexed": false,
          "internalType": "address",
          "name": "nextAccessor",
          "type": "address"
        }
      ],
      "name": "AccessorSet",
      "type": "event"
    },
    {
      "anonymous": false,
      "inputs": [
        {
          "indexed": true,
          "internalType": "address",
          "name": "owner",
          "type": "address"
        },
        {
          "indexed": true,
          "internalType": "address",
          "name": "spender",
          "type": "address"
        },
        {
          "indexed": false,
          "internalType": "uint256",
          "name": "value",
          "type": "uint256"
        }
      ],
      "name": "Approval",
      "type": "event"
    },
    {
      "anonymous": false,
      "inputs": [
        {
          "indexed": false,
          "internalType": "address",
          "name": "prevMigrator",
          "type": "address"
        },
        {
          "indexed": false,
          "internalType": "address",
          "name": "nextMigrator",
          "type": "address"
        }
      ],
      "name": "MigratorSet",
      "type": "event"
    },
    {
      "anonymous": false,
      "inputs": [
        {
          "indexed": false,
          "internalType": "address",
          "name": "prevOwner",
          "type": "address"
        },
        {
          "indexed": false,
          "internalType": "address",
          "name": "nextOwner",
          "type": "address"
        }
      ],
      "name": "OwnerSet",
      "type": "event"
    },
    {
      "anonymous": false,
      "inputs": [
        {
          "indexed": true,
          "internalType": "address",
          "name": "from",
          "type": "address"
        },
        {
          "indexed": true,
          "internalType": "address",
          "name": "to",
          "type": "address"
        },
        {
          "indexed": false,
          "internalType": "uint256",
          "name": "value",
          "type": "uint256"
        }
      ],
      "name": "Transfer",
      "type": "event"
    },
    {
      "anonymous": false,
      "inputs": [
        {
          "indexed": false,
          "internalType": "address",
          "name": "prevVaultLib",
          "type": "address"
        },
        {
          "indexed": false,
          "internalType": "address",
          "name": "nextVaultLib",
          "type": "address"
        }
      ],
      "name": "VaultLibSet",
      "type": "event"
    },
    {
      "inputs": [
        {
          "internalType": "address",
          "name": "_owner",
          "type": "address"
        },
        {
          "internalType": "address",
          "name": "_spender",
          "type": "address"
        }
      ],
      "name": "allowance",
      "outputs": [
        {
          "internalType": "uint256",
          "name": "",
          "type": "uint256"
        }
      ],
      "stateMutability": "view",
      "type": "function"
    },
    {
      "inputs": [
        {
          "internalType": "address",
          "name": "_spender",
          "type": "address"
        },
        {
          "internalType": "uint256",
          "name": "_amount",
          "type": "uint256"
        }
      ],
      "name": "approve",
      "outputs": [
        {
          "internalType": "bool",
          "name": "",
          "type": "bool"
        }
      ],
      "stateMutability": "nonpayable",
      "type": "function"
    },
    {
      "inputs": [
        {
          "internalType": "address",
          "name": "_account",
          "type": "address"
        }
      ],
      "name": "balanceOf",
      "outputs": [
        {
          "internalType": "uint256",
          "name": "",
          "type": "uint256"
        }
      ],
      "stateMutability": "view",
      "type": "function"
    },
    {
      "inputs": [
        {
          "internalType": "address",
          "name": "_who",
          "type": "address"
        }
      ],
      "name": "canMigrate",
      "outputs": [
        {
          "internalType": "bool",
          "name": "canMigrate_",
          "type": "bool"
        }
      ],
      "stateMutability": "view",
      "type": "function"
    },
    {
      "inputs": [],
      "name": "decimals",
      "outputs": [
        {
          "internalType": "uint8",
          "name": "",
          "type": "uint8"
        }
      ],
      "stateMutability": "pure",
      "type": "function"
    },
    {
      "inputs": [],
      "name": "getAccessor",
      "outputs": [
        {
          "internalType": "address",
          "name": "",
          "type": "address"
        }
      ],
      "stateMutability": "view",
      "type": "function"
    },
    {
      "inputs": [],
      "name": "getCreator",
      "outputs": [
        {
          "internalType": "address",
          "name": "",
          "type": "address"
        }
      ],
      "stateMutability": "view",
      "type": "function"
    },
    {
      "inputs": [],
      "name": "getMigrator",
      "outputs": [
        {
          "internalType": "address",
          "name": "",
          "type": "address"
        }
      ],
      "stateMutability": "view",
      "type": "function"
    },
    {
      "inputs": [],
      "name": "getOwner",
      "outputs": [
        {
          "internalType": "address",
          "name": "",
          "type": "address"
        }
      ],
      "stateMutability": "view",
      "type": "function"
    },
    {
      "inputs": [],
      "name": "getVaultLib",
      "outputs": [
        {
          "internalType": "address",
          "name": "vaultLib_",
          "type": "address"
        }
      ],
      "stateMutability": "view",
      "type": "function"
    },
    {
      "inputs": [
        {
          "internalType": "address",
          "name": "_owner",
          "type": "address"
        },
        {
          "internalType": "address",
          "name": "_accessor",
          "type": "address"
        },
        {
          "internalType": "string",
          "name": "_fundName",
          "type": "string"
        }
      ],
      "name": "init",
      "outputs": [],
      "stateMutability": "nonpayable",
      "type": "function"
    },
    {
      "inputs": [],
      "name": "name",
      "outputs": [
        {
          "internalType": "string",
          "name": "",
          "type": "string"
        }
      ],
      "stateMutability": "view",
      "type": "function"
    },
    {
      "inputs": [],
      "name": "proxiableUUID",
      "outputs": [
        {
          "internalType": "bytes32",
          "name": "uuid_",
          "type": "bytes32"
        }
      ],
      "stateMutability": "pure",
      "type": "function"
    },
    {
      "inputs": [
        {
          "internalType": "address",
          "name": "_nextAccessor",
          "type": "address"
        }
      ],
      "name": "setAccessor",
      "outputs": [],
      "stateMutability": "nonpayable",
      "type": "function"
    },
    {
      "inputs": [
        {
          "internalType": "address",
          "name": "_nextVaultLib",
          "type": "address"
        }
      ],
      "name": "setVaultLib",
      "outputs": [],
      "stateMutability": "nonpayable",
      "type": "function"
    },
    {
      "inputs": [],
      "name": "symbol",
      "outputs": [
        {
          "internalType": "string",
          "name": "",
          "type": "string"
        }
      ],
      "stateMutability": "view",
      "type": "function"
    },
    {
      "inputs": [],
      "name": "totalSupply",
      "outputs": [
        {
          "internalType": "uint256",
          "name": "",
          "type": "uint256"
        }
      ],
      "stateMutability": "view",
      "type": "function"
    },
    {
      "inputs": [
        {
          "internalType": "address",
          "name": "_recipient",
          "type": "address"
        },
        {
          "internalType": "uint256",
          "name": "_amount",
          "type": "uint256"
        }
      ],
      "name": "transfer",
      "outputs": [
        {
          "internalType": "bool",
          "name": "",
          "type": "bool"
        }
      ],
      "stateMutability": "nonpayable",
      "type": "function"
    },
    {
      "inputs": [
        {
          "internalType": "address",
          "name": "_sender",
          "type": "address"
        },
        {
          "internalType": "address",
          "name": "_recipient",
          "type": "address"
        },
        {
          "internalType": "uint256",
          "name": "_amount",
          "type": "uint256"
        }
      ],
      "name": "transferFrom",
      "outputs": [
        {
          "internalType": "bool",
          "name": "",
          "type": "bool"
        }
      ],
      "stateMutability": "nonpayable",
      "type": "function"
    }
  ],
  "bytecode": "0x608060405234801561001057600080fd5b50611112806100206000396000f3fe608060405234801561001057600080fd5b50600436106101215760003560e01c80635c9a6d37116100ad57806395d89b411161007157806395d89b4114610392578063a9059cbb1461039a578063ab9253ac146103c6578063cd63d578146103ec578063dd62ed3e146103f457610121565b80635c9a6d37146102ad578063682cea191461033657806370a082311461033e5780637de07cea14610364578063893d20e81461038a57610121565b806323b872dd116100f457806323b872dd14610221578063313ce567146102575780634140d6071461027557806352d1902d1461029d5780635a53e348146102a557610121565b806306fdde0314610126578063095ea7b3146101a35780630ee2cb10146101e357806318160ddd14610207575b600080fd5b61012e610422565b6040805160208082528351818301528351919283929083019185019080838360005b83811015610168578181015183820152602001610150565b50505050905090810190601f1680156101955780820380516001836020036101000a031916815260200191505b509250505060405180910390f35b6101cf600480360360408110156101b957600080fd5b506001600160a01b0381351690602001356104b8565b604080519115158252519081900360200190f35b6101eb6104ce565b604080516001600160a01b039092168252519081900360200190f35b61020f6104dd565b60408051918252519081900360200190f35b6101cf6004803603606081101561023757600080fd5b506001600160a01b038135811691602081013590911690604001356104e3565b61025f61054c565b6040805160ff9092168252519081900360200190f35b61029b6004803603602081101561028b57600080fd5b50356001600160a01b0316610551565b005b61020f6105f8565b6101eb61061c565b61029b600480360360608110156102c357600080fd5b6001600160a01b0382358116926020810135909116918101906060810160408201356401000000008111156102f757600080fd5b82018360208201111561030957600080fd5b8035906020019184600183028401116401000000008311171561032b57600080fd5b50909250905061062b565b6101eb610719565b61020f6004803603602081101561035457600080fd5b50356001600160a01b031661073e565b6101cf6004803603602081101561037a57600080fd5b50356001600160a01b0316610759565b6101eb61078b565b61012e61079a565b6101cf600480360360408110156103b057600080fd5b506001600160a01b0381351690602001356107fa565b61029b600480360360208110156103dc57600080fd5b50356001600160a01b0316610807565b6101eb61085c565b61020f6004803603604081101561040a57600080fd5b506001600160a01b038135811691602001351661086b565b60008054604080516020601f60026000196101006001881615020190951694909404938401819004810282018101909252828152606093909290918301828280156104ae5780601f10610483576101008083540402835291602001916104ae565b820191906000526020600020905b81548152906001019060200180831161049157829003601f168201915b5050505050905090565b60006104c5338484610896565b50600192915050565b6006546001600160a01b031690565b60025490565b60006104f0848484610982565b610542843361053d85604051806060016040528060288152602001610fc0602891396001600160a01b038a1660009081526004602090815260408083203384529091529020549190610ad4565b610896565b5060019392505050565b601290565b6006546001600160a01b0316331461059a5760405162461bcd60e51b8152600401808060200182810382526032815260200180610f8e6032913960400191505060405180910390fd5b60006105a4610719565b90506105af82610b6b565b604080516001600160a01b0380841682528416602082015281517fe504a0278c9d64c1a72d2f528a0c5e3686e093fcd478b3b1224a5c6983207df6929181900390910190a15050565b7f027b9570e9fedc1a80b937ae9a06861e5faef3992491af30b684a64b3fbec7a590565b6005546001600160a01b031690565b6006546001600160a01b031615610689576040805162461bcd60e51b815260206004820152601f60248201527f696e69743a2050726f787920616c726561647920696e697469616c697a656400604482015290519081900360640190fd5b600680546001600160a01b031916331790556106a760008383610e38565b506106b183610c51565b6106ba84610cf9565b7fe504a0278c9d64c1a72d2f528a0c5e3686e093fcd478b3b1224a5c6983207df660006106e5610719565b60405180836001600160a01b03168152602001826001600160a01b031681526020019250505060405180910390a150505050565b7f360894a13ba1a3210667c828492db98dca3e2076cc3735a920a3ca505d382bbc5490565b6001600160a01b031660009081526003602052604090205490565b6008546000906001600160a01b038381169116148061078557506007546001600160a01b038381169116145b92915050565b6008546001600160a01b031690565b60018054604080516020601f600260001961010087891615020190951694909404938401819004810282018101909252828152606093909290918301828280156104ae5780601f10610483576101008083540402835291602001916104ae565b60006104c5338484610982565b6006546001600160a01b031633146108505760405162461bcd60e51b81526004018080602001828103825260328152602001806110366032913960400191505060405180910390fd5b61085981610c51565b50565b6007546001600160a01b031690565b6001600160a01b03918216600090815260046020908152604080832093909416825291909152205490565b6001600160a01b0383166108db5760405162461bcd60e51b81526004018080602001828103825260248152602001806110b96024913960400191505060405180910390fd5b6001600160a01b0382166109205760405162461bcd60e51b8152600401808060200182810382526022815260200180610f206022913960400191505060405180910390fd5b6001600160a01b03808416600081815260046020908152604080832094871680845294825291829020859055815185815291517f8c5be1e5ebec7d5bd14f71427d1e84f3dd0314c0f7b2291e5b200ac8c7c3b9259281900390910190a3505050565b6001600160a01b0383166109c75760405162461bcd60e51b81526004018080602001828103825260258152602001806110686025913960400191505060405180910390fd5b6001600160a01b038216610a0c5760405162461bcd60e51b8152600401808060200182810382526023815260200180610ecc6023913960400191505060405180910390fd5b610a4981604051806060016040528060268152602001610f42602691396001600160a01b0386166000908152600360205260409020549190610ad4565b6001600160a01b038085166000908152600360205260408082209390935590841681522054610a789082610ded565b6001600160a01b0380841660008181526003602090815260409182902094909455805185815290519193928716927fddf252ad1be2c89b69c2b068fc378daa952ba7f163c4a11628f55a4df523b3ef92918290030190a3505050565b60008184841115610b635760405162461bcd60e51b81526004018080602001828103825283818151815260200191508051906020019080838360005b83811015610b28578181015183820152602001610b10565b50505050905090810190601f168015610b555780820380516001836020036101000a031916815260200191505b509250505060405180910390fd5b505050900390565b806001600160a01b03166352d1902d6040518163ffffffff1660e01b815260040160206040518083038186803b158015610ba457600080fd5b505afa158015610bb8573d6000803e3d6000fd5b505050506040513d6020811015610bce57600080fd5b50517f027b9570e9fedc1a80b937ae9a06861e5faef3992491af30b684a64b3fbec7a514610c2d5760405162461bcd60e51b8152600401808060200182810382526031815260200180610eef6031913960400191505060405180910390fd5b7f360894a13ba1a3210667c828492db98dca3e2076cc3735a920a3ca505d382bbc55565b6001600160a01b038116610c965760405162461bcd60e51b815260040180806020018281038252602c81526020018061108d602c913960400191505060405180910390fd5b600580546001600160a01b038381166001600160a01b0319831681179093556040805191909216808252602082019390935281517fb5a9def940973a936e331170816650368964b0602957d4bc60f5ddc2dc1b69cd929181900390910190a15050565b6001600160a01b038116610d3e5760405162461bcd60e51b8152600401808060200182810382526026815260200180610f686026913960400191505060405180910390fd5b6008546001600160a01b03908116908216811415610d8d5760405162461bcd60e51b815260040180806020018281038252602b81526020018061100b602b913960400191505060405180910390fd5b600880546001600160a01b0319166001600160a01b03848116918217909255604080519284168352602083019190915280517f342827c97908e5e2f71151c08502a66d44b6f758e3ac2f1de95f02eb95f0a7359281900390910190a15050565b600082820183811015610e315760405162461bcd60e51b8152600401808060200182810382526023815260200180610fe86023913960400191505060405180910390fd5b9392505050565b828054600181600116156101000203166002900490600052602060002090601f016020900481019282601f10610e795782800160ff19823516178555610ea6565b82800160010185558215610ea6579182015b82811115610ea6578235825591602001919060010190610e8b565b50610eb2929150610eb6565b5090565b5b80821115610eb25760008155600101610eb756fe45524332303a207472616e7366657220746f20746865207a65726f20616464726573735f5f757064617465436f6465416464726573733a205f6e6578745661756c744c6962206e6f7420636f6d70617469626c6545524332303a20617070726f766520746f20746865207a65726f206164647265737345524332303a207472616e7366657220616d6f756e7420657863656564732062616c616e63655f5f7365744f776e65723a205f6e6578744f776e65722063616e6e6f7420626520656d7074797365745661756c744c69623a204f6e6c792063616c6c61626c652062792074686520636f6e74726163742063726561746f7245524332303a207472616e7366657220616d6f756e74206578636565647320616c6c6f77616e63655661756c744c6962536166654d6174683a206164646974696f6e206f766572666c6f775f5f7365744f776e65723a205f6e6578744f776e6572206973207468652063757272656e74206f776e65727365744163636573736f723a204f6e6c792063616c6c61626c652062792074686520636f6e74726163742063726561746f7245524332303a207472616e736665722066726f6d20746865207a65726f20616464726573735f5f7365744163636573736f723a205f6e6578744163636573736f722063616e6e6f7420626520656d70747945524332303a20617070726f76652066726f6d20746865207a65726f2061646472657373a26469706673582212203fe195d4565dda2d2be23c600c9efe894b1e83845bdaad05aa13d114c3f8f5f364736f6c634300060c0033",
  "linkReferences": {},
  "deployedLinkReferences": {}
}