{
  "_format": "hh-sol-artifact-1",
  "contractName": "YearnVaultV2Adapter",
  "sourceName": "contracts/release/extensions/integration-manager/integrations/adapters/YearnVaultV2Adapter.sol",
  "abi": [
    {
      "inputs": [
        {
          "internalType": "address",
          "name": "_integrationManager",
          "type": "address"
        },
        {
          "internalType": "address",
          "name": "_yearnVaultV2PriceFeed",
          "type": "address"
        }
      ],
      "stateMutability": "nonpayable",
      "type": "constructor"
    },
    {
      "inputs": [],
      "name": "ADD_TRACKED_ASSETS_SELECTOR",
      "outputs": [
        {
          "internalType": "bytes4",
          "name": "",
          "type": "bytes4"
        }
      ],
      "stateMutability": "view",
      "type": "function"
    },
    {
      "inputs": [],
      "name": "APPROVE_ASSETS_SELECTOR",
      "outputs": [
        {
          "internalType": "bytes4",
          "name": "",
          "type": "bytes4"
        }
      ],
      "stateMutability": "view",
      "type": "function"
    },
    {
      "inputs": [],
      "name": "CLAIM_REWARDS_AND_REINVEST_SELECTOR",
      "outputs": [
        {
          "internalType": "bytes4",
          "name": "",
          "type": "bytes4"
        }
      ],
      "stateMutability": "view",
      "type": "function"
    },
    {
      "inputs": [],
      "name": "CLAIM_REWARDS_AND_SWAP_SELECTOR",
      "outputs": [
        {
          "internalType": "bytes4",
          "name": "",
          "type": "bytes4"
        }
      ],
      "stateMutability": "view",
      "type": "function"
    },
    {
      "inputs": [],
      "name": "CLAIM_REWARDS_SELECTOR",
      "outputs": [
        {
          "internalType": "bytes4",
          "name": "",
          "type": "bytes4"
        }
      ],
      "stateMutability": "view",
      "type": "function"
    },
    {
      "inputs": [],
      "name": "LEND_AND_STAKE_SELECTOR",
      "outputs": [
        {
          "internalType": "bytes4",
          "name": "",
          "type": "bytes4"
        }
      ],
      "stateMutability": "view",
      "type": "function"
    },
    {
      "inputs": [],
      "name": "LEND_SELECTOR",
      "outputs": [
        {
          "internalType": "bytes4",
          "name": "",
          "type": "bytes4"
        }
      ],
      "stateMutability": "view",
      "type": "function"
    },
    {
      "inputs": [],
      "name": "REDEEM_SELECTOR",
      "outputs": [
        {
          "internalType": "bytes4",
          "name": "",
          "type": "bytes4"
        }
      ],
      "stateMutability": "view",
      "type": "function"
    },
    {
      "inputs": [],
      "name": "STAKE_SELECTOR",
      "outputs": [
        {
          "internalType": "bytes4",
          "name": "",
          "type": "bytes4"
        }
      ],
      "stateMutability": "view",
      "type": "function"
    },
    {
      "inputs": [],
      "name": "TAKE_ORDER_SELECTOR",
      "outputs": [
        {
          "internalType": "bytes4",
          "name": "",
          "type": "bytes4"
        }
      ],
      "stateMutability": "view",
      "type": "function"
    },
    {
      "inputs": [],
      "name": "UNSTAKE_AND_REDEEM_SELECTOR",
      "outputs": [
        {
          "internalType": "bytes4",
          "name": "",
          "type": "bytes4"
        }
      ],
      "stateMutability": "view",
      "type": "function"
    },
    {
      "inputs": [],
      "name": "UNSTAKE_SELECTOR",
      "outputs": [
        {
          "internalType": "bytes4",
          "name": "",
          "type": "bytes4"
        }
      ],
      "stateMutability": "view",
      "type": "function"
    },
    {
      "inputs": [],
      "name": "getIntegrationManager",
      "outputs": [
        {
          "internalType": "address",
          "name": "integrationManager_",
          "type": "address"
        }
      ],
      "stateMutability": "view",
      "type": "function"
    },
    {
      "inputs": [],
      "name": "getYearnVaultV2PriceFeed",
      "outputs": [
        {
          "internalType": "address",
          "name": "yearnVaultV2PriceFeed_",
          "type": "address"
        }
      ],
      "stateMutability": "view",
      "type": "function"
    },
    {
      "inputs": [],
      "name": "identifier",
      "outputs": [
        {
          "internalType": "string",
          "name": "identifier_",
          "type": "string"
        }
      ],
      "stateMutability": "pure",
      "type": "function"
    },
    {
      "inputs": [
        {
          "internalType": "address",
          "name": "_vaultProxy",
          "type": "address"
        },
        {
          "internalType": "bytes",
          "name": "",
          "type": "bytes"
        },
        {
          "internalType": "bytes",
          "name": "_encodedAssetTransferArgs",
          "type": "bytes"
        }
      ],
      "name": "lend",
      "outputs": [],
      "stateMutability": "nonpayable",
      "type": "function"
    },
    {
      "inputs": [
        {
          "internalType": "bytes4",
          "name": "_selector",
          "type": "bytes4"
        },
        {
          "internalType": "bytes",
          "name": "_encodedCallArgs",
          "type": "bytes"
        }
      ],
      "name": "parseAssetsForMethod",
      "outputs": [
        {
          "internalType": "enum IIntegrationManager.SpendAssetsHandleType",
          "name": "spendAssetsHandleType_",
          "type": "uint8"
        },
        {
          "internalType": "address[]",
          "name": "spendAssets_",
          "type": "address[]"
        },
        {
          "internalType": "uint256[]",
          "name": "spendAssetAmounts_",
          "type": "uint256[]"
        },
        {
          "internalType": "address[]",
          "name": "incomingAssets_",
          "type": "address[]"
        },
        {
          "internalType": "uint256[]",
          "name": "minIncomingAssetAmounts_",
          "type": "uint256[]"
        }
      ],
      "stateMutability": "view",
      "type": "function"
    },
    {
      "inputs": [
        {
          "internalType": "address",
          "name": "_vaultProxy",
          "type": "address"
        },
        {
          "internalType": "bytes",
          "name": "_encodedCallArgs",
          "type": "bytes"
        },
        {
          "internalType": "bytes",
          "name": "_encodedAssetTransferArgs",
          "type": "bytes"
        }
      ],
      "name": "redeem",
      "outputs": [],
      "stateMutability": "nonpayable",
      "type": "function"
    },
    {
      "inputs": [
        {
          "internalType": "address",
          "name": "",
          "type": "address"
        },
        {
          "internalType": "bytes",
          "name": "",
          "type": "bytes"
        },
        {
          "internalType": "bytes",
          "name": "",
          "type": "bytes"
        }
      ],
      "name": "swapForRedeem",
      "outputs": [],
      "stateMutability": "nonpayable",
      "type": "function"
    }
  ],
  "bytecode": "0x60c060405234801561001057600080fd5b506040516119d03803806119d08339818101604052604081101561003357600080fd5b5080516020909101516001600160601b0319606092831b8116608052911b1660a05260805160601c60a05160601c61194861008860003980610b3852508061069b52806109bd5280610af052506119486000f3fe608060405234801561001057600080fd5b50600436106101215760003560e01c8063863e5ad0116100ad578063e4d9047811610071578063e4d9047814610628578063e7c4569014610630578063f075399414610654578063f702e0ea1461065c578063f7d882b51461066457610121565b8063863e5ad0146104745780639337baac1461047c578063b23228cf1461054a578063c29fa9dd14610552578063e27a06b51461062057610121565b80633ffc1591116100f45780633ffc15911461022b57806340da225d146102335780635ca62b3c1461023b57806376cc7ac6146102435780637998a1c4146103f757610121565b8063080456c114610126578063099f75151461014b578063131461c01461021b578063257cb1a314610223575b600080fd5b61012e61066c565b604080516001600160e01b03199092168252519081900360200190f35b6102196004803603606081101561016157600080fd5b6001600160a01b038235169190810190604081016020820135600160201b81111561018b57600080fd5b82018360208201111561019d57600080fd5b803590602001918460018302840111600160201b831117156101be57600080fd5b919390929091602081019035600160201b8111156101db57600080fd5b8201836020820111156101ed57600080fd5b803590602001918460018302840111600160201b8311171561020e57600080fd5b509092509050610690565b005b61012e6107e9565b61012e61080d565b61012e610831565b61012e610855565b61012e610879565b6102c26004803603604081101561025957600080fd5b6001600160e01b03198235169190810190604081016020820135600160201b81111561028457600080fd5b82018360208201111561029657600080fd5b803590602001918460018302840111600160201b831117156102b757600080fd5b50909250905061089d565b604051808660038111156102d257fe5b815260200180602001806020018060200180602001858103855289818151815260200191508051906020019060200280838360005b8381101561031f578181015183820152602001610307565b50505050905001858103845288818151815260200191508051906020019060200280838360005b8381101561035e578181015183820152602001610346565b50505050905001858103835287818151815260200191508051906020019060200280838360005b8381101561039d578181015183820152602001610385565b50505050905001858103825286818151815260200191508051906020019060200280838360005b838110156103dc5781810151838201526020016103c4565b50505050905001995050505050505050505060405180910390f35b6103ff61093b565b6040805160208082528351818301528351919283929083019185019080838360005b83811015610439578181015183820152602001610421565b50505050905090810190601f1680156104665780820380516001836020036101000a031916815260200191505b509250505060405180910390f35b61012e610963565b6102196004803603606081101561049257600080fd5b6001600160a01b038235169190810190604081016020820135600160201b8111156104bc57600080fd5b8201836020820111156104ce57600080fd5b803590602001918460018302840111600160201b831117156104ef57600080fd5b919390929091602081019035600160201b81111561050c57600080fd5b82018360208201111561051e57600080fd5b803590602001918460018302840111600160201b8311171561053f57600080fd5b509092509050610987565b61012e61098e565b6102196004803603606081101561056857600080fd5b6001600160a01b038235169190810190604081016020820135600160201b81111561059257600080fd5b8201836020820111156105a457600080fd5b803590602001918460018302840111600160201b831117156105c557600080fd5b919390929091602081019035600160201b8111156105e257600080fd5b8201836020820111156105f457600080fd5b803590602001918460018302840111600160201b8311171561061557600080fd5b5090925090506109b2565b61012e610aa6565b61012e610aca565b610638610aee565b604080516001600160a01b039092168252519081900360200190f35b61012e610b12565b610638610b36565b61012e610b5a565b7f8334eb99be0145865eba9889fca2ee920288090caefff4cc776038e20ad9259a81565b336001600160a01b037f000000000000000000000000000000000000000000000000000000000000000016146106f75760405162461bcd60e51b81526004018080602001828103825260328152602001806118596032913960400191505060405180910390fd5b8482828080601f01602080910402602001604051908101604052809392919081815260200183838082843760009201919091525050604080516020601f880181900481028201810190925286815260609350839250829161077391908990899081908401838280828437600092019190915250610b7e92505050565b935093509350506107c28a8260008151811061078b57fe5b6020026020010151856000815181106107a057fe5b6020026020010151856000815181106107b557fe5b6020026020010151610d46565b50505060606107d082610b7e565b50509150506107df8382610dda565b5050505050505050565b7f29fa046e79524c3c5ac4c01df692c35e217802b2b13b21121b76cf0ef02b138c81565b7f099f75155f0e997bf83a7993a71d5e7e7540bd386fe1e84643a09ce6b412521981565b7ffa7dd04da627f433da73c4355ead9c75682a67a8fc84d3f6170ef0922f402d2481565b7fb9dfbaccbe5cd2a84fdcf1d15f23ef25d23086f5afbaa99516065ed4a5bbc7a381565b7fdfd5ee0f6067928bf85a7c4430811282840bc99332dda3dab462c02bf95b67cc81565b600060608080806001600160e01b0319881663099f751560e01b14156108d6576108c78787610ebb565b94509450945094509450610930565b6001600160e01b0319881663c29fa9dd60e01b14156108f9576108c7878761106e565b60405162461bcd60e51b815260040180806020018281038252602781526020018061180c6027913960400191505060405180910390fd5b939792965093509350565b60408051808201909152600e81526d2ca2a0a9272fab20aaa62a2fab1960911b602082015290565b7f03e38a2bd7063d45c897edeafc330e71657502dd86434d3c37a489caf116af6981565b5050505050565b7f68e30677f607df46e87da13e15b637784cfa62374b653f35ab43d10361a2f83081565b336001600160a01b037f00000000000000000000000000000000000000000000000000000000000000001614610a195760405162461bcd60e51b81526004018080602001828103825260328152602001806118596032913960400191505060405180910390fd5b8482828080601f0160208091040260200160405190810160405280939291908181526020018383808284376000920182905250604080516020601f8c018190048102820181019092528a8152919450849350839250610a9391908b908b90819084018382808284376000920191909152506111c092505050565b935050925092506107c28a8484846111fd565b7f848f3a590fb2f9795d1a275009c54c26c53833277c96b90e0ddd01753a1d590681565b7f3377e18acf9e83665eacd6af109261424fca32a298e2fc2e6095ba563fb8390e81565b7f000000000000000000000000000000000000000000000000000000000000000090565b7f1d51f49b5273d9ddbb643dc349fab8d36dbb470209c2ea71033bea49dd311c2781565b7f000000000000000000000000000000000000000000000000000000000000000090565b7fc29fa9dde84204c2908778afd0613d802d31cf046179b88f6d2b4a4e507ea2d581565b60006060806060848060200190516080811015610b9a57600080fd5b815160208301805160405192949293830192919084600160201b821115610bc057600080fd5b908301906020820185811115610bd557600080fd5b82518660208202830111600160201b82111715610bf157600080fd5b82525081516020918201928201910280838360005b83811015610c1e578181015183820152602001610c06565b5050505090500160405260200180516040519392919084600160201b821115610c4657600080fd5b908301906020820185811115610c5b57600080fd5b82518660208202830111600160201b82111715610c7757600080fd5b82525081516020918201928201910280838360005b83811015610ca4578181015183820152602001610c8c565b5050505090500160405260200180516040519392919084600160201b821115610ccc57600080fd5b908301906020820185811115610ce157600080fd5b82518660208202830111600160201b82111715610cfd57600080fd5b82525081516020918201928201910280838360005b83811015610d2a578181015183820152602001610d12565b5050505090500160405250505093509350935093509193509193565b610d5182848361125c565b826001600160a01b0316636e553f6582866040518363ffffffff1660e01b815260040180838152602001826001600160a01b0316815260200192505050602060405180830381600087803b158015610da857600080fd5b505af1158015610dbc573d6000803e3d6000fd5b505050506040513d6020811015610dd257600080fd5b505050505050565b60005b8151811015610eb6576000828281518110610df457fe5b60200260200101516001600160a01b03166370a08231306040518263ffffffff1660e01b815260040180826001600160a01b0316815260200191505060206040518083038186803b158015610e4857600080fd5b505afa158015610e5c573d6000803e3d6000fd5b505050506040513d6020811015610e7257600080fd5b505190508015610ead57610ead8482858581518110610e8d57fe5b60200260200101516001600160a01b03166112f49092919063ffffffff16565b50600101610ddd565b505050565b60006060806060806000806000610f078a8a8080601f01602080910402602001604051908101604052809392919081815260200183838082843760009201919091525061134692505050565b9250925092506000610f188461137a565b90506001600160a01b038116610f5f5760405162461bcd60e51b815260040180806020018281038252602881526020018061188b6028913960400191505060405180910390fd5b60408051600180825281830190925290602080830190803683370190505097508088600081518110610f8d57fe5b6001600160a01b03929092166020928302919091018201526040805160018082528183019092529182810190803683370190505096508287600081518110610fd157fe5b602090810291909101015260408051600180825281830190925290816020016020820280368337019050509550838660008151811061100c57fe5b6001600160a01b0392909216602092830291909101820152604080516001808252818301909252918281019080368337019050509450818560008151811061105057fe5b60200260200101818152505060029850505050509295509295909350565b600060608060608060008060006110ba8a8a8080601f0160208091040260200160405190810160405280939291908181526020018383808284376000920191909152506111c092505050565b5092509250925060006110cc8461137a565b90506001600160a01b0381166111135760405162461bcd60e51b815260040180806020018281038252602a8152602001806117e2602a913960400191505060405180910390fd5b6040805160018082528183019092529060208083019080368337019050509750838860008151811061114157fe5b6001600160a01b0392909216602092830291909101820152604080516001808252818301909252918281019080368337019050509650828760008151811061118557fe5b602090810291909101015260408051600180825281830190925290816020016020820280368337019050509550808660008151811061100c57fe5b6000806000808480602001905160808110156111db57600080fd5b5080516020820151604083015160609093015191989097509195509350915050565b826001600160a01b031663e63697c88386846040518463ffffffff1660e01b815260040180848152602001836001600160a01b031681526020018281526020019350505050602060405180830381600087803b158015610da857600080fd5b60408051636eb1769f60e11b81523060048201526001600160a01b0384811660248301529151839286169163dd62ed3e916044808301926020929190829003018186803b1580156112ac57600080fd5b505afa1580156112c0573d6000803e3d6000fd5b505050506040513d60208110156112d657600080fd5b50511015610eb657610eb66001600160a01b03841683600019611402565b604080516001600160a01b038416602482015260448082018490528251808303909101815260649091019091526020810180516001600160e01b031663a9059cbb60e01b179052610eb6908490611511565b600080600083806020019051606081101561136057600080fd5b508051602082015160409092015190969195509350915050565b6000611384610b36565b6001600160a01b03166366adb867836040518263ffffffff1660e01b815260040180826001600160a01b0316815260200191505060206040518083038186803b1580156113d057600080fd5b505afa1580156113e4573d6000803e3d6000fd5b505050506040513d60208110156113fa57600080fd5b505192915050565b801580611488575060408051636eb1769f60e11b81523060048201526001600160a01b03848116602483015291519185169163dd62ed3e91604480820192602092909190829003018186803b15801561145a57600080fd5b505afa15801561146e573d6000803e3d6000fd5b505050506040513d602081101561148457600080fd5b5051155b6114c35760405162461bcd60e51b81526004018080602001828103825260368152602001806118dd6036913960400191505060405180910390fd5b604080516001600160a01b038416602482015260448082018490528251808303909101815260649091019091526020810180516001600160e01b031663095ea7b360e01b179052610eb69084905b6060611566826040518060400160405280602081526020017f5361666545524332303a206c6f772d6c6576656c2063616c6c206661696c6564815250856001600160a01b03166115c29092919063ffffffff16565b805190915015610eb65780806020019051602081101561158557600080fd5b5051610eb65760405162461bcd60e51b815260040180806020018281038252602a8152602001806118b3602a913960400191505060405180910390fd5b60606115d184846000856115db565b90505b9392505050565b60608247101561161c5760405162461bcd60e51b81526004018080602001828103825260268152602001806118336026913960400191505060405180910390fd5b61162585611737565b611676576040805162461bcd60e51b815260206004820152601d60248201527f416464726573733a2063616c6c20746f206e6f6e2d636f6e7472616374000000604482015290519081900360640190fd5b60006060866001600160a01b031685876040518082805190602001908083835b602083106116b55780518252601f199092019160209182019101611696565b6001836020036101000a03801982511681845116808217855250505050505090500191505060006040518083038185875af1925050503d8060008114611717576040519150601f19603f3d011682016040523d82523d6000602084013e61171c565b606091505b509150915061172c82828661173d565b979650505050505050565b3b151590565b6060831561174c5750816115d4565b82511561175c5782518084602001fd5b8160405162461bcd60e51b81526004018080602001828103825283818151815260200191508051906020019080838360005b838110156117a657818101518382015260200161178e565b50505050905090810190601f1680156117d35780820380516001836020036101000a031916815260200191505b509250505060405180910390fdfe5f5f7061727365417373657473466f7252656465656d3a20556e737570706f7274656420795661756c747061727365417373657473466f724d6574686f643a205f73656c6563746f7220696e76616c6964416464726573733a20696e73756666696369656e742062616c616e636520666f722063616c6c4f6e6c792074686520496e746567726174696f6e4d616e616765722063616e2063616c6c20746869732066756e6374696f6e5f5f7061727365417373657473466f724c656e643a20556e737570706f7274656420795661756c745361666545524332303a204552433230206f7065726174696f6e20646964206e6f7420737563636565645361666545524332303a20617070726f76652066726f6d206e6f6e2d7a65726f20746f206e6f6e2d7a65726f20616c6c6f77616e6365a2646970667358221220283971218ca6516b3601ebb94f17cc81128bd8feea364861c4b13dc8def3668764736f6c634300060c0033",
  "linkReferences": {},
  "deployedLinkReferences": {}
}