{
  "address": "0x818294cAA175DeADd3c1429B372fFdEEc7563733",
  "abi": [
    {
      "inputs": [
        {
          "internalType": "address",
          "name": "_policyManager",
          "type": "address"
        }
      ],
      "stateMutability": "nonpayable",
      "type": "constructor"
    },
    {
      "anonymous": false,
      "inputs": [
        {
          "indexed": true,
          "internalType": "address",
          "name": "comptrollerProxy",
          "type": "address"
        },
        {
          "indexed": false,
          "internalType": "address[]",
          "name": "items",
          "type": "address[]"
        }
      ],
      "name": "AddressesAdded",
      "type": "event"
    },
    {
      "anonymous": false,
      "inputs": [
        {
          "indexed": true,
          "internalType": "address",
          "name": "comptrollerProxy",
          "type": "address"
        },
        {
          "indexed": false,
          "internalType": "address[]",
          "name": "items",
          "type": "address[]"
        }
      ],
      "name": "AddressesRemoved",
      "type": "event"
    },
    {
      "inputs": [
        {
          "internalType": "address",
          "name": "",
          "type": "address"
        },
        {
          "internalType": "address",
          "name": "",
          "type": "address"
        }
      ],
      "name": "activateForFund",
      "outputs": [],
      "stateMutability": "nonpayable",
      "type": "function"
    },
    {
      "inputs": [
        {
          "internalType": "address",
          "name": "_comptrollerProxy",
          "type": "address"
        },
        {
          "internalType": "bytes",
          "name": "_encodedSettings",
          "type": "bytes"
        }
      ],
      "name": "addFundSettings",
      "outputs": [],
      "stateMutability": "nonpayable",
      "type": "function"
    },
    {
      "inputs": [
        {
          "internalType": "address",
          "name": "_comptrollerProxy",
          "type": "address"
        }
      ],
      "name": "getList",
      "outputs": [
        {
          "internalType": "address[]",
          "name": "list_",
          "type": "address[]"
        }
      ],
      "stateMutability": "view",
      "type": "function"
    },
    {
      "inputs": [],
      "name": "getPolicyManager",
      "outputs": [
        {
          "internalType": "address",
          "name": "policyManager_",
          "type": "address"
        }
      ],
      "stateMutability": "view",
      "type": "function"
    },
    {
      "inputs": [],
      "name": "identifier",
      "outputs": [
        {
          "internalType": "string",
          "name": "identifier_",
          "type": "string"
        }
      ],
      "stateMutability": "pure",
      "type": "function"
    },
    {
      "inputs": [],
      "name": "implementedHooks",
      "outputs": [
        {
          "internalType": "enum IPolicyManager.PolicyHook[]",
          "name": "implementedHooks_",
          "type": "uint8[]"
        }
      ],
      "stateMutability": "view",
      "type": "function"
    },
    {
      "inputs": [
        {
          "internalType": "address",
          "name": "_comptrollerProxy",
          "type": "address"
        },
        {
          "internalType": "address",
          "name": "_item",
          "type": "address"
        }
      ],
      "name": "isInList",
      "outputs": [
        {
          "internalType": "bool",
          "name": "isInList_",
          "type": "bool"
        }
      ],
      "stateMutability": "view",
      "type": "function"
    },
    {
      "inputs": [
        {
          "internalType": "address",
          "name": "_comptrollerProxy",
          "type": "address"
        },
        {
          "internalType": "address",
          "name": "_adapter",
          "type": "address"
        }
      ],
      "name": "passesRule",
      "outputs": [
        {
          "internalType": "bool",
          "name": "isValid_",
          "type": "bool"
        }
      ],
      "stateMutability": "view",
      "type": "function"
    },
    {
      "inputs": [
        {
          "internalType": "address",
          "name": "",
          "type": "address"
        },
        {
          "internalType": "address",
          "name": "",
          "type": "address"
        },
        {
          "internalType": "bytes",
          "name": "",
          "type": "bytes"
        }
      ],
      "name": "updateFundSettings",
      "outputs": [],
      "stateMutability": "nonpayable",
      "type": "function"
    },
    {
      "inputs": [
        {
          "internalType": "address",
          "name": "_comptrollerProxy",
          "type": "address"
        },
        {
          "internalType": "address",
          "name": "",
          "type": "address"
        },
        {
          "internalType": "enum IPolicyManager.PolicyHook",
          "name": "",
          "type": "uint8"
        },
        {
          "internalType": "bytes",
          "name": "_encodedArgs",
          "type": "bytes"
        }
      ],
      "name": "validateRule",
      "outputs": [
        {
          "internalType": "bool",
          "name": "isValid_",
          "type": "bool"
        }
      ],
      "stateMutability": "nonpayable",
      "type": "function"
    }
  ],
  "transactionHash": "0x9d42beeda17d84500819d9247f60bfa7caf9a51d3ba4dff944b499bd351ead25",
  "args": [
    "0x9889DfAAb3AC441c8E211D7eEda131066c5fa6d2"
  ],
  "linkedData": {
    "type": "POLICY"
  },
  "solcInputHash": "616bcd197648f809b4b4e612fb09cc9a",
  "bytecode": "0x60a060405234801561001057600080fd5b50604051610b3f380380610b3f8339818101604052602081101561003357600080fd5b5051606081901b6001600160601b0319166080526001600160a01b0316610ad361006c6000398061040352806106535250610ad36000f3fe608060405234801561001057600080fd5b506004361061009e5760003560e01c80638945f190116100665780638945f190146102a1578063b67cb40c14610328578063cbf54bb214610356578063d44ad6cb146103ae578063ef00e37a146103d25761009e565b80630f5f6b4f146100a35780633146d0581461012357806335595704146101515780635b8f1c5a146101935780637998a1c414610224575b600080fd5b610121600480360360408110156100b957600080fd5b6001600160a01b038235169190810190604081016020820135600160201b8111156100e357600080fd5b8201836020820111156100f557600080fd5b803590602001918460018302840111600160201b8311171561011657600080fd5b5090925090506103f8565b005b6101216004803603604081101561013957600080fd5b506001600160a01b0381358116916020013516610503565b61017f6004803603604081101561016757600080fd5b506001600160a01b0381358116916020013516610507565b604080519115158252519081900360200190f35b61017f600480360360808110156101a957600080fd5b6001600160a01b03823581169260208101359091169160ff6040830135169190810190608081016060820135600160201b8111156101e657600080fd5b8201836020820111156101f857600080fd5b803590602001918460018302840111600160201b8311171561021957600080fd5b509092509050610532565b61022c61058c565b6040805160208082528351818301528351919283929083019185019080838360005b8381101561026657818101518382015260200161024e565b50505050905090810190601f1680156102935780820380516001836020036101000a031916815260200191505b509250505060405180910390f35b610121600480360360608110156102b757600080fd5b6001600160a01b038235811692602081013590911691810190606081016040820135600160201b8111156102ea57600080fd5b8201836020820111156102fc57600080fd5b803590602001918460018302840111600160201b8311171561031d57600080fd5b5090925090506105b7565b61017f6004803603604081101561033e57600080fd5b506001600160a01b03813581169160200135166105ee565b61035e6105fa565b60408051602080825283518183015283519192839290830191858101910280838360005b8381101561039a578181015183820152602001610382565b505050509050019250505060405180910390f35b6103b6610651565b604080516001600160a01b039092168252519081900360200190f35b61035e600480360360208110156103e857600080fd5b50356001600160a01b0316610675565b336001600160a01b037f0000000000000000000000000000000000000000000000000000000000000000161461045f5760405162461bcd60e51b8152600401808060200182810382526029815260200180610a536029913960400191505060405180910390fd5b6104fe838383602081101561047357600080fd5b810190602081018135600160201b81111561048d57600080fd5b82018360208201111561049f57600080fd5b803590602001918460208302840111600160201b831117156104c057600080fd5b91908080602002602001604051908101604052809392919081815260200183836020028082843760009201919091525092955061073c945050505050565b505050565b5050565b6001600160a01b03821660009081526020819052604081206105299083610898565b90505b92915050565b60008061057484848080601f0160208091040260200160405190810160405280939291908181526020018383808284376000920191909152506108ad92505050565b50905061058187826105ee565b979650505050505050565b6040805180820190915260118152701051105415115497d5d2125511531254d5607a1b602082015290565b60405162461bcd60e51b81526004018080602001828103825260378152602001806109f16037913960400191505060405180910390fd5b60006105298383610507565b6040805160018082528183019092526060916020808301908036833701905050905060048160008151811061062b57fe5b6020026020010190600581111561063e57fe5b9081600581111561064b57fe5b90525090565b7f000000000000000000000000000000000000000000000000000000000000000090565b6001600160a01b0381166000908152602081905260409020606090610699906108d8565b67ffffffffffffffff811180156106af57600080fd5b506040519080825280602002602001820160405280156106d9578160200160208202803683370190505b50905060005b8151811015610736576001600160a01b038316600090815260208190526040902061070a90826108e3565b82828151811061071657fe5b6001600160a01b03909216602092830291909101909101526001016106df565b50919050565b600081511161077c5760405162461bcd60e51b8152600401808060200182810382526022815260200180610a7c6022913960400191505060405180910390fd5b60005b8151811015610814576107d182828151811061079757fe5b6020026020010151600080866001600160a01b03166001600160a01b031681526020019081526020016000206108ef90919063ffffffff16565b61080c5760405162461bcd60e51b815260040180806020018281038252602b815260200180610a28602b913960400191505060405180910390fd5b60010161077f565b50816001600160a01b03167fe3754690adb33d1fe0511f97e82086f6097babaea494124a0196a61a949ef2cf826040518080602001828103825283818151815260200191508051906020019060200280838360005b83811015610881578181015183820152602001610869565b505050509050019250505060405180910390a25050565b6000610529836001600160a01b038416610904565b6000808280602001905160408110156108c557600080fd5b5080516020909101519092509050915091565b600061052c8261091c565b60006105298383610920565b6000610529836001600160a01b038416610984565b60009081526001919091016020526040902054151590565b5490565b815460009082106109625760405162461bcd60e51b81526004018080602001828103825260228152602001806109cf6022913960400191505060405180910390fd5b82600001828154811061097157fe5b9060005260206000200154905092915050565b60006109908383610904565b6109c65750815460018181018455600084815260208082209093018490558454848252828601909352604090209190915561052c565b50600061052c56fe456e756d657261626c655365743a20696e646578206f7574206f6620626f756e647375706461746546756e6453657474696e67733a2055706461746573206e6f7420616c6c6f77656420666f72207468697320706f6c6963795f5f616464546f4c6973743a204164647265737320616c72656164792065786973747320696e206c6973744f6e6c792074686520506f6c6963794d616e616765722063616e206d616b6520746869732063616c6c5f5f616464546f4c6973743a204e6f206164647265737365732070726f7669646564a2646970667358221220215279a9e47ff540b6bb120e367a38452f682c00a65445f1fa8c22022b06744264736f6c634300060c0033",
  "devdoc": {
    "kind": "dev",
    "methods": {
      "activateForFund(address,address)": {
        "details": "Unimplemented by default, can be overridden by the policy"
      },
      "addFundSettings(address,bytes)": {
        "params": {
          "_comptrollerProxy": "The fund's ComptrollerProxy address",
          "_encodedSettings": "Encoded settings to apply to a fund"
        }
      },
      "getList(address)": {
        "params": {
          "_comptrollerProxy": "The fund's ComptrollerProxy address"
        },
        "returns": {
          "list_": "The addresses in the fund's list"
        }
      },
      "getPolicyManager()": {
        "returns": {
          "policyManager_": "The `POLICY_MANAGER` variable value"
        }
      },
      "identifier()": {
        "returns": {
          "identifier_": "The identifer string"
        }
      },
      "implementedHooks()": {
        "returns": {
          "implementedHooks_": "The implemented PolicyHooks"
        }
      },
      "isInList(address,address)": {
        "params": {
          "_comptrollerProxy": "The fund's ComptrollerProxy address",
          "_item": "The address to check against the list"
        },
        "returns": {
          "isInList_": "True if the address is in the list"
        }
      },
      "passesRule(address,address)": {
        "params": {
          "_adapter": "The adapter with which to check the rule",
          "_comptrollerProxy": "The fund's ComptrollerProxy address"
        },
        "returns": {
          "isValid_": "True if the rule passes"
        }
      },
      "updateFundSettings(address,address,bytes)": {
        "details": "Disallowed by default, can be overridden by the policy"
      },
      "validateRule(address,address,uint8,bytes)": {
        "params": {
          "_comptrollerProxy": "The fund's ComptrollerProxy address",
          "_encodedArgs": "Encoded args with which to validate the rule"
        },
        "returns": {
          "isValid_": "True if the rule passes"
        }
      }
    },
    "title": "AdapterWhitelist Contract",
    "version": 1
  },
  "userdoc": {
    "kind": "user",
    "methods": {
      "activateForFund(address,address)": {
        "notice": "Validates and initializes a policy as necessary prior to fund activation"
      },
      "addFundSettings(address,bytes)": {
        "notice": "Add the initial policy settings for a fund"
      },
      "getList(address)": {
        "notice": "Get all addresses in a fund's list"
      },
      "getPolicyManager()": {
        "notice": "Gets the `POLICY_MANAGER` variable value"
      },
      "identifier()": {
        "notice": "Provides a constant string identifier for a policy"
      },
      "implementedHooks()": {
        "notice": "Gets the implemented PolicyHooks for a policy"
      },
      "isInList(address,address)": {
        "notice": "Check if an address is in a fund's list"
      },
      "passesRule(address,address)": {
        "notice": "Checks whether a particular condition passes the rule for a particular fund"
      },
      "updateFundSettings(address,address,bytes)": {
        "notice": "Updates the policy settings for a fund"
      },
      "validateRule(address,address,uint8,bytes)": {
        "notice": "Apply the rule with the specified parameters of a PolicyHook"
      }
    },
    "notice": "A policy that only allows a configurable whitelist of adapters for use by a fund",
    "version": 1
  },
  "storageLayout": {
    "storage": [
      {
        "astId": 31753,
        "contract": "contracts/release/extensions/policy-manager/policies/call-on-integration/AdapterWhitelist.sol:AdapterWhitelist",
        "label": "comptrollerProxyToList",
        "offset": 0,
        "slot": "0",
        "type": "t_mapping(t_address,t_struct(AddressSet)2091_storage)"
      }
    ],
    "types": {
      "t_address": {
        "encoding": "inplace",
        "label": "address",
        "numberOfBytes": "20"
      },
      "t_array(t_bytes32)dyn_storage": {
        "base": "t_bytes32",
        "encoding": "dynamic_array",
        "label": "bytes32[]",
        "numberOfBytes": "32"
      },
      "t_bytes32": {
        "encoding": "inplace",
        "label": "bytes32",
        "numberOfBytes": "32"
      },
      "t_mapping(t_address,t_struct(AddressSet)2091_storage)": {
        "encoding": "mapping",
        "key": "t_address",
        "label": "mapping(address => struct EnumerableSet.AddressSet)",
        "numberOfBytes": "32",
        "value": "t_struct(AddressSet)2091_storage"
      },
      "t_mapping(t_bytes32,t_uint256)": {
        "encoding": "mapping",
        "key": "t_bytes32",
        "label": "mapping(bytes32 => uint256)",
        "numberOfBytes": "32",
        "value": "t_uint256"
      },
      "t_struct(AddressSet)2091_storage": {
        "encoding": "inplace",
        "label": "struct EnumerableSet.AddressSet",
        "members": [
          {
            "astId": 2090,
            "contract": "contracts/release/extensions/policy-manager/policies/call-on-integration/AdapterWhitelist.sol:AdapterWhitelist",
            "label": "_inner",
            "offset": 0,
            "slot": "0",
            "type": "t_struct(Set)1826_storage"
          }
        ],
        "numberOfBytes": "64"
      },
      "t_struct(Set)1826_storage": {
        "encoding": "inplace",
        "label": "struct EnumerableSet.Set",
        "members": [
          {
            "astId": 1821,
            "contract": "contracts/release/extensions/policy-manager/policies/call-on-integration/AdapterWhitelist.sol:AdapterWhitelist",
            "label": "_values",
            "offset": 0,
            "slot": "0",
            "type": "t_array(t_bytes32)dyn_storage"
          },
          {
            "astId": 1825,
            "contract": "contracts/release/extensions/policy-manager/policies/call-on-integration/AdapterWhitelist.sol:AdapterWhitelist",
            "label": "_indexes",
            "offset": 0,
            "slot": "1",
            "type": "t_mapping(t_bytes32,t_uint256)"
          }
        ],
        "numberOfBytes": "64"
      },
      "t_uint256": {
        "encoding": "inplace",
        "label": "uint256",
        "numberOfBytes": "32"
      }
    }
  }
}