{
  "address": "0xfF090cC732f2b3188554889141F7b8e52c7FcFfc",
  "abi": [
    {
      "inputs": [
        {
          "internalType": "address",
          "name": "_fundDeployer",
          "type": "address"
        },
        {
          "internalType": "address[]",
          "name": "_derivatives",
          "type": "address[]"
        },
        {
          "internalType": "address[]",
          "name": "_priceFeeds",
          "type": "address[]"
        }
      ],
      "stateMutability": "nonpayable",
      "type": "constructor"
    },
    {
      "anonymous": false,
      "inputs": [
        {
          "indexed": true,
          "internalType": "address",
          "name": "derivative",
          "type": "address"
        },
        {
          "indexed": false,
          "internalType": "address",
          "name": "priceFeed",
          "type": "address"
        }
      ],
      "name": "DerivativeAdded",
      "type": "event"
    },
    {
      "anonymous": false,
      "inputs": [
        {
          "indexed": true,
          "internalType": "address",
          "name": "derivative",
          "type": "address"
        }
      ],
      "name": "DerivativeRemoved",
      "type": "event"
    },
    {
      "anonymous": false,
      "inputs": [
        {
          "indexed": true,
          "internalType": "address",
          "name": "derivative",
          "type": "address"
        },
        {
          "indexed": false,
          "internalType": "address",
          "name": "prevPriceFeed",
          "type": "address"
        },
        {
          "indexed": false,
          "internalType": "address",
          "name": "nextPriceFeed",
          "type": "address"
        }
      ],
      "name": "DerivativeUpdated",
      "type": "event"
    },
    {
      "inputs": [
        {
          "internalType": "address[]",
          "name": "_derivatives",
          "type": "address[]"
        },
        {
          "internalType": "address[]",
          "name": "_priceFeeds",
          "type": "address[]"
        }
      ],
      "name": "addDerivatives",
      "outputs": [],
      "stateMutability": "nonpayable",
      "type": "function"
    },
    {
      "inputs": [
        {
          "internalType": "address",
          "name": "_derivative",
          "type": "address"
        },
        {
          "internalType": "uint256",
          "name": "_derivativeAmount",
          "type": "uint256"
        }
      ],
      "name": "calcUnderlyingValues",
      "outputs": [
        {
          "internalType": "address[]",
          "name": "underlyings_",
          "type": "address[]"
        },
        {
          "internalType": "uint256[]",
          "name": "underlyingAmounts_",
          "type": "uint256[]"
        }
      ],
      "stateMutability": "nonpayable",
      "type": "function"
    },
    {
      "inputs": [],
      "name": "getFundDeployer",
      "outputs": [
        {
          "internalType": "address",
          "name": "fundDeployer_",
          "type": "address"
        }
      ],
      "stateMutability": "view",
      "type": "function"
    },
    {
      "inputs": [],
      "name": "getOwner",
      "outputs": [
        {
          "internalType": "address",
          "name": "owner_",
          "type": "address"
        }
      ],
      "stateMutability": "view",
      "type": "function"
    },
    {
      "inputs": [
        {
          "internalType": "address",
          "name": "_derivative",
          "type": "address"
        }
      ],
      "name": "getPriceFeedForDerivative",
      "outputs": [
        {
          "internalType": "address",
          "name": "priceFeed_",
          "type": "address"
        }
      ],
      "stateMutability": "view",
      "type": "function"
    },
    {
      "inputs": [
        {
          "internalType": "address",
          "name": "_asset",
          "type": "address"
        }
      ],
      "name": "isSupportedAsset",
      "outputs": [
        {
          "internalType": "bool",
          "name": "isSupported_",
          "type": "bool"
        }
      ],
      "stateMutability": "view",
      "type": "function"
    },
    {
      "inputs": [
        {
          "internalType": "address[]",
          "name": "_derivatives",
          "type": "address[]"
        }
      ],
      "name": "removeDerivatives",
      "outputs": [],
      "stateMutability": "nonpayable",
      "type": "function"
    },
    {
      "inputs": [
        {
          "internalType": "address[]",
          "name": "_derivatives",
          "type": "address[]"
        },
        {
          "internalType": "address[]",
          "name": "_priceFeeds",
          "type": "address[]"
        }
      ],
      "name": "updateDerivatives",
      "outputs": [],
      "stateMutability": "nonpayable",
      "type": "function"
    }
  ],
  "transactionHash": "0xc64fc0783d023e81256f4b9bd5de2e34a8de70f5aa22ab2157cc45ead7c570b5",
  "args": [
    "0x5cBbA5484594598a660636eFb0A1AD953aFa4e32",
    [
      "0x651c7d880878c1febf485b3279d5883f41e24896",
      "0xdbacce684dcd33af1a4da089b3173a5dedba7469",
      "0x9b19b1590b9289e5abbc7ee9511076be8d75ac42",
      "0x9be41d202e8a1d7327b2fd860749e41baa89cb6a",
      "0x3e9867f6e41df327eae9d0832530d1007d1fbb4f",
      "0x1ad7ecfb656ec99538db3bc46d66e7d79e9acc9e",
      "0xab8b04c6f87a47aeef37b7bc82d39656549a3a29",
      "0x4f4a33bdc3e4b4b4cc25d8f1f29bc185b176e525",
      "0xcb37f0ce3ce7fa5545de084a41f2b18f76815a85",
      "0xf1762903953e3729335be6cf02b846501c9049a8"
    ],
    [
      "0x472B1844AB2c9B30088d68E9fd55f3b6bc4ba0AF",
      "0x472B1844AB2c9B30088d68E9fd55f3b6bc4ba0AF",
      "0x472B1844AB2c9B30088d68E9fd55f3b6bc4ba0AF",
      "0x472B1844AB2c9B30088d68E9fd55f3b6bc4ba0AF",
      "0x472B1844AB2c9B30088d68E9fd55f3b6bc4ba0AF",
      "0x472B1844AB2c9B30088d68E9fd55f3b6bc4ba0AF",
      "0x472B1844AB2c9B30088d68E9fd55f3b6bc4ba0AF",
      "0x472B1844AB2c9B30088d68E9fd55f3b6bc4ba0AF",
      "0x472B1844AB2c9B30088d68E9fd55f3b6bc4ba0AF",
      "0xA98c3D3a1Bf847cA20AcC374F75aaD68A1B19fDb"
    ]
  ],
  "solcInputHash": "616bcd197648f809b4b4e612fb09cc9a",
  "bytecode": "0x60a06040523480156200001157600080fd5b506040516200188938038062001889833981810160405260608110156200003757600080fd5b8151602083018051604051929492938301929190846401000000008211156200005f57600080fd5b9083019060208201858111156200007557600080fd5b82518660208202830111640100000000821117156200009357600080fd5b82525081516020918201928201910280838360005b83811015620000c2578181015183820152602001620000a8565b5050505090500160405260200180516040519392919084640100000000821115620000ec57600080fd5b9083019060208201858111156200010257600080fd5b82518660208202830111640100000000821117156200012057600080fd5b82525081516020918201928201910280838360005b838110156200014f57818101518382015260200162000135565b50505050919091016040525050506001600160601b0319606085901b166080525081511562000184576200018482826200018d565b505050620004e8565b8051825114620001cf5760405162461bcd60e51b8152600401808060200182810382526044815260200180620018156044913960600191505060405180910390fd5b60005b8251811015620003985760006001600160a01b0316600080858481518110620001f757fe5b6020908102919091018101516001600160a01b0390811683529082019290925260400160002054161462000272576040805162461bcd60e51b815260206004820152601f60248201527f5f5f61646444657269766174697665733a20416c726561647920616464656400604482015290519081900360640190fd5b620002ac8382815181106200028357fe5b60200260200101518383815181106200029857fe5b60200260200101516200039d60201b60201c565b818181518110620002b957fe5b6020026020010151600080858481518110620002d157fe5b60200260200101516001600160a01b03166001600160a01b0316815260200190815260200160002060006101000a8154816001600160a01b0302191690836001600160a01b031602179055508281815181106200032a57fe5b60200260200101516001600160a01b03167faa4ae250fb435bb4b31ed0b95822bc179fc6c5dd0c727c3ffe08d444025efd988383815181106200036957fe5b602002602001015160405180826001600160a01b0316815260200191505060405180910390a2600101620001d2565b505050565b6001600160a01b038216620003e45760405162461bcd60e51b8152600401808060200182810382526030815260200180620018596030913960400191505060405180910390fd5b6001600160a01b0381166200042b5760405162461bcd60e51b815260040180806020018281038252602f815260200180620017b1602f913960400191505060405180910390fd5b806001600160a01b0316639be918e6836040518263ffffffff1660e01b815260040180826001600160a01b0316815260200191505060206040518083038186803b1580156200047957600080fd5b505afa1580156200048e573d6000803e3d6000fd5b505050506040513d6020811015620004a557600080fd5b5051620004e45760405162461bcd60e51b8152600401808060200182810382526035815260200180620017e06035913960400191505060405180910390fd5b5050565b60805160601c6112a66200050b600039806106fe528061093b52506112a66000f3fe608060405234801561001057600080fd5b50600436106100885760003560e01c80638f72b1361161005b5780638f72b1361461025c57806397c0ac87146102ca5780639be918e6146102d2578063b3d3af3b1461030c57610088565b806339cbb63c1461008d57806368e81c6d1461014d578063727212f61461018f578063893d20e814610254575b600080fd5b61014b600480360360408110156100a357600080fd5b810190602081018135600160201b8111156100bd57600080fd5b8201836020820111156100cf57600080fd5b803590602001918460208302840111600160201b831117156100f057600080fd5b919390929091602081019035600160201b81111561010d57600080fd5b82018360208201111561011f57600080fd5b803590602001918460208302840111600160201b8311171561014057600080fd5b5090925090506103ca565b005b6101736004803603602081101561016357600080fd5b50356001600160a01b03166104d0565b604080516001600160a01b039092168252519081900360200190f35b6101bb600480360360408110156101a557600080fd5b506001600160a01b0381351690602001356104ee565b604051808060200180602001838103835285818151815260200191508051906020019060200280838360005b838110156101ff5781810151838201526020016101e7565b50505050905001838103825284818151815260200191508051906020019060200280838360005b8381101561023e578181015183820152602001610226565b5050505090500194505050505060405180910390f35b6101736106fa565b61014b6004803603602081101561027257600080fd5b810190602081018135600160201b81111561028c57600080fd5b82018360208201111561029e57600080fd5b803590602001918460208302840111600160201b831117156102bf57600080fd5b509092509050610786565b610173610939565b6102f8600480360360208110156102e857600080fd5b50356001600160a01b031661095d565b604080519115158252519081900360200190f35b61014b6004803603604081101561032257600080fd5b810190602081018135600160201b81111561033c57600080fd5b82018360208201111561034e57600080fd5b803590602001918460208302840111600160201b8311171561036f57600080fd5b919390929091602081019035600160201b81111561038c57600080fd5b82018360208201111561039e57600080fd5b803590602001918460208302840111600160201b831117156103bf57600080fd5b50909250905061097d565b6103d26106fa565b6001600160a01b0316336001600160a01b0316146104215760405162461bcd60e51b81526004018080602001828103825260498152602001806110776049913960600191505060405180910390fd5b8261045d5760405162461bcd60e51b815260040180806020018281038252602c815260200180611113602c913960400191505060405180910390fd5b6104ca84848080602002602001604051908101604052809392919081815260200183836020028082843760009201919091525050604080516020808802828101820190935287825290935087925086918291850190849080828437600092019190915250610c9b92505050565b50505050565b6001600160a01b039081166000908152602081905260409020541690565b6001600160a01b038083166000908152602081905260409020546060918291168061054a5760405162461bcd60e51b815260040180806020018281038252603281526020018061101a6032913960400191505060405180910390fd5b806001600160a01b031663727212f686866040518363ffffffff1660e01b815260040180836001600160a01b0316815260200182815260200192505050600060405180830381600087803b1580156105a157600080fd5b505af11580156105b5573d6000803e3d6000fd5b505050506040513d6000823e601f3d908101601f1916820160409081528110156105de57600080fd5b8101908080516040519392919084600160201b8211156105fd57600080fd5b90830190602082018581111561061257600080fd5b82518660208202830111600160201b8211171561062e57600080fd5b82525081516020918201928201910280838360005b8381101561065b578181015183820152602001610643565b5050505090500160405260200180516040519392919084600160201b82111561068357600080fd5b90830190602082018581111561069857600080fd5b82518660208202830111600160201b821117156106b457600080fd5b82525081516020918201928201910280838360005b838110156106e15781810151838201526020016106c9565b5050505090500160405250505092509250509250929050565b60007f00000000000000000000000000000000000000000000000000000000000000006001600160a01b031663893d20e86040518163ffffffff1660e01b815260040160206040518083038186803b15801561075557600080fd5b505afa158015610769573d6000803e3d6000fd5b505050506040513d602081101561077f57600080fd5b5051905090565b61078e6106fa565b6001600160a01b0316336001600160a01b0316146107dd5760405162461bcd60e51b81526004018080602001828103825260498152602001806110776049913960600191505060405180910390fd5b806108195760405162461bcd60e51b815260040180806020018281038252602f8152602001806110c0602f913960400191505060405180910390fd5b60005b81811015610934576000808085858581811061083457fe5b6001600160a01b036020918202939093013583168452830193909352604090910160002054169190911415905061089c5760405162461bcd60e51b815260040180806020018281038252602b81526020018061119d602b913960400191505060405180910390fd5b6000808484848181106108ab57fe5b602090810292909201356001600160a01b031683525081019190915260400160002080546001600160a01b03191690558282828181106108e757fe5b905060200201356001600160a01b03166001600160a01b03167fc15eb25d807b570f4567baf6e97c7b26d58a7d0512dc85e8db15375a056b860460405160405180910390a260010161081c565b505050565b7f000000000000000000000000000000000000000000000000000000000000000090565b6001600160a01b0390811660009081526020819052604090205416151590565b6109856106fa565b6001600160a01b0316336001600160a01b0316146109d45760405162461bcd60e51b81526004018080602001828103825260498152602001806110776049913960600191505060405180910390fd5b82610a105760405162461bcd60e51b815260040180806020018281038252602f81526020018061113f602f913960400191505060405180910390fd5b828114610a4e5760405162461bcd60e51b8152600401808060200182810382526045815260200180610fd56045913960600191505060405180910390fd5b60005b83811015610c94576000806000878785818110610a6a57fe5b6001600160a01b0360209182029390930135831684528301939093526040909101600020541691505080610acf5760405162461bcd60e51b815260040180806020018281038252602b81526020018061104c602b913960400191505060405180910390fd5b806001600160a01b0316848484818110610ae557fe5b905060200201356001600160a01b03166001600160a01b03161415610b3b5760405162461bcd60e51b81526004018080602001828103825260248152602001806110ef6024913960400191505060405180910390fd5b610b7b868684818110610b4a57fe5b905060200201356001600160a01b0316858585818110610b6657fe5b905060200201356001600160a01b0316610e92565b838383818110610b8757fe5b905060200201356001600160a01b0316600080888886818110610ba657fe5b905060200201356001600160a01b03166001600160a01b03166001600160a01b0316815260200190815260200160002060006101000a8154816001600160a01b0302191690836001600160a01b03160217905550858583818110610c0657fe5b905060200201356001600160a01b03166001600160a01b03167f762002460c0dd59494a8c0d47d7fe01c1cf898b972a2d174272f2e258c29e9a782868686818110610c4d57fe5b905060200201356001600160a01b031660405180836001600160a01b03168152602001826001600160a01b031681526020019250505060405180910390a250600101610a51565b5050505050565b8051825114610cdb5760405162461bcd60e51b81526004018080602001828103825260448152602001806111fd6044913960600191505060405180910390fd5b60005b82518110156109345760006001600160a01b0316600080858481518110610d0157fe5b6020908102919091018101516001600160a01b03908116835290820192909252604001600020541614610d7b576040805162461bcd60e51b815260206004820152601f60248201527f5f5f61646444657269766174697665733a20416c726561647920616464656400604482015290519081900360640190fd5b610dab838281518110610d8a57fe5b6020026020010151838381518110610d9e57fe5b6020026020010151610e92565b818181518110610db757fe5b6020026020010151600080858481518110610dce57fe5b60200260200101516001600160a01b03166001600160a01b0316815260200190815260200160002060006101000a8154816001600160a01b0302191690836001600160a01b03160217905550828181518110610e2657fe5b60200260200101516001600160a01b03167faa4ae250fb435bb4b31ed0b95822bc179fc6c5dd0c727c3ffe08d444025efd98838381518110610e6457fe5b602002602001015160405180826001600160a01b0316815260200191505060405180910390a2600101610cde565b6001600160a01b038216610ed75760405162461bcd60e51b81526004018080602001828103825260308152602001806112416030913960400191505060405180910390fd5b6001600160a01b038116610f1c5760405162461bcd60e51b815260040180806020018281038252602f81526020018061116e602f913960400191505060405180910390fd5b806001600160a01b0316639be918e6836040518263ffffffff1660e01b815260040180826001600160a01b0316815260200191505060206040518083038186803b158015610f6957600080fd5b505afa158015610f7d573d6000803e3d6000fd5b505050506040513d6020811015610f9357600080fd5b5051610fd05760405162461bcd60e51b81526004018080602001828103825260358152602001806111c86035913960400191505060405180910390fd5b505056fe75706461746544657269766174697665733a20556e657175616c205f646572697661746976657320616e64205f70726963654665656473206172726179206c656e6774687363616c63556e6465726c79696e6756616c7565733a205f64657269766174697665206973206e6f7420737570706f7274656475706461746544657269766174697665733a2044657269766174697665206e6f74207965742061646465646f6e6c7946756e644465706c6f7965724f776e65723a204f6e6c79207468652046756e644465706c6f796572206f776e65722063616e2063616c6c20746869732066756e6374696f6e72656d6f766544657269766174697665733a205f64657269766174697665732063616e6e6f7420626520656d70747975706461746544657269766174697665733a2056616c756520616c72656164792073657461646444657269766174697665733a205f64657269766174697665732063616e6e6f7420626520656d70747975706461746544657269766174697665733a205f64657269766174697665732063616e6e6f7420626520656d7074795f5f76616c6964617465446572697661746976655072696365466565643a20456d707479205f70726963654665656472656d6f766544657269766174697665733a2044657269766174697665206e6f74207965742061646465645f5f76616c6964617465446572697661746976655072696365466565643a20556e737570706f7274656420646572697661746976655f5f61646444657269766174697665733a20556e657175616c205f646572697661746976657320616e64205f70726963654665656473206172726179206c656e677468735f5f76616c6964617465446572697661746976655072696365466565643a20456d707479205f64657269766174697665a2646970667358221220d1a386f948306fbb7cda85456013315e7be48d3419e8a59c14028c4fdeff2f8764736f6c634300060c00335f5f76616c6964617465446572697661746976655072696365466565643a20456d707479205f7072696365466565645f5f76616c6964617465446572697661746976655072696365466565643a20556e737570706f7274656420646572697661746976655f5f61646444657269766174697665733a20556e657175616c205f646572697661746976657320616e64205f70726963654665656473206172726179206c656e677468735f5f76616c6964617465446572697661746976655072696365466565643a20456d707479205f64657269766174697665",
  "devdoc": {
    "kind": "dev",
    "methods": {
      "addDerivatives(address[],address[])": {
        "params": {
          "_derivatives": "The derivatives to add",
          "_priceFeeds": "The ordered price feeds corresponding to the list of _derivatives"
        }
      },
      "calcUnderlyingValues(address,uint256)": {
        "params": {
          "_derivative": "The derivative for which to get the rates"
        },
        "returns": {
          "underlyingAmounts_": "The rates for the _derivative to the underlyings_",
          "underlyings_": "The underlying assets for the _derivative"
        }
      },
      "getFundDeployer()": {
        "returns": {
          "fundDeployer_": "The `FUND_DEPLOYER` variable value"
        }
      },
      "getOwner()": {
        "details": "Ownership is deferred to the owner of the FundDeployer contract",
        "returns": {
          "owner_": "The owner"
        }
      },
      "getPriceFeedForDerivative(address)": {
        "returns": {
          "priceFeed_": "The price feed contract address"
        }
      },
      "isSupportedAsset(address)": {
        "details": "This should be as low-cost and simple as possible",
        "params": {
          "_asset": "The asset to check"
        },
        "returns": {
          "isSupported_": "True if the asset is a supported derivative"
        }
      },
      "removeDerivatives(address[])": {
        "params": {
          "_derivatives": "The derivatives to remove"
        }
      },
      "updateDerivatives(address[],address[])": {
        "params": {
          "_derivatives": "The derivatives to update",
          "_priceFeeds": "The ordered price feeds corresponding to the list of _derivatives"
        }
      }
    },
    "title": "AggregatedDerivativePriceFeed Contract",
    "version": 1
  },
  "userdoc": {
    "kind": "user",
    "methods": {
      "addDerivatives(address[],address[])": {
        "notice": "Adds a list of derivatives with the given price feed values"
      },
      "calcUnderlyingValues(address,uint256)": {
        "notice": "Gets the rates for 1 unit of the derivative to its underlying assets"
      },
      "getFundDeployer()": {
        "notice": "Gets the `FUND_DEPLOYER` variable"
      },
      "getOwner()": {
        "notice": "Gets the owner of this contract"
      },
      "getPriceFeedForDerivative(address)": {
        "notice": "Gets the registered price feed for a given derivative"
      },
      "isSupportedAsset(address)": {
        "notice": "Checks whether an asset is a supported derivative"
      },
      "removeDerivatives(address[])": {
        "notice": "Removes a list of derivatives"
      },
      "updateDerivatives(address[],address[])": {
        "notice": "Updates a list of derivatives with the given price feed values"
      }
    },
    "notice": "Aggregates multiple derivative price feeds (e.g., Compound, Chai) and dispatches rate requests to the appropriate feed",
    "version": 1
  },
  "storageLayout": {
    "storage": [
      {
        "astId": 32388,
        "contract": "contracts/release/infrastructure/price-feeds/derivatives/AggregatedDerivativePriceFeed.sol:AggregatedDerivativePriceFeed",
        "label": "derivativeToPriceFeed",
        "offset": 0,
        "slot": "0",
        "type": "t_mapping(t_address,t_address)"
      }
    ],
    "types": {
      "t_address": {
        "encoding": "inplace",
        "label": "address",
        "numberOfBytes": "20"
      },
      "t_mapping(t_address,t_address)": {
        "encoding": "mapping",
        "key": "t_address",
        "label": "mapping(address => address)",
        "numberOfBytes": "32",
        "value": "t_address"
      }
    }
  }
}