{
  "address": "0x1C65eE4E98012DEFa6110B5B23bc6e8Ab6d07E8A",
  "abi": [
    {
      "inputs": [
        {
          "internalType": "address",
          "name": "_fundDeployer",
          "type": "address"
        },
        {
          "internalType": "address",
          "name": "_wethToken",
          "type": "address"
        },
        {
          "internalType": "address",
          "name": "_ethUsdAggregator",
          "type": "address"
        },
        {
          "internalType": "address[]",
          "name": "_primitives",
          "type": "address[]"
        },
        {
          "internalType": "address[]",
          "name": "_aggregators",
          "type": "address[]"
        },
        {
          "internalType": "enum ChainlinkPriceFeed.RateAsset[]",
          "name": "_rateAssets",
          "type": "uint8[]"
        }
      ],
      "stateMutability": "nonpayable",
      "type": "constructor"
    },
    {
      "anonymous": false,
      "inputs": [
        {
          "indexed": false,
          "internalType": "address",
          "name": "prevEthUsdAggregator",
          "type": "address"
        },
        {
          "indexed": false,
          "internalType": "address",
          "name": "nextEthUsdAggregator",
          "type": "address"
        }
      ],
      "name": "EthUsdAggregatorSet",
      "type": "event"
    },
    {
      "anonymous": false,
      "inputs": [
        {
          "indexed": true,
          "internalType": "address",
          "name": "primitive",
          "type": "address"
        },
        {
          "indexed": false,
          "internalType": "address",
          "name": "aggregator",
          "type": "address"
        },
        {
          "indexed": false,
          "internalType": "enum ChainlinkPriceFeed.RateAsset",
          "name": "rateAsset",
          "type": "uint8"
        },
        {
          "indexed": false,
          "internalType": "uint256",
          "name": "unit",
          "type": "uint256"
        }
      ],
      "name": "PrimitiveAdded",
      "type": "event"
    },
    {
      "anonymous": false,
      "inputs": [
        {
          "indexed": true,
          "internalType": "address",
          "name": "primitive",
          "type": "address"
        }
      ],
      "name": "PrimitiveRemoved",
      "type": "event"
    },
    {
      "anonymous": false,
      "inputs": [
        {
          "indexed": true,
          "internalType": "address",
          "name": "primitive",
          "type": "address"
        },
        {
          "indexed": false,
          "internalType": "address",
          "name": "prevAggregator",
          "type": "address"
        },
        {
          "indexed": false,
          "internalType": "address",
          "name": "nextAggregator",
          "type": "address"
        }
      ],
      "name": "PrimitiveUpdated",
      "type": "event"
    },
    {
      "anonymous": false,
      "inputs": [
        {
          "indexed": true,
          "internalType": "address",
          "name": "primitive",
          "type": "address"
        }
      ],
      "name": "StalePrimitiveRemoved",
      "type": "event"
    },
    {
      "anonymous": false,
      "inputs": [
        {
          "indexed": false,
          "internalType": "uint256",
          "name": "prevStaleRateThreshold",
          "type": "uint256"
        },
        {
          "indexed": false,
          "internalType": "uint256",
          "name": "nextStaleRateThreshold",
          "type": "uint256"
        }
      ],
      "name": "StaleRateThresholdSet",
      "type": "event"
    },
    {
      "inputs": [
        {
          "internalType": "address[]",
          "name": "_primitives",
          "type": "address[]"
        },
        {
          "internalType": "address[]",
          "name": "_aggregators",
          "type": "address[]"
        },
        {
          "internalType": "enum ChainlinkPriceFeed.RateAsset[]",
          "name": "_rateAssets",
          "type": "uint8[]"
        }
      ],
      "name": "addPrimitives",
      "outputs": [],
      "stateMutability": "nonpayable",
      "type": "function"
    },
    {
      "inputs": [
        {
          "internalType": "address",
          "name": "_baseAsset",
          "type": "address"
        },
        {
          "internalType": "uint256",
          "name": "_baseAssetAmount",
          "type": "uint256"
        },
        {
          "internalType": "address",
          "name": "_quoteAsset",
          "type": "address"
        }
      ],
      "name": "calcCanonicalValue",
      "outputs": [
        {
          "internalType": "uint256",
          "name": "quoteAssetAmount_",
          "type": "uint256"
        },
        {
          "internalType": "bool",
          "name": "isValid_",
          "type": "bool"
        }
      ],
      "stateMutability": "view",
      "type": "function"
    },
    {
      "inputs": [
        {
          "internalType": "address",
          "name": "_baseAsset",
          "type": "address"
        },
        {
          "internalType": "uint256",
          "name": "_baseAssetAmount",
          "type": "uint256"
        },
        {
          "internalType": "address",
          "name": "_quoteAsset",
          "type": "address"
        }
      ],
      "name": "calcLiveValue",
      "outputs": [
        {
          "internalType": "uint256",
          "name": "quoteAssetAmount_",
          "type": "uint256"
        },
        {
          "internalType": "bool",
          "name": "isValid_",
          "type": "bool"
        }
      ],
      "stateMutability": "view",
      "type": "function"
    },
    {
      "inputs": [
        {
          "internalType": "address",
          "name": "_primitive",
          "type": "address"
        }
      ],
      "name": "getAggregatorInfoForPrimitive",
      "outputs": [
        {
          "components": [
            {
              "internalType": "address",
              "name": "aggregator",
              "type": "address"
            },
            {
              "internalType": "enum ChainlinkPriceFeed.RateAsset",
              "name": "rateAsset",
              "type": "uint8"
            }
          ],
          "internalType": "struct ChainlinkPriceFeed.AggregatorInfo",
          "name": "aggregatorInfo_",
          "type": "tuple"
        }
      ],
      "stateMutability": "view",
      "type": "function"
    },
    {
      "inputs": [],
      "name": "getEthUsdAggregator",
      "outputs": [
        {
          "internalType": "address",
          "name": "ethUsdAggregator_",
          "type": "address"
        }
      ],
      "stateMutability": "view",
      "type": "function"
    },
    {
      "inputs": [],
      "name": "getFundDeployer",
      "outputs": [
        {
          "internalType": "address",
          "name": "fundDeployer_",
          "type": "address"
        }
      ],
      "stateMutability": "view",
      "type": "function"
    },
    {
      "inputs": [],
      "name": "getOwner",
      "outputs": [
        {
          "internalType": "address",
          "name": "owner_",
          "type": "address"
        }
      ],
      "stateMutability": "view",
      "type": "function"
    },
    {
      "inputs": [
        {
          "internalType": "address",
          "name": "_primitive",
          "type": "address"
        }
      ],
      "name": "getRateAssetForPrimitive",
      "outputs": [
        {
          "internalType": "enum ChainlinkPriceFeed.RateAsset",
          "name": "rateAsset_",
          "type": "uint8"
        }
      ],
      "stateMutability": "view",
      "type": "function"
    },
    {
      "inputs": [],
      "name": "getStaleRateThreshold",
      "outputs": [
        {
          "internalType": "uint256",
          "name": "staleRateThreshold_",
          "type": "uint256"
        }
      ],
      "stateMutability": "view",
      "type": "function"
    },
    {
      "inputs": [
        {
          "internalType": "address",
          "name": "_primitive",
          "type": "address"
        }
      ],
      "name": "getUnitForPrimitive",
      "outputs": [
        {
          "internalType": "uint256",
          "name": "unit_",
          "type": "uint256"
        }
      ],
      "stateMutability": "view",
      "type": "function"
    },
    {
      "inputs": [],
      "name": "getWethToken",
      "outputs": [
        {
          "internalType": "address",
          "name": "wethToken_",
          "type": "address"
        }
      ],
      "stateMutability": "view",
      "type": "function"
    },
    {
      "inputs": [
        {
          "internalType": "address",
          "name": "_asset",
          "type": "address"
        }
      ],
      "name": "isSupportedAsset",
      "outputs": [
        {
          "internalType": "bool",
          "name": "isSupported_",
          "type": "bool"
        }
      ],
      "stateMutability": "view",
      "type": "function"
    },
    {
      "inputs": [
        {
          "internalType": "address",
          "name": "_aggregator",
          "type": "address"
        }
      ],
      "name": "rateIsStale",
      "outputs": [
        {
          "internalType": "bool",
          "name": "rateIsStale_",
          "type": "bool"
        }
      ],
      "stateMutability": "view",
      "type": "function"
    },
    {
      "inputs": [
        {
          "internalType": "address[]",
          "name": "_primitives",
          "type": "address[]"
        }
      ],
      "name": "removePrimitives",
      "outputs": [],
      "stateMutability": "nonpayable",
      "type": "function"
    },
    {
      "inputs": [
        {
          "internalType": "address[]",
          "name": "_primitives",
          "type": "address[]"
        }
      ],
      "name": "removeStalePrimitives",
      "outputs": [],
      "stateMutability": "nonpayable",
      "type": "function"
    },
    {
      "inputs": [
        {
          "internalType": "address",
          "name": "_nextEthUsdAggregator",
          "type": "address"
        }
      ],
      "name": "setEthUsdAggregator",
      "outputs": [],
      "stateMutability": "nonpayable",
      "type": "function"
    },
    {
      "inputs": [
        {
          "internalType": "uint256",
          "name": "_nextStaleRateThreshold",
          "type": "uint256"
        }
      ],
      "name": "setStaleRateThreshold",
      "outputs": [],
      "stateMutability": "nonpayable",
      "type": "function"
    },
    {
      "inputs": [
        {
          "internalType": "address[]",
          "name": "_primitives",
          "type": "address[]"
        },
        {
          "internalType": "address[]",
          "name": "_aggregators",
          "type": "address[]"
        }
      ],
      "name": "updatePrimitives",
      "outputs": [],
      "stateMutability": "nonpayable",
      "type": "function"
    }
  ],
  "transactionHash": "0xe836648415669643974bdbec152b7371426629521b425f046db667a82c3c2378",
  "args": [
    "0x5cBbA5484594598a660636eFb0A1AD953aFa4e32",
    "0xd0a1e359811322d97991e03f863a0c30c2cf029c",
    "0x9326bfa02add2366b30bacb125260af641031331",
    [
      "0x2e62eaaf0f490219be8ed376326e0516228bae89",
      "0x4674e9587925f9fb4d3a4cc5591029596280e00c",
      "0x88dd7a403a3d48625c9cb511ff47d1d6c25eb121",
      "0x23cb26e7bc6868452097e351e42d2a39c861b6bb",
      "0x4f96fe3b7a6cf9725f59d353f723c1bdb64ca6aa",
      "0x1dc1216b3d1803a0b5f7664b7756377f477614ab",
      "0x902aaefd695f2af5ccfa6a027051261976131d69",
      "0xd7f19f0d395e8c7d5368d74a81b774e2b822df25",
      "0x7c52405ada0bfbca32a81703862a03757fb702f7",
      "0xde016fea21895e5aca1112b95504f303500002b5",
      "0xd9436124f61685e63cd87370d1a9b32e79b75601",
      "0x56a7c6766b5e7a9e6bc704f7becc001f2755a713",
      "0x4c22d46c07ab880f94e8213e0256727af471a9f4",
      "0x190cece40aef39a2a15d8858cafa691f01a909c5",
      "0x86684577af5598b229a27c5774b658d303e2e044",
      "0x16266fcb1eba66db68ee07b78c2a6f02bc5b8763",
      "0x50e7615a526f715556c478749303c75571f1e6b5",
      "0x08adedfb5f473a7dffd05da2c0f33651553668a9",
      "0x3a854556f28f77dcc803538032ca64fdf42a0783",
      "0x162c44e53097e7b5aae939b297fffd6bf90d1ee3"
    ],
    [
      "0x0e4fcec26c9f85c3d714370c98f43c4e02fc35ae",
      "0x8993ed705cdf5e84d0a3b754b5ee0e1783fcdf16",
      "0xbf7a18ea5de0501f7559144e702b29c55b055ccb",
      "0x9aa9da35dc44f93d90436bfe256f465f720c3ae5",
      "0x777a68032a88e5a84678a77af2cd65a7b3c0775a",
      "0xfadbe2ee798889f02d1d39edad98eff4c7fe95d4",
      "0xb8e8130d244cfd13a75d6b9aee029b1c33c808a7",
      "0x3af8c569ab77af5230596acf0e8c2f9351d24c38",
      "0x1b93d8e109cfedcbb3cc74ed761de286d5771511",
      "0x0b156192e04bad92b6c1c13cf8739d14d78d5701",
      "0xf1939bece7708382b5fb5e559f630cb8b39a10ee",
      "0x3a7e6117f2979eff81855de32819fbba48a63e9e",
      "0xf9a76ae7a1075fe7d646b06ff05bd48b9fa5582e",
      "0xb343e7a1af578fa35632435243d814e7497622f7",
      "0x17756515f112429471f86f98d5052acb6c47f6ee",
      "0x64eac61a2dfda2c3fa04eed49aa33d021aec8838",
      "0x0bf499444525a23e7bb61997539725ca2e928138",
      "0xf7904a295a029a3abdffb6f12755974a958c7c25",
      "0xc5d1b1deb2992738c0273408ac43e1e906086b6c",
      "0xbc3f28ccc21e9b5856e81e6372aff57307e2e883"
    ],
    [
      0,
      1,
      0,
      0,
      0,
      0,
      0,
      0,
      0,
      0,
      0,
      0,
      0,
      0,
      0,
      0,
      0,
      0,
      0,
      0
    ]
  ],
  "solcInputHash": "616bcd197648f809b4b4e612fb09cc9a",
  "bytecode": "0x60c06040523480156200001157600080fd5b5060405162002d9a38038062002d9a83398101604081905262000034916200062e565b6001600160601b0319606087811b821660805286901b1660a05262015f90600155620000608462000081565b82511562000075576200007583838362000123565b50505050505062000af0565b6000546001600160a01b03908116908216811415620000bd5760405162461bcd60e51b8152600401620000b490620009ad565b60405180910390fd5b620000c8826200042f565b600080546001600160a01b0319166001600160a01b0384161790556040517f98b60a60ba6130248e985ae4140dc3109d9c2980c7e435fed385e2756bc944619062000117908390859062000959565b60405180910390a15050565b8151835114620001475760405162461bcd60e51b8152600401620000b490620009f5565b80518351146200016b5760405162461bcd60e51b8152600401620000b490620009d1565b60005b8351811015620004295760006001600160a01b0316600260008684815181106200019457fe5b6020908102919091018101516001600160a01b03908116835290820192909252604001600020541614620001dc5760405162461bcd60e51b8152600401620000b49062000a07565b62000201838281518110620001ed57fe5b60200260200101516200042f60201b60201c565b60405180604001604052808483815181106200021957fe5b60200260200101516001600160a01b031681526020018383815181106200023c57fe5b602002602001015160018111156200025057fe5b815250600260008684815181106200026457fe5b6020908102919091018101516001600160a01b039081168352828201939093526040909101600020835181546001600160a01b0319169316929092178083559083015190829060ff60a01b1916600160a01b836001811115620002c357fe5b02179055509050506000848281518110620002da57fe5b60200260200101516001600160a01b031663313ce5676040518163ffffffff1660e01b815260040160206040518083038186803b1580156200031b57600080fd5b505afa15801562000330573d6000803e3d6000fd5b505050506040513d601f19601f8201168201806040525081019062000356919062000733565b60ff16600a0a905080600360008785815181106200037057fe5b60200260200101516001600160a01b03166001600160a01b0316815260200190815260200160002081905550848281518110620003a957fe5b60200260200101516001600160a01b03167f742bdf00da3d8f16c0fab93ce38eb6a536a019c9e283888dd44c3a08c0148c02858481518110620003e857fe5b6020026020010151858581518110620003fd57fe5b60200260200101518460405162000417939291906200097f565b60405180910390a2506001016200016e565b50505050565b6001600160a01b038116620004585760405162461bcd60e51b8152600401620000b490620009bf565b6000816001600160a01b03166350d25bcd6040518163ffffffff1660e01b815260040160206040518083038186803b1580156200049457600080fd5b505afa158015620004a9573d6000803e3d6000fd5b505050506040513d601f19601f82011682018060405250810190620004cf91906200070a565b13620004ef5760405162461bcd60e51b8152600401620000b490620009e3565b50565b8051620004ff8162000ab5565b92915050565b600082601f8301126200051757600080fd5b81516200052e620005288262000a40565b62000a19565b915081818352602084019350602081019050838560208402820111156200055457600080fd5b60005b838110156200058457816200056d8882620004f2565b845250602092830192919091019060010162000557565b5050505092915050565b600082601f830112620005a057600080fd5b8151620005b1620005288262000a40565b91508181835260208401935060208101905083856020840282011115620005d757600080fd5b60005b83811015620005845781620005f0888262000607565b8452506020928301929190910190600101620005da565b8051620004ff8162000acc565b8051620004ff8162000ada565b8051620004ff8162000ae5565b60008060008060008060c087890312156200064857600080fd5b6000620006568989620004f2565b96505060206200066989828a01620004f2565b95505060406200067c89828a01620004f2565b94505060608701516001600160401b038111156200069957600080fd5b620006a789828a0162000505565b93505060808701516001600160401b03811115620006c457600080fd5b620006d289828a0162000505565b92505060a08701516001600160401b03811115620006ef57600080fd5b620006fd89828a016200058e565b9150509295509295509295565b6000602082840312156200071d57600080fd5b60006200072b848462000614565b949350505050565b6000602082840312156200074657600080fd5b60006200072b848462000621565b6200075f8162000a6a565b82525050565b6200075f8162000a9d565b60006200077f60288362000a61565b7f5f5f73657445746855736441676772656761746f723a2056616c756520616c728152671958591e481cd95d60c21b602082015260400192915050565b6000620007cb60278362000a61565b7f5f5f76616c696461746541676772656761746f723a20456d707479205f6167678152663932b3b0ba37b960c91b602082015260400192915050565b60006200081660428362000a61565b60008051602062002d7a83398151915281527f6976657320616e64205f72617465417373657473206172726179206c656e6774602082015261687360f01b604082015260600192915050565b60006200087160268362000a61565b7f5f5f76616c696461746541676772656761746f723a204e6f20726174652064658152651d1958dd195960d21b602082015260400192915050565b6000620008bb60438362000a61565b60008051602062002d7a83398151915281527f6976657320616e64205f61676772656761746f7273206172726179206c656e6760208201526274687360e81b604082015260600192915050565b60006200091760228362000a61565b7f5f5f6164645072696d6974697665733a2056616c756520616c72656164792073815261195d60f21b602082015260400192915050565b6200075f8162000a88565b6040810162000969828562000754565b62000978602083018462000754565b9392505050565b606081016200098f828662000754565b6200099e602083018562000765565b6200072b60408301846200094e565b60208082528101620004ff8162000770565b60208082528101620004ff81620007bc565b60208082528101620004ff8162000807565b60208082528101620004ff8162000862565b60208082528101620004ff81620008ac565b60208082528101620004ff8162000908565b6040518181016001600160401b038111828210171562000a3857600080fd5b604052919050565b60006001600160401b0382111562000a5757600080fd5b5060209081020190565b90815260200190565b6000620004ff8262000a8b565b8062000a838162000aaa565b919050565b90565b6001600160a01b031690565b60ff1690565b6000620004ff8262000a77565b60028110620004ef57fe5b62000ac08162000a6a565b8114620004ef57600080fd5b60028110620004ef57600080fd5b62000ac08162000a88565b62000ac08162000a97565b60805160601c60a05160601c61224762000b33600039806105b1528061067552806107b25280610d745280610dde5250806106dc528061078c52506122476000f3fe608060405234801561001057600080fd5b50600436106101165760003560e01c80638a275539116100a2578063a98acadc11610071578063a98acadc14610233578063b54fbdaa14610246578063cf0399c81461024e578063e106264f14610261578063e35e318e1461027457610116565b80638a275539146101f257806397c0ac87146102055780639be918e61461020d578063a8527ea81461022057610116565b80634c252f91116100e95780634c252f911461018d578063587fe0b2146101a257806374626f87146101c2578063787f2568146101ca578063893d20e8146101ea57610116565b806309157f951461011b578063149b83e6146101305780631b9548f81461014357806332d95e6c1461016d575b600080fd5b61012e610129366004611827565b610294565b005b61012e61013e3660046116b6565b61033b565b610156610151366004611669565b6104e5565b604051610164929190612168565b60405180910390f35b61018061017b366004611625565b61054a565b604051610164919061214c565b6101956105af565b6040516101649190611f7f565b6101b56101b0366004611625565b6105d3565b6040516101649190611fd0565b610195610662565b6101dd6101d8366004611625565b610671565b604051610164919061215a565b6101956106d8565b610156610200366004611669565b610770565b61019561078a565b6101b561021b366004611625565b6107ae565b61012e61022e3660046116f8565b61080f565b61012e610241366004611625565b610a76565b6101dd610aba565b61012e61025c366004611768565b610ac0565b61012e61026f3660046116b6565b610bbb565b610287610282366004611625565b610d70565b6040516101649190611fde565b61029c6106d8565b6001600160a01b0316336001600160a01b0316146102d55760405162461bcd60e51b81526004016102cc9061201c565b60405180910390fd5b600154818114156102f85760405162461bcd60e51b81526004016102cc906120dc565b60018290556040517f97f8e271e60eea593a857fceac8dc84e2ebf697b2771f3ca4dabf8255ee55fde9061032f9083908590612183565b60405180910390a15050565b806103585760405162461bcd60e51b81526004016102cc9061204c565b60005b818110156104e05760006002600085858581811061037557fe5b905060200201602081019061038a9190611625565b6001600160a01b039081168252602082019290925260400160002054169050806103c65760405162461bcd60e51b81526004016102cc9061202c565b6103cf816105d3565b6103eb5760405162461bcd60e51b81526004016102cc906120bc565b600260008585858181106103fb57fe5b90506020020160208101906104109190611625565b6001600160a01b031681526020810191909152604001600090812080546001600160a81b031916905560039085858581811061044857fe5b905060200201602081019061045d9190611625565b6001600160a01b03166001600160a01b031681526020019081526020016000206000905583838381811061048d57fe5b90506020020160208101906104a29190611625565b6001600160a01b03167ff4a60a74fb565dfd083c5755117b74c21251de3a0e0ed2c0e4f23461a413309060405160405180910390a25060010161035b565b505050565b60008060006104f386610dda565b90506000811361050a576000809250925050610542565b600061051585610dda565b90506000811361052d57600080935093505050610542565b61053a8787848885610ed5565b909450925050505b935093915050565b61055261158e565b6001600160a01b03828116600090815260026020908152604091829020825180840190935280549384168352919290830190600160a01b900460ff16600181111561059957fe5b60018111156105a457fe5b90525090505b919050565b7f000000000000000000000000000000000000000000000000000000000000000090565b60006105ea6001544261103e90919063ffffffff16565b826001600160a01b0316638205bf6a6040518163ffffffff1660e01b815260040160206040518083038186803b15801561062357600080fd5b505afa158015610637573d6000803e3d6000fd5b505050506040513d601f19601f8201168201806040525081019061065b9190611809565b1092915050565b6000546001600160a01b031690565b60007f00000000000000000000000000000000000000000000000000000000000000006001600160a01b0316826001600160a01b031614156106bc5750670de0b6b3a76400006105aa565b506001600160a01b031660009081526003602052604090205490565b60007f00000000000000000000000000000000000000000000000000000000000000006001600160a01b031663893d20e86040518163ffffffff1660e01b815260040160206040518083038186803b15801561073357600080fd5b505afa158015610747573d6000803e3d6000fd5b505050506040513d601f19601f8201168201806040525081019061076b919061164b565b905090565b60008061077e8585856104e5565b91509150935093915050565b7f000000000000000000000000000000000000000000000000000000000000000090565b60007f00000000000000000000000000000000000000000000000000000000000000006001600160a01b0316826001600160a01b0316148061080957506001600160a01b038281166000908152600260205260409020541615155b92915050565b6108176106d8565b6001600160a01b0316336001600160a01b0316146108475760405162461bcd60e51b81526004016102cc9061201c565b826108645760405162461bcd60e51b81526004016102cc9061211c565b8281146108835760405162461bcd60e51b81526004016102cc90611ffc565b60005b83811015610a6f576000600260008787858181106108a057fe5b90506020020160208101906108b59190611625565b6001600160a01b039081168252602082019290925260400160002054169050806108f15760405162461bcd60e51b81526004016102cc906120fc565b806001600160a01b031684848481811061090757fe5b905060200201602081019061091c9190611625565b6001600160a01b031614156109435760405162461bcd60e51b81526004016102cc9061208c565b61096c84848481811061095257fe5b90506020020160208101906109679190611625565b611066565b83838381811061097857fe5b905060200201602081019061098d9190611625565b6002600088888681811061099d57fe5b90506020020160208101906109b29190611625565b6001600160a01b039081168252602082019290925260400160002080546001600160a01b031916929091169190911790558585838181106109ef57fe5b9050602002016020810190610a049190611625565b6001600160a01b03167fea132160c6ec74553a52c5ce52a096299236ff4da86ca7d4ef18da8b70b4559382868686818110610a3b57fe5b9050602002016020810190610a509190611625565b604051610a5e929190611f8d565b60405180910390a250600101610886565b5050505050565b610a7e6106d8565b6001600160a01b0316336001600160a01b031614610aae5760405162461bcd60e51b81526004016102cc9061201c565b610ab78161111c565b50565b60015490565b610ac86106d8565b6001600160a01b0316336001600160a01b031614610af85760405162461bcd60e51b81526004016102cc9061201c565b84610b155760405162461bcd60e51b81526004016102cc9061205c565b610bb386868080602002602001604051908101604052809392919081815260200183836020028082843760009201919091525050604080516020808a02828101820190935289825290935089925088918291850190849080828437600092019190915250506040805160208089028281018201909352888252909350889250879182918501908490808284376000920191909152506111a292505050565b505050505050565b610bc36106d8565b6001600160a01b0316336001600160a01b031614610bf35760405162461bcd60e51b81526004016102cc9061201c565b80610c105760405162461bcd60e51b81526004016102cc9061209c565b60005b818110156104e0576000600281858585818110610c2c57fe5b9050602002016020810190610c419190611625565b6001600160a01b039081168252602082019290925260400160002054161415610c7c5760405162461bcd60e51b81526004016102cc9061212c565b60026000848484818110610c8c57fe5b9050602002016020810190610ca19190611625565b6001600160a01b031681526020810191909152604001600090812080546001600160a81b0319169055600390848484818110610cd957fe5b9050602002016020810190610cee9190611625565b6001600160a01b03166001600160a01b0316815260200190815260200160002060009055828282818110610d1e57fe5b9050602002016020810190610d339190611625565b6001600160a01b03167fb100e8178a081ba9130260173ee2ebe0db3a6c3b6751a7801111ab3017df0e9760405160405180910390a2600101610c13565b60007f00000000000000000000000000000000000000000000000000000000000000006001600160a01b0316826001600160a01b03161415610db4575060006105aa565b506001600160a01b0316600090815260026020526040902054600160a01b900460ff1690565b60007f00000000000000000000000000000000000000000000000000000000000000006001600160a01b0316826001600160a01b03161415610e255750670de0b6b3a76400006105aa565b6001600160a01b038083166000908152600260205260409020541680610e5d5760405162461bcd60e51b81526004016102cc9061200c565b806001600160a01b03166350d25bcd6040518163ffffffff1660e01b815260040160206040518083038186803b158015610e9657600080fd5b505afa158015610eaa573d6000803e3d6000fd5b505050506040513d601f19601f82011682018060405250810190610ece9190611809565b9392505050565b6000806000610ee388610d70565b90506000610ef086610d70565b90506000610efd8a610671565b90506000610f0a88610671565b9050826001811115610f1857fe5b846001811115610f2457fe5b1415610f4657610f378a838b848b611489565b60019550955050505050611034565b60008060009054906101000a90046001600160a01b03166001600160a01b03166350d25bcd6040518163ffffffff1660e01b815260040160206040518083038186803b158015610f9557600080fd5b505afa158015610fa9573d6000803e3d6000fd5b505050506040513d601f19601f82011682018060405250810190610fcd9190611809565b905060008113610fe857600080965096505050505050611034565b6000856001811115610ff657fe5b141561101a5761100a8b848c858c866114bc565b6001965096505050505050611034565b6110288b848c858c866114f7565b60019650965050505050505b9550959350505050565b6000828211156110605760405162461bcd60e51b81526004016102cc9061206c565b50900390565b6001600160a01b03811661108c5760405162461bcd60e51b81526004016102cc9061203c565b6000816001600160a01b03166350d25bcd6040518163ffffffff1660e01b815260040160206040518083038186803b1580156110c757600080fd5b505afa1580156110db573d6000803e3d6000fd5b505050506040513d601f19601f820116820180604052508101906110ff9190611809565b13610ab75760405162461bcd60e51b81526004016102cc906120ec565b6000546001600160a01b0390811690821681141561114c5760405162461bcd60e51b81526004016102cc90611fec565b61115582611066565b600080546001600160a01b0319166001600160a01b0384161790556040517f98b60a60ba6130248e985ae4140dc3109d9c2980c7e435fed385e2756bc944619061032f9083908590611f8d565b81518351146111c35760405162461bcd60e51b81526004016102cc9061210c565b80518351146111e45760405162461bcd60e51b81526004016102cc906120ac565b60005b83518110156114835760006001600160a01b03166002600086848151811061120b57fe5b6020908102919091018101516001600160a01b039081168352908201929092526040016000205416146112505760405162461bcd60e51b81526004016102cc9061213c565b61126c83828151811061125f57fe5b6020026020010151611066565b604051806040016040528084838151811061128357fe5b60200260200101516001600160a01b031681526020018383815181106112a557fe5b602002602001015160018111156112b857fe5b815250600260008684815181106112cb57fe5b6020908102919091018101516001600160a01b039081168352828201939093526040909101600020835181546001600160a01b0319169316929092178083559083015190829060ff60a01b1916600160a01b83600181111561132957fe5b0217905550905050600084828151811061133f57fe5b60200260200101516001600160a01b031663313ce5676040518163ffffffff1660e01b815260040160206040518083038186803b15801561137f57600080fd5b505afa158015611393573d6000803e3d6000fd5b505050506040513d601f19601f820116820180604052508101906113b79190611845565b60ff16600a0a905080600360008785815181106113d057fe5b60200260200101516001600160a01b03166001600160a01b031681526020019081526020016000208190555084828151811061140857fe5b60200260200101516001600160a01b03167f742bdf00da3d8f16c0fab93ce38eb6a536a019c9e283888dd44c3a08c0148c0285848151811061144657fe5b602002602001015185858151811061145a57fe5b60200260200101518460405161147293929190611fa8565b60405180910390a2506001016111e7565b50505050565b60006114b26114988684611522565b6114ac856114a68a89611522565b90611522565b9061155c565b9695505050505050565b6000806114d9670de0b6b3a76400006114ac856114a68c8b611522565b90506114eb846114ac8981858a611522565b98975050505050505050565b60008061150c836114ac876114a68c8b611522565b90506114eb846114ac898185670de0b6b3a76400005b60008261153157506000610809565b8282028284828161153e57fe5b0414610ece5760405162461bcd60e51b81526004016102cc906120cc565b600080821161157d5760405162461bcd60e51b81526004016102cc9061207c565b81838161158657fe5b049392505050565b604080518082019091526000808252602082015290565b8035610809816121eb565b8051610809816121eb565b60008083601f8401126115cd57600080fd5b50813567ffffffffffffffff8111156115e557600080fd5b6020830191508360208202830111156115fd57600080fd5b9250929050565b8051610809816121ff565b8035610809816121ff565b805161080981612208565b60006020828403121561163757600080fd5b600061164384846115a5565b949350505050565b60006020828403121561165d57600080fd5b600061164384846115b0565b60008060006060848603121561167e57600080fd5b600061168a86866115a5565b935050602061169b8682870161160f565b92505060406116ac868287016115a5565b9150509250925092565b600080602083850312156116c957600080fd5b823567ffffffffffffffff8111156116e057600080fd5b6116ec858286016115bb565b92509250509250929050565b6000806000806040858703121561170e57600080fd5b843567ffffffffffffffff81111561172557600080fd5b611731878288016115bb565b9450945050602085013567ffffffffffffffff81111561175057600080fd5b61175c878288016115bb565b95989497509550505050565b6000806000806000806060878903121561178157600080fd5b863567ffffffffffffffff81111561179857600080fd5b6117a489828a016115bb565b9650965050602087013567ffffffffffffffff8111156117c357600080fd5b6117cf89828a016115bb565b9450945050604087013567ffffffffffffffff8111156117ee57600080fd5b6117fa89828a016115bb565b92509250509295509295509295565b60006020828403121561181b57600080fd5b60006116438484611604565b60006020828403121561183957600080fd5b6000611643848461160f565b60006020828403121561185757600080fd5b6000611643848461161a565b61186c816121a7565b82525050565b61186c816121b2565b61186c816121d6565b600061189160288361219e565b7f5f5f73657445746855736441676772656761746f723a2056616c756520616c728152671958591e481cd95d60c21b602082015260400192915050565b60006118db60448361219e565b7f7570646174655072696d6974697665733a20556e657175616c205f7072696d6981527f746976657320616e64205f61676772656761746f7273206172726179206c656e6020820152636774687360e01b604082015260600192915050565b6000611947602d8361219e565b7f5f5f6765744c617465737452617465446174613a205072696d6974697665206481526c1bd95cc81b9bdd08195e1a5cdd609a1b602082015260400192915050565b600061199660498361219e565b7f6f6e6c7946756e644465706c6f7965724f776e65723a204f6e6c79207468652081527f46756e644465706c6f796572206f776e65722063616e2063616c6c207468697360208201526810333ab731ba34b7b760b91b604082015260600192915050565b6000611a0760288361219e565b7f72656d6f76655374616c655072696d6974697665733a20496e76616c6964207081526772696d697469766560c01b602082015260400192915050565b6000611a5160278361219e565b7f5f5f76616c696461746541676772656761746f723a20456d707479205f6167678152663932b3b0ba37b960c91b602082015260400192915050565b6000611a9a60328361219e565b7f72656d6f76655374616c655072696d6974697665733a205f7072696d6974697681527165732063616e6e6f7420626520656d70747960701b602082015260400192915050565b6000611aee602a8361219e565b7f6164645072696d6974697665733a205f7072696d6974697665732063616e6e6f8152697420626520656d70747960b01b602082015260400192915050565b6000611b3a601e8361219e565b7f536166654d6174683a207375627472616374696f6e206f766572666c6f770000815260200192915050565b6000611b73601a8361219e565b7f536166654d6174683a206469766973696f6e206279207a65726f000000000000815260200192915050565b6000611bac60238361219e565b7f7570646174655072696d6974697665733a2056616c756520616c7265616479208152621cd95d60ea1b602082015260400192915050565b6000611bf1602d8361219e565b7f72656d6f76655072696d6974697665733a205f7072696d69746976657320636181526c6e6e6f7420626520656d70747960981b602082015260400192915050565b6000611c4060428361219e565b7f5f5f6164645072696d6974697665733a20556e657175616c205f7072696d697481527f6976657320616e64205f72617465417373657473206172726179206c656e6774602082015261687360f01b604082015260600192915050565b6000611caa60288361219e565b7f72656d6f76655374616c655072696d6974697665733a2052617465206973206e8152676f74207374616c6560c01b602082015260400192915050565b6000611cf460218361219e565b7f536166654d6174683a206d756c7469706c69636174696f6e206f766572666c6f8152607760f81b602082015260400192915050565b6000611d37602a8361219e565b7f5f5f7365745374616c65526174655468726573686f6c643a2056616c756520618152691b1c9958591e481cd95d60b21b602082015260400192915050565b6000611d8360268361219e565b7f5f5f76616c696461746541676772656761746f723a204e6f20726174652064658152651d1958dd195960d21b602082015260400192915050565b6000611dcb60298361219e565b7f7570646174655072696d6974697665733a205072696d6974697665206e6f74208152681e595d08185919195960ba1b602082015260400192915050565b6000611e1660438361219e565b7f5f5f6164645072696d6974697665733a20556e657175616c205f7072696d697481527f6976657320616e64205f61676772656761746f7273206172726179206c656e6760208201526274687360e81b604082015260600192915050565b6000611e81602d8361219e565b7f7570646174655072696d6974697665733a205f7072696d69746976657320636181526c6e6e6f7420626520656d70747960981b602082015260400192915050565b6000611ed060298361219e565b7f72656d6f76655072696d6974697665733a205072696d6974697665206e6f74208152681e595d08185919195960ba1b602082015260400192915050565b6000611f1b60228361219e565b7f5f5f6164645072696d6974697665733a2056616c756520616c72656164792073815261195d60f21b602082015260400192915050565b80516040830190611f638482611863565b506020820151611483602085018261187b565b61186c816121c1565b602081016108098284611863565b60408101611f9b8285611863565b610ece6020830184611863565b60608101611fb68286611863565b611fc3602083018561187b565b6116436040830184611f76565b602081016108098284611872565b60208101610809828461187b565b6020808252810161080981611884565b60208082528101610809816118ce565b602080825281016108098161193a565b6020808252810161080981611989565b60208082528101610809816119fa565b6020808252810161080981611a44565b6020808252810161080981611a8d565b6020808252810161080981611ae1565b6020808252810161080981611b2d565b6020808252810161080981611b66565b6020808252810161080981611b9f565b6020808252810161080981611be4565b6020808252810161080981611c33565b6020808252810161080981611c9d565b6020808252810161080981611ce7565b6020808252810161080981611d2a565b6020808252810161080981611d76565b6020808252810161080981611dbe565b6020808252810161080981611e09565b6020808252810161080981611e74565b6020808252810161080981611ec3565b6020808252810161080981611f0e565b604081016108098284611f52565b602081016108098284611f76565b604081016121768285611f76565b610ece6020830184611872565b604081016121918285611f76565b610ece6020830184611f76565b90815260200190565b6000610809826121c4565b151590565b806105aa816121e1565b90565b6001600160a01b031690565b60ff1690565b6000610809826121b7565b60028110610ab757fe5b6121f4816121a7565b8114610ab757600080fd5b6121f4816121c1565b6121f4816121d056fea2646970667358221220d924f077b305442737702ae840b5402f223936fbae9bb679ea4fd1e2d002461d64736f6c634300060c00335f5f6164645072696d6974697665733a20556e657175616c205f7072696d6974",
  "devdoc": {
    "kind": "dev",
    "methods": {
      "addPrimitives(address[],address[],uint8[])": {
        "params": {
          "_aggregators": "The ordered aggregators corresponding to the list of _primitives",
          "_primitives": "The primitives to add",
          "_rateAssets": "The ordered rate assets corresponding to the list of _primitives"
        }
      },
      "calcCanonicalValue(address,uint256,address)": {
        "params": {
          "_baseAsset": "The base asset",
          "_baseAssetAmount": "The base asset amount to convert",
          "_quoteAsset": "The quote asset"
        },
        "returns": {
          "isValid_": "True if the rates used in calculations are deemed valid",
          "quoteAssetAmount_": "The equivalent quote asset amount"
        }
      },
      "calcLiveValue(address,uint256,address)": {
        "details": "Live and canonical values are the same for Chainlink",
        "params": {
          "_baseAsset": "The base asset",
          "_baseAssetAmount": "The base asset amount to convert",
          "_quoteAsset": "The quote asset"
        },
        "returns": {
          "isValid_": "True if the rates used in calculations are deemed valid",
          "quoteAssetAmount_": "The equivalent quote asset amount"
        }
      },
      "getAggregatorInfoForPrimitive(address)": {
        "params": {
          "_primitive": "The primitive asset for which to get the aggregatorInfo value"
        },
        "returns": {
          "aggregatorInfo_": "The aggregatorInfo value"
        }
      },
      "getEthUsdAggregator()": {
        "returns": {
          "ethUsdAggregator_": "The `ethUsdAggregator` variable value"
        }
      },
      "getFundDeployer()": {
        "returns": {
          "fundDeployer_": "The `FUND_DEPLOYER` variable value"
        }
      },
      "getOwner()": {
        "details": "Ownership is deferred to the owner of the FundDeployer contract",
        "returns": {
          "owner_": "The owner"
        }
      },
      "getRateAssetForPrimitive(address)": {
        "details": "This isn't strictly necessary as WETH_TOKEN will be undefined and thus the RateAsset will be the 0-position of the enum (i.e. ETH), but it makes the behavior more explicit",
        "returns": {
          "rateAsset_": "The rateAsset variable value"
        }
      },
      "getStaleRateThreshold()": {
        "returns": {
          "staleRateThreshold_": "The `staleRateThreshold` variable value"
        }
      },
      "getUnitForPrimitive(address)": {
        "returns": {
          "unit_": "The unit variable value"
        }
      },
      "getWethToken()": {
        "returns": {
          "wethToken_": "The `WETH_TOKEN` variable value"
        }
      },
      "isSupportedAsset(address)": {
        "params": {
          "_asset": "The asset to check"
        },
        "returns": {
          "isSupported_": "True if the asset is a supported primitive"
        }
      },
      "rateIsStale(address)": {
        "params": {
          "_aggregator": "The Chainlink aggregator of which to check staleness"
        },
        "returns": {
          "rateIsStale_": "True if the rate is considered stale"
        }
      },
      "removePrimitives(address[])": {
        "params": {
          "_primitives": "The primitives to remove"
        }
      },
      "removeStalePrimitives(address[])": {
        "details": "Callable by anybody",
        "params": {
          "_primitives": "The stale primitives to remove"
        }
      },
      "setEthUsdAggregator(address)": {
        "params": {
          "_nextEthUsdAggregator": "The `ehUsdAggregator` value to set"
        }
      },
      "setStaleRateThreshold(uint256)": {
        "params": {
          "_nextStaleRateThreshold": "The next `staleRateThreshold` value"
        }
      },
      "updatePrimitives(address[],address[])": {
        "params": {
          "_aggregators": "The ordered aggregators corresponding to the list of _primitives",
          "_primitives": "The primitives to update"
        }
      }
    },
    "title": "ChainlinkPriceFeed Contract",
    "version": 1
  },
  "userdoc": {
    "kind": "user",
    "methods": {
      "addPrimitives(address[],address[],uint8[])": {
        "notice": "Adds a list of primitives with the given aggregator and rateAsset values"
      },
      "calcCanonicalValue(address,uint256,address)": {
        "notice": "Calculates the value of a base asset in terms of a quote asset (using a canonical rate)"
      },
      "calcLiveValue(address,uint256,address)": {
        "notice": "Calculates the value of a base asset in terms of a quote asset (using a live rate)"
      },
      "getAggregatorInfoForPrimitive(address)": {
        "notice": "Gets the aggregatorInfo variable value for a primitive"
      },
      "getEthUsdAggregator()": {
        "notice": "Gets the `ethUsdAggregator` variable value"
      },
      "getFundDeployer()": {
        "notice": "Gets the `FUND_DEPLOYER` variable"
      },
      "getOwner()": {
        "notice": "Gets the owner of this contract"
      },
      "getRateAssetForPrimitive(address)": {
        "notice": "Gets the rateAsset variable value for a primitive"
      },
      "getStaleRateThreshold()": {
        "notice": "Gets the `staleRateThreshold` variable value"
      },
      "getUnitForPrimitive(address)": {
        "notice": "Gets the unit variable value for a primitive"
      },
      "getWethToken()": {
        "notice": "Gets the `WETH_TOKEN` variable value"
      },
      "isSupportedAsset(address)": {
        "notice": "Checks whether an asset is a supported primitive of the price feed"
      },
      "rateIsStale(address)": {
        "notice": "Checks whether the current rate is considered stale for the specified aggregator"
      },
      "removePrimitives(address[])": {
        "notice": "Removes a list of primitives from the feed"
      },
      "removeStalePrimitives(address[])": {
        "notice": "Removes stale primitives from the feed"
      },
      "setEthUsdAggregator(address)": {
        "notice": "Sets the `ehUsdAggregator` variable value"
      },
      "setStaleRateThreshold(uint256)": {
        "notice": "Sets the `staleRateThreshold` variable"
      },
      "updatePrimitives(address[],address[])": {
        "notice": "Updates the aggregators for given primitives"
      }
    },
    "notice": "A price feed that uses Chainlink oracles as price sources",
    "version": 1
  },
  "storageLayout": {
    "storage": [
      {
        "astId": 35450,
        "contract": "contracts/release/infrastructure/price-feeds/primitives/ChainlinkPriceFeed.sol:ChainlinkPriceFeed",
        "label": "ethUsdAggregator",
        "offset": 0,
        "slot": "0",
        "type": "t_address"
      },
      {
        "astId": 35452,
        "contract": "contracts/release/infrastructure/price-feeds/primitives/ChainlinkPriceFeed.sol:ChainlinkPriceFeed",
        "label": "staleRateThreshold",
        "offset": 0,
        "slot": "1",
        "type": "t_uint256"
      },
      {
        "astId": 35456,
        "contract": "contracts/release/infrastructure/price-feeds/primitives/ChainlinkPriceFeed.sol:ChainlinkPriceFeed",
        "label": "primitiveToAggregatorInfo",
        "offset": 0,
        "slot": "2",
        "type": "t_mapping(t_address,t_struct(AggregatorInfo)35441_storage)"
      },
      {
        "astId": 35460,
        "contract": "contracts/release/infrastructure/price-feeds/primitives/ChainlinkPriceFeed.sol:ChainlinkPriceFeed",
        "label": "primitiveToUnit",
        "offset": 0,
        "slot": "3",
        "type": "t_mapping(t_address,t_uint256)"
      }
    ],
    "types": {
      "t_address": {
        "encoding": "inplace",
        "label": "address",
        "numberOfBytes": "20"
      },
      "t_enum(RateAsset)35436": {
        "encoding": "inplace",
        "label": "enum ChainlinkPriceFeed.RateAsset",
        "numberOfBytes": "1"
      },
      "t_mapping(t_address,t_struct(AggregatorInfo)35441_storage)": {
        "encoding": "mapping",
        "key": "t_address",
        "label": "mapping(address => struct ChainlinkPriceFeed.AggregatorInfo)",
        "numberOfBytes": "32",
        "value": "t_struct(AggregatorInfo)35441_storage"
      },
      "t_mapping(t_address,t_uint256)": {
        "encoding": "mapping",
        "key": "t_address",
        "label": "mapping(address => uint256)",
        "numberOfBytes": "32",
        "value": "t_uint256"
      },
      "t_struct(AggregatorInfo)35441_storage": {
        "encoding": "inplace",
        "label": "struct ChainlinkPriceFeed.AggregatorInfo",
        "members": [
          {
            "astId": 35438,
            "contract": "contracts/release/infrastructure/price-feeds/primitives/ChainlinkPriceFeed.sol:ChainlinkPriceFeed",
            "label": "aggregator",
            "offset": 0,
            "slot": "0",
            "type": "t_address"
          },
          {
            "astId": 35440,
            "contract": "contracts/release/infrastructure/price-feeds/primitives/ChainlinkPriceFeed.sol:ChainlinkPriceFeed",
            "label": "rateAsset",
            "offset": 20,
            "slot": "0",
            "type": "t_enum(RateAsset)35436"
          }
        ],
        "numberOfBytes": "32"
      },
      "t_uint256": {
        "encoding": "inplace",
        "label": "uint256",
        "numberOfBytes": "32"
      }
    }
  }
}