{
  "address": "0xe1C4034Ed4B602540Fd591556A4324bc603D1507",
  "abi": [
    {
      "inputs": [
        {
          "internalType": "address",
          "name": "_dispatcher",
          "type": "address"
        },
        {
          "internalType": "address",
          "name": "_fundDeployer",
          "type": "address"
        },
        {
          "internalType": "address",
          "name": "_valueInterpreter",
          "type": "address"
        },
        {
          "internalType": "address",
          "name": "_feeManager",
          "type": "address"
        },
        {
          "internalType": "address",
          "name": "_integrationManager",
          "type": "address"
        },
        {
          "internalType": "address",
          "name": "_policyManager",
          "type": "address"
        },
        {
          "internalType": "address",
          "name": "_primitivePriceFeed",
          "type": "address"
        },
        {
          "internalType": "address",
          "name": "_synthetixPriceFeed",
          "type": "address"
        },
        {
          "internalType": "address",
          "name": "_protocolFee",
          "type": "address"
        },
        {
          "internalType": "address",
          "name": "_synthetixAddressResolver",
          "type": "address"
        }
      ],
      "stateMutability": "nonpayable",
      "type": "constructor"
    },
    {
      "anonymous": false,
      "inputs": [
        {
          "indexed": false,
          "internalType": "uint256",
          "name": "sharesDue",
          "type": "uint256"
        }
      ],
      "name": "MigratedSharesDuePaid",
      "type": "event"
    },
    {
      "anonymous": false,
      "inputs": [
        {
          "indexed": true,
          "internalType": "bool",
          "name": "overridePause",
          "type": "bool"
        }
      ],
      "name": "OverridePauseSet",
      "type": "event"
    },
    {
      "anonymous": false,
      "inputs": [
        {
          "indexed": false,
          "internalType": "bytes",
          "name": "failureReturnData",
          "type": "bytes"
        },
        {
          "indexed": false,
          "internalType": "address",
          "name": "redeemer",
          "type": "address"
        },
        {
          "indexed": false,
          "internalType": "uint256",
          "name": "sharesQuantity",
          "type": "uint256"
        }
      ],
      "name": "PreRedeemSharesHookFailed",
      "type": "event"
    },
    {
      "anonymous": false,
      "inputs": [
        {
          "indexed": true,
          "internalType": "address",
          "name": "caller",
          "type": "address"
        },
        {
          "indexed": true,
          "internalType": "address",
          "name": "buyer",
          "type": "address"
        },
        {
          "indexed": false,
          "internalType": "uint256",
          "name": "investmentAmount",
          "type": "uint256"
        },
        {
          "indexed": false,
          "internalType": "uint256",
          "name": "sharesIssued",
          "type": "uint256"
        },
        {
          "indexed": false,
          "internalType": "uint256",
          "name": "sharesReceived",
          "type": "uint256"
        }
      ],
      "name": "SharesBought",
      "type": "event"
    },
    {
      "anonymous": false,
      "inputs": [
        {
          "indexed": true,
          "internalType": "address",
          "name": "redeemer",
          "type": "address"
        },
        {
          "indexed": false,
          "internalType": "uint256",
          "name": "sharesQuantity",
          "type": "uint256"
        },
        {
          "indexed": false,
          "internalType": "address[]",
          "name": "receivedAssets",
          "type": "address[]"
        },
        {
          "indexed": false,
          "internalType": "uint256[]",
          "name": "receivedAssetQuantities",
          "type": "uint256[]"
        }
      ],
      "name": "SharesRedeemed",
      "type": "event"
    },
    {
      "anonymous": false,
      "inputs": [
        {
          "indexed": true,
          "internalType": "address",
          "name": "redeemer",
          "type": "address"
        },
        {
          "indexed": false,
          "internalType": "uint256",
          "name": "sharesQuantity",
          "type": "uint256"
        },
        {
          "indexed": false,
          "internalType": "address",
          "name": "denominationAsset",
          "type": "address"
        },
        {
          "indexed": false,
          "internalType": "uint256",
          "name": "amountToDenom",
          "type": "uint256"
        }
      ],
      "name": "SharesRedeemedToDenom",
      "type": "event"
    },
    {
      "anonymous": false,
      "inputs": [
        {
          "indexed": false,
          "internalType": "address",
          "name": "vaultProxy",
          "type": "address"
        }
      ],
      "name": "VaultProxySet",
      "type": "event"
    },
    {
      "inputs": [
        {
          "internalType": "address",
          "name": "_vaultProxy",
          "type": "address"
        },
        {
          "internalType": "bool",
          "name": "_isMigration",
          "type": "bool"
        }
      ],
      "name": "activate",
      "outputs": [],
      "stateMutability": "nonpayable",
      "type": "function"
    },
    {
      "inputs": [
        {
          "internalType": "address[]",
          "name": "_buyers",
          "type": "address[]"
        },
        {
          "internalType": "uint256[]",
          "name": "_investmentAmounts",
          "type": "uint256[]"
        },
        {
          "internalType": "uint256[]",
          "name": "_minSharesQuantities",
          "type": "uint256[]"
        }
      ],
      "name": "buyShares",
      "outputs": [
        {
          "internalType": "uint256[]",
          "name": "sharesReceivedAmounts_",
          "type": "uint256[]"
        }
      ],
      "stateMutability": "nonpayable",
      "type": "function"
    },
    {
      "inputs": [
        {
          "internalType": "address",
          "name": "_asset",
          "type": "address"
        }
      ],
      "name": "calcEachBalance",
      "outputs": [
        {
          "internalType": "uint256",
          "name": "balance_",
          "type": "uint256"
        }
      ],
      "stateMutability": "nonpayable",
      "type": "function"
    },
    {
      "inputs": [
        {
          "internalType": "bool",
          "name": "_requireFinality",
          "type": "bool"
        }
      ],
      "name": "calcGav",
      "outputs": [
        {
          "internalType": "uint256",
          "name": "gav_",
          "type": "uint256"
        },
        {
          "internalType": "bool",
          "name": "isValid_",
          "type": "bool"
        }
      ],
      "stateMutability": "nonpayable",
      "type": "function"
    },
    {
      "inputs": [
        {
          "internalType": "bool",
          "name": "_requireFinality",
          "type": "bool"
        }
      ],
      "name": "calcGrossShareValue",
      "outputs": [
        {
          "internalType": "uint256",
          "name": "grossShareValue_",
          "type": "uint256"
        },
        {
          "internalType": "bool",
          "name": "isValid_",
          "type": "bool"
        }
      ],
      "stateMutability": "nonpayable",
      "type": "function"
    },
    {
      "inputs": [
        {
          "internalType": "address",
          "name": "_extension",
          "type": "address"
        },
        {
          "internalType": "uint256",
          "name": "_actionId",
          "type": "uint256"
        },
        {
          "internalType": "bytes",
          "name": "_callArgs",
          "type": "bytes"
        }
      ],
      "name": "callOnExtension",
      "outputs": [],
      "stateMutability": "nonpayable",
      "type": "function"
    },
    {
      "inputs": [
        {
          "internalType": "bytes",
          "name": "_feeManagerConfigData",
          "type": "bytes"
        },
        {
          "internalType": "bytes",
          "name": "_policyManagerConfigData",
          "type": "bytes"
        }
      ],
      "name": "configureExtensions",
      "outputs": [],
      "stateMutability": "nonpayable",
      "type": "function"
    },
    {
      "inputs": [],
      "name": "destruct",
      "outputs": [],
      "stateMutability": "nonpayable",
      "type": "function"
    },
    {
      "inputs": [],
      "name": "getDenominationAsset",
      "outputs": [
        {
          "internalType": "address",
          "name": "denominationAsset_",
          "type": "address"
        }
      ],
      "stateMutability": "view",
      "type": "function"
    },
    {
      "inputs": [
        {
          "internalType": "address",
          "name": "_denominationAsset",
          "type": "address"
        }
      ],
      "name": "getInvestAmount",
      "outputs": [
        {
          "internalType": "uint256",
          "name": "",
          "type": "uint256"
        }
      ],
      "stateMutability": "view",
      "type": "function"
    },
    {
      "inputs": [],
      "name": "getLibRoutes",
      "outputs": [
        {
          "internalType": "address",
          "name": "dispatcher_",
          "type": "address"
        },
        {
          "internalType": "address",
          "name": "feeManager_",
          "type": "address"
        },
        {
          "internalType": "address",
          "name": "fundDeployer_",
          "type": "address"
        },
        {
          "internalType": "address",
          "name": "integrationManager_",
          "type": "address"
        },
        {
          "internalType": "address",
          "name": "policyManager_",
          "type": "address"
        },
        {
          "internalType": "address",
          "name": "primitivePriceFeed_",
          "type": "address"
        },
        {
          "internalType": "address",
          "name": "valueInterpreter_",
          "type": "address"
        }
      ],
      "stateMutability": "view",
      "type": "function"
    },
    {
      "inputs": [],
      "name": "getOverridePause",
      "outputs": [
        {
          "internalType": "bool",
          "name": "overridePause_",
          "type": "bool"
        }
      ],
      "stateMutability": "view",
      "type": "function"
    },
    {
      "inputs": [],
      "name": "getSharesActionTimelock",
      "outputs": [
        {
          "internalType": "uint256",
          "name": "sharesActionTimelock_",
          "type": "uint256"
        }
      ],
      "stateMutability": "view",
      "type": "function"
    },
    {
      "inputs": [],
      "name": "getSynthetixAddressResolver",
      "outputs": [
        {
          "internalType": "address",
          "name": "synthetixAddressResolver_",
          "type": "address"
        }
      ],
      "stateMutability": "view",
      "type": "function"
    },
    {
      "inputs": [],
      "name": "getSynthetixPriceFeed",
      "outputs": [
        {
          "internalType": "address",
          "name": "synthetixPriceFeed_",
          "type": "address"
        }
      ],
      "stateMutability": "view",
      "type": "function"
    },
    {
      "inputs": [],
      "name": "getVaultProxy",
      "outputs": [
        {
          "internalType": "address",
          "name": "vaultProxy_",
          "type": "address"
        }
      ],
      "stateMutability": "view",
      "type": "function"
    },
    {
      "inputs": [
        {
          "internalType": "address",
          "name": "_denominationAsset",
          "type": "address"
        },
        {
          "internalType": "uint256",
          "name": "_sharesActionTimelock",
          "type": "uint256"
        }
      ],
      "name": "init",
      "outputs": [],
      "stateMutability": "nonpayable",
      "type": "function"
    },
    {
      "inputs": [
        {
          "internalType": "address",
          "name": "",
          "type": "address"
        }
      ],
      "name": "investAmount",
      "outputs": [
        {
          "internalType": "uint256",
          "name": "",
          "type": "uint256"
        }
      ],
      "stateMutability": "view",
      "type": "function"
    },
    {
      "inputs": [
        {
          "internalType": "enum IComptroller.VaultAction",
          "name": "_action",
          "type": "uint8"
        },
        {
          "internalType": "bytes",
          "name": "_actionData",
          "type": "bytes"
        }
      ],
      "name": "permissionedVaultAction",
      "outputs": [],
      "stateMutability": "nonpayable",
      "type": "function"
    },
    {
      "inputs": [],
      "name": "redeemShares",
      "outputs": [
        {
          "internalType": "address[]",
          "name": "payoutAssets_",
          "type": "address[]"
        },
        {
          "internalType": "uint256[]",
          "name": "payoutAmounts_",
          "type": "uint256[]"
        }
      ],
      "stateMutability": "nonpayable",
      "type": "function"
    },
    {
      "inputs": [
        {
          "internalType": "uint256",
          "name": "_sharesQuantity",
          "type": "uint256"
        },
        {
          "internalType": "address[]",
          "name": "_additionalAssets",
          "type": "address[]"
        },
        {
          "internalType": "address[]",
          "name": "_assetsToSkip",
          "type": "address[]"
        }
      ],
      "name": "redeemSharesDetailed",
      "outputs": [
        {
          "internalType": "address[]",
          "name": "payoutAssets_",
          "type": "address[]"
        },
        {
          "internalType": "uint256[]",
          "name": "payoutAmounts_",
          "type": "uint256[]"
        }
      ],
      "stateMutability": "nonpayable",
      "type": "function"
    },
    {
      "inputs": [
        {
          "internalType": "address",
          "name": "_adapter",
          "type": "address"
        },
        {
          "internalType": "uint256",
          "name": "_sharesQuantity",
          "type": "uint256"
        },
        {
          "internalType": "address[]",
          "name": "_additionalAssets",
          "type": "address[]"
        }
      ],
      "name": "redeemSharesToDenomDetailed",
      "outputs": [
        {
          "internalType": "uint256",
          "name": "redeemAmountToDenom_",
          "type": "uint256"
        }
      ],
      "stateMutability": "nonpayable",
      "type": "function"
    },
    {
      "inputs": [
        {
          "internalType": "bool",
          "name": "_nextOverridePause",
          "type": "bool"
        }
      ],
      "name": "setOverridePause",
      "outputs": [],
      "stateMutability": "nonpayable",
      "type": "function"
    },
    {
      "inputs": [
        {
          "internalType": "address",
          "name": "_contract",
          "type": "address"
        },
        {
          "internalType": "bytes4",
          "name": "_selector",
          "type": "bytes4"
        },
        {
          "internalType": "bytes",
          "name": "_encodedArgs",
          "type": "bytes"
        }
      ],
      "name": "vaultCallOnContract",
      "outputs": [],
      "stateMutability": "nonpayable",
      "type": "function"
    }
  ],
  "transactionHash": "0x63d861323ae3fcc5610c554c5cf80003becef4a0c742522676228a305347c6ce",
  "args": [
    "0x4925f5B17e731C16bA4f33eeABd8fE23d683e95F",
    "0x5cBbA5484594598a660636eFb0A1AD953aFa4e32",
    "0x5c1c767FDb33A0FC0740831c6F4F1F3F162d90C9",
    "0xc8A394A3537092D9728B5480070A1bF29c8F3e20",
    "0xC7720b242D037441a0e7C00CfE2ba6DB70b95DdC",
    "0x9889DfAAb3AC441c8E211D7eEda131066c5fa6d2",
    "0x1C65eE4E98012DEFa6110B5B23bc6e8Ab6d07E8A",
    "0xA98c3D3a1Bf847cA20AcC374F75aaD68A1B19fDb",
    "0x482a493EA47903a571b20E35B770aFfE06600a3D",
    "0x93A5c5c7547832c8ebFcCAbc2157D43A9c5E68d4"
  ],
  "solcInputHash": "616bcd197648f809b4b4e612fb09cc9a",
  "bytecode": "0x6101c06040523480156200001257600080fd5b50604051620060f1380380620060f183398181016040526101408110156200003957600080fd5b81019080805190602001909291908051906020019092919080519060200190929190805190602001909291908051906020019092919080519060200190929190805190602001909291908051906020019092919080519060200190929190805190602001909291905050508281806001600160a01b03166080816001600160a01b031660601b81525050816001600160a01b031660a0816001600160a01b031660601b815250505050896001600160a01b031660c0816001600160a01b031660601b81525050866001600160a01b0316610100816001600160a01b031660601b81525050886001600160a01b031660e0816001600160a01b031660601b81525050856001600160a01b0316610120816001600160a01b031660601b81525050836001600160a01b0316610140816001600160a01b031660601b81525050846001600160a01b0316610160816001600160a01b031660601b81525050876001600160a01b0316610180816001600160a01b031660601b81525050816001600160a01b03166101a0816001600160a01b031660601b8152505060018060146101000a81548160ff0219169083151502179055505050505050505050505060805160601c60a05160601c60c05160601c60e05160601c6101005160601c6101205160601c6101405160601c6101605160601c6101805160601c6101a05160601c615dc36200032e6000398061276b528061281c52806139905280613e31525080611ea352806122b1525080610cf5528061149a52806116f15280611e61528061420a528061483c528061525752806154ee525080610dcb5280611e82525080610c825280610f65528061141a52806119795280611e405280612a88525080610c0f5280610f39528061139a528061163e5280611dfe5280612b53528061438552806149b75280614c4a528061512d52806153c3525080611e1f5280611f025280612fdb5280614a3f525080611ddd528061251f52806136dc52508061151e52806132415250806115e652806132e45250615dc36000f3fe608060405234801561001057600080fd5b50600436106101585760003560e01c806396aed587116100c3578063d6ca66ce1161007c578063d6ca66ce14610670578063e269c3d6146106c3578063e572ced1146106cb578063f513c92614610758578063f8b2842214610777578063f9f585dd1461079d57610158565b806396aed587146104cb5780639c59da2714610589578063b41706121461060c578063b460481d14610644578063c0a4c0a31461064c578063c98091871461066857610158565b80636487b384116101155780636487b384146102ce5780636692dbc71461042c57806382d3a1dd146104525780638d064eae14610480578063944eb7b8146104a457806396471b08146104c357610158565b8063089be0621461015d57806310acd06d146101955780632b68b9c61461020f578063399ae7241461021757806339bf70d1146102435780634da471b7146102c6575b600080fd5b6101836004803603602081101561017357600080fd5b50356001600160a01b03166108fb565b60408051918252519081900360200190f35b61020d600480360360408110156101ab57600080fd5b60ff8235169190810190604081016020820135600160201b8111156101cf57600080fd5b8201836020820111156101e157600080fd5b803590602001918460018302840111600160201b8311171561020257600080fd5b50909250905061090d565b005b61020d610b83565b61020d6004803603604081101561022d57600080fd5b506001600160a01b038135169060200135610d6b565b61020d6004803603606081101561025957600080fd5b6001600160a01b0382351691602081013591810190606081016040820135600160201b81111561028857600080fd5b82018360208201111561029a57600080fd5b803590602001918460018302840111600160201b831117156102bb57600080fd5b509092509050610ed9565b61018361108b565b610393600480360360608110156102e457600080fd5b81359190810190604081016020820135600160201b81111561030557600080fd5b82018360208201111561031757600080fd5b803590602001918460208302840111600160201b8311171561033857600080fd5b919390929091602081019035600160201b81111561035557600080fd5b82018360208201111561036757600080fd5b803590602001918460208302840111600160201b8311171561038857600080fd5b509092509050611091565b604051808060200180602001838103835285818151815260200191508051906020019060200280838360005b838110156103d75781810151838201526020016103bf565b50505050905001838103825284818151815260200191508051906020019060200280838360005b838110156104165781810151838201526020016103fe565b5050505090500194505050505060405180910390f35b6101836004803603602081101561044257600080fd5b50356001600160a01b0316611111565b61020d6004803603604081101561046857600080fd5b506001600160a01b038135169060200135151561113a565b61048861151c565b604080516001600160a01b039092168252519081900360200190f35b61020d600480360360208110156104ba57600080fd5b50351515611540565b6104886115e4565b61020d600480360360408110156104e157600080fd5b810190602081018135600160201b8111156104fb57600080fd5b82018360208201111561050d57600080fd5b803590602001918460018302840111600160201b8311171561052e57600080fd5b919390929091602081019035600160201b81111561054b57600080fd5b82018360208201111561055d57600080fd5b803590602001918460018302840111600160201b8311171561057e57600080fd5b509092509050611608565b6101836004803603606081101561059f57600080fd5b6001600160a01b0382351691602081013591810190606081016040820135600160201b8111156105ce57600080fd5b8201836020820111156105e057600080fd5b803590602001918460208302840111600160201b8311171561060157600080fd5b50909250905061177d565b61062b6004803603602081101561062257600080fd5b50351515611bfb565b6040805192835290151560208301528051918290030190f35b610393611d14565b610654611dbc565b604080519115158252519081900360200190f35b610488611dcc565b610678611ddb565b604080516001600160a01b03988916815296881660208801529487168686015292861660608601529085166080850152841660a084015290921660c082015290519081900360e00190f35b610488611ecb565b61020d600480360360608110156106e157600080fd5b6001600160a01b03823516916001600160e01b031960208201351691810190606081016040820135600160201b81111561071a57600080fd5b82018360208201111561072c57600080fd5b803590602001918460018302840111600160201b8311171561074d57600080fd5b509092509050611eda565b61062b6004803603602081101561076e57600080fd5b503515156120e4565b6101836004803603602081101561078d57600080fd5b50356001600160a01b03166123fc565b6108ab600480360360608110156107b357600080fd5b810190602081018135600160201b8111156107cd57600080fd5b8201836020820111156107df57600080fd5b803590602001918460208302840111600160201b8311171561080057600080fd5b919390929091602081019035600160201b81111561081d57600080fd5b82018360208201111561082f57600080fd5b803590602001918460208302840111600160201b8311171561085057600080fd5b919390929091602081019035600160201b81111561086d57600080fd5b82018360208201111561087f57600080fd5b803590602001918460208302840111600160201b831117156108a057600080fd5b509092509050612417565b60408051602080825283518183015283519192839290830191858101910280838360005b838110156108e75781810151838201526020016108cf565b505050509050019250505060405180910390f35b60086020526000908152604090205481565b6109156129a1565b60015461092a906001600160a01b03166129ee565b6109343384612a3e565b600683600781111561094257fe5b141561098c5761098782828080601f016020809104026020016040519081016040528093929190818152602001838380828437600092019190915250612c3c92505050565b610b7e565b600483600781111561099a57fe5b14156109df5761098782828080601f016020809104026020016040519081016040528093929190818152602001838380828437600092019190915250612ca592505050565b60018360078111156109ed57fe5b1415610a325761098782828080601f016020809104026020016040519081016040528093929190818152602001838380828437600092019190915250612d3192505050565b6002836007811115610a4057fe5b1415610a855761098782828080601f016020809104026020016040519081016040528093929190818152602001838380828437600092019190915250612dc892505050565b6007836007811115610a9357fe5b1415610ad85761098782828080601f016020809104026020016040519081016040528093929190818152602001838380828437600092019190915250612e4292505050565b6003836007811115610ae657fe5b1415610b2b5761098782828080601f016020809104026020016040519081016040528093929190818152602001838380828437600092019190915250612ec192505050565b6005836007811115610b3957fe5b1415610b7e57610b7e82828080601f016020809104026020016040519081016040528093929190818152602001838380828437600092019190915250612f4d92505050565b505050565b610b8c33612fd9565b610b946129a1565b610b9c61305f565b6001805460ff60b01b1916600160b01b1790819055600160a01b900460ff1615610c0d576040805162461bcd60e51b815260206004820181905260248201527f64657374727563743a204f6e6c792064656c65676174652063616c6c61626c65604482015290519081900360640190fd5b7f00000000000000000000000000000000000000000000000000000000000000006001600160a01b031663bd8e959a6040518163ffffffff1660e01b8152600401600060405180830381600087803b158015610c6857600080fd5b505af1158015610c7c573d6000803e3d6000fd5b505050507f00000000000000000000000000000000000000000000000000000000000000006001600160a01b031663bd8e959a6040518163ffffffff1660e01b8152600401600060405180830381600087803b158015610cdb57600080fd5b505af1158015610cef573d6000803e3d6000fd5b505050507f00000000000000000000000000000000000000000000000000000000000000006001600160a01b031663bd8e959a6040518163ffffffff1660e01b8152600401600060405180830381600087803b158015610d4e57600080fd5b505af1158015610d62573d6000803e3d6000fd5b50600092505050ff5b6000546001600160a01b031615610dc9576040805162461bcd60e51b815260206004820152601960248201527f696e69743a20416c726561647920696e697469616c697a656400000000000000604482015290519081900360640190fd5b7f00000000000000000000000000000000000000000000000000000000000000006001600160a01b0316639be918e6836040518263ffffffff1660e01b815260040180826001600160a01b0316815260200191505060206040518083038186803b158015610e3657600080fd5b505afa158015610e4a573d6000803e3d6000fd5b505050506040513d6020811015610e6057600080fd5b5051610eb3576040805162461bcd60e51b815260206004820152601c60248201527f696e69743a204261642064656e6f6d696e6174696f6e20617373657400000000604482015290519081900360640190fd5b600080546001600160a01b0319166001600160a01b039390931692909217909155600255565b610ee16129a1565b600154610ef6906001600160a01b03166129ee565b610efe6130be565b6001805460ff60b81b1916600160b81b179055610f1961305f565b6001805460ff60b01b1916600160b01b1790556001600160a01b038481167f0000000000000000000000000000000000000000000000000000000000000000919091161480610f9957507f00000000000000000000000000000000000000000000000000000000000000006001600160a01b0316846001600160a01b0316145b610fd45760405162461bcd60e51b8152600401808060200182810382526023815260200180615c146023913960400191505060405180910390fd5b836001600160a01b0316631bee801e338585856040518563ffffffff1660e01b815260040180856001600160a01b03168152602001848152602001806020018281038252848482818152602001925080828437600081840152601f19601f82011690508083019250505095505050505050600060405180830381600087803b15801561105f57600080fd5b505af1158015611073573d6000803e3d6000fd5b50506001805461ffff60b01b19169055505050505050565b60025490565b606080611103338888888080602002602001604051908101604052809392919081815260200183836020028082843760009201919091525050604080516020808c0282810182019093528b82529093508b92508a91829185019084908082843760009201919091525061310b92505050565b915091509550959350505050565b600180546000916001600160a01b0390911690611131908290859061323c565b9150505b919050565b61114333612fd9565b600180546001600160a01b0384166001600160a01b0319909116811790915560408051918252517f5be181178e61e61e33f79c396c7194b8f3c80f77899da7bd96fe537411300bcb9181900360200190a18015611337576000826001600160a01b03166370a08231846040518263ffffffff1660e01b815260040180826001600160a01b0316815260200191505060206040518083038186803b1580156111e957600080fd5b505afa1580156111fd573d6000803e3d6000fd5b505050506040513d602081101561121357600080fd5b50519050801561133557826001600160a01b031663bfc77beb84856001600160a01b031663893d20e86040518163ffffffff1660e01b815260040160206040518083038186803b15801561126657600080fd5b505afa15801561127a573d6000803e3d6000fd5b505050506040513d602081101561129057600080fd5b5051604080516001600160e01b031960e086901b1681526001600160a01b0393841660048201529290911660248301526044820185905251606480830192600092919082900301818387803b1580156112e857600080fd5b505af11580156112fc573d6000803e3d6000fd5b50506040805184815290517f8f9ec2c1cf1f95fcb5d89d3141949092850c5cfe04da4d9425dd840bf18cdc709350908190036020019150a15b505b60008054604080516327783b1760e11b81526001600160a01b039283166004820152905191851692634ef0762e9260248084019382900301818387803b15801561138057600080fd5b505af1158015611394573d6000803e3d6000fd5b505050507f00000000000000000000000000000000000000000000000000000000000000006001600160a01b03166380d57063826040518263ffffffff1660e01b8152600401808215158152602001915050600060405180830381600087803b15801561140057600080fd5b505af1158015611414573d6000803e3d6000fd5b505050507f00000000000000000000000000000000000000000000000000000000000000006001600160a01b03166380d57063826040518263ffffffff1660e01b8152600401808215158152602001915050600060405180830381600087803b15801561148057600080fd5b505af1158015611494573d6000803e3d6000fd5b505050507f00000000000000000000000000000000000000000000000000000000000000006001600160a01b03166380d57063826040518263ffffffff1660e01b8152600401808215158152602001915050600060405180830381600087803b15801561150057600080fd5b505af1158015611514573d6000803e3d6000fd5b505050505050565b7f000000000000000000000000000000000000000000000000000000000000000090565b611549336134f4565b600160159054906101000a900460ff161515811515141561159b5760405162461bcd60e51b8152600401808060200182810382526023815260200180615d136023913960400191505060405180910390fd5b6001805460ff60a81b1916600160a81b831515908102919091179091556040517fb59eda3d5fc7c642cf9caba744cbb07fd462d0754170bac672351ddbf8cda9dc90600090a250565b7f000000000000000000000000000000000000000000000000000000000000000090565b61161133612fd9565b82156116c45760405163089cbe1d60e41b8152602060048201908152602482018590526001600160a01b037f000000000000000000000000000000000000000000000000000000000000000016916389cbe1d09187918791908190604401848480828437600081840152601f19601f8201169050808301925050509350505050600060405180830381600087803b1580156116ab57600080fd5b505af11580156116bf573d6000803e3d6000fd5b505050505b80156117775760405163089cbe1d60e41b8152602060048201908152602482018390526001600160a01b037f000000000000000000000000000000000000000000000000000000000000000016916389cbe1d09185918591908190604401848480828437600081840152601f19601f8201169050808301925050509350505050600060405180830381600087803b15801561175e57600080fd5b505af1158015611772573d6000803e3d6000fd5b505050505b50505050565b6000606080606060006117f63389898980806020026020016040519081016040528093929190818152602001838360200280828437600092018290525092508291506117c69050565b506040519080825280602002602001820160405280156117f0578160200160208202803683370190505b506135cd565b60008054600154604080516370a0823160e01b81526001600160a01b0392831660048201529051979b50959950939750919550939116916370a08231916024808301926020929190829003018186803b15801561185257600080fd5b505afa158015611866573d6000803e3d6000fd5b505050506040513d602081101561187c57600080fd5b505160408051808201909152601181527003d3d3d736f6c2d4265666f72655377617607c1b60208201529091506118b39082613c55565b6000805b865181101561195c57611909604051806040016040528060148152602001733d3d3d736f6c2d7061796f7574416d6f756e747360601b8152508783815181106118fc57fe5b6020026020010151613c55565b60005487516001600160a01b039091169088908390811061192657fe5b60200260200101516001600160a01b031614156119545785818151811061194957fe5b602002602001015191505b6001016118b7565b5060018060166101000a81548160ff0219169083151502179055507f00000000000000000000000000000000000000000000000000000000000000006001600160a01b031663557c944c8c87896040518463ffffffff1660e01b815260040180846001600160a01b031681526020018060200180602001838103835285818151815260200191508051906020019060200280838360005b83811015611a0b5781810151838201526020016119f3565b50505050905001838103825284818151815260200191508051906020019060200280838360005b83811015611a4a578181015183820152602001611a32565b5050505090500195505050505050600060405180830381600087803b158015611a7257600080fd5b505af1158015611a86573d6000803e3d6000fd5b505060008054600154604080516370a0823160e01b81526001600160a01b0392831660048201529051939550911692506370a08231916024808301926020929190829003018186803b158015611adb57600080fd5b505afa158015611aef573d6000803e3d6000fd5b505050506040513d6020811015611b0557600080fd5b505160408051808201909152601081526f03d3d3d736f6c2d4166746572537761760841b6020820152909150611b3b9082613c55565b611b4f82611b498386613d03565b90613d65565b9750611b86604051806040016040528060138152602001720f4f4f5cdbdb0b5c995919595b505b5bdd5b9d606a1b81525089613c55565b8715611b9d57611b9d338c898989898e6000613dbf565b600054604080518d81526001600160a01b039290921660208301528181018a90525133917f40ad36e84406c60dce7dc7362e1d84c3e6978b044c285b63ab46eaa2f0d50525919081900360600190a250505050505050949350505050565b6000806000611c09846120e4565b8093508192505050611d0b81600160009054906101000a90046001600160a01b03166001600160a01b03166318160ddd6040518163ffffffff1660e01b815260040160206040518083038186803b158015611c6357600080fd5b505afa158015611c77573d6000803e3d6000fd5b505050506040513d6020811015611c8d57600080fd5b50516000546040805163313ce56760e01b815290516001600160a01b039092169163313ce56791600480820192602092909190829003018186803b158015611cd457600080fd5b505afa158015611ce8573d6000803e3d6000fd5b505050506040513d6020811015611cfe57600080fd5b505160ff16600a0a6141dc565b9250505b915091565b600154604080516370a0823160e01b8152336004820181905291516060938493611db49390926001600160a01b03909216916370a0823191602480820192602092909190829003018186803b158015611d6c57600080fd5b505afa158015611d80573d6000803e3d6000fd5b505050506040513d6020811015611d9657600080fd5b5051604080516000808252602082019081528183019092529061310b565b915091509091565b600154600160a81b900460ff1690565b6001546001600160a01b031690565b7f00000000000000000000000000000000000000000000000000000000000000007f00000000000000000000000000000000000000000000000000000000000000007f00000000000000000000000000000000000000000000000000000000000000007f00000000000000000000000000000000000000000000000000000000000000007f00000000000000000000000000000000000000000000000000000000000000007f00000000000000000000000000000000000000000000000000000000000000007f000000000000000000000000000000000000000000000000000000000000000090919293949596565b6000546001600160a01b031690565b611ee26129a1565b600154611ef7906001600160a01b03166129ee565b611f00336134f4565b7f00000000000000000000000000000000000000000000000000000000000000006001600160a01b031663dc77205385856040518363ffffffff1660e01b815260040180836001600160a01b03168152602001826001600160e01b03191681526020019250505060206040518083038186803b158015611f7f57600080fd5b505afa158015611f93573d6000803e3d6000fd5b505050506040513d6020811015611fa957600080fd5b5051611fe65760405162461bcd60e51b8152600401808060200182810382526021815260200180615b8e6021913960400191505060405180910390fd5b6001546040516001600160e01b03198516602082019081526001600160a01b039092169163a90cce4b9187918791879187916024018383808284378083019250505093505050506040516020818303038152906040526040518363ffffffff1660e01b815260040180836001600160a01b0316815260200180602001828103825283818151815260200191508051906020019080838360005b8381101561209757818101518382015260200161207f565b50505050905090810190601f1680156120c45780820380516001836020036101000a031916815260200191505b509350505050600060405180830381600087803b15801561175e57600080fd5b6000806000600160009054906101000a90046001600160a01b031690506060816001600160a01b031663c4b973706040518163ffffffff1660e01b815260040160006040518083038186803b15801561213c57600080fd5b505afa158015612150573d6000803e3d6000fd5b505050506040513d6000823e601f3d908101601f19168201604052602081101561217957600080fd5b8101908080516040519392919084600160201b82111561219857600080fd5b9083019060208201858111156121ad57600080fd5b82518660208202830111600160201b821117156121c957600080fd5b82525081516020918201928201910280838360005b838110156121f65781810151838201526020016121de565b50505050905001604052505050905080516000141561221e5760006001935093505050611d0f565b6060815167ffffffffffffffff8111801561223857600080fd5b50604051908082528060200260200182016040528015612262578160200160208202803683370190505b50905060005b82518110156122ae5761228f8484838151811061228157fe5b60200260200101518961323c565b82828151811061229b57fe5b6020908102919091010152600101612268565b507f00000000000000000000000000000000000000000000000000000000000000006001600160a01b031663ae6f52ad838360008054906101000a90046001600160a01b03166040518463ffffffff1660e01b8152600401808060200180602001846001600160a01b03168152602001838103835286818151815260200191508051906020019060200280838360005b8381101561235657818101518382015260200161233e565b50505050905001838103825285818151815260200191508051906020019060200280838360005b8381101561239557818101518382015260200161237d565b50505050905001955050505050506040805180830381600087803b1580156123bc57600080fd5b505af11580156123d0573d6000803e3d6000fd5b505050506040513d60408110156123e657600080fd5b5080516020909101519095509350505050915091565b6001600160a01b031660009081526008602052604090205490565b60606124216129a1565b6124296130be565b6001805460ff60b81b1916600160b81b17905561244461305f565b6001805460ff60b01b1916600160b01b179055856124a9576040805162461bcd60e51b815260206004820152601860248201527f6275795368617265733a20456d707479205f6275796572730000000000000000604482015290519081900360640190fd5b85841480156124b757508582145b612508576040805162461bcd60e51b815260206004820152601960248201527f6275795368617265733a20556e657175616c2061727261797300000000000000604482015290519081900360640190fd5b6001546001600160a01b031661251d816129ee565b7f00000000000000000000000000000000000000000000000000000000000000006001600160a01b031663d0449d3d826040518263ffffffff1660e01b815260040180826001600160a01b0316815260200191505060206040518083038186803b15801561258a57600080fd5b505afa15801561259e573d6000803e3d6000fd5b505050506040513d60208110156125b457600080fd5b505115612608576040805162461bcd60e51b815260206004820152601c60248201527f6275795368617265733a2050656e64696e67206d6967726174696f6e00000000604482015290519081900360640190fd5b60008061261560016120e4565b9150915080612664576040805162461bcd60e51b8152602060048201526016602482015275313abca9b430b932b99d1024b73b30b634b21023a0ab60511b604482015290519081900360640190fd5b6126a333898980806020026020016040519081016040528093929190818152602001838360200280828437600092019190915250879250614208915050565b60008060009054906101000a90046001600160a01b03169050600061276784866001600160a01b03166318160ddd6040518163ffffffff1660e01b815260040160206040518083038186803b1580156126fb57600080fd5b505afa15801561270f573d6000803e3d6000fd5b505050506040513d602081101561272557600080fd5b50516040805163313ce56760e01b815290516001600160a01b0387169163313ce567916004808301926020929190829003018186803b158015611cd457600080fd5b90507f00000000000000000000000000000000000000000000000000000000000000006001600160a01b0316631d68702d6040518163ffffffff1660e01b815260040160206040518083038186803b1580156127c257600080fd5b505afa1580156127d6573d6000803e3d6000fd5b505050506040513d60208110156127ec57600080fd5b5051600680546001600160a01b0319166001600160a01b039283161790556040805163182d557360e11b815290517f00000000000000000000000000000000000000000000000000000000000000009092169163305aaae691600480820192602092909190829003018186803b15801561286557600080fd5b505afa158015612879573d6000803e3d6000fd5b505050506040513d602081101561288f57600080fd5b50516004558a67ffffffffffffffff811180156128ab57600080fd5b506040519080825280602002602001820160405280156128d5578160200160208202803683370190505b50955060005b8b811015612978576129318d8d838181106128f257fe5b905060200201356001600160a01b03168c8c8481811061290e57fe5b905060200201358b8b8581811061292157fe5b9050602002013589868a896144d5565b87828151811061293d57fe5b60200260200101818152505061296e8b8b8381811061295857fe5b9050602002013586613d6590919063ffffffff16565b94506001016128db565b5061298433878661483a565b50505050506001805461ffff60b01b191690559695505050505050565b6129a9614a39565b156129ec576040805162461bcd60e51b815260206004820152600e60248201526d119d5b99081a5cc81c185d5cd95960921b604482015290519081900360640190fd5b565b6001600160a01b038116612a3b576040805162461bcd60e51b815260206004820152600f60248201526e46756e64206e6f742061637469766560881b604482015290519081900360640190fd5b50565b600154600160b01b900460ff16612a865760405162461bcd60e51b8152600401808060200182810382526032815260200180615c586032913960400191505060405180910390fd5b7f00000000000000000000000000000000000000000000000000000000000000006001600160a01b0316826001600160a01b03161415612b51576004816007811115612ace57fe5b1480612ae557506006816007811115612ae357fe5b145b80612afb57506007816007811115612af957fe5b145b80612b1157506005816007811115612b0f57fe5b145b612b4c5760405162461bcd60e51b8152600401808060200182810382526041815260200180615bd36041913960600191505060405180910390fd5b612c38565b7f00000000000000000000000000000000000000000000000000000000000000006001600160a01b0316826001600160a01b03161415612c01576001816007811115612b9957fe5b1480612bb057506002816007811115612bae57fe5b145b80612bc657506003816007811115612bc457fe5b145b612b4c5760405162461bcd60e51b8152600401808060200182810382526039815260200180615b556039913960400191505060405180910390fd5b60405162461bcd60e51b8152600401808060200182810382526032815260200180615a936032913960400191505060405180910390fd5b5050565b6000818060200190516020811015612c5357600080fd5b5051600154604080516327783b1760e11b81526001600160a01b0380851660048301529151939450911691634ef0762e9160248082019260009290919082900301818387803b15801561150057600080fd5b6000806000838060200190516060811015612cbf57600080fd5b508051602082015160409283015160015484516331bca92d60e21b81526001600160a01b0380861660048301528085166024830152604482018490529551949850929650909450929092169163c6f2a4b491606480830192600092919082900301818387803b15801561175e57600080fd5b600080828060200190516040811015612d4957600080fd5b50805160209091015160015460408051633b9e9f0160e21b81526001600160a01b038086166004830152602482018590529151949650929450169163ee7a7c049160448082019260009290919082900301818387803b158015612dab57600080fd5b505af1158015612dbf573d6000803e3d6000fd5b50505050505050565b600080828060200190516040811015612de057600080fd5b508051602090910151600154604080516329460cc560e11b81526001600160a01b038086166004830152602482018590529151949650929450169163528c198a9160448082019260009290919082900301818387803b158015612dab57600080fd5b6000818060200190516020811015612e5957600080fd5b50516000549091506001600160a01b03808316911614612c385760015460408051631c3efc4d60e21b81526001600160a01b038481166004830152915191909216916370fbf13491602480830192600092919082900301818387803b15801561150057600080fd5b6000806000838060200190516060811015612edb57600080fd5b5080516020820151604092830151600154845163bfc77beb60e01b81526001600160a01b0380861660048301528085166024830152604482018490529551949850929650909450929092169163bfc77beb91606480830192600092919082900301818387803b15801561175e57600080fd5b6000806000838060200190516060811015612f6757600080fd5b508051602082015160409283015160015484516312575d4f60e21b81526001600160a01b0380861660048301528085166024830152604482018490529551949850929650909450929092169163495d753c91606480830192600092919082900301818387803b15801561175e57600080fd5b7f00000000000000000000000000000000000000000000000000000000000000006001600160a01b0316816001600160a01b031614612a3b576040805162461bcd60e51b815260206004820152601a60248201527f4f6e6c792046756e644465706c6f7965722063616c6c61626c65000000000000604482015290519081900360640190fd5b600154600160b01b900460ff16156129ec576040805162461bcd60e51b815260206004820152601860248201527f5661756c7420616374696f6e2072652d656e7472616e63650000000000000000604482015290519081900360640190fd5b600154600160b81b900460ff16156129ec576040805162461bcd60e51b815260206004820152600b60248201526a52652d656e7472616e636560a81b604482015290519081900360640190fd5b6060806131166130be565b6001805460ff60b81b1916600160b81b17905560606000613139888888886135cd565b9296509094509250905061315588888686868660006001613dbf565b876001600160a01b03167fce8be57c942668208b28e8687882422313992b50d7731f1467d6d5b881dee105888686604051808481526020018060200180602001838103835285818151815260200191508051906020019060200280838360005b838110156131cd5781810151838201526020016131b5565b50505050905001838103825284818151815260200191508051906020019060200280838360005b8381101561320c5781810151838201526020016131f4565b505050509050019550505050505060405180910390a250506001805460ff60b81b19169055909590945092505050565b6000807f00000000000000000000000000000000000000000000000000000000000000006001600160a01b0316638d8c1985856040518263ffffffff1660e01b815260040180826001600160a01b0316815260200191505060206040518083038186803b1580156132ac57600080fd5b505afa1580156132c0573d6000803e3d6000fd5b505050506040513d60208110156132d657600080fd5b5051905080156134705760007f00000000000000000000000000000000000000000000000000000000000000006001600160a01b031663dacb2d016040518163ffffffff1660e01b815260040180806822bc31b430b733b2b960b91b815250602001806020018281038252602d815260200180615cbf602d913960400191505060206040518083038186803b15801561336e57600080fd5b505afa158015613382573d6000803e3d6000fd5b505050506040513d602081101561339857600080fd5b5051604080516306c5a00b60e21b81526001600160a01b03898116600483015260248201869052915192935090831691631b16802c916044808201926060929091908290030181600087803b1580156133f057600080fd5b505af192505050801561342457506040513d606081101561341057600080fd5b508051602082015160409092015190919060015b61346a5783156134655760405162461bcd60e51b815260040180806020018281038252602f815260200180615a64602f913960400191505060405180910390fd5b61346e565b5050505b505b836001600160a01b03166370a08231866040518263ffffffff1660e01b815260040180826001600160a01b0316815260200191505060206040518083038186803b1580156134bd57600080fd5b505afa1580156134d1573d6000803e3d6000fd5b505050506040513d60208110156134e757600080fd5b50519150505b9392505050565b600160009054906101000a90046001600160a01b03166001600160a01b031663893d20e86040518163ffffffff1660e01b815260040160206040518083038186803b15801561354257600080fd5b505afa158015613556573d6000803e3d6000fd5b505050506040513d602081101561356c57600080fd5b50516001600160a01b03828116911614612a3b576040805162461bcd60e51b815260206004820152601860248201527f4f6e6c792066756e64206f776e65722063616c6c61626c650000000000000000604482015290519081900360640190fd5b606080606060006135dc6130be565b6001805460ff60b81b1916600160b81b1790558661362b5760405162461bcd60e51b815260040180806020018281038252602e815260200180615d60602e913960400191505060405180910390fd5b61363486614ae9565b61366f5760405162461bcd60e51b8152600401808060200182810382526039815260200180615ac56039913960400191505060405180910390fd5b61367885614ae9565b6136b35760405162461bcd60e51b8152600401808060200182810382526035815260200180615c8a6035913960400191505060405180910390fd5b6001546040805163d0449d3d60e01b81526001600160a01b0392831660048201819052915191927f0000000000000000000000000000000000000000000000000000000000000000169163d0449d3d91602480820192602092909190829003018186803b15801561372357600080fd5b505afa158015613737573d6000803e3d6000fd5b505050506040513d602081101561374d57600080fd5b50516137785761375c89614b7d565b6001600160a01b03891660009081526003602052604090204290555b613780614a39565b61378e5761378e8989614bf7565b604080516370a0823160e01b81526001600160a01b038b81166004830152915183928316916370a08231916024808301926020929190829003018186803b1580156137d857600080fd5b505afa1580156137ec573d6000803e3d6000fd5b505050506040513d602081101561380257600080fd5b50518911156138425760405162461bcd60e51b8152600401808060200182810382526027815260200180615cec6027913960400191505060405180910390fd5b61394c826001600160a01b031663c4b973706040518163ffffffff1660e01b815260040160006040518083038186803b15801561387e57600080fd5b505afa158015613892573d6000803e3d6000fd5b505050506040513d6000823e601f3d908101601f1916820160405260208110156138bb57600080fd5b8101908080516040519392919084600160201b8211156138da57600080fd5b9083019060208201858111156138ef57600080fd5b82518660208202830111600160201b8211171561390b57600080fd5b82525081516020918201928201910280838360005b83811015613938578181015183820152602001613920565b505050509050016040525050508989614e19565b9550600086511161398e5760405162461bcd60e51b8152600401808060200182810382526024815260200180615b316024913960400191505060405180910390fd5b7f00000000000000000000000000000000000000000000000000000000000000006001600160a01b0316632e8f4a776040518163ffffffff1660e01b815260040160206040518083038186803b1580156139e757600080fd5b505afa1580156139fb573d6000803e3d6000fd5b505050506040513d6020811015613a1157600080fd5b505160058190556040805180820190915260158152741e9e9e9eb9b7b61d3332b2abb4ba34323930bb9d1d60591b6020820152613a4d91613c55565b855167ffffffffffffffff81118015613a6557600080fd5b50604051908082528060200260200182016040528015613a8f578160200160208202803683370190505b509450855167ffffffffffffffff81118015613aaa57600080fd5b50604051908082528060200260200182016040528015613ad4578160200160208202803683370190505b509350806001600160a01b03166318160ddd6040518163ffffffff1660e01b815260040160206040518083038186803b158015613b1057600080fd5b505afa158015613b24573d6000803e3d6000fd5b505050506040513d6020811015613b3a57600080fd5b5051600554909350600090613b6490670de0b6b3a764000090613b5e908d9061500b565b90615064565b90506000613b728b83613d03565b905060005b8851811015613c35576000613ba1868b8481518110613b9257fe5b6020026020010151600161323c565b905060008111613be25760405162461bcd60e51b8152600401808060200182810382526033815260200180615afe6033913960400191505060405180910390fd5b613bf087613b5e838661500b565b898381518110613bfc57fe5b6020908102919091010152613c1587613b5e838761500b565b888381518110613c2157fe5b602090810291909101015250600101613b77565b50505050506001805460ff60b81b19169055929791965094509092509050565b612c3882826040516024018080602001838152602001828103825284818151815260200191508051906020019080838360005b83811015613ca0578181015183820152602001613c88565b50505050905090810190601f168015613ccd5780820380516001836020036101000a031916815260200191505b5060408051601f198184030181529190526020810180516001600160e01b03166309710a9d60e41b17905293506150cb92505050565b600082821115613d5a576040805162461bcd60e51b815260206004820152601e60248201527f536166654d6174683a207375627472616374696f6e206f766572666c6f770000604482015290519081900360640190fd5b508082035b92915050565b6000828201838110156134ed576040805162461bcd60e51b815260206004820152601b60248201527f536166654d6174683a206164646974696f6e206f766572666c6f770000000000604482015290519081900360640190fd5b60015460408051633b9e9f0160e21b81526001600160a01b038b81166004830152602482018b905291519190921691829163ee7a7c049160448082019260009290919082900301818387803b158015613e1757600080fd5b505af1158015613e2b573d6000803e3d6000fd5b505050507f00000000000000000000000000000000000000000000000000000000000000006001600160a01b0316631d68702d6040518163ffffffff1660e01b815260040160206040518083038186803b158015613e8857600080fd5b505afa158015613e9c573d6000803e3d6000fd5b505050506040513d6020811015613eb257600080fd5b5051600680546001600160a01b0319166001600160a01b0390921691909117905560005b87518110156141d05784891415613f955760005488516001600160a01b0390911690899083908110613f0457fe5b60200260200101516001600160a01b031614613f9557816001600160a01b03166370fbf134898381518110613f3557fe5b60200260200101516040518263ffffffff1660e01b815260040180826001600160a01b03168152602001915050600060405180830381600087803b158015613f7c57600080fd5b505af1158015613f90573d6000803e3d6000fd5b505050505b8215614063576000878281518110613fa957fe5b6020026020010151111561405e57816001600160a01b031663495d753c898381518110613fd257fe5b60200260200101518c8a8581518110613fe757fe5b60200260200101516040518463ffffffff1660e01b815260040180846001600160a01b03168152602001836001600160a01b031681526020018281526020019350505050600060405180830381600087803b15801561404557600080fd5b505af1158015614059573d6000803e3d6000fd5b505050505b6140da565b83156140da5760008054604080516312575d4f60e21b81526001600160a01b0392831660048201528d831660248201526044810188905290519185169263495d753c9260648084019382900301818387803b1580156140c157600080fd5b505af11580156140d5573d6000803e3d6000fd5b505050505b60008682815181106140e857fe5b602002602001015111801561410757506006546001600160a01b031615155b156141c857816001600160a01b031663495d753c89838151811061412757fe5b6020026020010151600660009054906101000a90046001600160a01b031689858151811061415157fe5b60200260200101516040518463ffffffff1660e01b815260040180846001600160a01b03168152602001836001600160a01b031681526020018281526020019350505050600060405180830381600087803b1580156141af57600080fd5b505af11580156141c3573d6000803e3d6000fd5b505050505b600101613ed6565b50505050505050505050565b6000826141ea5750806134ed565b61420083613b5e86670de0b6b3a764000061500b565b949350505050565b7f00000000000000000000000000000000000000000000000000000000000000006001600160a01b0316630442bad530600086868660405160200180846001600160a01b0316815260200180602001838152602001828103825284818151815260200191508051906020019060200280838360005b8381101561429557818101518382015260200161427d565b505050509050019450505050506040516020818303038152906040526040518463ffffffff1660e01b815260040180846001600160a01b031681526020018360058111156142df57fe5b815260200180602001828103825283818151815260200191508051906020019080838360005b8381101561431d578181015183820152602001614305565b50505050905090810190601f16801561434a5780820380516001836020036101000a031916815260200191505b50945050505050600060405180830381600087803b15801561436b57600080fd5b505af115801561437f573d6000803e3d6000fd5b505050507f00000000000000000000000000000000000000000000000000000000000000006001600160a01b0316637759c1646001858560405160200180836001600160a01b0316815260200180602001828103825283818151815260200191508051906020019060200280838360005b838110156144085781810151838201526020016143f0565b505050509050019350505050604051602081830303815290604052846040518463ffffffff1660e01b81526004018084600581111561444357fe5b815260200180602001838152602001828103825284818151815260200191508051906020019080838360005b8381101561448757818101518382015260200161446f565b50505050905090810190601f1680156144b45780820380516001836020036101000a031916815260200191505b50945050505050600060405180830381600087803b158015612dab57600080fd5b6000876144e181614b7d565b600088116145205760405162461bcd60e51b8152600401808060200182810382526024815260200180615baf6024913960400191505060405180910390fd5b61452c898989876150ec565b61454d670de0b6b3a7640000613b5e6004548b61500b90919063ffffffff16565b6007819055600090614560908a90613d03565b9050600061457a87613b5e84670de0b6b3a764000061500b565b90506000886001600160a01b03166370a082318d6040518263ffffffff1660e01b815260040180826001600160a01b0316815260200191505060206040518083038186803b1580156145cb57600080fd5b505afa1580156145df573d6000803e3d6000fd5b505050506040513d60208110156145f557600080fd5b5051604080516329460cc560e11b81526001600160a01b038f81166004830152602482018690529151929350908b169163528c198a9160448082019260009290919082900301818387803b15801561464c57600080fd5b505af1158015614660573d6000803e3d6000fd5b5061467a925050506001600160a01b038716338b86615319565b6001600160a01b03861660009081526008602052604090205461469d908c613d65565b6001600160a01b0380881660009081526008602052604090209190915560065416158015906146ce57506000600754115b156146f5576006546007546146f5916001600160a01b038981169233929190911690615319565b6147018c8c848a615373565b614784818a6001600160a01b03166370a082318f6040518263ffffffff1660e01b815260040180826001600160a01b0316815260200191505060206040518083038186803b15801561475257600080fd5b505afa158015614766573d6000803e3d6000fd5b505050506040513d602081101561477c57600080fd5b505190613d03565b9450898510156147c55760405162461bcd60e51b8152600401808060200182810382526031815260200180615a336031913960400191505060405180910390fd5b604080518c81526020810184905280820187905290516001600160a01b038e169133917f050bd6ef6b1b818f58ae43f028aa7318a580ca0c793eca2df0033c7ae63094589181900360600190a35050506001600160a01b03166000908152600360205260409020429055979650505050505050565b7f00000000000000000000000000000000000000000000000000000000000000006001600160a01b0316630442bad530600386868660405160200180846001600160a01b0316815260200180602001838152602001828103825284818151815260200191508051906020019060200280838360005b838110156148c75781810151838201526020016148af565b505050509050019450505050506040516020818303038152906040526040518463ffffffff1660e01b815260040180846001600160a01b0316815260200183600581111561491157fe5b815260200180602001828103825283818151815260200191508051906020019080838360005b8381101561494f578181015183820152602001614937565b50505050905090810190601f16801561497c5780820380516001836020036101000a031916815260200191505b50945050505050600060405180830381600087803b15801561499d57600080fd5b505af11580156149b1573d6000803e3d6000fd5b505050507f00000000000000000000000000000000000000000000000000000000000000006001600160a01b0316637759c1646004858560405160200180836001600160a01b031681526020018060200182810382528381815181526020019150805190602001906020028083836000838110156144085781810151838201526020016143f0565b600060027f00000000000000000000000000000000000000000000000000000000000000006001600160a01b031663a5fede1d6040518163ffffffff1660e01b815260040160206040518083038186803b158015614a9657600080fd5b505afa158015614aaa573d6000803e3d6000fd5b505050506040513d6020811015614ac057600080fd5b50516002811115614acd57fe5b148015614ae45750600154600160a81b900460ff16155b905090565b60006001825111614afc57506001611135565b815160005b81811015614b7357600181015b82811015614b6a57848181518110614b2257fe5b60200260200101516001600160a01b0316858381518110614b3f57fe5b60200260200101516001600160a01b03161415614b625760009350505050611135565b600101614b0e565b50600101614b01565b5060019392505050565b6002546001600160a01b038216600090815260036020526040902054614ba4904290613d03565b1015612a3b576040805162461bcd60e51b815260206004820152601860248201527f53686172657320616374696f6e2074696d656c6f636b65640000000000000000604482015290519081900360640190fd5b614bff61305f565b6001805460ff60b01b1916600160b01b179055604080516001600160a01b0384811660208301528183018490528251808303840181526060830193849052631dd6705960e21b9093527f00000000000000000000000000000000000000000000000000000000000000001691637759c16491600591906000906064018084815260200180602001838152602001828103825284818151815260200191508051906020019080838360005b83811015614cc1578181015183820152602001614ca9565b50505050905090810190601f168015614cee5780820380516001836020036101000a031916815260200191505b50945050505050600060405180830381600087803b158015614d0f57600080fd5b505af1925050508015614d20575060015b614e08573d808015614d4e576040519150601f19603f3d011682016040523d82523d6000602084013e614d53565b606091505b507fb3ea7e5141baf21804d12f5a635e83e0cb869c8b06b88648364769f85aa73fc28184846040518080602001846001600160a01b03168152602001838152602001828103825285818151815260200191508051906020019080838360005b83811015614dca578181015183820152602001614db2565b50505050905090810190601f168015614df75780820380516001836020036101000a031916815260200191505b5094505050505060405180910390a1505b50506001805460ff60b01b19169055565b606080614e2685846155cf565b9050835160001415614e395790506134ed565b6060845167ffffffffffffffff81118015614e5357600080fd5b50604051908082528060200260200182016040528015614e7d578160200160208202803683370190505b5090506000805b8651811015614ee457614eb3878281518110614e9c57fe5b60200260200101518561575b90919063ffffffff16565b614edc576001838281518110614ec557fe5b911515602092830291909101909101526001909101905b600101614e84565b5080614ef5578293505050506134ed565b8251614f019082613d65565b67ffffffffffffffff81118015614f1757600080fd5b50604051908082528060200260200182016040528015614f41578160200160208202803683370190505b50935060005b8351811015614f9057838181518110614f5c57fe5b6020026020010151858281518110614f7057fe5b6001600160a01b0390921660209283029190910190910152600101614f47565b50825160005b8751811015614fff57838181518110614fab57fe5b602002602001015115614ff757878181518110614fc457fe5b6020026020010151868381518110614fd857fe5b6001600160a01b03909216602092830291909101909101526001909101905b600101614f96565b50505050509392505050565b60008261501a57506000613d5f565b8282028284828161502757fe5b04146134ed5760405162461bcd60e51b8152600401808060200182810382526021815260200180615c376021913960400191505060405180910390fd5b60008082116150ba576040805162461bcd60e51b815260206004820152601a60248201527f536166654d6174683a206469766973696f6e206279207a65726f000000000000604482015290519081900360640190fd5b8183816150c357fe5b049392505050565b80516a636f6e736f6c652e6c6f67602083016000808483855afa5050505050565b604080516001600160a01b0386811660208301528183018690526060808301869052835180840390910181526080830193849052631dd6705960e21b9093527f00000000000000000000000000000000000000000000000000000000000000001691637759c164916002919085906084018084815260200180602001838152602001828103825284818151815260200191508051906020019080838360005b838110156151a357818101518382015260200161518b565b50505050905090810190601f1680156151d05780820380516001836020036101000a031916815260200191505b50945050505050600060405180830381600087803b1580156151f157600080fd5b505af1158015615205573d6000803e3d6000fd5b5050604080516001600160a01b0388811660208301528183018890526060820187905260808083018790528351808403909101815260a0830193849052630442bad560e01b9093523060a483018181527f00000000000000000000000000000000000000000000000000000000000000009092169550630442bad594509260019290919060c40183815260200180602001828103825283818151815260200191508051906020019080838360005b838110156152cb5781810151838201526020016152b3565b50505050905090810190601f1680156152f85780820380516001836020036101000a031916815260200191505b50945050505050600060405180830381600087803b15801561175e57600080fd5b604080516001600160a01b0380861660248301528416604482015260648082018490528251808303909101815260849091019091526020810180516001600160e01b03166323b872dd60e01b1790526117779085906157b1565b600061537f8285613d65565b604080516001600160a01b0388811660208301528183018890526060808301889052835180840390910181526080830193849052631dd6705960e21b9093529293507f000000000000000000000000000000000000000000000000000000000000000090921691637759c1649160039185906084018084815260200180602001838152602001828103825284818151815260200191508051906020019080838360005b8381101561543a578181015183820152602001615422565b50505050905090810190601f1680156154675780820380516001836020036101000a031916815260200191505b50945050505050600060405180830381600087803b15801561548857600080fd5b505af115801561549c573d6000803e3d6000fd5b5050604080516001600160a01b0389811660208301528183018990526060820188905260808083018790528351808403909101815260a0830193849052630442bad560e01b9093523060a483018181527f00000000000000000000000000000000000000000000000000000000000000009092169550630442bad594509260029290919060c40183815260200180602001828103825283818151815260200191508051906020019080838360005b8381101561556257818101518382015260200161554a565b50505050905090810190601f16801561558f5780820380516001836020036101000a031916815260200191505b50945050505050600060405180830381600087803b1580156155b057600080fd5b505af11580156155c4573d6000803e3d6000fd5b505050505050505050565b60608151600014156155e2575081613d5f565b6060835167ffffffffffffffff811180156155fc57600080fd5b50604051908082528060200260200182016040528015615626578160200160208202803683370190505b50845190915060005b8551811015615688576156558587838151811061564857fe5b602002602001015161575b565b1561568057600183828151811061566857fe5b91151560209283029190910190910152600019909101905b60010161562f565b50845181141561569a57849250615753565b8015615753578067ffffffffffffffff811180156156b757600080fd5b506040519080825280602002602001820160405280156156e1578160200160208202803683370190505b5092506000805b8651811015615750578381815181106156fd57fe5b60200260200101516157485786818151811061571557fe5b602002602001015185838151811061572957fe5b6001600160a01b03909216602092830291909101909101526001909101905b6001016156e8565b50505b505092915050565b6000805b83518110156157a75783818151811061577457fe5b60200260200101516001600160a01b0316836001600160a01b0316141561579f576001915050613d5f565b60010161575f565b5060009392505050565b6060615806826040518060400160405280602081526020017f5361666545524332303a206c6f772d6c6576656c2063616c6c206661696c6564815250856001600160a01b03166158629092919063ffffffff16565b805190915015610b7e5780806020019051602081101561582557600080fd5b5051610b7e5760405162461bcd60e51b815260040180806020018281038252602a815260200180615d36602a913960400191505060405180910390fd5b606061420084846000858561587685615988565b6158c7576040805162461bcd60e51b815260206004820152601d60248201527f416464726573733a2063616c6c20746f206e6f6e2d636f6e7472616374000000604482015290519081900360640190fd5b60006060866001600160a01b031685876040518082805190602001908083835b602083106159065780518252601f1990920191602091820191016158e7565b6001836020036101000a03801982511681845116808217855250505050505090500191505060006040518083038185875af1925050503d8060008114615968576040519150601f19603f3d011682016040523d82523d6000602084013e61596d565b606091505b509150915061597d82828661598e565b979650505050505050565b3b151590565b6060831561599d5750816134ed565b8251156159ad5782518084602001fd5b8160405162461bcd60e51b81526004018080602001828103825283818151815260200191508051906020019080838360005b838110156159f75781810151838201526020016159df565b50505050905090810190601f168015615a245780820380516001836020036101000a031916815260200191505b509250505060405180910390fdfe5f5f6275795368617265733a20536861726573207265636569766564203c205f6d696e5368617265735175616e7469747966696e616c697a65416e64476574417373657442616c616e63653a2043616e6e6f7420736574746c652053796e74685f5f6173736572745065726d697373696f6e65645661756c74416374696f6e3a204e6f7420612076616c6964206163746f725f5f63616c6352656465656d5368617265733a205f6164646974696f6e616c41737365747320636f6e7461696e73206475706c6963617465735f5f63616c6352656465656d5368617265733a205061796f757420616d6f756e74206d757374206265206772656174657220305f5f63616c6352656465656d5368617265733a204e6f207061796f7574206173736574735f5f6173736572745065726d697373696f6e65645661756c74416374696f6e3a204e6f742076616c696420666f72204665654d616e616765727661756c7443616c6c4f6e436f6e74726163743a20556e726567697374657265645f5f6275795368617265733a20456d707479205f696e766573746d656e74416d6f756e745f5f6173736572745065726d697373696f6e65645661756c74416374696f6e3a204e6f742076616c696420666f7220496e746567726174696f6e4d616e6167657263616c6c4f6e457874656e73696f6e3a205f657874656e73696f6e20696e76616c6964536166654d6174683a206d756c7469706c69636174696f6e206f766572666c6f775f5f6173736572745065726d697373696f6e65645661756c74416374696f6e3a204e6f20616374696f6e20616c6c6f7765645f5f63616c6352656465656d5368617265733a205f617373657473546f536b697020636f6e7461696e73206475706c69636174657366696e616c697a65416e64476574417373657442616c616e63653a204d697373696e672045786368616e6765725f5f63616c6352656465656d5368617265733a20496e73756666696369656e74207368617265737365744f7665727269646550617573653a2056616c756520616c7265616479207365745361666545524332303a204552433230206f7065726174696f6e20646964206e6f7420737563636565645f5f63616c6352656465656d5368617265733a205f7368617265735175616e74697479206d757374206265203e30a264697066735822122027455027527ad26b05b289acc04e710bf64c262fb56bbdef69f526536e2c29df64736f6c634300060c0033",
  "devdoc": {
    "kind": "dev",
    "methods": {
      "activate(address,bool)": {
        "details": "No need to assert anything beyond FundDeployer access.",
        "params": {
          "_isMigration": "True if a migrated fund is being activated",
          "_vaultProxy": "The VaultProxy to attach to the fund"
        }
      },
      "buyShares(address[],uint256[],uint256[])": {
        "details": "Param arrays have indexes corresponding to individual __buyShares() orders.",
        "params": {
          "_buyers": "The accounts for which to buy shares",
          "_investmentAmounts": "The amounts of the fund's denomination asset with which to buy shares for the corresponding _buyers",
          "_minSharesQuantities": "The minimum quantities of shares to buy with the corresponding _investmentAmounts"
        },
        "returns": {
          "sharesReceivedAmounts_": "The actual amounts of shares received by the corresponding _buyers"
        }
      },
      "calcEachBalance(address)": {
        "returns": {
          "balance_": "The denomination balance"
        }
      },
      "calcGav(bool)": {
        "params": {
          "_requireFinality": "True if all assets must have exact final balances settled"
        },
        "returns": {
          "gav_": "The fund GAV",
          "isValid_": "True if the conversion rates used to derive the GAV are all valid"
        }
      },
      "calcGrossShareValue(bool)": {
        "details": "Does not account for any fees outstanding.",
        "params": {
          "_requireFinality": "True if all assets must have exact final balances settled"
        },
        "returns": {
          "grossShareValue_": "The amount of the denomination asset per share",
          "isValid_": "True if the conversion rates to derive the value are all valid"
        }
      },
      "callOnExtension(address,uint256,bytes)": {
        "details": "Used to route arbitrary calls, so that msg.sender is the ComptrollerProxy (for access control). Uses a mutex of sorts that allows \"permissioned vault actions\" during calls originating from this function.",
        "params": {
          "_actionId": "An ID representing the action to take on the extension (see extension)",
          "_callArgs": "The encoded data for the call",
          "_extension": "The Extension contract to call (e.g., FeeManager)"
        }
      },
      "configureExtensions(bytes,bytes)": {
        "details": "No need to assert anything beyond FundDeployer access. Called atomically with init(), but after ComptrollerLib has been deployed, giving access to its state and interface",
        "params": {
          "_feeManagerConfigData": "Encoded config for fees to enable",
          "_policyManagerConfigData": "Encoded config for policies to enable"
        }
      },
      "destruct()": {
        "details": "No need to assert anything beyond FundDeployer access. Calling onlyNotPaused here rather than in the FundDeployer allows the owner to potentially override the pause and rescue unpaid fees."
      },
      "getSynthetixAddressResolver()": {
        "returns": {
          "synthetixAddressResolver_": "The `SYNTHETIX_ADDRESS_RESOLVER` variable value"
        }
      },
      "getSynthetixPriceFeed()": {
        "returns": {
          "synthetixPriceFeed_": "The `SYNTHETIX_PRICE_FEED` variable value"
        }
      },
      "init(address,uint256)": {
        "details": "Pseudo-constructor per proxy. No need to assert access because this is called atomically on deployment, and once it's called, it cannot be called again.",
        "params": {
          "_denominationAsset": "The asset in which the fund's value should be denominated",
          "_sharesActionTimelock": "The minimum number of seconds between any two \"shares actions\" (buying or selling shares) by the same user"
        }
      },
      "permissionedVaultAction(uint8,bytes)": {
        "params": {
          "_action": "The enum representing the VaultAction to perform on the VaultProxy",
          "_actionData": "The call data for the action to perform"
        }
      },
      "redeemShares()": {
        "details": "See __redeemShares() for further detail",
        "returns": {
          "payoutAmounts_": "The amount of each asset paid out to the redeemer",
          "payoutAssets_": "The assets paid out to the redeemer"
        }
      },
      "redeemSharesDetailed(uint256,address[],address[])": {
        "details": "Any claim to passed _assetsToSkip will be forfeited entirely. This should generally only be exercised if a bad asset is causing redemption to fail.",
        "params": {
          "_additionalAssets": "Additional (non-tracked) assets to claim",
          "_assetsToSkip": "Tracked assets to forfeit",
          "_sharesQuantity": "The quantity of shares to redeem"
        },
        "returns": {
          "payoutAmounts_": "The amount of each asset paid out to the redeemer",
          "payoutAssets_": "The assets paid out to the redeemer"
        }
      },
      "setOverridePause(bool)": {
        "params": {
          "_nextOverridePause": "True if the pause should be overrode"
        }
      },
      "vaultCallOnContract(address,bytes4,bytes)": {
        "params": {
          "_contract": "The contract to call",
          "_encodedArgs": "The encoded arguments for the call",
          "_selector": "The selector to call"
        }
      }
    },
    "title": "ComptrollerLib Contract",
    "version": 1
  },
  "userdoc": {
    "kind": "user",
    "methods": {
      "activate(address,bool)": {
        "notice": "Activates the fund by attaching a VaultProxy and activating all Extensions"
      },
      "buyShares(address[],uint256[],uint256[])": {
        "notice": "Buys shares in the fund for multiple sets of criteria"
      },
      "calcEachBalance(address)": {
        "notice": "Calculates the denomination balance of the fund"
      },
      "calcGav(bool)": {
        "notice": "Calculates the gross asset value (GAV) of the fund"
      },
      "calcGrossShareValue(bool)": {
        "notice": "Calculates the gross value of 1 unit of shares in the fund's denomination asset"
      },
      "callOnExtension(address,uint256,bytes)": {
        "notice": "Calls a specified action on an Extension"
      },
      "configureExtensions(bytes,bytes)": {
        "notice": "Configure the extensions of a fund"
      },
      "destruct()": {
        "notice": "Remove the config for a fund"
      },
      "getDenominationAsset()": {
        "notice": "Gets the `denominationAsset` variable"
      },
      "getLibRoutes()": {
        "notice": "Gets the routes for the various contracts used by all funds"
      },
      "getOverridePause()": {
        "notice": "Gets the `overridePause` variable"
      },
      "getSharesActionTimelock()": {
        "notice": "Gets the `sharesActionTimelock` variable"
      },
      "getSynthetixAddressResolver()": {
        "notice": "Gets the `SYNTHETIX_ADDRESS_RESOLVER` variable"
      },
      "getSynthetixPriceFeed()": {
        "notice": "Gets the `SYNTHETIX_PRICE_FEED` variable"
      },
      "getVaultProxy()": {
        "notice": "Gets the `vaultProxy` variable"
      },
      "init(address,uint256)": {
        "notice": "Initializes a fund with its core config"
      },
      "permissionedVaultAction(uint8,bytes)": {
        "notice": "Makes a permissioned, state-changing call on the VaultProxy contract"
      },
      "redeemShares()": {
        "notice": "Redeem all of the sender's shares for a proportionate slice of the fund's assets"
      },
      "redeemSharesDetailed(uint256,address[],address[])": {
        "notice": "Redeem a specified quantity of the sender's shares for a proportionate slice of the fund's assets, optionally specifying additional assets and assets to skip."
      },
      "setOverridePause(bool)": {
        "notice": "Sets or unsets an override on a release-wide pause"
      },
      "vaultCallOnContract(address,bytes4,bytes)": {
        "notice": "Makes an arbitrary call with the VaultProxy contract as the sender"
      }
    },
    "notice": "The core logic library shared by all funds",
    "version": 1
  },
  "storageLayout": {
    "storage": [
      {
        "astId": 10314,
        "contract": "contracts/release/core/fund/comptroller/ComptrollerLib.sol:ComptrollerLib",
        "label": "denominationAsset",
        "offset": 0,
        "slot": "0",
        "type": "t_address"
      },
      {
        "astId": 10316,
        "contract": "contracts/release/core/fund/comptroller/ComptrollerLib.sol:ComptrollerLib",
        "label": "vaultProxy",
        "offset": 0,
        "slot": "1",
        "type": "t_address"
      },
      {
        "astId": 10318,
        "contract": "contracts/release/core/fund/comptroller/ComptrollerLib.sol:ComptrollerLib",
        "label": "isLib",
        "offset": 20,
        "slot": "1",
        "type": "t_bool"
      },
      {
        "astId": 10320,
        "contract": "contracts/release/core/fund/comptroller/ComptrollerLib.sol:ComptrollerLib",
        "label": "overridePause",
        "offset": 21,
        "slot": "1",
        "type": "t_bool"
      },
      {
        "astId": 10322,
        "contract": "contracts/release/core/fund/comptroller/ComptrollerLib.sol:ComptrollerLib",
        "label": "permissionedVaultActionAllowed",
        "offset": 22,
        "slot": "1",
        "type": "t_bool"
      },
      {
        "astId": 10324,
        "contract": "contracts/release/core/fund/comptroller/ComptrollerLib.sol:ComptrollerLib",
        "label": "reentranceLocked",
        "offset": 23,
        "slot": "1",
        "type": "t_bool"
      },
      {
        "astId": 10326,
        "contract": "contracts/release/core/fund/comptroller/ComptrollerLib.sol:ComptrollerLib",
        "label": "sharesActionTimelock",
        "offset": 0,
        "slot": "2",
        "type": "t_uint256"
      },
      {
        "astId": 10330,
        "contract": "contracts/release/core/fund/comptroller/ComptrollerLib.sol:ComptrollerLib",
        "label": "acctToLastSharesAction",
        "offset": 0,
        "slot": "3",
        "type": "t_mapping(t_address,t_uint256)"
      },
      {
        "astId": 10332,
        "contract": "contracts/release/core/fund/comptroller/ComptrollerLib.sol:ComptrollerLib",
        "label": "feeDeposit",
        "offset": 0,
        "slot": "4",
        "type": "t_uint256"
      },
      {
        "astId": 10334,
        "contract": "contracts/release/core/fund/comptroller/ComptrollerLib.sol:ComptrollerLib",
        "label": "feeWithdraw",
        "offset": 0,
        "slot": "5",
        "type": "t_uint256"
      },
      {
        "astId": 10336,
        "contract": "contracts/release/core/fund/comptroller/ComptrollerLib.sol:ComptrollerLib",
        "label": "daoAddress",
        "offset": 0,
        "slot": "6",
        "type": "t_address"
      },
      {
        "astId": 10338,
        "contract": "contracts/release/core/fund/comptroller/ComptrollerLib.sol:ComptrollerLib",
        "label": "buyFeeAmount",
        "offset": 0,
        "slot": "7",
        "type": "t_uint256"
      },
      {
        "astId": 10342,
        "contract": "contracts/release/core/fund/comptroller/ComptrollerLib.sol:ComptrollerLib",
        "label": "investAmount",
        "offset": 0,
        "slot": "8",
        "type": "t_mapping(t_address,t_uint256)"
      }
    ],
    "types": {
      "t_address": {
        "encoding": "inplace",
        "label": "address",
        "numberOfBytes": "20"
      },
      "t_bool": {
        "encoding": "inplace",
        "label": "bool",
        "numberOfBytes": "1"
      },
      "t_mapping(t_address,t_uint256)": {
        "encoding": "mapping",
        "key": "t_address",
        "label": "mapping(address => uint256)",
        "numberOfBytes": "32",
        "value": "t_uint256"
      },
      "t_uint256": {
        "encoding": "inplace",
        "label": "uint256",
        "numberOfBytes": "32"
      }
    }
  }
}