{
  "address": "0x5E988F79A5A06b823b6168FF7838768D13cB0E6D",
  "abi": [
    {
      "inputs": [
        {
          "internalType": "address",
          "name": "_integrationManager",
          "type": "address"
        },
        {
          "internalType": "address",
          "name": "_compoundPriceFeed",
          "type": "address"
        },
        {
          "internalType": "address",
          "name": "_wethToken",
          "type": "address"
        }
      ],
      "stateMutability": "nonpayable",
      "type": "constructor"
    },
    {
      "inputs": [],
      "name": "ADD_TRACKED_ASSETS_SELECTOR",
      "outputs": [
        {
          "internalType": "bytes4",
          "name": "",
          "type": "bytes4"
        }
      ],
      "stateMutability": "view",
      "type": "function"
    },
    {
      "inputs": [],
      "name": "APPROVE_ASSETS_SELECTOR",
      "outputs": [
        {
          "internalType": "bytes4",
          "name": "",
          "type": "bytes4"
        }
      ],
      "stateMutability": "view",
      "type": "function"
    },
    {
      "inputs": [],
      "name": "CLAIM_REWARDS_AND_REINVEST_SELECTOR",
      "outputs": [
        {
          "internalType": "bytes4",
          "name": "",
          "type": "bytes4"
        }
      ],
      "stateMutability": "view",
      "type": "function"
    },
    {
      "inputs": [],
      "name": "CLAIM_REWARDS_AND_SWAP_SELECTOR",
      "outputs": [
        {
          "internalType": "bytes4",
          "name": "",
          "type": "bytes4"
        }
      ],
      "stateMutability": "view",
      "type": "function"
    },
    {
      "inputs": [],
      "name": "CLAIM_REWARDS_SELECTOR",
      "outputs": [
        {
          "internalType": "bytes4",
          "name": "",
          "type": "bytes4"
        }
      ],
      "stateMutability": "view",
      "type": "function"
    },
    {
      "inputs": [],
      "name": "LEND_AND_STAKE_SELECTOR",
      "outputs": [
        {
          "internalType": "bytes4",
          "name": "",
          "type": "bytes4"
        }
      ],
      "stateMutability": "view",
      "type": "function"
    },
    {
      "inputs": [],
      "name": "LEND_SELECTOR",
      "outputs": [
        {
          "internalType": "bytes4",
          "name": "",
          "type": "bytes4"
        }
      ],
      "stateMutability": "view",
      "type": "function"
    },
    {
      "inputs": [],
      "name": "REDEEM_SELECTOR",
      "outputs": [
        {
          "internalType": "bytes4",
          "name": "",
          "type": "bytes4"
        }
      ],
      "stateMutability": "view",
      "type": "function"
    },
    {
      "inputs": [],
      "name": "STAKE_SELECTOR",
      "outputs": [
        {
          "internalType": "bytes4",
          "name": "",
          "type": "bytes4"
        }
      ],
      "stateMutability": "view",
      "type": "function"
    },
    {
      "inputs": [],
      "name": "TAKE_ORDER_SELECTOR",
      "outputs": [
        {
          "internalType": "bytes4",
          "name": "",
          "type": "bytes4"
        }
      ],
      "stateMutability": "view",
      "type": "function"
    },
    {
      "inputs": [],
      "name": "UNSTAKE_AND_REDEEM_SELECTOR",
      "outputs": [
        {
          "internalType": "bytes4",
          "name": "",
          "type": "bytes4"
        }
      ],
      "stateMutability": "view",
      "type": "function"
    },
    {
      "inputs": [],
      "name": "UNSTAKE_SELECTOR",
      "outputs": [
        {
          "internalType": "bytes4",
          "name": "",
          "type": "bytes4"
        }
      ],
      "stateMutability": "view",
      "type": "function"
    },
    {
      "inputs": [],
      "name": "getCompoundPriceFeed",
      "outputs": [
        {
          "internalType": "address",
          "name": "compoundPriceFeed_",
          "type": "address"
        }
      ],
      "stateMutability": "view",
      "type": "function"
    },
    {
      "inputs": [],
      "name": "getIntegrationManager",
      "outputs": [
        {
          "internalType": "address",
          "name": "integrationManager_",
          "type": "address"
        }
      ],
      "stateMutability": "view",
      "type": "function"
    },
    {
      "inputs": [],
      "name": "getWethToken",
      "outputs": [
        {
          "internalType": "address",
          "name": "wethToken_",
          "type": "address"
        }
      ],
      "stateMutability": "view",
      "type": "function"
    },
    {
      "inputs": [],
      "name": "identifier",
      "outputs": [
        {
          "internalType": "string",
          "name": "identifier_",
          "type": "string"
        }
      ],
      "stateMutability": "pure",
      "type": "function"
    },
    {
      "inputs": [
        {
          "internalType": "address",
          "name": "_vaultProxy",
          "type": "address"
        },
        {
          "internalType": "bytes",
          "name": "",
          "type": "bytes"
        },
        {
          "internalType": "bytes",
          "name": "_encodedAssetTransferArgs",
          "type": "bytes"
        }
      ],
      "name": "lend",
      "outputs": [],
      "stateMutability": "nonpayable",
      "type": "function"
    },
    {
      "inputs": [
        {
          "internalType": "bytes4",
          "name": "_selector",
          "type": "bytes4"
        },
        {
          "internalType": "bytes",
          "name": "_encodedCallArgs",
          "type": "bytes"
        }
      ],
      "name": "parseAssetsForMethod",
      "outputs": [
        {
          "internalType": "enum IIntegrationManager.SpendAssetsHandleType",
          "name": "spendAssetsHandleType_",
          "type": "uint8"
        },
        {
          "internalType": "address[]",
          "name": "spendAssets_",
          "type": "address[]"
        },
        {
          "internalType": "uint256[]",
          "name": "spendAssetAmounts_",
          "type": "uint256[]"
        },
        {
          "internalType": "address[]",
          "name": "incomingAssets_",
          "type": "address[]"
        },
        {
          "internalType": "uint256[]",
          "name": "minIncomingAssetAmounts_",
          "type": "uint256[]"
        }
      ],
      "stateMutability": "view",
      "type": "function"
    },
    {
      "inputs": [
        {
          "internalType": "address",
          "name": "_vaultProxy",
          "type": "address"
        },
        {
          "internalType": "bytes",
          "name": "",
          "type": "bytes"
        },
        {
          "internalType": "bytes",
          "name": "_encodedAssetTransferArgs",
          "type": "bytes"
        }
      ],
      "name": "redeem",
      "outputs": [],
      "stateMutability": "nonpayable",
      "type": "function"
    },
    {
      "inputs": [
        {
          "internalType": "address",
          "name": "",
          "type": "address"
        },
        {
          "internalType": "bytes",
          "name": "",
          "type": "bytes"
        },
        {
          "internalType": "bytes",
          "name": "",
          "type": "bytes"
        }
      ],
      "name": "swapForRedeem",
      "outputs": [],
      "stateMutability": "nonpayable",
      "type": "function"
    },
    {
      "stateMutability": "payable",
      "type": "receive"
    }
  ],
  "transactionHash": "0x078070d46384c49a635ffa0b671d3c14a64d7935a6bcd891383c991be97e34b7",
  "args": [
    "0xC7720b242D037441a0e7C00CfE2ba6DB70b95DdC",
    "0x472B1844AB2c9B30088d68E9fd55f3b6bc4ba0AF",
    "0xd0a1e359811322d97991e03f863a0c30c2cf029c"
  ],
  "linkedData": {
    "type": "ADAPTER"
  },
  "solcInputHash": "616bcd197648f809b4b4e612fb09cc9a",
  "bytecode": "0x60e060405234801561001057600080fd5b50604051611ee0380380611ee08339818101604052606081101561003357600080fd5b50805160208201516040909201516001600160601b0319606092831b811660805292821b831660a052901b1660c05260805160601c60a05160601c60c05160601c611e216100bf6000398061091952806109675280610c345280611358528061139d525080610bc85280610ce85280610f335250806107b0528061118052806114705250611e216000f3fe6080604052600436106101235760003560e01c80637998a1c4116100a0578063e27a06b511610064578063e27a06b514610718578063e4d904781461072d578063e7c4569014610742578063f075399414610757578063f7d882b51461076c5761012a565b80637998a1c4146104ae578063863e5ad0146105385780639337baac1461054d578063b23228cf14610628578063c29fa9dd1461063d5761012a565b80633ffc1591116100e75780633ffc15911461029957806340da225d146102ae5780634c252f91146102c35780635ca62b3c146102d857806376cc7ac6146102ed5761012a565b8063080456c11461012f578063099f751514610161578063131461c01461023e578063257cb1a31461025357806332bf8227146102685761012a565b3661012a57005b600080fd5b34801561013b57600080fd5b50610144610781565b604080516001600160e01b03199092168252519081900360200190f35b34801561016d57600080fd5b5061023c6004803603606081101561018457600080fd5b6001600160a01b038235169190810190604081016020820135600160201b8111156101ae57600080fd5b8201836020820111156101c057600080fd5b803590602001918460018302840111600160201b831117156101e157600080fd5b919390929091602081019035600160201b8111156101fe57600080fd5b82018360208201111561021057600080fd5b803590602001918460018302840111600160201b8311171561023157600080fd5b5090925090506107a5565b005b34801561024a57600080fd5b50610144610b7e565b34801561025f57600080fd5b50610144610ba2565b34801561027457600080fd5b5061027d610bc6565b604080516001600160a01b039092168252519081900360200190f35b3480156102a557600080fd5b50610144610bea565b3480156102ba57600080fd5b50610144610c0e565b3480156102cf57600080fd5b5061027d610c32565b3480156102e457600080fd5b50610144610c56565b3480156102f957600080fd5b506103796004803603604081101561031057600080fd5b6001600160e01b03198235169190810190604081016020820135600160201b81111561033b57600080fd5b82018360208201111561034d57600080fd5b803590602001918460018302840111600160201b8311171561036e57600080fd5b509092509050610c7a565b6040518086600381111561038957fe5b815260200180602001806020018060200180602001858103855289818151815260200191508051906020019060200280838360005b838110156103d65781810151838201526020016103be565b50505050905001858103845288818151815260200191508051906020019060200280838360005b838110156104155781810151838201526020016103fd565b50505050905001858103835287818151815260200191508051906020019060200280838360005b8381101561045457818101518382015260200161043c565b50505050905001858103825286818151815260200191508051906020019060200280838360005b8381101561049357818101518382015260200161047b565b50505050905001995050505050505050505060405180910390f35b3480156104ba57600080fd5b506104c3611104565b6040805160208082528351818301528351919283929083019185019080838360005b838110156104fd5781810151838201526020016104e5565b50505050905090810190601f16801561052a5780820380516001836020036101000a031916815260200191505b509250505060405180910390f35b34801561054457600080fd5b50610144611126565b34801561055957600080fd5b5061023c6004803603606081101561057057600080fd5b6001600160a01b038235169190810190604081016020820135600160201b81111561059a57600080fd5b8201836020820111156105ac57600080fd5b803590602001918460018302840111600160201b831117156105cd57600080fd5b919390929091602081019035600160201b8111156105ea57600080fd5b8201836020820111156105fc57600080fd5b803590602001918460018302840111600160201b8311171561061d57600080fd5b50909250905061114a565b34801561063457600080fd5b50610144611151565b34801561064957600080fd5b5061023c6004803603606081101561066057600080fd5b6001600160a01b038235169190810190604081016020820135600160201b81111561068a57600080fd5b82018360208201111561069c57600080fd5b803590602001918460018302840111600160201b831117156106bd57600080fd5b919390929091602081019035600160201b8111156106da57600080fd5b8201836020820111156106ec57600080fd5b803590602001918460018302840111600160201b8311171561070d57600080fd5b509092509050611175565b34801561072457600080fd5b50610144611426565b34801561073957600080fd5b5061014461144a565b34801561074e57600080fd5b5061027d61146e565b34801561076357600080fd5b50610144611492565b34801561077857600080fd5b506101446114b6565b7f8334eb99be0145865eba9889fca2ee920288090caefff4cc776038e20ad9259a81565b336001600160a01b037f0000000000000000000000000000000000000000000000000000000000000000161461080c5760405162461bcd60e51b8152600401808060200182810382526032815260200180611d326032913960400191505060405180910390fd5b8482828080601f016020809104026020016040519081016040528093929190818152602001838380828437600092018290525092506060915081905080610852856114da565b92965090945092509050600184600381111561086a57fe5b14156108cc5760005b83518110156108ca576108c2873085848151811061088d57fe5b60200260200101518785815181106108a157fe5b60200260200101516001600160a01b03166116a2909392919063ffffffff16565b600101610873565b505b60608060606109108b8b8080601f0160208091040260200160405190810160405280939291908181526020018383808284376000920191909152506114da92505050565b935093509350507f00000000000000000000000000000000000000000000000000000000000000006001600160a01b03168360008151811061094e57fe5b60200260200101516001600160a01b03161415610a78577f00000000000000000000000000000000000000000000000000000000000000006001600160a01b0316632e1a7d4d836000815181106109a157fe5b60200260200101516040518263ffffffff1660e01b815260040180828152602001915050600060405180830381600087803b1580156109df57600080fd5b505af11580156109f3573d6000803e3d6000fd5b5050505080600081518110610a0457fe5b60200260200101516001600160a01b0316631249c58b83600081518110610a2757fe5b60200260200101516040518263ffffffff1660e01b81526004016000604051808303818588803b158015610a5a57600080fd5b505af1158015610a6e573d6000803e3d6000fd5b5050505050610b5a565b610abf83600081518110610a8857fe5b602002602001015182600081518110610a9d57fe5b602002602001015184600081518110610ab257fe5b6020026020010151611702565b80600081518110610acc57fe5b60200260200101516001600160a01b031663a0712d6883600081518110610aef57fe5b60200260200101516040518263ffffffff1660e01b815260040180828152602001915050602060405180830381600087803b158015610b2d57600080fd5b505af1158015610b41573d6000803e3d6000fd5b505050506040513d6020811015610b5757600080fd5b50505b505050610b67868261179f565b610b71868461179f565b5050505050505050505050565b7f29fa046e79524c3c5ac4c01df692c35e217802b2b13b21121b76cf0ef02b138c81565b7f099f75155f0e997bf83a7993a71d5e7e7540bd386fe1e84643a09ce6b412521981565b7f000000000000000000000000000000000000000000000000000000000000000090565b7ffa7dd04da627f433da73c4355ead9c75682a67a8fc84d3f6170ef0922f402d2481565b7fb9dfbaccbe5cd2a84fdcf1d15f23ef25d23086f5afbaa99516065ed4a5bbc7a381565b7f000000000000000000000000000000000000000000000000000000000000000090565b7fdfd5ee0f6067928bf85a7c4430811282840bc99332dda3dab462c02bf95b67cc81565b600060608080806001600160e01b0319881663099f751560e01b1415610ecc576000806000610cde8a8a8080601f01602080910402602001604051908101604052809392919081815260200183838082843760009201919091525061187b92505050565b92509250925060007f00000000000000000000000000000000000000000000000000000000000000006001600160a01b0316634cae3ad7856040518263ffffffff1660e01b815260040180826001600160a01b0316815260200191505060206040518083038186803b158015610d5357600080fd5b505afa158015610d67573d6000803e3d6000fd5b505050506040513d6020811015610d7d57600080fd5b505190506001600160a01b038116610dc65760405162461bcd60e51b8152600401808060200182810382526028815260200180611d646028913960400191505060405180910390fd5b60408051600180825281830190925290602080830190803683370190505097508088600081518110610df457fe5b6001600160a01b03929092166020928302919091018201526040805160018082528183019092529182810190803683370190505096508287600081518110610e3857fe5b6020908102919091010152604080516001808252818301909252908160200160208202803683370190505095508386600081518110610e7357fe5b6001600160a01b03929092166020928302919091018201526040805160018082528183019092529182810190803683370190505094508185600081518110610eb757fe5b602002602001018181525050505050506110f5565b6001600160e01b0319881663c29fa9dd60e01b14156110be576000806000610f298a8a8080601f01602080910402602001604051908101604052809392919081815260200183838082843760009201919091525061187b92505050565b92509250925060007f00000000000000000000000000000000000000000000000000000000000000006001600160a01b0316634cae3ad7856040518263ffffffff1660e01b815260040180826001600160a01b0316815260200191505060206040518083038186803b158015610f9e57600080fd5b505afa158015610fb2573d6000803e3d6000fd5b505050506040513d6020811015610fc857600080fd5b505190506001600160a01b0381166110115760405162461bcd60e51b8152600401808060200182810382526028815260200180611d646028913960400191505060405180910390fd5b6040805160018082528183019092529060208083019080368337019050509750838860008151811061103f57fe5b6001600160a01b0392909216602092830291909101820152604080516001808252818301909252918281019080368337019050509650828760008151811061108357fe5b6020908102919091010152604080516001808252818301909252908160200160208202803683370190505095508086600081518110610e7357fe5b60405162461bcd60e51b8152600401808060200182810382526027815260200180611ce56027913960400191505060405180910390fd5b60029450939792965093509350565b60408051808201909152600881526710d3d35413d5539160c21b602082015290565b7f03e38a2bd7063d45c897edeafc330e71657502dd86434d3c37a489caf116af6981565b5050505050565b7f68e30677f607df46e87da13e15b637784cfa62374b653f35ab43d10361a2f83081565b336001600160a01b037f000000000000000000000000000000000000000000000000000000000000000016146111dc5760405162461bcd60e51b8152600401808060200182810382526032815260200180611d326032913960400191505060405180910390fd5b8482828080601f016020809104026020016040519081016040528093929190818152602001838380828437600092018290525092506060915081905080611222856114da565b92965090945092509050600184600381111561123a57fe5b14156112675760005b83518110156112655761125d873085848151811061088d57fe5b600101611243565b505b60608060606112ab8b8b8080601f0160208091040260200160405190810160405280939291908181526020018383808284376000920191909152506114da92505050565b93509350935050826000815181106112bf57fe5b60200260200101516001600160a01b031663db006a75836000815181106112e257fe5b60200260200101516040518263ffffffff1660e01b815260040180828152602001915050602060405180830381600087803b15801561132057600080fd5b505af1158015611334573d6000803e3d6000fd5b505050506040513d602081101561134a57600080fd5b505080516001600160a01b037f00000000000000000000000000000000000000000000000000000000000000001690829060009061138457fe5b60200260200101516001600160a01b03161415610b5a577f00000000000000000000000000000000000000000000000000000000000000006001600160a01b031663d0e30db0306001600160a01b0316316040518263ffffffff1660e01b81526004016000604051808303818588803b15801561140057600080fd5b505af1158015611414573d6000803e3d6000fd5b5050505050505050610b67868261179f565b7f848f3a590fb2f9795d1a275009c54c26c53833277c96b90e0ddd01753a1d590681565b7f3377e18acf9e83665eacd6af109261424fca32a298e2fc2e6095ba563fb8390e81565b7f000000000000000000000000000000000000000000000000000000000000000090565b7f1d51f49b5273d9ddbb643dc349fab8d36dbb470209c2ea71033bea49dd311c2781565b7fc29fa9dde84204c2908778afd0613d802d31cf046179b88f6d2b4a4e507ea2d581565b600060608060608480602001905160808110156114f657600080fd5b815160208301805160405192949293830192919084600160201b82111561151c57600080fd5b90830190602082018581111561153157600080fd5b82518660208202830111600160201b8211171561154d57600080fd5b82525081516020918201928201910280838360005b8381101561157a578181015183820152602001611562565b5050505090500160405260200180516040519392919084600160201b8211156115a257600080fd5b9083019060208201858111156115b757600080fd5b82518660208202830111600160201b821117156115d357600080fd5b82525081516020918201928201910280838360005b838110156116005781810151838201526020016115e8565b5050505090500160405260200180516040519392919084600160201b82111561162857600080fd5b90830190602082018581111561163d57600080fd5b82518660208202830111600160201b8211171561165957600080fd5b82525081516020918201928201910280838360005b8381101561168657818101518382015260200161166e565b5050505090500160405250505093509350935093509193509193565b604080516001600160a01b0380861660248301528416604482015260648082018490528251808303909101815260849091019091526020810180516001600160e01b03166323b872dd60e01b1790526116fc9085906118af565b50505050565b60408051636eb1769f60e11b81523060048201526001600160a01b0384811660248301529151839286169163dd62ed3e916044808301926020929190829003018186803b15801561175257600080fd5b505afa158015611766573d6000803e3d6000fd5b505050506040513d602081101561177c57600080fd5b5051101561179a5761179a6001600160a01b03841683600019611960565b505050565b60005b815181101561179a5760008282815181106117b957fe5b60200260200101516001600160a01b03166370a08231306040518263ffffffff1660e01b815260040180826001600160a01b0316815260200191505060206040518083038186803b15801561180d57600080fd5b505afa158015611821573d6000803e3d6000fd5b505050506040513d602081101561183757600080fd5b50519050801561187257611872848285858151811061185257fe5b60200260200101516001600160a01b0316611a739092919063ffffffff16565b506001016117a2565b600080600083806020019051606081101561189557600080fd5b508051602082015160409092015190969195509350915050565b6060611904826040518060400160405280602081526020017f5361666545524332303a206c6f772d6c6576656c2063616c6c206661696c6564815250856001600160a01b0316611ac59092919063ffffffff16565b80519091501561179a5780806020019051602081101561192357600080fd5b505161179a5760405162461bcd60e51b815260040180806020018281038252602a815260200180611d8c602a913960400191505060405180910390fd5b8015806119e6575060408051636eb1769f60e11b81523060048201526001600160a01b03848116602483015291519185169163dd62ed3e91604480820192602092909190829003018186803b1580156119b857600080fd5b505afa1580156119cc573d6000803e3d6000fd5b505050506040513d60208110156119e257600080fd5b5051155b611a215760405162461bcd60e51b8152600401808060200182810382526036815260200180611db66036913960400191505060405180910390fd5b604080516001600160a01b038416602482015260448082018490528251808303909101815260649091019091526020810180516001600160e01b031663095ea7b360e01b17905261179a9084906118af565b604080516001600160a01b038416602482015260448082018490528251808303909101815260649091019091526020810180516001600160e01b031663a9059cbb60e01b17905261179a9084906118af565b6060611ad48484600085611ade565b90505b9392505050565b606082471015611b1f5760405162461bcd60e51b8152600401808060200182810382526026815260200180611d0c6026913960400191505060405180910390fd5b611b2885611c3a565b611b79576040805162461bcd60e51b815260206004820152601d60248201527f416464726573733a2063616c6c20746f206e6f6e2d636f6e7472616374000000604482015290519081900360640190fd5b60006060866001600160a01b031685876040518082805190602001908083835b60208310611bb85780518252601f199092019160209182019101611b99565b6001836020036101000a03801982511681845116808217855250505050505090500191505060006040518083038185875af1925050503d8060008114611c1a576040519150601f19603f3d011682016040523d82523d6000602084013e611c1f565b606091505b5091509150611c2f828286611c40565b979650505050505050565b3b151590565b60608315611c4f575081611ad7565b825115611c5f5782518084602001fd5b8160405162461bcd60e51b81526004018080602001828103825283818151815260200191508051906020019080838360005b83811015611ca9578181015183820152602001611c91565b50505050905090810190601f168015611cd65780820380516001836020036101000a031916815260200191505b509250505060405180910390fdfe7061727365417373657473466f724d6574686f643a205f73656c6563746f7220696e76616c6964416464726573733a20696e73756666696369656e742062616c616e636520666f722063616c6c4f6e6c792074686520496e746567726174696f6e4d616e616765722063616e2063616c6c20746869732066756e6374696f6e7061727365417373657473466f724d6574686f643a20556e737570706f727465642063546f6b656e5361666545524332303a204552433230206f7065726174696f6e20646964206e6f7420737563636565645361666545524332303a20617070726f76652066726f6d206e6f6e2d7a65726f20746f206e6f6e2d7a65726f20616c6c6f77616e6365a26469706673582212209b875cfc359845395b537a5395d6781b9d4e3c6c0e20f2fa5d3dced7174f200864736f6c634300060c0033",
  "devdoc": {
    "kind": "dev",
    "methods": {
      "getCompoundPriceFeed()": {
        "returns": {
          "compoundPriceFeed_": "The `COMPOUND_PRICE_FEED` variable value"
        }
      },
      "getIntegrationManager()": {
        "returns": {
          "integrationManager_": "The `INTEGRATION_MANAGER` variable value"
        }
      },
      "getWethToken()": {
        "returns": {
          "wethToken_": "The `WETH_TOKEN` variable value"
        }
      },
      "identifier()": {
        "returns": {
          "identifier_": "An identifier string"
        }
      },
      "lend(address,bytes,bytes)": {
        "params": {
          "_encodedAssetTransferArgs": "Encoded args for expected assets to spend and receive",
          "_vaultProxy": "The VaultProxy of the calling fund"
        }
      },
      "parseAssetsForMethod(bytes4,bytes)": {
        "params": {
          "_encodedCallArgs": "The encoded parameters for the callOnIntegration",
          "_selector": "The function selector for the callOnIntegration"
        },
        "returns": {
          "incomingAssets_": "The assets to receive in the call",
          "minIncomingAssetAmounts_": "The min asset amounts to receive in the call",
          "spendAssetAmounts_": "The max asset amounts to spend in the call",
          "spendAssetsHandleType_": "A type that dictates how to handle granting the adapter access to spend assets (`None` by default)",
          "spendAssets_": "The assets to spend in the call"
        }
      },
      "redeem(address,bytes,bytes)": {
        "params": {
          "_encodedAssetTransferArgs": "Encoded args for expected assets to spend and receive",
          "_vaultProxy": "The VaultProxy of the calling fund"
        }
      }
    },
    "title": "CompoundAdapter Contract",
    "version": 1
  },
  "userdoc": {
    "kind": "user",
    "methods": {
      "getCompoundPriceFeed()": {
        "notice": "Gets the `COMPOUND_PRICE_FEED` variable"
      },
      "getIntegrationManager()": {
        "notice": "Gets the `INTEGRATION_MANAGER` variable"
      },
      "getWethToken()": {
        "notice": "Gets the `WETH_TOKEN` variable"
      },
      "identifier()": {
        "notice": "Provides a constant string identifier for an adapter"
      },
      "lend(address,bytes,bytes)": {
        "notice": "Lends an amount of a token to Compound"
      },
      "parseAssetsForMethod(bytes4,bytes)": {
        "notice": "Parses the expected assets to receive from a call on integration"
      },
      "redeem(address,bytes,bytes)": {
        "notice": "Redeems an amount of cTokens from Compound"
      }
    },
    "notice": "Adapter for Compound <https://compound.finance/>",
    "version": 1
  },
  "storageLayout": {
    "storage": [],
    "types": null
  }
}