{
  "address": "0x6C2E68e0b227880F0D9D0817844a36Fbd345206f",
  "abi": [
    {
      "inputs": [
        {
          "internalType": "address",
          "name": "_feeManager",
          "type": "address"
        }
      ],
      "stateMutability": "nonpayable",
      "type": "constructor"
    },
    {
      "anonymous": false,
      "inputs": [
        {
          "indexed": true,
          "internalType": "address",
          "name": "comptrollerProxy",
          "type": "address"
        },
        {
          "indexed": false,
          "internalType": "uint256",
          "name": "rate",
          "type": "uint256"
        }
      ],
      "name": "FundSettingsAdded",
      "type": "event"
    },
    {
      "anonymous": false,
      "inputs": [
        {
          "indexed": true,
          "internalType": "address",
          "name": "comptrollerProxy",
          "type": "address"
        },
        {
          "indexed": true,
          "internalType": "address",
          "name": "payer",
          "type": "address"
        },
        {
          "indexed": false,
          "internalType": "uint256",
          "name": "sharesQuantity",
          "type": "uint256"
        }
      ],
      "name": "Settled",
      "type": "event"
    },
    {
      "inputs": [
        {
          "internalType": "address",
          "name": "",
          "type": "address"
        },
        {
          "internalType": "address",
          "name": "",
          "type": "address"
        }
      ],
      "name": "activateForFund",
      "outputs": [],
      "stateMutability": "nonpayable",
      "type": "function"
    },
    {
      "inputs": [
        {
          "internalType": "address",
          "name": "_comptrollerProxy",
          "type": "address"
        },
        {
          "internalType": "bytes",
          "name": "_settingsData",
          "type": "bytes"
        }
      ],
      "name": "addFundSettings",
      "outputs": [],
      "stateMutability": "nonpayable",
      "type": "function"
    },
    {
      "inputs": [],
      "name": "getFeeManager",
      "outputs": [
        {
          "internalType": "address",
          "name": "feeManager_",
          "type": "address"
        }
      ],
      "stateMutability": "view",
      "type": "function"
    },
    {
      "inputs": [
        {
          "internalType": "address",
          "name": "_comptrollerProxy",
          "type": "address"
        }
      ],
      "name": "getRateForFund",
      "outputs": [
        {
          "internalType": "uint256",
          "name": "rate_",
          "type": "uint256"
        }
      ],
      "stateMutability": "view",
      "type": "function"
    },
    {
      "inputs": [],
      "name": "getSettlementType",
      "outputs": [
        {
          "internalType": "enum IFeeManager.SettlementType",
          "name": "settlementType_",
          "type": "uint8"
        }
      ],
      "stateMutability": "view",
      "type": "function"
    },
    {
      "inputs": [],
      "name": "identifier",
      "outputs": [
        {
          "internalType": "string",
          "name": "identifier_",
          "type": "string"
        }
      ],
      "stateMutability": "pure",
      "type": "function"
    },
    {
      "inputs": [],
      "name": "implementedHooks",
      "outputs": [
        {
          "internalType": "enum IFeeManager.FeeHook[]",
          "name": "implementedHooksForSettle_",
          "type": "uint8[]"
        },
        {
          "internalType": "enum IFeeManager.FeeHook[]",
          "name": "implementedHooksForUpdate_",
          "type": "uint8[]"
        },
        {
          "internalType": "bool",
          "name": "usesGavOnSettle_",
          "type": "bool"
        },
        {
          "internalType": "bool",
          "name": "usesGavOnUpdate_",
          "type": "bool"
        }
      ],
      "stateMutability": "view",
      "type": "function"
    },
    {
      "inputs": [
        {
          "internalType": "address",
          "name": "",
          "type": "address"
        },
        {
          "internalType": "address",
          "name": "",
          "type": "address"
        }
      ],
      "name": "payout",
      "outputs": [
        {
          "internalType": "bool",
          "name": "",
          "type": "bool"
        }
      ],
      "stateMutability": "nonpayable",
      "type": "function"
    },
    {
      "inputs": [
        {
          "internalType": "address",
          "name": "_comptrollerProxy",
          "type": "address"
        },
        {
          "internalType": "address",
          "name": "",
          "type": "address"
        },
        {
          "internalType": "enum IFeeManager.FeeHook",
          "name": "",
          "type": "uint8"
        },
        {
          "internalType": "bytes",
          "name": "_settlementData",
          "type": "bytes"
        },
        {
          "internalType": "uint256",
          "name": "",
          "type": "uint256"
        }
      ],
      "name": "settle",
      "outputs": [
        {
          "internalType": "enum IFeeManager.SettlementType",
          "name": "settlementType_",
          "type": "uint8"
        },
        {
          "internalType": "address",
          "name": "payer_",
          "type": "address"
        },
        {
          "internalType": "uint256",
          "name": "sharesDue_",
          "type": "uint256"
        }
      ],
      "stateMutability": "nonpayable",
      "type": "function"
    },
    {
      "inputs": [
        {
          "internalType": "address",
          "name": "",
          "type": "address"
        },
        {
          "internalType": "address",
          "name": "",
          "type": "address"
        },
        {
          "internalType": "enum IFeeManager.FeeHook",
          "name": "",
          "type": "uint8"
        },
        {
          "internalType": "bytes",
          "name": "",
          "type": "bytes"
        },
        {
          "internalType": "uint256",
          "name": "",
          "type": "uint256"
        }
      ],
      "name": "update",
      "outputs": [],
      "stateMutability": "nonpayable",
      "type": "function"
    }
  ],
  "transactionHash": "0x3fa579ec067d9aab41bb4c1622ed100b29ccebf5a883d837785e601677c94914",
  "args": [
    "0xc8A394A3537092D9728B5480070A1bF29c8F3e20"
  ],
  "linkedData": {
    "type": "FEE"
  },
  "solcInputHash": "616bcd197648f809b4b4e612fb09cc9a",
  "bytecode": "0x60c060405234801561001057600080fd5b50604051610ad4380380610ad48339818101604052602081101561003357600080fd5b5051606081901b6001600160601b031916608052600160f81b60a0526001600160a01b03166001610a4e6100866000398061073352806107935250806104b352806105eb52806108375250610a4e6000f3fe608060405234801561001057600080fd5b506004361061009e5760003560e01c80637998a1c4116100665780637998a1c4146102e95780637bdd5b1d14610366578063b78b48131461038f578063cbf54bb2146103d1578063f2d63826146104845761009e565b80630f5f6b4f146100a3578063233faf5f146101255780633146d058146101b85780633eecc2bf146101e657806341892d7e1461021e575b600080fd5b610123600480360360408110156100b957600080fd5b6001600160a01b0382351691908101906040810160208201356401000000008111156100e457600080fd5b8201836020820111156100f657600080fd5b8035906020019184600183028401116401000000008311171561011857600080fd5b5090925090506104a8565b005b610123600480360360a081101561013b57600080fd5b6001600160a01b03823581169260208101359091169160ff604083013516919081019060808101606082013564010000000081111561017957600080fd5b82018360208201111561018b57600080fd5b803590602001918460018302840111640100000000831117156101ad57600080fd5b9193509150356105b5565b610123600480360360408110156101ce57600080fd5b506001600160a01b03813581169160200135166105bd565b61020c600480360360208110156101fc57600080fd5b50356001600160a01b03166105c1565b60408051918252519081900360200190f35b6102b1600480360360a081101561023457600080fd5b6001600160a01b03823581169260208101359091169160ff604083013516919081019060808101606082013564010000000081111561027257600080fd5b82018360208201111561028457600080fd5b803590602001918460018302840111640100000000831117156102a657600080fd5b9193509150356105dc565b604051808460058111156102c157fe5b8152602001836001600160a01b03168152602001828152602001935050505060405180910390f35b6102f1610763565b6040805160208082528351818301528351919283929083019185019080838360005b8381101561032b578181015183820152602001610313565b50505050905090810190601f1680156103585780820380516001836020036101000a031916815260200191505b509250505060405180910390f35b61036e610791565b6040518082600581111561037e57fe5b815260200191505060405180910390f35b6103bd600480360360408110156103a557600080fd5b506001600160a01b03813581169160200135166107b5565b604080519115158252519081900360200190f35b6103d96107be565b60405180806020018060200185151581526020018415158152602001838103835287818151815260200191508051906020019060200280838360005b8381101561042d578181015183820152602001610415565b50505050905001838103825286818151815260200191508051906020019060200280838360005b8381101561046c578181015183820152602001610454565b50505050905001965050505050505060405180910390f35b61048c610835565b604080516001600160a01b039092168252519081900360200190f35b336001600160a01b037f0000000000000000000000000000000000000000000000000000000000000000161461050f5760405162461bcd60e51b81526004018080602001828103825260258152602001806109af6025913960400191505060405180910390fd5b60008282602081101561052157600080fd5b50359050806105615760405162461bcd60e51b81526004018080602001828103825260248152602001806109f56024913960400191505060405180910390fd5b6001600160a01b03841660008181526020818152604091829020849055815184815291517f90b7d1516011c1da1279f3ae0ed052b1416e7c373d4ec40cf515aa53c5f839df9281900390910190a250505050565b505050505050565b5050565b6001600160a01b031660009081526020819052604090205490565b60008080336001600160a01b037f000000000000000000000000000000000000000000000000000000000000000016146106475760405162461bcd60e51b81526004018080602001828103825260258152602001806109af6025913960400191505060405180910390fd5b600061068887878080601f01602080910402602001604051908101604052809392919081815260200183838082843760009201919091525061085992505050565b6001600160a01b038d1660009081526020819052604090205492955092506106cd90506106bd670de0b6b3a76400008361088d565b6106c784846108ee565b90610947565b9250826106e65760008060009450945094505050610757565b836001600160a01b03168b6001600160a01b03167f7e79a2206061184e05985ae0578dec52f817756a441996f984cdc817efc25a68856040518082815260200191505060405180910390a37f0000000000000000000000000000000000000000000000000000000000000000945050505b96509650969350505050565b60408051808201909152601481527311539514905390d157d490551157d112549150d560621b602082015290565b7f000000000000000000000000000000000000000000000000000000000000000090565b60005b92915050565b6040805160018082528183019092526060918291600091829190602080830190803683370190505093506003846000815181106107f757fe5b6020026020010190600581111561080a57fe5b9081600581111561081757fe5b90525050604080516000808252602082019092529394909250829150565b7f000000000000000000000000000000000000000000000000000000000000000090565b600080600083806020019051606081101561087357600080fd5b508051602082015160409092015190969195509350915050565b6000828201838110156108e7576040805162461bcd60e51b815260206004820152601b60248201527f536166654d6174683a206164646974696f6e206f766572666c6f770000000000604482015290519081900360640190fd5b9392505050565b6000826108fd575060006107b8565b8282028284828161090a57fe5b04146108e75760405162461bcd60e51b81526004018080602001828103825260218152602001806109d46021913960400191505060405180910390fd5b600080821161099d576040805162461bcd60e51b815260206004820152601a60248201527f536166654d6174683a206469766973696f6e206279207a65726f000000000000604482015290519081900360640190fd5b8183816109a657fe5b04939250505056fe4f6e6c7920746865204665654d616e6765722063616e206d616b6520746869732063616c6c536166654d6174683a206d756c7469706c69636174696f6e206f766572666c6f7761646446756e6453657474696e67733a204665652072617465206d757374206265203e30a26469706673582212205256c78071c30a3586c54d603eb62c87cca87687a7093f0f2bc1b3f29171570864736f6c634300060c0033",
  "devdoc": {
    "kind": "dev",
    "methods": {
      "activateForFund(address,address)": {
        "details": "Unimplemented by default, may be overrode."
      },
      "addFundSettings(address,bytes)": {
        "params": {
          "_comptrollerProxy": "The ComptrollerProxy of the fund",
          "_settingsData": "Encoded settings to apply to the policy for a fund"
        }
      },
      "getFeeManager()": {
        "returns": {
          "feeManager_": "The `FEE_MANAGER` variable value"
        }
      },
      "getRateForFund(address)": {
        "params": {
          "_comptrollerProxy": "The ComptrollerProxy contract for the fund"
        },
        "returns": {
          "rate_": "The `rate` variable value"
        }
      },
      "getSettlementType()": {
        "returns": {
          "settlementType_": "The `SETTLEMENT_TYPE` variable value"
        }
      },
      "identifier()": {
        "returns": {
          "identifier_": "The identifier string"
        }
      },
      "implementedHooks()": {
        "details": "Used only during fee registration",
        "returns": {
          "implementedHooksForSettle_": "The hooks during which settle() is implemented",
          "implementedHooksForUpdate_": "The hooks during which update() is implemented",
          "usesGavOnSettle_": "True if GAV is used during the settle() implementation",
          "usesGavOnUpdate_": "True if GAV is used during the update() implementation"
        }
      },
      "payout(address,address)": {
        "details": "Returns false by default, can be overridden by fee"
      },
      "settle(address,address,uint8,bytes,uint256)": {
        "params": {
          "_comptrollerProxy": "The ComptrollerProxy of the fund",
          "_settlementData": "Encoded args to use in calculating the settlement"
        },
        "returns": {
          "payer_": "The payer of shares due",
          "settlementType_": "The type of settlement",
          "sharesDue_": "The amount of shares due"
        }
      },
      "update(address,address,uint8,bytes,uint256)": {
        "details": "Unimplemented by default, can be overridden by fee"
      }
    },
    "title": "EntranceRateDirectFee Contract",
    "version": 1
  },
  "userdoc": {
    "kind": "user",
    "methods": {
      "activateForFund(address,address)": {
        "notice": "Allows Fee to run logic during fund activation"
      },
      "addFundSettings(address,bytes)": {
        "notice": "Add the fee settings for a fund"
      },
      "getFeeManager()": {
        "notice": "Gets the `FEE_MANAGER` variable"
      },
      "getRateForFund(address)": {
        "notice": "Gets the `rate` variable for a fund"
      },
      "getSettlementType()": {
        "notice": "Gets the `SETTLEMENT_TYPE` variable"
      },
      "identifier()": {
        "notice": "Provides a constant string identifier for a fee"
      },
      "implementedHooks()": {
        "notice": "Gets the hooks that are implemented by the fee"
      },
      "payout(address,address)": {
        "notice": "Runs payout logic for a fee that utilizes shares outstanding as its settlement type"
      },
      "settle(address,address,uint8,bytes,uint256)": {
        "notice": "Settles the fee"
      },
      "update(address,address,uint8,bytes,uint256)": {
        "notice": "Update fee state after all settlement has occurred during a given fee hook"
      }
    },
    "notice": "An EntranceRateFee that transfers the fee shares to the fund manager",
    "version": 1
  },
  "storageLayout": {
    "storage": [
      {
        "astId": 18605,
        "contract": "contracts/release/extensions/fee-manager/fees/EntranceRateDirectFee.sol:EntranceRateDirectFee",
        "label": "comptrollerProxyToRate",
        "offset": 0,
        "slot": "0",
        "type": "t_mapping(t_address,t_uint256)"
      }
    ],
    "types": {
      "t_address": {
        "encoding": "inplace",
        "label": "address",
        "numberOfBytes": "20"
      },
      "t_mapping(t_address,t_uint256)": {
        "encoding": "mapping",
        "key": "t_address",
        "label": "mapping(address => uint256)",
        "numberOfBytes": "32",
        "value": "t_uint256"
      },
      "t_uint256": {
        "encoding": "inplace",
        "label": "uint256",
        "numberOfBytes": "32"
      }
    }
  }
}