{
  "address": "0xc8A394A3537092D9728B5480070A1bF29c8F3e20",
  "abi": [
    {
      "inputs": [
        {
          "internalType": "address",
          "name": "_fundDeployer",
          "type": "address"
        },
        {
          "internalType": "address",
          "name": "_protocolFee",
          "type": "address"
        }
      ],
      "stateMutability": "nonpayable",
      "type": "constructor"
    },
    {
      "anonymous": false,
      "inputs": [
        {
          "indexed": true,
          "internalType": "address",
          "name": "comptrollerProxy",
          "type": "address"
        },
        {
          "indexed": false,
          "internalType": "address",
          "name": "payee",
          "type": "address"
        },
        {
          "indexed": false,
          "internalType": "uint256",
          "name": "sharesDue",
          "type": "uint256"
        }
      ],
      "name": "AllSharesOutstandingForcePaidForFund",
      "type": "event"
    },
    {
      "anonymous": false,
      "inputs": [
        {
          "indexed": true,
          "internalType": "address",
          "name": "fee",
          "type": "address"
        },
        {
          "indexed": true,
          "internalType": "string",
          "name": "identifier",
          "type": "string"
        }
      ],
      "name": "FeeDeregistered",
      "type": "event"
    },
    {
      "anonymous": false,
      "inputs": [
        {
          "indexed": true,
          "internalType": "address",
          "name": "comptrollerProxy",
          "type": "address"
        },
        {
          "indexed": true,
          "internalType": "address",
          "name": "fee",
          "type": "address"
        },
        {
          "indexed": false,
          "internalType": "bytes",
          "name": "settingsData",
          "type": "bytes"
        }
      ],
      "name": "FeeEnabledForFund",
      "type": "event"
    },
    {
      "anonymous": false,
      "inputs": [
        {
          "indexed": true,
          "internalType": "address",
          "name": "fee",
          "type": "address"
        },
        {
          "indexed": true,
          "internalType": "string",
          "name": "identifier",
          "type": "string"
        },
        {
          "indexed": false,
          "internalType": "enum IFeeManager.FeeHook[]",
          "name": "implementedHooksForSettle",
          "type": "uint8[]"
        },
        {
          "indexed": false,
          "internalType": "enum IFeeManager.FeeHook[]",
          "name": "implementedHooksForUpdate",
          "type": "uint8[]"
        },
        {
          "indexed": false,
          "internalType": "bool",
          "name": "usesGavOnSettle",
          "type": "bool"
        },
        {
          "indexed": false,
          "internalType": "bool",
          "name": "usesGavOnUpdate",
          "type": "bool"
        }
      ],
      "name": "FeeRegistered",
      "type": "event"
    },
    {
      "anonymous": false,
      "inputs": [
        {
          "indexed": true,
          "internalType": "address",
          "name": "comptrollerProxy",
          "type": "address"
        },
        {
          "indexed": true,
          "internalType": "address",
          "name": "fee",
          "type": "address"
        },
        {
          "indexed": true,
          "internalType": "enum IFeeManager.SettlementType",
          "name": "settlementType",
          "type": "uint8"
        },
        {
          "indexed": false,
          "internalType": "address",
          "name": "payer",
          "type": "address"
        },
        {
          "indexed": false,
          "internalType": "address",
          "name": "payee",
          "type": "address"
        },
        {
          "indexed": false,
          "internalType": "uint256",
          "name": "sharesDue",
          "type": "uint256"
        }
      ],
      "name": "FeeSettledForFund",
      "type": "event"
    },
    {
      "anonymous": false,
      "inputs": [
        {
          "indexed": true,
          "internalType": "address",
          "name": "comptrollerProxy",
          "type": "address"
        },
        {
          "indexed": false,
          "internalType": "address",
          "name": "prevFeesRecipient",
          "type": "address"
        },
        {
          "indexed": false,
          "internalType": "address",
          "name": "nextFeesRecipient",
          "type": "address"
        }
      ],
      "name": "FeesRecipientSetForFund",
      "type": "event"
    },
    {
      "anonymous": false,
      "inputs": [
        {
          "indexed": true,
          "internalType": "address",
          "name": "comptrollerProxy",
          "type": "address"
        },
        {
          "indexed": true,
          "internalType": "address",
          "name": "fee",
          "type": "address"
        },
        {
          "indexed": false,
          "internalType": "uint256",
          "name": "sharesDue",
          "type": "uint256"
        }
      ],
      "name": "SharesOutstandingPaidForFund",
      "type": "event"
    },
    {
      "inputs": [
        {
          "internalType": "address",
          "name": "",
          "type": "address"
        },
        {
          "internalType": "uint256[]",
          "name": "",
          "type": "uint256[]"
        },
        {
          "internalType": "address[]",
          "name": "",
          "type": "address[]"
        }
      ],
      "name": "actionForRedeem",
      "outputs": [],
      "stateMutability": "nonpayable",
      "type": "function"
    },
    {
      "inputs": [
        {
          "internalType": "bool",
          "name": "",
          "type": "bool"
        }
      ],
      "name": "activateForFund",
      "outputs": [],
      "stateMutability": "nonpayable",
      "type": "function"
    },
    {
      "inputs": [],
      "name": "deactivateForFund",
      "outputs": [],
      "stateMutability": "nonpayable",
      "type": "function"
    },
    {
      "inputs": [
        {
          "internalType": "address[]",
          "name": "_fees",
          "type": "address[]"
        }
      ],
      "name": "deregisterFees",
      "outputs": [],
      "stateMutability": "nonpayable",
      "type": "function"
    },
    {
      "inputs": [
        {
          "internalType": "address",
          "name": "_fee",
          "type": "address"
        },
        {
          "internalType": "enum IFeeManager.FeeHook",
          "name": "_hook",
          "type": "uint8"
        }
      ],
      "name": "feeSettlesOnHook",
      "outputs": [
        {
          "internalType": "bool",
          "name": "settlesOnHook_",
          "type": "bool"
        }
      ],
      "stateMutability": "view",
      "type": "function"
    },
    {
      "inputs": [
        {
          "internalType": "address",
          "name": "_fee",
          "type": "address"
        },
        {
          "internalType": "enum IFeeManager.FeeHook",
          "name": "_hook",
          "type": "uint8"
        }
      ],
      "name": "feeUpdatesOnHook",
      "outputs": [
        {
          "internalType": "bool",
          "name": "updatesOnHook_",
          "type": "bool"
        }
      ],
      "stateMutability": "view",
      "type": "function"
    },
    {
      "inputs": [
        {
          "internalType": "address",
          "name": "_fee",
          "type": "address"
        }
      ],
      "name": "feeUsesGavOnSettle",
      "outputs": [
        {
          "internalType": "bool",
          "name": "usesGav_",
          "type": "bool"
        }
      ],
      "stateMutability": "view",
      "type": "function"
    },
    {
      "inputs": [
        {
          "internalType": "address",
          "name": "_fee",
          "type": "address"
        }
      ],
      "name": "feeUsesGavOnUpdate",
      "outputs": [
        {
          "internalType": "bool",
          "name": "usesGav_",
          "type": "bool"
        }
      ],
      "stateMutability": "view",
      "type": "function"
    },
    {
      "inputs": [
        {
          "internalType": "address",
          "name": "_comptrollerProxy",
          "type": "address"
        }
      ],
      "name": "getEnabledFeesForFund",
      "outputs": [
        {
          "internalType": "address[]",
          "name": "enabledFees_",
          "type": "address[]"
        }
      ],
      "stateMutability": "view",
      "type": "function"
    },
    {
      "inputs": [
        {
          "internalType": "address",
          "name": "_comptrollerProxy",
          "type": "address"
        },
        {
          "internalType": "address",
          "name": "_fee",
          "type": "address"
        }
      ],
      "name": "getFeeSharesOutstandingForFund",
      "outputs": [
        {
          "internalType": "uint256",
          "name": "sharesOutstanding_",
          "type": "uint256"
        }
      ],
      "stateMutability": "view",
      "type": "function"
    },
    {
      "inputs": [],
      "name": "getFundDeployer",
      "outputs": [
        {
          "internalType": "address",
          "name": "fundDeployer_",
          "type": "address"
        }
      ],
      "stateMutability": "view",
      "type": "function"
    },
    {
      "inputs": [],
      "name": "getOwner",
      "outputs": [
        {
          "internalType": "address",
          "name": "owner_",
          "type": "address"
        }
      ],
      "stateMutability": "view",
      "type": "function"
    },
    {
      "inputs": [],
      "name": "getRegisteredFees",
      "outputs": [
        {
          "internalType": "address[]",
          "name": "registeredFees_",
          "type": "address[]"
        }
      ],
      "stateMutability": "view",
      "type": "function"
    },
    {
      "inputs": [
        {
          "internalType": "address",
          "name": "_comptrollerProxy",
          "type": "address"
        }
      ],
      "name": "getVaultProxyForFund",
      "outputs": [
        {
          "internalType": "address",
          "name": "vaultProxy_",
          "type": "address"
        }
      ],
      "stateMutability": "view",
      "type": "function"
    },
    {
      "inputs": [
        {
          "internalType": "enum IFeeManager.FeeHook",
          "name": "_hook",
          "type": "uint8"
        },
        {
          "internalType": "bytes",
          "name": "_settlementData",
          "type": "bytes"
        },
        {
          "internalType": "uint256",
          "name": "_gav",
          "type": "uint256"
        }
      ],
      "name": "invokeHook",
      "outputs": [],
      "stateMutability": "nonpayable",
      "type": "function"
    },
    {
      "inputs": [
        {
          "internalType": "address",
          "name": "_fee",
          "type": "address"
        }
      ],
      "name": "isRegisteredFee",
      "outputs": [
        {
          "internalType": "bool",
          "name": "isRegisteredFee_",
          "type": "bool"
        }
      ],
      "stateMutability": "view",
      "type": "function"
    },
    {
      "inputs": [
        {
          "internalType": "address",
          "name": "",
          "type": "address"
        },
        {
          "internalType": "uint256",
          "name": "_actionId",
          "type": "uint256"
        },
        {
          "internalType": "bytes",
          "name": "_callArgs",
          "type": "bytes"
        }
      ],
      "name": "receiveCallFromComptroller",
      "outputs": [],
      "stateMutability": "nonpayable",
      "type": "function"
    },
    {
      "inputs": [
        {
          "internalType": "address[]",
          "name": "_fees",
          "type": "address[]"
        }
      ],
      "name": "registerFees",
      "outputs": [],
      "stateMutability": "nonpayable",
      "type": "function"
    },
    {
      "inputs": [
        {
          "internalType": "bytes",
          "name": "_configData",
          "type": "bytes"
        }
      ],
      "name": "setConfigForFund",
      "outputs": [],
      "stateMutability": "nonpayable",
      "type": "function"
    }
  ],
  "transactionHash": "0xe4a7418e27353bd0c4721b65485122d491602263a1fa9939a15f4fa34c61be54",
  "args": [
    "0x5cBbA5484594598a660636eFb0A1AD953aFa4e32",
    "0x482a493EA47903a571b20E35B770aFfE06600a3D"
  ],
  "solcInputHash": "616bcd197648f809b4b4e612fb09cc9a",
  "bytecode": "0x60c06040523480156200001157600080fd5b5060405162003a7d38038062003a7d833981016040819052620000349162000066565b6001600160601b0319606092831b8116608052911b1660a052620000d1565b80516200006081620000b7565b92915050565b600080604083850312156200007a57600080fd5b600062000088858562000053565b92505060206200009b8582860162000053565b9150509250929050565b60006001600160a01b03821662000060565b620000c281620000a5565b8114620000ce57600080fd5b50565b60805160601c60a05160601c61397862000105600039806110e6528061119d525080610a3e5280610cd352506139786000f3fe608060405234801561001057600080fd5b50600436106101215760003560e01c806380d57063116100ad578063a9f3b42f11610071578063a9f3b42f14610241578063aa051c2c14610254578063bd8e959a14610274578063e2a1b3981461027c578063ec7c39e91461028f57610121565b806380d57063146101f8578063893d20e81461020b57806389cbe1d01461021357806397c0ac871461022657806399c735831461022e57610121565b80633c470297116100f45780633c4702971461018c578063467903461461019f57806353acffa0146101bf578063557c944c146101d25780637759c164146101e557610121565b806306bbda64146101265780631bee801e1461014457806324da4f19146101595780633a687cf41461016c575b600080fd5b61012e6102a2565b60405161013b9190613604565b60405180910390f35b610157610152366004612aa9565b610337565b005b610157610167366004612b10565b6103d0565b61017f61017a366004612980565b610847565b60405161013b919061365f565b61017f61019a366004612980565b610869565b6101b26101ad366004612980565b610887565b60405161013b9190613521565b61017f6101cd366004612a79565b6108a5565b6101576101e03660046129fe565b610842565b6101576101f3366004612ce1565b6108f2565b610157610206366004612c70565b610938565b6101b2610a3a565b610157610221366004612cac565b610ad2565b6101b2610cd1565b61017f61023c366004612980565b610cf5565b61012e61024f366004612980565b610d02565b6102676102623660046129c4565b610d78565b60405161013b91906137cc565b610157610da3565b61015761028a366004612b10565b610dd5565b61017f61029d366004612a79565b610f95565b60606102ae6001610fbd565b6001600160401b03811180156102c357600080fd5b506040519080825280602002602001820160405280156102ed578160200160208202803683370190505b50905060005b815181101561033357610307600182610fc8565b82828151811061031357fe5b6001600160a01b03909216602092830291909101909101526001016102f3565b5090565b826103605761035b3360006040518060200160405280600081525060006001610fdb565b6103ca565b82600114156103a95761035b3383838080601f0160208091040260200160405190810160405280939291908181526020018383808284376000920191909152506110bf92505050565b60405162461bcd60e51b81526004016103c1906136ec565b60405180910390fd5b50505050565b6103d8610a3a565b6001600160a01b0316336001600160a01b0316146104085760405162461bcd60e51b81526004016103c1906136bc565b806104255760405162461bcd60e51b81526004016103c1906137ac565b60005b818110156108425761045483838381811061043f57fe5b905060200201602081019061023c9190612980565b156104715760405162461bcd60e51b81526004016103c19061377c565b61049d83838381811061048057fe5b90506020020160208101906104959190612980565b600190611788565b5060008383838181106104ac57fe5b90506020020160208101906104c19190612980565b9050606080600080846001600160a01b031663cbf54bb26040518163ffffffff1660e01b815260040160006040518083038186803b15801561050257600080fd5b505afa158015610516573d6000803e3d6000fd5b505050506040513d6000823e601f3d908101601f1916820160405261053e9190810190612be2565b935093509350935060005b84518110156105ec576001600560008b8b8b81811061056457fe5b90506020020160208101906105799190612980565b6001600160a01b03166001600160a01b0316815260200190815260200160002060008784815181106105a757fe5b602002602001015160058111156105ba57fe5b60058111156105c557fe5b81526020810191909152604001600020805460ff1916911515919091179055600101610549565b5060005b8351811015610693576001600660008b8b8b81811061060b57fe5b90506020020160208101906106209190612980565b6001600160a01b03166001600160a01b03168152602001908152602001600020600086848151811061064e57fe5b6020026020010151600581111561066157fe5b600581111561066c57fe5b81526020810191909152604001600020805460ff19169115159190911790556001016105f0565b5081156106ea576001600360008a8a8a8181106106ac57fe5b90506020020160208101906106c19190612980565b6001600160a01b031681526020810191909152604001600020805460ff19169115159190911790555b8015610740576001600460008a8a8a81811061070257fe5b90506020020160208101906107179190612980565b6001600160a01b031681526020810191909152604001600020805460ff19169115159190911790555b846001600160a01b0316637998a1c46040518163ffffffff1660e01b815260040160006040518083038186803b15801561077957600080fd5b505afa15801561078d573d6000803e3d6000fd5b505050506040513d6000823e601f3d908101601f191682016040526107b59190810190612d81565b6040516107c29190613515565b60405180910390208888888181106107d657fe5b90506020020160208101906107eb9190612980565b6001600160a01b03167f0cc09421dfd6f16fe9f3e1329fe97c2c82bed949019621d503a1220831abb62e868686866040516108299493929190613615565b60405180910390a3505060019093019250610428915050565b505050565b6001600160a01b03811660009081526003602052604090205460ff165b919050565b6001600160a01b031660009081526004602052604090205460ff1690565b6001600160a01b039081166000908152602081905260409020541690565b6001600160a01b0382166000908152600660205260408120818360058111156108ca57fe5b60058111156108d557fe5b815260208101919091526040016000205460ff1690505b92915050565b6103ca338585858080601f01602080910402602001604051908101604052809392919081815260200183838082843760009201919091525087925060019150610fdb9050565b60006109433361179d565b33600090815260076020908152604091829020805483518184028101840190945280845293945060609390918301828280156109a857602002820191906000526020600020905b81546001600160a01b0316815260019091019060200180831161098a575b5050505050905060005b81518110156103ca578181815181106109c757fe5b60200260200101516001600160a01b0316633146d05833856040518363ffffffff1660e01b81526004016109fc92919061352f565b600060405180830381600087803b158015610a1657600080fd5b505af1158015610a2a573d6000803e3d6000fd5b5050600190920191506109b29050565b60007f00000000000000000000000000000000000000000000000000000000000000006001600160a01b031663893d20e86040518163ffffffff1660e01b815260040160206040518083038186803b158015610a9557600080fd5b505afa158015610aa9573d6000803e3d6000fd5b505050506040513d601f19601f82011682018060405250810190610acd91906129a6565b905090565b606080610ae183850185612b85565b915091508051825114610b065760405162461bcd60e51b81526004016103c19061370c565b610b0f82611943565b610b2b5760405162461bcd60e51b81526004016103c19061374c565b60005b8251811015610cca57610b53838281518110610b4657fe5b6020026020010151610cf5565b610b6f5760405162461bcd60e51b81526004016103c1906136ac565b828181518110610b7b57fe5b60200260200101516001600160a01b0316630f5f6b4f33848481518110610b9e57fe5b60200260200101516040518363ffffffff1660e01b8152600401610bc392919061354a565b600060405180830381600087803b158015610bdd57600080fd5b505af1158015610bf1573d6000803e3d6000fd5b5050336000908152600760205260409020855190925085915083908110610c1457fe5b60209081029190910181015182546001810184556000938452919092200180546001600160a01b0319166001600160a01b039092169190911790558251839082908110610c5d57fe5b60200260200101516001600160a01b0316336001600160a01b03167f62b7814f137868e44c7a83c2b0a340fc5dacef8f3e748867d0f5f879fc0ef6da848481518110610ca557fe5b6020026020010151604051610cba919061366d565b60405180910390a3600101610b2e565b5050505050565b7f000000000000000000000000000000000000000000000000000000000000000090565b60006108ec6001836119d7565b6001600160a01b038116600090815260076020908152604091829020805483518184028101840190945280845260609392830182828015610d6c57602002820191906000526020600020905b81546001600160a01b03168152600190910190602001808311610d4e575b50505050509050919050565b6001600160a01b03918216600090815260086020908152604080832093909416825291909152205490565b610dc133600060405180602001604052806000815250600080610fdb565b610dca336119ec565b610dd333611c26565b565b610ddd610a3a565b6001600160a01b0316336001600160a01b031614610e0d5760405162461bcd60e51b81526004016103c1906136bc565b80610e2a5760405162461bcd60e51b81526004016103c19061375c565b60005b8181101561084257610e4483838381811061043f57fe5b610e605760405162461bcd60e51b81526004016103c19061378c565b610e8c838383818110610e6f57fe5b9050602002016020810190610e849190612980565b600190611c6e565b50828282818110610e9957fe5b9050602002016020810190610eae9190612980565b6001600160a01b0316637998a1c46040518163ffffffff1660e01b815260040160006040518083038186803b158015610ee657600080fd5b505afa158015610efa573d6000803e3d6000fd5b505050506040513d6000823e601f3d908101601f19168201604052610f229190810190612d81565b604051610f2f9190613515565b6040518091039020838383818110610f4357fe5b9050602002016020810190610f589190612980565b6001600160a01b03167f3a9db4e30d2c448ca18bdd1a6c2e611b9f28cee12f4f6faf79722a0ea2d7242360405160405180910390a3600101610e2d565b6001600160a01b0382166000908152600560208190526040822090829084908111156108ca57fe5b60006108ec82611c83565b6000610fd48383611c87565b9392505050565b6001600160a01b03851660009081526007602090815260409182902080548351818402810184019094528084526060939283018282801561104557602002820191906000526020600020905b81546001600160a01b03168152600190910190602001808311611027575b5050505050905080516000141561105c5750610cca565b600061106787610887565b90506001600160a01b03811661108f5760405162461bcd60e51b81526004016103c1906137bc565b600061109f8883858a8a8a611ccc565b905083156110b5576110b58883858a8a86611d54565b5050505050505050565b6060818060200190518101906110d59190612b51565b905060006110e233610887565b90507f00000000000000000000000000000000000000000000000000000000000000006001600160a01b0316631d68702d6040518163ffffffff1660e01b815260040160206040518083038186803b15801561113d57600080fd5b505afa158015611151573d6000803e3d6000fd5b505050506040513d601f19601f8201168201806040525081019061117591906129a6565b600a60006101000a8154816001600160a01b0302191690836001600160a01b031602179055507f00000000000000000000000000000000000000000000000000000000000000006001600160a01b0316636df1bb4e6040518163ffffffff1660e01b815260040160206040518083038186803b1580156111f457600080fd5b505afa158015611208573d6000803e3d6000fd5b505050506040513d601f19601f8201168201806040525081019061122c9190612db5565b600955600080805b84518110156116c45784818151811061124957fe5b60200260200101516001600160a01b031663b78b481388866040518363ffffffff1660e01b815260040161127e92919061356a565b602060405180830381600087803b15801561129857600080fd5b505af11580156112ac573d6000803e3d6000fd5b505050506040513d601f19601f820116820180604052508101906112d09190612c8e565b6112d9576116bc565b6001600160a01b03871660009081526008602052604081208651829088908590811061130157fe5b60200260200101516001600160a01b03166001600160a01b03168152602001908152602001600020549050806000141561133b57506116bc565b60006113ef87848151811061134c57fe5b60200260200101516001600160a01b0316637998a1c46040518163ffffffff1660e01b815260040160006040518083038186803b15801561138c57600080fd5b505afa1580156113a0573d6000803e3d6000fd5b505050506040513d6000823e601f3d908101601f191682016040526113c89190810190612d81565b6040518060400160405280600981526020016853545245414d494e4760b81b815250611e1b565b156114035750806114008180611e74565b91505b6114b787848151811061141257fe5b60200260200101516001600160a01b0316637998a1c46040518163ffffffff1660e01b815260040160006040518083038186803b15801561145257600080fd5b505afa158015611466573d6000803e3d6000fd5b505050506040513d6000823e601f3d908101601f1916820160405261148e9190810190612d81565b6040518060400160405280600b81526020016a504552464f524d414e434560a81b815250611e1b565b156114f2576114e3670de0b6b3a76400006114dd60095485611e9c90919063ffffffff16565b90611ed6565b90506114ef8282611e74565b91505b6115ad87848151811061150157fe5b60200260200101516001600160a01b0316637998a1c46040518163ffffffff1660e01b815260040160006040518083038186803b15801561154157600080fd5b505afa158015611555573d6000803e3d6000fd5b505050506040513d6000823e601f3d908101601f1916820160405261157d9190810190612d81565b60405180604001604052806012815260200171504552464f524d414e43455f485552444c4560701b815250611e1b565b156115e2576115d3670de0b6b3a76400006114dd60095485611e9c90919063ffffffff16565b90506115df8282611e74565b91505b6115ec8583611f08565b94506115f88482611f08565b93506000600860008b6001600160a01b03166001600160a01b03168152602001908152602001600020600089868151811061162f57fe5b60200260200101516001600160a01b03166001600160a01b031681526020019081526020016000208190555086838151811061166757fe5b60200260200101516001600160a01b0316896001600160a01b03167fcda32f0422c94049db811f90e9e3e2537f709654eeb3e087d70a5e33916df9a5846040516116b191906137cc565b60405180910390a350505b600101611234565b508115611747576117478684856001600160a01b031663893d20e86040518163ffffffff1660e01b815260040160206040518083038186803b15801561170957600080fd5b505afa15801561171d573d6000803e3d6000fd5b505050506040513d601f19601f8201168201806040525081019061174191906129a6565b85611f2d565b6000811180156117615750600a546001600160a01b031615155b1561178057600a5461178090879085906001600160a01b031684611f2d565b505050505050565b6000610fd4836001600160a01b038416611fad565b6001600160a01b03818116600090815260208190526040812054909116156117d75760405162461bcd60e51b81526004016103c19061369c565b816001600160a01b031663c98091876040518163ffffffff1660e01b815260040160206040518083038186803b15801561181057600080fd5b505afa158015611824573d6000803e3d6000fd5b505050506040513d601f19601f8201168201806040525081019061184891906129a6565b90506001600160a01b0381166118705760405162461bcd60e51b81526004016103c1906136cc565b806001600160a01b0316635a53e3486040518163ffffffff1660e01b815260040160206040518083038186803b1580156118a957600080fd5b505afa1580156118bd573d6000803e3d6000fd5b505050506040513d601f19601f820116820180604052508101906118e191906129a6565b6001600160a01b0316826001600160a01b0316146119115760405162461bcd60e51b81526004016103c19061373c565b6001600160a01b03918216600090815260208190526040902080546001600160a01b0319169282169290921790915590565b6000600182511161195657506001610864565b815160005b818110156119cd57600181015b828110156119c45784818151811061197c57fe5b60200260200101516001600160a01b031685838151811061199957fe5b60200260200101516001600160a01b031614156119bc5760009350505050610864565b600101611968565b5060010161195b565b5060019392505050565b6000610fd4836001600160a01b038416611ff7565b60006119f782610887565b90506000816001600160a01b03166370a08231836040518263ffffffff1660e01b8152600401611a279190613521565b60206040518083038186803b158015611a3f57600080fd5b505afa158015611a53573d6000803e3d6000fd5b505050506040513d601f19601f82011682018060405250810190611a779190612db5565b905080611a85575050611c23565b6001600160a01b038316600090815260076020908152604091829020805483518184028101840190945280845260609392830182828015611aef57602002820191906000526020600020905b81546001600160a01b03168152600190910190602001808311611ad1575b5050505050905060005b8151811015611b59576001600160a01b03851660009081526008602052604081208351909190849084908110611b2b57fe5b6020908102919091018101516001600160a01b03168252810191909152604001600090812055600101611af9565b506000836001600160a01b031663893d20e86040518163ffffffff1660e01b815260040160206040518083038186803b158015611b9557600080fd5b505afa158015611ba9573d6000803e3d6000fd5b505050506040513d601f19601f82011682018060405250810190611bcd91906129a6565b9050611bdb85858386611f2d565b846001600160a01b03167fe1ddc13838bdb841a7c5c11b6f7c9bde7199c71756f2ba118de8cf3e036b91f68285604051611c169291906135e9565b60405180910390a2505050505b50565b6001600160a01b0381166000908152600760205260408120611c47916125b0565b6001600160a01b0316600090815260208190526040902080546001600160a01b0319169055565b6000610fd4836001600160a01b03841661200f565b5490565b81546000908210611caa5760405162461bcd60e51b81526004016103c19061368c565b826000018281548110611cb957fe5b9060005260206000200154905092915050565b8060005b8551811015611d4857611cf6868281518110611ce857fe5b602002602001015186610f95565b611cff57611d40565b611d1d88878381518110611d0f57fe5b6020026020010151846120d5565b9150611d408888888481518110611d3057fe5b602002602001015188888761219e565b600101611cd0565b505b9695505050505050565b8060005b85518110156110b557611d7e868281518110611d7057fe5b6020026020010151866108a5565b611d8757611e13565b611d9788878381518110611d0f57fe5b9150858181518110611da557fe5b60200260200101516001600160a01b031663233faf5f89898888876040518663ffffffff1660e01b8152600401611de0959493929190613578565b600060405180830381600087803b158015611dfa57600080fd5b505af1158015611e0e573d6000803e3d6000fd5b505050505b600101611d58565b600081604051602001611e2e9190613515565b6040516020818303038152906040528051906020012083604051602001611e559190613515565b6040516020818303038152906040528051906020012014905092915050565b600082821115611e965760405162461bcd60e51b81526004016103c1906136fc565b50900390565b600082611eab575060006108ec565b82820282848281611eb857fe5b0414610fd45760405162461bcd60e51b81526004016103c19061376c565b6000808211611ef75760405162461bcd60e51b81526004016103c19061372c565b818381611f0057fe5b049392505050565b600082820183811015610fd45760405162461bcd60e51b81526004016103c1906136dc565b836001600160a01b03166310acd06d6003858585604051602001611f53939291906135c1565b6040516020818303038152906040526040518363ffffffff1660e01b8152600401611f7f92919061367e565b600060405180830381600087803b158015611f9957600080fd5b505af11580156110b5573d6000803e3d6000fd5b6000611fb98383611ff7565b611fef575081546001818101845560008481526020808220909301849055845484825282860190935260409020919091556108ec565b5060006108ec565b60009081526001919091016020526040902054151590565b600081815260018301602052604081205480156120cb578354600019808301919081019060009087908390811061204257fe5b906000526020600020015490508087600001848154811061205f57fe5b60009182526020808320909101929092558281526001898101909252604090209084019055865487908061208f57fe5b600190038181906000526020600020016000905590558660010160008781526020019081526020016000206000905560019450505050506108ec565b60009150506108ec565b6000811580156120e957506120e983610869565b1561219757604051637a89e49360e11b81526000906001600160a01b0386169063f513c9269061211e9060019060040161365f565b6040805180830381600087803b15801561213757600080fd5b505af115801561214b573d6000803e3d6000fd5b505050506040513d601f19601f8201168201806040525081019061216f9190612dd3565b9092509050806121915760405162461bcd60e51b81526004016103c19061371c565b50610fd4565b5092915050565b6000806000866001600160a01b03166341892d7e8a8a8989896040518663ffffffff1660e01b81526004016121d7959493929190613578565b606060405180830381600087803b1580156121f157600080fd5b505af1158015612205573d6000803e3d6000fd5b505050506040513d601f19601f820116820180604052508101906122299190612d3e565b91945092509050600083600581111561223e57fe5b141561224c57505050611780565b6000600184600581111561225c57fe5b14156122e657886001600160a01b031663893d20e86040518163ffffffff1660e01b815260040160206040518083038186803b15801561229b57600080fd5b505afa1580156122af573d6000803e3d6000fd5b505050506040513d601f19601f820116820180604052508101906122d391906129a6565b90506122e18a848385611f2d565b61249e565b60028460058111156122f457fe5b141561237857886001600160a01b031663893d20e86040518163ffffffff1660e01b815260040160206040518083038186803b15801561233357600080fd5b505afa158015612347573d6000803e3d6000fd5b505050506040513d601f19601f8201168201806040525081019061236b91906129a6565b90506122e18a8284612505565b600384600581111561238657fe5b1415612397576122e18a848461258c565b60048460058111156123a557fe5b141561240e576001600160a01b03808b166000908152600860209081526040808320938c16835292905220546123db9083611f08565b6001600160a01b03808c166000908152600860209081526040808320938d168352929052205550876122e18a8284612505565b600584600581111561241c57fe5b1415612486576001600160a01b03808b166000908152600860209081526040808320938c16835292905220546124529083611e74565b6001600160a01b03808c166000908152600860209081526040808320938d16835292905220558892506122e18a848461258c565b60405162461bcd60e51b81526004016103c19061379c565b8360058111156124aa57fe5b886001600160a01b03168b6001600160a01b03167fef7da7c40d1fc52df907f6fed0e539680d5fb491c3b8f94db234a360dafe1d628685876040516124f1939291906135c1565b60405180910390a450505050505050505050565b826001600160a01b03166310acd06d600284846040516020016125299291906135e9565b6040516020818303038152906040526040518363ffffffff1660e01b815260040161255592919061367e565b600060405180830381600087803b15801561256f57600080fd5b505af1158015612583573d6000803e3d6000fd5b50505050505050565b826001600160a01b03166310acd06d600184846040516020016125299291906135e9565b5080546000825590600052602060002090810190611c2391905b8082111561033357600081556001016125ca565b80356108ec8161390f565b80516108ec8161390f565b60008083601f84011261260657600080fd5b5081356001600160401b0381111561261d57600080fd5b60208301915083602082028301111561263557600080fd5b9250929050565b600082601f83011261264d57600080fd5b813561266061265b82613800565b6137da565b9150818183526020840193506020810190508385602084028201111561268557600080fd5b60005b838110156126b1578161269b88826125de565b8452506020928301929190910190600101612688565b5050505092915050565b600082601f8301126126cc57600080fd5b81516126da61265b82613800565b915081818352602084019350602081019050838560208402820111156126ff57600080fd5b60005b838110156126b1578161271588826125e9565b8452506020928301929190910190600101612702565b600082601f83011261273c57600080fd5b813561274a61265b82613800565b81815260209384019390925082018360005b838110156126b1578135860161277288826128bf565b845250602092830192919091019060010161275c565b600082601f83011261279957600080fd5b81516127a761265b82613800565b915081818352602084019350602081019050838560208402820111156127cc57600080fd5b60005b838110156126b157816127e28882612919565b84525060209283019291909101906001016127cf565b600082601f83011261280957600080fd5b813561281761265b82613800565b9150818183526020840193506020810190508385602084028201111561283c57600080fd5b60005b838110156126b15781612852888261296a565b845250602092830192919091019060010161283f565b80356108ec81613923565b80516108ec81613923565b60008083601f84011261289057600080fd5b5081356001600160401b038111156128a757600080fd5b60208301915083600182028301111561263557600080fd5b600082601f8301126128d057600080fd5b81356128de61265b82613820565b915080825260208301602083018583830111156128fa57600080fd5b6129058382846138b9565b50505092915050565b80356108ec8161392c565b80516108ec8161392c565b600082601f83011261293557600080fd5b815161294361265b82613820565b9150808252602083016020830185838301111561295f57600080fd5b6129058382846138c5565b80356108ec81613939565b80516108ec81613939565b60006020828403121561299257600080fd5b600061299e84846125de565b949350505050565b6000602082840312156129b857600080fd5b600061299e84846125e9565b600080604083850312156129d757600080fd5b60006129e385856125de565b92505060206129f4858286016125de565b9150509250929050565b600080600060608486031215612a1357600080fd5b6000612a1f86866125de565b93505060208401356001600160401b03811115612a3b57600080fd5b612a47868287016127f8565b92505060408401356001600160401b03811115612a6357600080fd5b612a6f8682870161263c565b9150509250925092565b60008060408385031215612a8c57600080fd5b6000612a9885856125de565b92505060206129f48582860161290e565b60008060008060608587031215612abf57600080fd5b6000612acb87876125de565b9450506020612adc8782880161296a565b93505060408501356001600160401b03811115612af857600080fd5b612b048782880161287e565b95989497509550505050565b60008060208385031215612b2357600080fd5b82356001600160401b03811115612b3957600080fd5b612b45858286016125f4565b92509250509250929050565b600060208284031215612b6357600080fd5b81516001600160401b03811115612b7957600080fd5b61299e848285016126bb565b60008060408385031215612b9857600080fd5b82356001600160401b03811115612bae57600080fd5b612bba8582860161263c565b92505060208301356001600160401b03811115612bd657600080fd5b6129f48582860161272b565b60008060008060808587031215612bf857600080fd5b84516001600160401b03811115612c0e57600080fd5b612c1a87828801612788565b94505060208501516001600160401b03811115612c3657600080fd5b612c4287828801612788565b9350506040612c5387828801612873565b9250506060612c6487828801612873565b91505092959194509250565b600060208284031215612c8257600080fd5b600061299e8484612868565b600060208284031215612ca057600080fd5b600061299e8484612873565b60008060208385031215612cbf57600080fd5b82356001600160401b03811115612cd557600080fd5b612b458582860161287e565b60008060008060608587031215612cf757600080fd5b6000612d03878761290e565b94505060208501356001600160401b03811115612d1f57600080fd5b612d2b8782880161287e565b93509350506040612c648782880161296a565b600080600060608486031215612d5357600080fd5b6000612d5f8686612919565b9350506020612d70868287016125e9565b9250506040612a6f86828701612975565b600060208284031215612d9357600080fd5b81516001600160401b03811115612da957600080fd5b61299e84828501612924565b600060208284031215612dc757600080fd5b600061299e8484612975565b60008060408385031215612de657600080fd5b6000612df28585612975565b92505060206129f485828601612873565b6000612e0f8383612e32565b505060200190565b6000612e0f8383612f23565b612e2c8161388d565b82525050565b612e2c8161385a565b6000612e468261384d565b612e508185613851565b9350612e5b83613847565b8060005b83811015612e89578151612e738882612e03565b9750612e7e83613847565b925050600101612e5f565b509495945050505050565b6000612e9f8261384d565b612ea98185613851565b9350612eb483613847565b8060005b83811015612e89578151612ecc8882612e17565b9750612ed783613847565b925050600101612eb8565b612e2c81613865565b6000612ef68261384d565b612f008185613851565b9350612f108185602086016138c5565b612f19816138f1565b9093019392505050565b612e2c81613898565b612e2c816138a3565b6000612f408261384d565b612f4a8185610864565b9350612f5a8185602086016138c5565b9290920192915050565b6000612f71602283613851565b7f456e756d657261626c655365743a20696e646578206f7574206f6620626f756e815261647360f01b602082015260400192915050565b6000612fb5602583613851565b7f5f5f73657456616c6964617465645661756c7450726f78793a20416c726561648152641e481cd95d60da1b602082015260400192915050565b6000612ffc602783613851565b7f736574436f6e666967466f7246756e643a20466565206973206e6f74207265678152661a5cdd195c995960ca1b602082015260400192915050565b6000613045604983613851565b7f6f6e6c7946756e644465706c6f7965724f776e65723a204f6e6c79207468652081527f46756e644465706c6f796572206f776e65722063616e2063616c6c207468697360208201526810333ab731ba34b7b760b91b604082015260600192915050565b60006130b6602c83613851565b7f5f5f73657456616c6964617465645661756c7450726f78793a204d697373696e81526b67207661756c7450726f787960a01b602082015260400192915050565b6000613104601b83613851565b7f536166654d6174683a206164646974696f6e206f766572666c6f770000000000815260200192915050565b600061313d602d83613851565b7f7265636569766543616c6c46726f6d436f6d7074726f6c6c65723a20496e766181526c1b1a590817d858dd1a5bdb9259609a1b602082015260400192915050565b600061318c601e83613851565b7f536166654d6174683a207375627472616374696f6e206f766572666c6f770000815260200192915050565b60006131c5603d83613851565b7f736574436f6e666967466f7246756e643a206665657320616e6420736574746981527f6e677344617461206172726179206c656e6774687320756e657175616c000000602082015260400192915050565b6000613224602083613851565b7f5f5f67657447617641734e65636573736172793a20496e76616c696420474156815260200192915050565b600061325d601a83613851565b7f536166654d6174683a206469766973696f6e206279207a65726f000000000000815260200192915050565b6000613296603583613851565b7f5f5f73657456616c6964617465645661756c7450726f78793a204e6f7420746881527432902b30bab63a283937bc3c9030b1b1b2b9b9b7b960591b602082015260400192915050565b60006132ed603083613851565b7f736574436f6e666967466f7246756e643a20666565732063616e6e6f7420696e81526f636c756465206475706c69636174657360801b602082015260400192915050565b600061333f602583613851565b7f64657265676973746572466565733a205f666565732063616e6e6f7420626520815264656d70747960d81b602082015260400192915050565b6000613386602183613851565b7f536166654d6174683a206d756c7469706c69636174696f6e206f766572666c6f8152607760f81b602082015260400192915050565b60006133c9602483613851565b7f7265676973746572466565733a2066656520616c726561647920726567697374815263195c995960e21b602082015260400192915050565b600061340f602583613851565b7f64657265676973746572466565733a20666565206973206e6f742072656769738152641d195c995960da1b602082015260400192915050565b6000613456602383613851565b7f5f5f736574746c654665653a20496e76616c696420536574746c656d656e745481526279706560e81b602082015260400192915050565b600061349b602383613851565b7f7265676973746572466565733a205f666565732063616e6e6f7420626520656d81526270747960e81b602082015260400192915050565b60006134e0602083613851565b7f5f5f696e766f6b65486f6f6b3a2046756e64206973206e6f7420616374697665815260200192915050565b612e2c8161388a565b6000610fd48284612f35565b602081016108ec8284612e32565b6040810161353d8285612e23565b610fd46020830184612e32565b604081016135588285612e23565b818103602083015261299e8184612eeb565b6040810161353d8285612e32565b60a081016135868288612e32565b6135936020830187612e32565b6135a06040830186612f23565b81810360608301526135b28185612eeb565b9050611d4a608083018461350c565b606081016135cf8286612e32565b6135dc6020830185612e32565b61299e604083018461350c565b604081016135f78285612e32565b610fd4602083018461350c565b60208082528101610fd48184612e3b565b608080825281016136268187612e94565b9050818103602083015261363a8186612e94565b90506136496040830185612ee2565b6136566060830184612ee2565b95945050505050565b602081016108ec8284612ee2565b60208082528101610fd48184612eeb565b604081016135588285612f2c565b602080825281016108ec81612f64565b602080825281016108ec81612fa8565b602080825281016108ec81612fef565b602080825281016108ec81613038565b602080825281016108ec816130a9565b602080825281016108ec816130f7565b602080825281016108ec81613130565b602080825281016108ec8161317f565b602080825281016108ec816131b8565b602080825281016108ec81613217565b602080825281016108ec81613250565b602080825281016108ec81613289565b602080825281016108ec816132e0565b602080825281016108ec81613332565b602080825281016108ec81613379565b602080825281016108ec816133bc565b602080825281016108ec81613402565b602080825281016108ec81613449565b602080825281016108ec8161348e565b602080825281016108ec816134d3565b602081016108ec828461350c565b6040518181016001600160401b03811182821017156137f857600080fd5b604052919050565b60006001600160401b0382111561381657600080fd5b5060209081020190565b60006001600160401b0382111561383657600080fd5b506020601f91909101601f19160190565b60200190565b5190565b90815260200190565b60006108ec8261387e565b151590565b80610864816138fb565b8061086481613905565b6001600160a01b031690565b90565b60006108ec826138ae565b60006108ec8261386a565b60006108ec82613874565b60006108ec8261385a565b82818337506000910152565b60005b838110156138e05781810151838201526020016138c8565b838111156103ca5750506000910152565b601f01601f191690565b60068110611c2357fe5b60088110611c2357fe5b6139188161385a565b8114611c2357600080fd5b61391881613865565b60068110611c2357600080fd5b6139188161388a56fea26469706673582212200d6ea2ca695fa57283629019e3d96f73c9c882bf01164678a3be62e249ede0b864736f6c634300060c0033",
  "devdoc": {
    "kind": "dev",
    "methods": {
      "deactivateForFund()": {
        "details": "msg.sender is validated during __invokeHook()"
      },
      "deregisterFees(address[])": {
        "params": {
          "_fees": "Addresses of fees to be deregistered"
        }
      },
      "feeSettlesOnHook(address,uint8)": {
        "params": {
          "_fee": "The address of the fee to check",
          "_hook": "The FeeHook to check"
        },
        "returns": {
          "settlesOnHook_": "True if the fee settles on the given hook"
        }
      },
      "feeUpdatesOnHook(address,uint8)": {
        "params": {
          "_fee": "The address of the fee to check",
          "_hook": "The FeeHook to check"
        },
        "returns": {
          "updatesOnHook_": "True if the fee updates on the given hook"
        }
      },
      "feeUsesGavOnSettle(address)": {
        "params": {
          "_fee": "The address of the fee to check"
        },
        "returns": {
          "usesGav_": "True if the fee uses GAV during settle() implementation"
        }
      },
      "feeUsesGavOnUpdate(address)": {
        "params": {
          "_fee": "The address of the fee to check"
        },
        "returns": {
          "usesGav_": "True if the fee uses GAV during update() implementation"
        }
      },
      "getEnabledFeesForFund(address)": {
        "params": {
          "_comptrollerProxy": "The ComptrollerProxy of the fund"
        },
        "returns": {
          "enabledFees_": "An array of enabled fee addresses"
        }
      },
      "getFeeSharesOutstandingForFund(address,address)": {
        "params": {
          "_comptrollerProxy": "The ComptrollerProxy of the fund",
          "_fee": "The fee address"
        },
        "returns": {
          "sharesOutstanding_": "The amount of shares outstanding"
        }
      },
      "getFundDeployer()": {
        "returns": {
          "fundDeployer_": "The `FUND_DEPLOYER` variable value"
        }
      },
      "getOwner()": {
        "details": "Ownership is deferred to the owner of the FundDeployer contract",
        "returns": {
          "owner_": "The owner"
        }
      },
      "getRegisteredFees()": {
        "returns": {
          "registeredFees_": "A list of all registered fee addresses"
        }
      },
      "getVaultProxyForFund(address)": {
        "params": {
          "_comptrollerProxy": "The ComptrollerProxy of the fund"
        },
        "returns": {
          "vaultProxy_": "The VaultProxy of the fund"
        }
      },
      "invokeHook(uint8,bytes,uint256)": {
        "params": {
          "_gav": "The GAV for a fund if known in the invocating code, otherwise 0",
          "_hook": "The FeeHook to invoke",
          "_settlementData": "The encoded settlement parameters specific to the FeeHook"
        }
      },
      "isRegisteredFee(address)": {
        "params": {
          "_fee": "The address of the fee to check"
        },
        "returns": {
          "isRegisteredFee_": "True if the fee is registered"
        }
      },
      "receiveCallFromComptroller(address,uint256,bytes)": {
        "details": "This is the only way to call a function on this contract that updates VaultProxy state. For both of these actions, any caller is allowed, so we don't use the caller param.",
        "params": {
          "_actionId": "An ID representing the desired action",
          "_callArgs": "Encoded arguments specific to the _actionId"
        }
      },
      "registerFees(address[])": {
        "details": "Stores the hooks that a fee implements and whether each implementation uses GAV, which fronts the gas for calls to check if a hook is implemented, and guarantees that these hook implementation return values do not change post-registration.",
        "params": {
          "_fees": "Addresses of fees to be registered"
        }
      },
      "setConfigForFund(bytes)": {
        "details": "Caller is expected to be a valid ComptrollerProxy, but there isn't a need to validate. The order of `fees` determines the order in which fees of the same FeeHook will be applied. It is recommended to run ManagementFee before PerformanceFee in order to achieve precise PerformanceFee calcs.",
        "params": {
          "_configData": "Encoded config data"
        }
      }
    },
    "title": "FeeManager Contract",
    "version": 1
  },
  "userdoc": {
    "kind": "user",
    "methods": {
      "activateForFund(bool)": {
        "notice": "Activate already-configured fees for use in the calling fund"
      },
      "deactivateForFund()": {
        "notice": "Deactivate fees for a fund"
      },
      "deregisterFees(address[])": {
        "notice": "Remove fees from the list of registered fees"
      },
      "feeSettlesOnHook(address,uint8)": {
        "notice": "Checks if a fee implements settle() on a particular hook"
      },
      "feeUpdatesOnHook(address,uint8)": {
        "notice": "Checks if a fee implements update() on a particular hook"
      },
      "feeUsesGavOnSettle(address)": {
        "notice": "Checks if a fee uses GAV in its settle() implementation"
      },
      "feeUsesGavOnUpdate(address)": {
        "notice": "Checks if a fee uses GAV in its update() implementation"
      },
      "getEnabledFeesForFund(address)": {
        "notice": "Get a list of enabled fees for a given fund"
      },
      "getFeeSharesOutstandingForFund(address,address)": {
        "notice": "Get the amount of shares outstanding for a particular fee for a fund"
      },
      "getFundDeployer()": {
        "notice": "Gets the `FUND_DEPLOYER` variable"
      },
      "getOwner()": {
        "notice": "Gets the owner of this contract"
      },
      "getRegisteredFees()": {
        "notice": "Get all registered fees"
      },
      "getVaultProxyForFund(address)": {
        "notice": "Gets the verified VaultProxy for a given ComptrollerProxy"
      },
      "invokeHook(uint8,bytes,uint256)": {
        "notice": "Allows all fees for a particular FeeHook to implement settle() and update() logic"
      },
      "isRegisteredFee(address)": {
        "notice": "Check whether a fee is registered"
      },
      "receiveCallFromComptroller(address,uint256,bytes)": {
        "notice": "Receives a dispatched `callOnExtension` from a fund's ComptrollerProxy"
      },
      "registerFees(address[])": {
        "notice": "Add fees to the list of registered fees"
      },
      "setConfigForFund(bytes)": {
        "notice": "Enable and configure fees for use in the calling fund"
      }
    },
    "notice": "Manages fees for funds",
    "version": 1
  },
  "storageLayout": {
    "storage": [
      {
        "astId": 31995,
        "contract": "contracts/release/extensions/fee-manager/FeeManager.sol:FeeManager",
        "label": "comptrollerProxyToVaultProxy",
        "offset": 0,
        "slot": "0",
        "type": "t_mapping(t_address,t_address)"
      },
      {
        "astId": 13801,
        "contract": "contracts/release/extensions/fee-manager/FeeManager.sol:FeeManager",
        "label": "registeredFees",
        "offset": 0,
        "slot": "1",
        "type": "t_struct(AddressSet)2091_storage"
      },
      {
        "astId": 13805,
        "contract": "contracts/release/extensions/fee-manager/FeeManager.sol:FeeManager",
        "label": "feeToUsesGavOnSettle",
        "offset": 0,
        "slot": "3",
        "type": "t_mapping(t_address,t_bool)"
      },
      {
        "astId": 13809,
        "contract": "contracts/release/extensions/fee-manager/FeeManager.sol:FeeManager",
        "label": "feeToUsesGavOnUpdate",
        "offset": 0,
        "slot": "4",
        "type": "t_mapping(t_address,t_bool)"
      },
      {
        "astId": 13815,
        "contract": "contracts/release/extensions/fee-manager/FeeManager.sol:FeeManager",
        "label": "feeToHookToImplementsSettle",
        "offset": 0,
        "slot": "5",
        "type": "t_mapping(t_address,t_mapping(t_enum(FeeHook)15339,t_bool))"
      },
      {
        "astId": 13821,
        "contract": "contracts/release/extensions/fee-manager/FeeManager.sol:FeeManager",
        "label": "feeToHookToImplementsUpdate",
        "offset": 0,
        "slot": "6",
        "type": "t_mapping(t_address,t_mapping(t_enum(FeeHook)15339,t_bool))"
      },
      {
        "astId": 13826,
        "contract": "contracts/release/extensions/fee-manager/FeeManager.sol:FeeManager",
        "label": "comptrollerProxyToFees",
        "offset": 0,
        "slot": "7",
        "type": "t_mapping(t_address,t_array(t_address)dyn_storage)"
      },
      {
        "astId": 13832,
        "contract": "contracts/release/extensions/fee-manager/FeeManager.sol:FeeManager",
        "label": "comptrollerProxyToFeeToSharesOutstanding",
        "offset": 0,
        "slot": "8",
        "type": "t_mapping(t_address,t_mapping(t_address,t_uint256))"
      },
      {
        "astId": 13836,
        "contract": "contracts/release/extensions/fee-manager/FeeManager.sol:FeeManager",
        "label": "feePerform",
        "offset": 0,
        "slot": "9",
        "type": "t_uint256"
      },
      {
        "astId": 13838,
        "contract": "contracts/release/extensions/fee-manager/FeeManager.sol:FeeManager",
        "label": "daoAddress",
        "offset": 0,
        "slot": "10",
        "type": "t_address"
      }
    ],
    "types": {
      "t_address": {
        "encoding": "inplace",
        "label": "address",
        "numberOfBytes": "20"
      },
      "t_array(t_address)dyn_storage": {
        "base": "t_address",
        "encoding": "dynamic_array",
        "label": "address[]",
        "numberOfBytes": "32"
      },
      "t_array(t_bytes32)dyn_storage": {
        "base": "t_bytes32",
        "encoding": "dynamic_array",
        "label": "bytes32[]",
        "numberOfBytes": "32"
      },
      "t_bool": {
        "encoding": "inplace",
        "label": "bool",
        "numberOfBytes": "1"
      },
      "t_bytes32": {
        "encoding": "inplace",
        "label": "bytes32",
        "numberOfBytes": "32"
      },
      "t_enum(FeeHook)15339": {
        "encoding": "inplace",
        "label": "enum IFeeManager.FeeHook",
        "numberOfBytes": "1"
      },
      "t_mapping(t_address,t_address)": {
        "encoding": "mapping",
        "key": "t_address",
        "label": "mapping(address => address)",
        "numberOfBytes": "32",
        "value": "t_address"
      },
      "t_mapping(t_address,t_array(t_address)dyn_storage)": {
        "encoding": "mapping",
        "key": "t_address",
        "label": "mapping(address => address[])",
        "numberOfBytes": "32",
        "value": "t_array(t_address)dyn_storage"
      },
      "t_mapping(t_address,t_bool)": {
        "encoding": "mapping",
        "key": "t_address",
        "label": "mapping(address => bool)",
        "numberOfBytes": "32",
        "value": "t_bool"
      },
      "t_mapping(t_address,t_mapping(t_address,t_uint256))": {
        "encoding": "mapping",
        "key": "t_address",
        "label": "mapping(address => mapping(address => uint256))",
        "numberOfBytes": "32",
        "value": "t_mapping(t_address,t_uint256)"
      },
      "t_mapping(t_address,t_mapping(t_enum(FeeHook)15339,t_bool))": {
        "encoding": "mapping",
        "key": "t_address",
        "label": "mapping(address => mapping(enum IFeeManager.FeeHook => bool))",
        "numberOfBytes": "32",
        "value": "t_mapping(t_enum(FeeHook)15339,t_bool)"
      },
      "t_mapping(t_address,t_uint256)": {
        "encoding": "mapping",
        "key": "t_address",
        "label": "mapping(address => uint256)",
        "numberOfBytes": "32",
        "value": "t_uint256"
      },
      "t_mapping(t_bytes32,t_uint256)": {
        "encoding": "mapping",
        "key": "t_bytes32",
        "label": "mapping(bytes32 => uint256)",
        "numberOfBytes": "32",
        "value": "t_uint256"
      },
      "t_mapping(t_enum(FeeHook)15339,t_bool)": {
        "encoding": "mapping",
        "key": "t_enum(FeeHook)15339",
        "label": "mapping(enum IFeeManager.FeeHook => bool)",
        "numberOfBytes": "32",
        "value": "t_bool"
      },
      "t_struct(AddressSet)2091_storage": {
        "encoding": "inplace",
        "label": "struct EnumerableSet.AddressSet",
        "members": [
          {
            "astId": 2090,
            "contract": "contracts/release/extensions/fee-manager/FeeManager.sol:FeeManager",
            "label": "_inner",
            "offset": 0,
            "slot": "0",
            "type": "t_struct(Set)1826_storage"
          }
        ],
        "numberOfBytes": "64"
      },
      "t_struct(Set)1826_storage": {
        "encoding": "inplace",
        "label": "struct EnumerableSet.Set",
        "members": [
          {
            "astId": 1821,
            "contract": "contracts/release/extensions/fee-manager/FeeManager.sol:FeeManager",
            "label": "_values",
            "offset": 0,
            "slot": "0",
            "type": "t_array(t_bytes32)dyn_storage"
          },
          {
            "astId": 1825,
            "contract": "contracts/release/extensions/fee-manager/FeeManager.sol:FeeManager",
            "label": "_indexes",
            "offset": 0,
            "slot": "1",
            "type": "t_mapping(t_bytes32,t_uint256)"
          }
        ],
        "numberOfBytes": "64"
      },
      "t_uint256": {
        "encoding": "inplace",
        "label": "uint256",
        "numberOfBytes": "32"
      }
    }
  }
}