{
  "address": "0xC7720b242D037441a0e7C00CfE2ba6DB70b95DdC",
  "abi": [
    {
      "inputs": [
        {
          "internalType": "address",
          "name": "_fundDeployer",
          "type": "address"
        },
        {
          "internalType": "address",
          "name": "_policyManager",
          "type": "address"
        },
        {
          "internalType": "address",
          "name": "_derivativePriceFeed",
          "type": "address"
        },
        {
          "internalType": "address",
          "name": "_primitivePriceFeed",
          "type": "address"
        }
      ],
      "stateMutability": "nonpayable",
      "type": "constructor"
    },
    {
      "anonymous": false,
      "inputs": [
        {
          "indexed": true,
          "internalType": "address",
          "name": "adapter",
          "type": "address"
        },
        {
          "indexed": true,
          "internalType": "string",
          "name": "identifier",
          "type": "string"
        }
      ],
      "name": "AdapterDeregistered",
      "type": "event"
    },
    {
      "anonymous": false,
      "inputs": [
        {
          "indexed": true,
          "internalType": "address",
          "name": "adapter",
          "type": "address"
        },
        {
          "indexed": true,
          "internalType": "string",
          "name": "identifier",
          "type": "string"
        }
      ],
      "name": "AdapterRegistered",
      "type": "event"
    },
    {
      "anonymous": false,
      "inputs": [
        {
          "indexed": true,
          "internalType": "address",
          "name": "comptrollerProxy",
          "type": "address"
        },
        {
          "indexed": true,
          "internalType": "address",
          "name": "account",
          "type": "address"
        }
      ],
      "name": "AuthUserAddedForFund",
      "type": "event"
    },
    {
      "anonymous": false,
      "inputs": [
        {
          "indexed": true,
          "internalType": "address",
          "name": "comptrollerProxy",
          "type": "address"
        },
        {
          "indexed": true,
          "internalType": "address",
          "name": "account",
          "type": "address"
        }
      ],
      "name": "AuthUserRemovedForFund",
      "type": "event"
    },
    {
      "anonymous": false,
      "inputs": [
        {
          "indexed": true,
          "internalType": "address",
          "name": "comptrollerProxy",
          "type": "address"
        },
        {
          "indexed": false,
          "internalType": "address",
          "name": "vaultProxy",
          "type": "address"
        },
        {
          "indexed": false,
          "internalType": "address",
          "name": "caller",
          "type": "address"
        },
        {
          "indexed": true,
          "internalType": "address",
          "name": "adapter",
          "type": "address"
        },
        {
          "indexed": true,
          "internalType": "bytes4",
          "name": "selector",
          "type": "bytes4"
        },
        {
          "indexed": false,
          "internalType": "bytes",
          "name": "integrationData",
          "type": "bytes"
        },
        {
          "indexed": false,
          "internalType": "address[]",
          "name": "incomingAssets",
          "type": "address[]"
        },
        {
          "indexed": false,
          "internalType": "uint256[]",
          "name": "incomingAssetAmounts",
          "type": "uint256[]"
        },
        {
          "indexed": false,
          "internalType": "address[]",
          "name": "outgoingAssets",
          "type": "address[]"
        },
        {
          "indexed": false,
          "internalType": "uint256[]",
          "name": "outgoingAssetAmounts",
          "type": "uint256[]"
        }
      ],
      "name": "CallOnIntegrationExecutedForFund",
      "type": "event"
    },
    {
      "inputs": [
        {
          "internalType": "address",
          "name": "_adapter",
          "type": "address"
        },
        {
          "internalType": "uint256[]",
          "name": "_payoutAmounts",
          "type": "uint256[]"
        },
        {
          "internalType": "address[]",
          "name": "_payoutAssets",
          "type": "address[]"
        }
      ],
      "name": "actionForRedeem",
      "outputs": [],
      "stateMutability": "nonpayable",
      "type": "function"
    },
    {
      "inputs": [
        {
          "internalType": "bool",
          "name": "",
          "type": "bool"
        }
      ],
      "name": "activateForFund",
      "outputs": [],
      "stateMutability": "nonpayable",
      "type": "function"
    },
    {
      "inputs": [
        {
          "internalType": "address",
          "name": "_adapter",
          "type": "address"
        }
      ],
      "name": "adapterIsRegistered",
      "outputs": [
        {
          "internalType": "bool",
          "name": "isRegistered_",
          "type": "bool"
        }
      ],
      "stateMutability": "view",
      "type": "function"
    },
    {
      "inputs": [
        {
          "internalType": "address",
          "name": "_comptrollerProxy",
          "type": "address"
        },
        {
          "internalType": "address",
          "name": "_who",
          "type": "address"
        }
      ],
      "name": "addAuthUserForFund",
      "outputs": [],
      "stateMutability": "nonpayable",
      "type": "function"
    },
    {
      "inputs": [],
      "name": "deactivateForFund",
      "outputs": [],
      "stateMutability": "nonpayable",
      "type": "function"
    },
    {
      "inputs": [
        {
          "internalType": "address[]",
          "name": "_adapters",
          "type": "address[]"
        }
      ],
      "name": "deregisterAdapters",
      "outputs": [],
      "stateMutability": "nonpayable",
      "type": "function"
    },
    {
      "inputs": [],
      "name": "getDerivativePriceFeed",
      "outputs": [
        {
          "internalType": "address",
          "name": "derivativePriceFeed_",
          "type": "address"
        }
      ],
      "stateMutability": "view",
      "type": "function"
    },
    {
      "inputs": [],
      "name": "getFundDeployer",
      "outputs": [
        {
          "internalType": "address",
          "name": "fundDeployer_",
          "type": "address"
        }
      ],
      "stateMutability": "view",
      "type": "function"
    },
    {
      "inputs": [],
      "name": "getOwner",
      "outputs": [
        {
          "internalType": "address",
          "name": "owner_",
          "type": "address"
        }
      ],
      "stateMutability": "view",
      "type": "function"
    },
    {
      "inputs": [],
      "name": "getPolicyManager",
      "outputs": [
        {
          "internalType": "address",
          "name": "policyManager_",
          "type": "address"
        }
      ],
      "stateMutability": "view",
      "type": "function"
    },
    {
      "inputs": [],
      "name": "getPrimitivePriceFeed",
      "outputs": [
        {
          "internalType": "address",
          "name": "primitivePriceFeed_",
          "type": "address"
        }
      ],
      "stateMutability": "view",
      "type": "function"
    },
    {
      "inputs": [],
      "name": "getRegisteredAdapters",
      "outputs": [
        {
          "internalType": "address[]",
          "name": "registeredAdaptersArray_",
          "type": "address[]"
        }
      ],
      "stateMutability": "view",
      "type": "function"
    },
    {
      "inputs": [
        {
          "internalType": "address",
          "name": "_comptrollerProxy",
          "type": "address"
        }
      ],
      "name": "getVaultProxyForFund",
      "outputs": [
        {
          "internalType": "address",
          "name": "vaultProxy_",
          "type": "address"
        }
      ],
      "stateMutability": "view",
      "type": "function"
    },
    {
      "inputs": [
        {
          "internalType": "address",
          "name": "_comptrollerProxy",
          "type": "address"
        },
        {
          "internalType": "address",
          "name": "_who",
          "type": "address"
        }
      ],
      "name": "isAuthUserForFund",
      "outputs": [
        {
          "internalType": "bool",
          "name": "isAuthUser_",
          "type": "bool"
        }
      ],
      "stateMutability": "view",
      "type": "function"
    },
    {
      "inputs": [
        {
          "internalType": "address",
          "name": "_caller",
          "type": "address"
        },
        {
          "internalType": "uint256",
          "name": "_actionId",
          "type": "uint256"
        },
        {
          "internalType": "bytes",
          "name": "_callArgs",
          "type": "bytes"
        }
      ],
      "name": "receiveCallFromComptroller",
      "outputs": [],
      "stateMutability": "nonpayable",
      "type": "function"
    },
    {
      "inputs": [
        {
          "internalType": "address[]",
          "name": "_adapters",
          "type": "address[]"
        }
      ],
      "name": "registerAdapters",
      "outputs": [],
      "stateMutability": "nonpayable",
      "type": "function"
    },
    {
      "inputs": [
        {
          "internalType": "address",
          "name": "_comptrollerProxy",
          "type": "address"
        },
        {
          "internalType": "address",
          "name": "_who",
          "type": "address"
        }
      ],
      "name": "removeAuthUserForFund",
      "outputs": [],
      "stateMutability": "nonpayable",
      "type": "function"
    },
    {
      "inputs": [
        {
          "internalType": "bytes",
          "name": "",
          "type": "bytes"
        }
      ],
      "name": "setConfigForFund",
      "outputs": [],
      "stateMutability": "nonpayable",
      "type": "function"
    }
  ],
  "transactionHash": "0xe8a020e6ff2dbbbe29fa4d02bd6e68b18b0e6b61d444d0fdc2bb0d6ffbd0660b",
  "args": [
    "0x5cBbA5484594598a660636eFb0A1AD953aFa4e32",
    "0x9889DfAAb3AC441c8E211D7eEda131066c5fa6d2",
    "0xfF090cC732f2b3188554889141F7b8e52c7FcFfc",
    "0x1C65eE4E98012DEFa6110B5B23bc6e8Ab6d07E8A"
  ],
  "solcInputHash": "616bcd197648f809b4b4e612fb09cc9a",
  "bytecode": "0x61010060405234801561001157600080fd5b5060405162004c3a38038062004c3a8339818101604052608081101561003657600080fd5b508051602082015160408301516060938401516001600160601b031993851b841660805290841b831660a05290831b821660c05290911b1660e05260805160601c60a05160601c60c05160601c60e05160601c614b6e620000cc6000398061088a5280611eeb5250806115e9528061248752806126be5250806108455280611f8a525080610e85528061129a5250614b6e6000f3fe608060405234801561001057600080fd5b50600436106101165760003560e01c8063893d20e8116100a2578063a7f3b0a411610071578063a7f3b0a4146104c6578063bd8e959a14610534578063d44ad6cb1461053c578063e6c41ec914610544578063ecbed1001461057257610116565b8063893d20e8146103da57806389cbe1d0146103e2578063972b3de11461045057806397c0ac87146104be57610116565b806349be72f3116100e957806349be72f31461022c578063501cc76114610234578063557c944c14610262578063742695311461039557806380d57063146103bb57610116565b80631bee801e1461011b57806321121528146101a05780632d98a99b146101e25780634679034614610206575b600080fd5b61019e6004803603606081101561013157600080fd5b6001600160a01b0382351691602081013591810190606081016040820135600160201b81111561016057600080fd5b82018360208201111561017257600080fd5b803590602001918460018302840111600160201b8311171561019357600080fd5b5090925090506105ca565b005b6101ce600480360360408110156101b657600080fd5b506001600160a01b038135811691602001351661077f565b604080519115158252519081900360200190f35b6101ea610843565b604080516001600160a01b039092168252519081900360200190f35b6101ea6004803603602081101561021c57600080fd5b50356001600160a01b0316610867565b6101ea610888565b61019e6004803603604081101561024a57600080fd5b506001600160a01b03813581169160200135166108ac565b61019e6004803603606081101561027857600080fd5b6001600160a01b038235169190810190604081016020820135600160201b8111156102a257600080fd5b8201836020820111156102b457600080fd5b803590602001918460208302840111600160201b831117156102d557600080fd5b9190808060200260200160405190810160405280939291908181526020018383602002808284376000920191909152509295949360208101935035915050600160201b81111561032457600080fd5b82018360208201111561033657600080fd5b803590602001918460208302840111600160201b8311171561035757600080fd5b919080806020026020016040519081016040528093929190818152602001838360200280828437600092019190915250929550610912945050505050565b6101ce600480360360208110156103ab57600080fd5b50356001600160a01b0316610e67565b61019e600480360360208110156103d157600080fd5b50351515610e74565b6101ea610e81565b61019e600480360360208110156103f857600080fd5b810190602081018135600160201b81111561041257600080fd5b82018360208201111561042457600080fd5b803590602001918460018302840111600160201b8311171561044557600080fd5b509092509050610e7d565b61019e6004803603602081101561046657600080fd5b810190602081018135600160201b81111561048057600080fd5b82018360208201111561049257600080fd5b803590602001918460208302840111600160201b831117156104b357600080fd5b509092509050610f0d565b6101ea611298565b61019e600480360360208110156104dc57600080fd5b810190602081018135600160201b8111156104f657600080fd5b82018360208201111561050857600080fd5b803590602001918460208302840111600160201b8311171561052957600080fd5b5090925090506112bc565b61019e6115c8565b6101ea6115e7565b61019e6004803603604081101561055a57600080fd5b506001600160a01b038135811691602001351661160b565b61057a611674565b60408051602080825283518183015283519192839290830191858101910280838360005b838110156105b657818101518382015260200161059e565b505050509050019250505060405180910390f35b336000908152602081905260409020546001600160a01b03168061061f5760405162461bcd60e51b815260040180806020018281038252602e8152602001806144dd602e913960400191505060405180910390fd5b610629338661077f565b6106645760405162461bcd60e51b8152600401808060200182810382526032815260200180614b076032913960400191505060405180910390fd5b836106af576106aa858285858080601f01602080910402602001604051908101604052809392919081815260200183838082843760009201919091525061170a92505050565b610778565b83600114156106f8576106aa8184848080601f01602080910402602001604051908101604052809392919081815260200183838082843760009201919091525061176b92505050565b8360021415610741576106aa8184848080601f01602080910402602001604051908101604052809392919081815260200183838082843760009201919091525061195792505050565b60405162461bcd60e51b815260040180806020018281038252602d815260200180614734602d913960400191505060405180910390fd5b5050505050565b6001600160a01b03808316600090815260036020908152604080832093851683529290529081205460ff168061083a57506001600160a01b0380841660009081526020818152604091829020548251631127a41d60e31b8152925193169263893d20e8926004808201939291829003018186803b1580156107ff57600080fd5b505afa158015610813573d6000803e3d6000fd5b505050506040513d602081101561082957600080fd5b50516001600160a01b038381169116145b90505b92915050565b7f000000000000000000000000000000000000000000000000000000000000000090565b6001600160a01b03808216600090815260208190526040902054165b919050565b7f000000000000000000000000000000000000000000000000000000000000000090565b6108b882826000611bc0565b6001600160a01b03808316600081815260036020908152604080832094861680845294909152808220805460ff19169055517fba8783abf5207a89d51b58dcb44670608cf37909d412fca4e5a1639b09d741589190a35050565b6000336001600160a01b031663e269c3d66040518163ffffffff1660e01b815260040160206040518083038186803b15801561094d57600080fd5b505afa158015610961573d6000803e3d6000fd5b505050506040513d602081101561097757600080fd5b505133600090815260208190526040808220548151631e66287160e21b815291519394506001600160a01b039081169360609391891692637998a1c4926004808301939192829003018186803b1580156109d057600080fd5b505afa1580156109e4573d6000803e3d6000fd5b505050506040513d6000823e601f3d908101601f191682016040526020811015610a0d57600080fd5b8101908080516040519392919084600160201b821115610a2c57600080fd5b908301906020820185811115610a4157600080fd5b8251600160201b811182820188101715610a5a57600080fd5b82525081516020918201929091019080838360005b83811015610a87578181015183820152602001610a6f565b50505050905090810190601f168015610ab45780820380516001836020036101000a031916815260200191505b506040525091925050506001600160a01b038216610b035760405162461bcd60e51b8152600401808060200182810382526023815260200180614a426023913960400191505060405180910390fd5b610b0c86610e67565b610b475760405162461bcd60e51b815260040180806020018281038252602a815260200180614a18602a913960400191505060405180910390fd5b610b73816040518060400160405280600a8152602001692aa724a9aba0a82fab1960b11b815250611e00565b610bae5760405162461bcd60e51b815260040180806020018281038252602b815260200180614651602b913960400191505060405180910390fd5b60005b8451811015610e5e57610bd6858281518110610bc957fe5b6020026020010151611ee7565b610bdf57610e56565b836001600160a01b0316858281518110610bf557fe5b60200260200101516001600160a01b03161415610c1157610e56565b610c4333868381518110610c2157fe5b602002602001015189898581518110610c3657fe5b6020026020010151612027565b6060868281518110610c5157fe5b6020026020010151868381518110610c6557fe5b60200260200101518660405160200180848152602001836001600160a01b03168152602001826001600160a01b03168152602001935050505060405160208183030381529060405290506060868381518110610cbd57fe5b6020026020010151888481518110610cd157fe5b60200260200101518760405160200180846001600160a01b03168152602001838152602001826001600160a01b0316815260200193505050506040516020818303038152906040529050886001600160a01b0316639337baac8684846040518463ffffffff1660e01b815260040180846001600160a01b031681526020018060200180602001838103835285818151815260200191508051906020019080838360005b83811015610d8c578181015183820152602001610d74565b50505050905090810190601f168015610db95780820380516001836020036101000a031916815260200191505b50838103825284518152845160209182019186019080838360005b83811015610dec578181015183820152602001610dd4565b50505050905090810190601f168015610e195780820380516001836020036101000a031916815260200191505b5095505050505050600060405180830381600087803b158015610e3b57600080fd5b505af1158015610e4f573d6000803e3d6000fd5b5050505050505b600101610bb1565b50505050505050565b600061083d600183612123565b610e7d33612138565b5050565b60007f00000000000000000000000000000000000000000000000000000000000000006001600160a01b031663893d20e86040518163ffffffff1660e01b815260040160206040518083038186803b158015610edc57600080fd5b505afa158015610ef0573d6000803e3d6000fd5b505050506040513d6020811015610f0657600080fd5b5051905090565b610f15610e81565b6001600160a01b0316336001600160a01b031614610f645760405162461bcd60e51b81526004018080602001828103825260498152602001806146086049913960600191505060405180910390fd5b80610fa05760405162461bcd60e51b815260040180806020018281038252602b815260200180614709602b913960400191505060405180910390fd5b60005b81811015611293576000838383818110610fb957fe5b905060200201356001600160a01b03166001600160a01b0316141561100f5760405162461bcd60e51b81526004018080602001828103825260298152602001806145df6029913960400191505060405180910390fd5b61103383838381811061101e57fe5b905060200201356001600160a01b0316610e67565b1561106f5760405162461bcd60e51b815260040180806020018281038252602c8152602001806148ca602c913960400191505060405180910390fd5b61109e83838381811061107e57fe5b905060200201356001600160a01b0316600161231d90919063ffffffff16565b508282828181106110ab57fe5b905060200201356001600160a01b03166001600160a01b0316637998a1c46040518163ffffffff1660e01b815260040160006040518083038186803b1580156110f357600080fd5b505afa158015611107573d6000803e3d6000fd5b505050506040513d6000823e601f3d908101601f19168201604052602081101561113057600080fd5b8101908080516040519392919084600160201b82111561114f57600080fd5b90830190602082018581111561116457600080fd5b8251600160201b81118282018810171561117d57600080fd5b82525081516020918201929091019080838360005b838110156111aa578181015183820152602001611192565b50505050905090810190601f1680156111d75780820380516001836020036101000a031916815260200191505b506040525050506040518082805190602001908083835b6020831061120d5780518252601f1990920191602091820191016111ee565b6001836020036101000a038019825116818451168082178552505050505050905001915050604051809103902083838381811061124657fe5b905060200201356001600160a01b03166001600160a01b03167f1e4247fdab5708a9838dfa7049b607d56751d7e44584c555c3ca8883b992806560405160405180910390a3600101610fa3565b505050565b7f000000000000000000000000000000000000000000000000000000000000000090565b6112c4610e81565b6001600160a01b0316336001600160a01b0316146113135760405162461bcd60e51b81526004018080602001828103825260498152602001806146086049913960600191505060405180910390fd5b8061134f5760405162461bcd60e51b815260040180806020018281038252602d8152602001806146a8602d913960400191505060405180910390fd5b60005b818110156112935761136983838381811061101e57fe5b6113a45760405162461bcd60e51b815260040180806020018281038252602d8152602001806149bc602d913960400191505060405180910390fd5b6113d38383838181106113b357fe5b905060200201356001600160a01b0316600161233290919063ffffffff16565b508282828181106113e057fe5b905060200201356001600160a01b03166001600160a01b0316637998a1c46040518163ffffffff1660e01b815260040160006040518083038186803b15801561142857600080fd5b505afa15801561143c573d6000803e3d6000fd5b505050506040513d6000823e601f3d908101601f19168201604052602081101561146557600080fd5b8101908080516040519392919084600160201b82111561148457600080fd5b90830190602082018581111561149957600080fd5b8251600160201b8111828201881017156114b257600080fd5b82525081516020918201929091019080838360005b838110156114df5781810151838201526020016114c7565b50505050905090810190601f16801561150c5780820380516001836020036101000a031916815260200191505b506040525050506040518082805190602001908083835b602083106115425780518252601f199092019160209182019101611523565b6001836020036101000a038019825116818451168082178552505050505050905001915050604051809103902083838381811061157b57fe5b905060200201356001600160a01b03166001600160a01b03167f82e6bc7d4d025a3153d55a40772ee04910b5eb018594e8e4747755898c12bcf460405160405180910390a3600101611352565b33600090815260208190526040902080546001600160a01b0319169055565b7f000000000000000000000000000000000000000000000000000000000000000090565b61161782826001611bc0565b6001600160a01b03808316600081815260036020908152604080832094861680845294909152808220805460ff19166001179055517f7f92357681033cc9a5f4128ee1e66a08f1589a20b741353202780c556791c1279190a35050565b60606116806001612347565b67ffffffffffffffff8111801561169657600080fd5b506040519080825280602002602001820160405280156116c0578160200160208202803683370190505b50905060005b8151811015611706576116da600182612352565b8282815181106116e657fe5b6001600160a01b03909216602092830291909101909101526001016116c6565b5090565b60008060606117188461235e565b925092509250611728838361243e565b6060806060806117388989612561565b935093509350935061174e8787868686866126bc565b61175f898b8989898989898961290f565b50505050505050505050565b606081806020019051602081101561178257600080fd5b8101908080516040519392919084600160201b8211156117a157600080fd5b9083019060208201858111156117b657600080fd5b82518660208202830111600160201b821117156117d257600080fd5b82525081516020918201928201910280838360005b838110156117ff5781810151838201526020016117e7565b50505050905001604052505050905060005b815181101561195157611829828281518110610bc957fe5b6118645760405162461bcd60e51b8152600401808060200182810382526030815260200180614aa56030913960400191505060405180910390fd5b81818151811061187057fe5b60200260200101516001600160a01b03166370a08231856040518263ffffffff1660e01b815260040180826001600160a01b0316815260200191505060206040518083038186803b1580156118c457600080fd5b505afa1580156118d8573d6000803e3d6000fd5b505050506040513d60208110156118ee57600080fd5b50511561192c5760405162461bcd60e51b815260040180806020018281038252603281526020018061450b6032913960400191505060405180910390fd5b6119493383838151811061193c57fe5b6020026020010151612b08565b600101611811565b50505050565b606081806020019051602081101561196e57600080fd5b8101908080516040519392919084600160201b82111561198d57600080fd5b9083019060208201858111156119a257600080fd5b82518660208202830111600160201b821117156119be57600080fd5b82525081516020918201928201910280838360005b838110156119eb5781810151838201526020016119d3565b5050505090500160405250505090506000336001600160a01b031663e269c3d66040518163ffffffff1660e01b815260040160206040518083038186803b158015611a3557600080fd5b505afa158015611a49573d6000803e3d6000fd5b505050506040513d6020811015611a5f57600080fd5b5051905060005b825181101561077857816001600160a01b0316838281518110611a8557fe5b60200260200101516001600160a01b03161415611ad35760405162461bcd60e51b815260040180806020018281038252604281526020018061497a6042913960600191505060405180910390fd5b828181518110611adf57fe5b60200260200101516001600160a01b03166370a08231866040518263ffffffff1660e01b815260040180826001600160a01b0316815260200191505060206040518083038186803b158015611b3357600080fd5b505afa158015611b47573d6000803e3d6000fd5b505050506040513d6020811015611b5d57600080fd5b505115611b9b5760405162461bcd60e51b81526004018080602001828103825260358152602001806148686035913960400191505060405180910390fd5b611bb833848381518110611bab57fe5b6020026020010151612bda565b600101611a66565b6001600160a01b0383811660009081526020819052604090205416611c165760405162461bcd60e51b81526004018080602001828103825260328152602001806148f66032913960400191505060405180910390fd5b6001600160a01b03808416600090815260208181526040808320548151631127a41d60e31b815291519394169263893d20e892600480840193919291829003018186803b158015611c6657600080fd5b505afa158015611c7a573d6000803e3d6000fd5b505050506040513d6020811015611c9057600080fd5b50519050336001600160a01b03821614611cdb5760405162461bcd60e51b815260040180806020018281038252604181526020018061459e6041913960600191505060405180910390fd5b806001600160a01b0316836001600160a01b03161415611d2c5760405162461bcd60e51b81526004018080602001828103825260348152602001806146d56034913960400191505060405180910390fd5b8115611d9c576001600160a01b0380851660009081526003602090815260408083209387168352929052205460ff1615611d975760405162461bcd60e51b815260040180806020018281038252603c81526020018061482c603c913960400191505060405180910390fd5b611951565b6001600160a01b0380851660009081526003602090815260408083209387168352929052205460ff166119515760405162461bcd60e51b81526004018080602001828103825260388152602001806145666038913960400191505060405180910390fd5b6000816040516020018082805190602001908083835b60208310611e355780518252601f199092019160209182019101611e16565b6001836020036101000a03801982511681845116808217855250505050505090500191505060405160208183030381529060405280519060200120836040516020018082805190602001908083835b60208310611ea35780518252601f199092019160209182019101611e84565b6001836020036101000a0380198251168184511680821785525050505050509050019150506040516020818303038152906040528051906020012014905092915050565b60007f00000000000000000000000000000000000000000000000000000000000000006001600160a01b0316639be918e6836040518263ffffffff1660e01b815260040180826001600160a01b0316815260200191505060206040518083038186803b158015611f5657600080fd5b505afa158015611f6a573d6000803e3d6000fd5b505050506040513d6020811015611f8057600080fd5b50518061083d57507f00000000000000000000000000000000000000000000000000000000000000006001600160a01b0316639be918e6836040518263ffffffff1660e01b815260040180826001600160a01b0316815260200191505060206040518083038186803b158015611ff557600080fd5b505afa158015612009573d6000803e3d6000fd5b505050506040513d602081101561201f57600080fd5b505192915050565b604080516001600160a01b0385811660208301528481168284015260608083018590528351808403909101815260808301938490526310acd06d60e01b9093528616916310acd06d916004919060840180835b815260200180602001828103825283818151815260200191508051906020019080838360005b838110156120b85781810151838201526020016120a0565b50505050905090810190601f1680156120e55780820380516001836020036101000a031916815260200191505b509350505050600060405180830381600087803b15801561210557600080fd5b505af1158015612119573d6000803e3d6000fd5b5050505050505050565b600061083a836001600160a01b038416612c25565b6001600160a01b03818116600090815260208190526040812054909116156121915760405162461bcd60e51b81526004018080602001828103825260258152602001806144686025913960400191505060405180910390fd5b816001600160a01b031663c98091876040518163ffffffff1660e01b815260040160206040518083038186803b1580156121ca57600080fd5b505afa1580156121de573d6000803e3d6000fd5b505050506040513d60208110156121f457600080fd5b505190506001600160a01b03811661223d5760405162461bcd60e51b815260040180806020018281038252602c81526020018061467c602c913960400191505060405180910390fd5b806001600160a01b0316635a53e3486040518163ffffffff1660e01b815260040160206040518083038186803b15801561227657600080fd5b505afa15801561228a573d6000803e3d6000fd5b505050506040513d60208110156122a057600080fd5b50516001600160a01b038381169116146122eb5760405162461bcd60e51b81526004018080602001828103825260358152602001806147f76035913960400191505060405180910390fd5b6001600160a01b03918216600090815260208190526040902080546001600160a01b0319169282169290921790915590565b600061083a836001600160a01b038416612c3d565b600061083a836001600160a01b038416612c87565b600061083d82612d4d565b600061083a8383612d51565b600080606083806020019051606081101561237857600080fd5b81516020830151604080850180519151939592948301929184600160201b8211156123a257600080fd5b9083019060208201858111156123b757600080fd5b8251600160201b8111828201881017156123d057600080fd5b82525081516020918201929091019080838360005b838110156123fd5781810151838201526020016123e5565b50505050905090810190601f16801561242a5780820380516001836020036101000a031916815260200191505b506040525050509250925092509193909250565b604080516001600160a01b0384811660208301526001600160e01b03198416828401528251808303840181526060830193849052630442bad560e01b90935233606483018181527f000000000000000000000000000000000000000000000000000000000000000090921693630442bad593919260049260840183815260200180602001828103825283818151815260200191508051906020019080838360005b838110156124f75781810151838201526020016124df565b50505050905090810190601f1680156125245780820380516001836020036101000a031916815260200191505b50945050505050600060405180830381600087803b15801561254557600080fd5b505af1158015612559573d6000803e3d6000fd5b505050505050565b60608060608060608060606000606080606061257d8d8d612db5565b96509650965096509650965096506126928d8d8686868c604051602001808560038111156125a757fe5b8152602001806020018060200180602001848103845287818151815260200191508051906020019060200280838360005b838110156125f05781810151838201526020016125d8565b50505050905001848103835286818151815260200191508051906020019060200280838360005b8381101561262f578181015183820152602001612617565b50505050905001848103825285818151815260200191508051906020019060200280838360005b8381101561266e578181015183820152602001612656565b5050505090500197505050505050505060405160208183030381529060405261377e565b6126a28d888888888888886139ee565b929d50909b50995097505050505050505092959194509250565b7f00000000000000000000000000000000000000000000000000000000000000006001600160a01b0316630442bad533600589898989898960405160200180876001600160a01b03168152602001866001600160e01b031916815260200180602001806020018060200180602001858103855289818151815260200191508051906020019060200280838360005b8381101561276257818101518382015260200161274a565b50505050905001858103845288818151815260200191508051906020019060200280838360005b838110156127a1578181015183820152602001612789565b50505050905001858103835287818151815260200191508051906020019060200280838360005b838110156127e05781810151838201526020016127c8565b50505050905001858103825286818151815260200191508051906020019060200280838360005b8381101561281f578181015183820152602001612807565b505050509050019a50505050505050505050506040516020818303038152906040526040518463ffffffff1660e01b815260040180846001600160a01b0316815260200183600581111561286f57fe5b815260200180602001828103825283818151815260200191508051906020019080838360005b838110156128ad578181015183820152602001612895565b50505050905090810190601f1680156128da5780820380516001836020036101000a031916815260200191505b50945050505050600060405180830381600087803b1580156128fb57600080fd5b505af115801561175f573d6000803e3d6000fd5b856001600160e01b031916876001600160a01b0316336001600160a01b03167f72a42ea24876d542424742125bf664f755114a3dbf2b409ab609100c4d4612368c8c8a8a8a8a8a60405180886001600160a01b03168152602001876001600160a01b03168152602001806020018060200180602001806020018060200186810386528b818151815260200191508051906020019080838360005b838110156129c15781810151838201526020016129a9565b50505050905090810190601f1680156129ee5780820380516001836020036101000a031916815260200191505b5086810385528a5181528a51602091820191808d01910280838360005b83811015612a23578181015183820152602001612a0b565b50505050905001868103845289818151815260200191508051906020019060200280838360005b83811015612a62578181015183820152602001612a4a565b50505050905001868103835288818151815260200191508051906020019060200280838360005b83811015612aa1578181015183820152602001612a89565b50505050905001868103825287818151815260200191508051906020019060200280838360005b83811015612ae0578181015183820152602001612ac8565b505050509050019c5050505050505050505050505060405180910390a4505050505050505050565b604080516001600160a01b0383811660208084019190915283518084039091018152828401938490526310acd06d60e01b9093528416916310acd06d916006919060440180835b815260200180602001828103825283818151815260200191508051906020019080838360005b83811015612b8d578181015183820152602001612b75565b50505050905090810190601f168015612bba5780820380516001836020036101000a031916815260200191505b509350505050600060405180830381600087803b15801561254557600080fd5b604080516001600160a01b0383811660208084019190915283518084039091018152828401938490526310acd06d60e01b9093528416916310acd06d91600791906044018083612b4f565b60009081526001919091016020526040902054151590565b6000612c498383612c25565b612c7f5750815460018181018455600084815260208082209093018490558454848252828601909352604090209190915561083d565b50600061083d565b60008181526001830160205260408120548015612d435783546000198083019190810190600090879083908110612cba57fe5b9060005260206000200154905080876000018481548110612cd757fe5b600091825260208083209091019290925582815260018981019092526040902090840190558654879080612d0757fe5b6001900381819060005260206000200160009055905586600101600087815260200190815260200160002060009055600194505050505061083d565b600091505061083d565b5490565b81546000908210612d935760405162461bcd60e51b81526004018080602001828103825260228152602001806144466022913960400191505060405180910390fd5b826000018281548110612da257fe5b9060005260206000200154905092915050565b6060806060600060608060606000806060612dcf8b61235e565b925092509250612dde83610e67565b612e195760405162461bcd60e51b815260040180806020018281038252602c81526020018061494e602c913960400191505060405180910390fd5b60408051633b663d6360e11b81526001600160e01b0319841660048201908152602482019283528351604483015283516001600160a01b038716936376cc7ac6938793879390929160640190602085019080838360005b83811015612e88578181015183820152602001612e70565b50505050905090810190601f168015612eb55780820380516001836020036101000a031916815260200191505b50935050505060006040518083038186803b158015612ed357600080fd5b505afa158015612ee7573d6000803e3d6000fd5b505050506040513d6000823e601f3d908101601f1916820160405260a0811015612f1057600080fd5b815160208301805160405192949293830192919084600160201b821115612f3657600080fd5b908301906020820185811115612f4b57600080fd5b82518660208202830111600160201b82111715612f6757600080fd5b82525081516020918201928201910280838360005b83811015612f94578181015183820152602001612f7c565b5050505090500160405260200180516040519392919084600160201b821115612fbc57600080fd5b908301906020820185811115612fd157600080fd5b82518660208202830111600160201b82111715612fed57600080fd5b82525081516020918201928201910280838360005b8381101561301a578181015183820152602001613002565b5050505090500160405260200180516040519392919084600160201b82111561304257600080fd5b90830190602082018581111561305757600080fd5b82518660208202830111600160201b8211171561307357600080fd5b82525081516020918201928201910280838360005b838110156130a0578181015183820152602001613088565b5050505090500160405260200180516040519392919084600160201b8211156130c857600080fd5b9083019060208201858111156130dd57600080fd5b82518660208202830111600160201b821117156130f957600080fd5b82525081516020918201928201910280838360005b8381101561312657818101518382015260200161310e565b50505050905001604052505050809c50819e50829950839a50849b50505050505084518651146131875760405162461bcd60e51b815260040180806020018281038252602c8152602001806147cb602c913960400191505060405180910390fd5b87518a51146131c75760405162461bcd60e51b815260040180806020018281038252602f8152602001806149e9602f913960400191505060405180910390fd5b6131d086613a32565b61320b5760405162461bcd60e51b81526004018080602001828103825260268152602001806149286026913960400191505060405180910390fd5b6132148a613a32565b61324f5760405162461bcd60e51b815260040180806020018281038252602981526020018061453d6029913960400191505060405180910390fd5b89518c9067ffffffffffffffff8111801561326957600080fd5b50604051908082528060200260200182016040528015613293578160200160208202803683370190505b50995060005b8b518110156134e35760006001600160a01b03168c82815181106132b957fe5b60200260200101516001600160a01b031614156133075760405162461bcd60e51b815260040180806020018281038252602d815260200180614761602d913960400191505060405180910390fd5b60008a828151811061331557fe5b6020026020010151116133595760405162461bcd60e51b8152600401808060200182810382526032815260200180614ad56032913960400191505060405180910390fd5b6133688c8281518110610bc957fe5b6133a35760405162461bcd60e51b815260040180806020018281038252602e8152602001806144af602e913960400191505060405180910390fd5b816001600160a01b031663797ed3398d83815181106133be57fe5b60200260200101516040518263ffffffff1660e01b815260040180826001600160a01b0316815260200191505060206040518083038186803b15801561340357600080fd5b505afa158015613417573d6000803e3d6000fd5b505050506040513d602081101561342d57600080fd5b5051156134db578b818151811061344057fe5b60200260200101516001600160a01b03166370a082318f6040518263ffffffff1660e01b815260040180826001600160a01b0316815260200191505060206040518083038186803b15801561349457600080fd5b505afa1580156134a8573d6000803e3d6000fd5b505050506040513d60208110156134be57600080fd5b50518b518c90839081106134ce57fe5b6020026020010181815250505b600101613299565b50865167ffffffffffffffff811180156134fc57600080fd5b50604051908082528060200260200182016040528015613526578160200160208202803683370190505b50945060005b875181101561376d5760006001600160a01b031688828151811061354c57fe5b60200260200101516001600160a01b0316141561359a5760405162461bcd60e51b815260040180806020018281038252602281526020018061448d6022913960400191505060405180910390fd5b60008782815181106135a857fe5b6020026020010151116135ec5760405162461bcd60e51b815260040180806020018281038252602d81526020018061489d602d913960400191505060405180910390fd5b6136128882815181106135fb57fe5b60200260200101518d613ac690919063ffffffff16565b6136bd5787818151811061362257fe5b60200260200101516001600160a01b03166370a082318f6040518263ffffffff1660e01b815260040180826001600160a01b0316815260200191505060206040518083038186803b15801561367657600080fd5b505afa15801561368a573d6000803e3d6000fd5b505050506040513d60208110156136a057600080fd5b505186518790839081106136b057fe5b6020026020010181815250505b60018960038111156136cb57fe5b14156136fb576136f6338983815181106136e157fe5b6020026020010151878a8581518110610c3657fe5b613765565b600289600381111561370957fe5b1415613741576136f63389838151811061371f57fe5b6020026020010151878a858151811061373457fe5b6020026020010151613b1c565b600389600381111561374f57fe5b14156137655761376533898381518110611bab57fe5b60010161352c565b505050505092959891949750929550565b600080606061378c8561235e565b92509250925060006060846001600160a01b03168489858960405160240180846001600160a01b031681526020018060200180602001838103835285818151815260200191508051906020019080838360005b838110156137f75781810151838201526020016137df565b50505050905090810190601f1680156138245780820380516001836020036101000a031916815260200191505b50838103825284518152845160209182019186019080838360005b8381101561385757818101518382015260200161383f565b50505050905090810190601f1680156138845780820380516001836020036101000a031916815260200191505b5060408051601f198184030181529181526020820180516001600160e01b03166001600160e01b0319909a16999099178952518151919890975087965094509250829150849050835b602083106138ec5780518252601f1990920191602091820191016138cd565b6001836020036101000a0380198251168184511680821785525050505050509050019150506000604051808303816000865af19150503d806000811461394e576040519150601f19603f3d011682016040523d82523d6000602084013e613953565b606091505b50915091508181906139e35760405162461bcd60e51b81526004018080602001828103825283818151815260200191508051906020019080838360005b838110156139a8578181015183820152602001613990565b50505050905090810190601f1680156139d55780820380516001836020036101000a031916815260200191505b509250505060405180910390fd5b505050505050505050565b606080606080606080613a048e8b8b8b8b613b73565b92965090945092509050613a1c8e8e8e8e86866140cc565b9096509450505098509850985098945050505050565b60006001825111613a4557506001610883565b815160005b81811015613abc57600181015b82811015613ab357848181518110613a6b57fe5b60200260200101516001600160a01b0316858381518110613a8857fe5b60200260200101516001600160a01b03161415613aab5760009350505050610883565b600101613a57565b50600101613a4a565b5060019392505050565b6000805b8351811015613b1257838181518110613adf57fe5b60200260200101516001600160a01b0316836001600160a01b03161415613b0a57600191505061083d565b600101613aca565b5060009392505050565b604080516001600160a01b0385811660208301528481168284015260608083018590528351808403909101815260808301938490526310acd06d60e01b9093528616916310acd06d9160059190608401808361207a565b6060806060806060875167ffffffffffffffff81118015613b9357600080fd5b50604051908082528060200260200182016040528015613bbd578160200160208202803683370190505b50905060008060005b8a51811015613cba57888181518110613bdb57fe5b602002602001015160001415613bf057613cb2565b60038c6003811115613bfe57fe5b1415613c0f57600190920191613cb2565b613c2c8d8c8381518110613c1f57fe5b602002602001015161430c565b848281518110613c3857fe5b602002602001018181525050888181518110613c5057fe5b6020026020010151848281518110613c6457fe5b60200260200101511015613c7d57600190920191613cb2565b888181518110613c8957fe5b6020026020010151848281518110613c9d57fe5b60200260200101511115613cb2576001909101905b600101613bc6565b508167ffffffffffffffff81118015613cd257600080fd5b50604051908082528060200260200182016040528015613cfc578160200160208202803683370190505b5096508167ffffffffffffffff81118015613d1657600080fd5b50604051908082528060200260200182016040528015613d40578160200160208202803683370190505b5095508067ffffffffffffffff81118015613d5a57600080fd5b50604051908082528060200260200182016040528015613d84578160200160208202803683370190505b5094508067ffffffffffffffff81118015613d9e57600080fd5b50604051908082528060200260200182016040528015613dc8578160200160208202803683370190505b50935060008060005b8c518110156140ba578a8181518110613de657fe5b602002602001015160001415613dfb576140b2565b60038e6003811115613e0957fe5b1415613e85578c8181518110613e1b57fe5b60200260200101518a8481518110613e2f57fe5b60200260200101906001600160a01b031690816001600160a01b0316815250508a8181518110613e5b57fe5b6020026020010151898481518110613e6f57fe5b60209081029190910101526001909201916140b2565b8a8181518110613e9157fe5b6020026020010151868281518110613ea557fe5b6020026020010151101561400a57858181518110613ebf57fe5b602002602001015160001415613f1057613edf338e8381518110611bab57fe5b8a8181518110613eeb57fe5b6020026020010151898481518110613eff57fe5b602002602001018181525050613f62565b613f49868281518110613f1f57fe5b60200260200101518c8381518110613f3357fe5b602002602001015161438e90919063ffffffff16565b898481518110613f5557fe5b6020026020010181815250505b8b8181518110613f6e57fe5b6020026020010151898481518110613f8257fe5b60200260200101511115613fc75760405162461bcd60e51b815260040180806020018281038252603d81526020018061478e603d913960400191505060405180910390fd5b8c8181518110613fd357fe5b60200260200101518a8481518110613fe757fe5b6001600160a01b03909216602092830291909101909101526001909201916140b2565b8a818151811061401657fe5b602002602001015186828151811061402a57fe5b602002602001015111156140b25761405b8b828151811061404757fe5b6020026020010151878381518110613f3357fe5b87838151811061406757fe5b6020026020010181815250508c818151811061407f57fe5b602002602001015188838151811061409357fe5b6001600160a01b03909216602092830291909101909101526001909101905b600101613dd1565b50505050505095509550955095915050565b60608060006140e6855189516143eb90919063ffffffff16565b90508067ffffffffffffffff811180156140ff57600080fd5b50604051908082528060200260200182016040528015614129578160200160208202803683370190505b5092508067ffffffffffffffff8111801561414357600080fd5b5060405190808252806020026020018201604052801561416d578160200160208202803683370190505b50915060005b88518110156142705760006141ab89838151811061418d57fe5b60200260200101516141a58d8d8681518110613c1f57fe5b9061438e565b90508782815181106141b957fe5b60200260200101518110156141ff5760405162461bcd60e51b8152600401808060200182810382526040815260200180614a656040913960400191505060405180910390fd5b61420f338b848151811061193c57fe5b89828151811061421b57fe5b602002602001015185838151811061422f57fe5b60200260200101906001600160a01b031690816001600160a01b0316815250508084838151811061425c57fe5b602090810291909101015250600101614173565b5084511561430057875160005b86518110156142fd5786818151811061429257fe5b60200260200101518583815181106142a657fe5b60200260200101906001600160a01b031690816001600160a01b0316815250508581815181106142d257fe5b60200260200101518483815181106142e657fe5b60209081029190910101526001918201910161427d565b50505b50965096945050505050565b6000816001600160a01b03166370a08231846040518263ffffffff1660e01b815260040180826001600160a01b0316815260200191505060206040518083038186803b15801561435b57600080fd5b505afa15801561436f573d6000803e3d6000fd5b505050506040513d602081101561438557600080fd5b50519392505050565b6000828211156143e5576040805162461bcd60e51b815260206004820152601e60248201527f536166654d6174683a207375627472616374696f6e206f766572666c6f770000604482015290519081900360640190fd5b50900390565b60008282018381101561083a576040805162461bcd60e51b815260206004820152601b60248201527f536166654d6174683a206164646974696f6e206f766572666c6f770000000000604482015290519081900360640190fdfe456e756d657261626c655365743a20696e646578206f7574206f6620626f756e64735f5f73657456616c6964617465645661756c7450726f78793a20416c7265616479207365745f5f70726550726f63657373436f493a20456d707479207370656e642061737365745f5f70726550726f63657373436f493a204e6f6e2d72656365697661626c6520696e636f6d696e672061737365747265636569766543616c6c46726f6d436f6d7074726f6c6c65723a2046756e64206973206e6f74206163746976655f5f6164645a65726f42616c616e6365547261636b65644173736574733a2042616c616e6365206973206e6f74207a65726f5f5f70726550726f63657373436f493a204475706c696361746520696e636f6d696e672061737365745f5f76616c696461746553657441757468557365723a204163636f756e74206973206e6f7420616e20617574686f72697a656420757365725f5f76616c696461746553657441757468557365723a204f6e6c79207468652066756e64206f776e65722063616e2063616c6c20746869732066756e6374696f6e726567697374657241646170746572733a20416461707465722063616e6e6f7420626520656d7074796f6e6c7946756e644465706c6f7965724f776e65723a204f6e6c79207468652046756e644465706c6f796572206f776e65722063616e2063616c6c20746869732066756e6374696f6e616374696f6e466f7252656465656d3a2041646170746572206d75737420626520756e69737761702076325f5f73657456616c6964617465645661756c7450726f78793a204d697373696e67207661756c7450726f78796465726567697374657241646170746572733a205f61646170746572732063616e6e6f7420626520656d7074795f5f76616c696461746553657441757468557365723a2043616e6e6f742073657420666f72207468652066756e64206f776e6572726567697374657241646170746572733a205f61646170746572732063616e6e6f7420626520656d7074797265636569766543616c6c46726f6d436f6d7074726f6c6c65723a20496e76616c6964205f616374696f6e49645f5f70726550726f63657373436f493a20456d70747920696e636f6d696e6720617373657420616464726573735f5f7265636f6e63696c65436f495370656e644173736574733a205370656e7420616d6f756e742067726561746572207468616e2065787065637465645f5f70726550726f63657373436f493a205370656e64206173736574732061727261797320756e657175616c5f5f73657456616c6964617465645661756c7450726f78793a204e6f7420746865205661756c7450726f7879206163636573736f725f5f76616c696461746553657441757468557365723a204163636f756e7420697320616c726561647920616e20617574686f72697a656420757365725f5f72656d6f76655a65726f42616c616e6365547261636b65644173736574733a2042616c616e6365206973206e6f74207a65726f5f5f70726550726f63657373436f493a20456d707479206d6178207370656e6420617373657420616d6f756e74726567697374657241646170746572733a204164617074657220616c726561647920726567697374657265645f5f76616c696461746553657441757468557365723a2046756e6420686173206e6f74206265656e206163746976617465645f5f70726550726f63657373436f493a204475706c6963617465207370656e6420617373657463616c6c4f6e496e746567726174696f6e3a2041646170746572206973206e6f7420726567697374657265645f5f72656d6f76655a65726f42616c616e6365547261636b65644173736574733a2043616e6e6f742072656d6f76652064656e6f6d696e6174696f6e2061737365746465726567697374657241646170746572733a2041646170746572206973206e6f7420726567697374657265645f5f70726550726f63657373436f493a20496e636f6d696e67206173736574732061727261797320756e657175616c616374696f6e466f7252656465656d3a2041646170746572206973206e6f742072656769737465726564616374696f6e466f7252656465656d3a2046756e64206973206e6f74206163746976655f5f7265636f6e63696c65436f494173736574733a20526563656976656420696e636f6d696e67206173736574206c657373207468616e2065787065637465645f5f6164645a65726f42616c616e6365547261636b65644173736574733a20556e737570706f727465642061737365745f5f70726550726f63657373436f493a206d696e496e636f6d696e674173736574416d6f756e74206d757374206265203e307265636569766543616c6c46726f6d436f6d7074726f6c6c65723a204e6f7420616e20617574686f72697a65642075736572a26469706673582212203b825e1a1a70221f1432dc47cbe138e0740e56c1523bc71ca648b339d0b9745f64736f6c634300060c0033",
  "devdoc": {
    "kind": "dev",
    "methods": {
      "adapterIsRegistered(address)": {
        "params": {
          "_adapter": "The adapter to check"
        },
        "returns": {
          "isRegistered_": "True if the adapter is registered"
        }
      },
      "addAuthUserForFund(address,address)": {
        "params": {
          "_comptrollerProxy": "The ComptrollerProxy of the fund",
          "_who": "The user to authorize"
        }
      },
      "deregisterAdapters(address[])": {
        "params": {
          "_adapters": "Addresses of adapters to be deregistered"
        }
      },
      "getDerivativePriceFeed()": {
        "returns": {
          "derivativePriceFeed_": "The `DERIVATIVE_PRICE_FEED` variable value"
        }
      },
      "getFundDeployer()": {
        "returns": {
          "fundDeployer_": "The `FUND_DEPLOYER` variable value"
        }
      },
      "getOwner()": {
        "details": "Ownership is deferred to the owner of the FundDeployer contract",
        "returns": {
          "owner_": "The owner"
        }
      },
      "getPolicyManager()": {
        "returns": {
          "policyManager_": "The `POLICY_MANAGER` variable value"
        }
      },
      "getPrimitivePriceFeed()": {
        "returns": {
          "primitivePriceFeed_": "The `PRIMITIVE_PRICE_FEED` variable value"
        }
      },
      "getRegisteredAdapters()": {
        "returns": {
          "registeredAdaptersArray_": "A list of all registered integration adapters"
        }
      },
      "getVaultProxyForFund(address)": {
        "params": {
          "_comptrollerProxy": "The ComptrollerProxy of the fund"
        },
        "returns": {
          "vaultProxy_": "The VaultProxy of the fund"
        }
      },
      "isAuthUserForFund(address,address)": {
        "params": {
          "_comptrollerProxy": "The ComptrollerProxy of the fund",
          "_who": "The account to check"
        },
        "returns": {
          "isAuthUser_": "True if the account is an authorized user or the fund owner"
        }
      },
      "receiveCallFromComptroller(address,uint256,bytes)": {
        "params": {
          "_actionId": "An ID representing the desired action",
          "_callArgs": "The encoded args for the action",
          "_caller": "The user who called for this action"
        }
      },
      "registerAdapters(address[])": {
        "params": {
          "_adapters": "Addresses of adapters to be registered"
        }
      },
      "removeAuthUserForFund(address,address)": {
        "params": {
          "_comptrollerProxy": "The ComptrollerProxy of the fund",
          "_who": "The authorized user to remove"
        }
      },
      "setConfigForFund(bytes)": {
        "details": "Unimplemented by default, may be overridden."
      }
    },
    "title": "IntegrationManager",
    "version": 1
  },
  "userdoc": {
    "kind": "user",
    "methods": {
      "activateForFund(bool)": {
        "notice": "Activates the extension by storing the VaultProxy"
      },
      "adapterIsRegistered(address)": {
        "notice": "Checks if an integration adapter is registered"
      },
      "addAuthUserForFund(address,address)": {
        "notice": "Authorizes a user to act on behalf of a fund via the IntegrationManager"
      },
      "deactivateForFund()": {
        "notice": "Deactivate the extension by destroying storage"
      },
      "deregisterAdapters(address[])": {
        "notice": "Remove integration adapters from the list of registered adapters"
      },
      "getDerivativePriceFeed()": {
        "notice": "Gets the `DERIVATIVE_PRICE_FEED` variable"
      },
      "getFundDeployer()": {
        "notice": "Gets the `FUND_DEPLOYER` variable"
      },
      "getOwner()": {
        "notice": "Gets the owner of this contract"
      },
      "getPolicyManager()": {
        "notice": "Gets the `POLICY_MANAGER` variable"
      },
      "getPrimitivePriceFeed()": {
        "notice": "Gets the `PRIMITIVE_PRICE_FEED` variable"
      },
      "getRegisteredAdapters()": {
        "notice": "Gets all registered integration adapters"
      },
      "getVaultProxyForFund(address)": {
        "notice": "Gets the verified VaultProxy for a given ComptrollerProxy"
      },
      "isAuthUserForFund(address,address)": {
        "notice": "Checks whether an account is an authorized IntegrationManager user for a given fund"
      },
      "receiveCallFromComptroller(address,uint256,bytes)": {
        "notice": "Receives a dispatched `callOnExtension` from a fund's ComptrollerProxy"
      },
      "registerAdapters(address[])": {
        "notice": "Add integration adapters to the list of registered adapters"
      },
      "removeAuthUserForFund(address,address)": {
        "notice": "Removes an authorized user from the IntegrationManager for the given fund"
      },
      "setConfigForFund(bytes)": {
        "notice": "Allows extension to run logic during fund configuration"
      }
    },
    "notice": "Extension to handle DeFi integration actions for funds",
    "version": 1
  },
  "storageLayout": {
    "storage": [
      {
        "astId": 31995,
        "contract": "contracts/release/extensions/integration-manager/IntegrationManager.sol:IntegrationManager",
        "label": "comptrollerProxyToVaultProxy",
        "offset": 0,
        "slot": "0",
        "type": "t_mapping(t_address,t_address)"
      },
      {
        "astId": 19092,
        "contract": "contracts/release/extensions/integration-manager/IntegrationManager.sol:IntegrationManager",
        "label": "registeredAdapters",
        "offset": 0,
        "slot": "1",
        "type": "t_struct(AddressSet)2091_storage"
      },
      {
        "astId": 19098,
        "contract": "contracts/release/extensions/integration-manager/IntegrationManager.sol:IntegrationManager",
        "label": "comptrollerProxyToAcctToIsAuthUser",
        "offset": 0,
        "slot": "3",
        "type": "t_mapping(t_address,t_mapping(t_address,t_bool))"
      }
    ],
    "types": {
      "t_address": {
        "encoding": "inplace",
        "label": "address",
        "numberOfBytes": "20"
      },
      "t_array(t_bytes32)dyn_storage": {
        "base": "t_bytes32",
        "encoding": "dynamic_array",
        "label": "bytes32[]",
        "numberOfBytes": "32"
      },
      "t_bool": {
        "encoding": "inplace",
        "label": "bool",
        "numberOfBytes": "1"
      },
      "t_bytes32": {
        "encoding": "inplace",
        "label": "bytes32",
        "numberOfBytes": "32"
      },
      "t_mapping(t_address,t_address)": {
        "encoding": "mapping",
        "key": "t_address",
        "label": "mapping(address => address)",
        "numberOfBytes": "32",
        "value": "t_address"
      },
      "t_mapping(t_address,t_bool)": {
        "encoding": "mapping",
        "key": "t_address",
        "label": "mapping(address => bool)",
        "numberOfBytes": "32",
        "value": "t_bool"
      },
      "t_mapping(t_address,t_mapping(t_address,t_bool))": {
        "encoding": "mapping",
        "key": "t_address",
        "label": "mapping(address => mapping(address => bool))",
        "numberOfBytes": "32",
        "value": "t_mapping(t_address,t_bool)"
      },
      "t_mapping(t_bytes32,t_uint256)": {
        "encoding": "mapping",
        "key": "t_bytes32",
        "label": "mapping(bytes32 => uint256)",
        "numberOfBytes": "32",
        "value": "t_uint256"
      },
      "t_struct(AddressSet)2091_storage": {
        "encoding": "inplace",
        "label": "struct EnumerableSet.AddressSet",
        "members": [
          {
            "astId": 2090,
            "contract": "contracts/release/extensions/integration-manager/IntegrationManager.sol:IntegrationManager",
            "label": "_inner",
            "offset": 0,
            "slot": "0",
            "type": "t_struct(Set)1826_storage"
          }
        ],
        "numberOfBytes": "64"
      },
      "t_struct(Set)1826_storage": {
        "encoding": "inplace",
        "label": "struct EnumerableSet.Set",
        "members": [
          {
            "astId": 1821,
            "contract": "contracts/release/extensions/integration-manager/IntegrationManager.sol:IntegrationManager",
            "label": "_values",
            "offset": 0,
            "slot": "0",
            "type": "t_array(t_bytes32)dyn_storage"
          },
          {
            "astId": 1825,
            "contract": "contracts/release/extensions/integration-manager/IntegrationManager.sol:IntegrationManager",
            "label": "_indexes",
            "offset": 0,
            "slot": "1",
            "type": "t_mapping(t_bytes32,t_uint256)"
          }
        ],
        "numberOfBytes": "64"
      },
      "t_uint256": {
        "encoding": "inplace",
        "label": "uint256",
        "numberOfBytes": "32"
      }
    }
  }
}