{
  "address": "0x0D5d690360de2Cd1A29C5d7D73884DE96DB84992",
  "abi": [
    {
      "inputs": [
        {
          "internalType": "address",
          "name": "_policyManager",
          "type": "address"
        },
        {
          "internalType": "address",
          "name": "_valueInterpreter",
          "type": "address"
        }
      ],
      "stateMutability": "nonpayable",
      "type": "constructor"
    },
    {
      "anonymous": false,
      "inputs": [
        {
          "indexed": true,
          "internalType": "address",
          "name": "comptrollerProxy",
          "type": "address"
        },
        {
          "indexed": false,
          "internalType": "uint256",
          "name": "value",
          "type": "uint256"
        }
      ],
      "name": "MaxConcentrationSet",
      "type": "event"
    },
    {
      "inputs": [
        {
          "internalType": "address",
          "name": "_comptrollerProxy",
          "type": "address"
        },
        {
          "internalType": "address",
          "name": "_vaultProxy",
          "type": "address"
        }
      ],
      "name": "activateForFund",
      "outputs": [],
      "stateMutability": "nonpayable",
      "type": "function"
    },
    {
      "inputs": [
        {
          "internalType": "address",
          "name": "_comptrollerProxy",
          "type": "address"
        },
        {
          "internalType": "bytes",
          "name": "_encodedSettings",
          "type": "bytes"
        }
      ],
      "name": "addFundSettings",
      "outputs": [],
      "stateMutability": "nonpayable",
      "type": "function"
    },
    {
      "inputs": [
        {
          "internalType": "address",
          "name": "_comptrollerProxy",
          "type": "address"
        }
      ],
      "name": "getMaxConcentrationForFund",
      "outputs": [
        {
          "internalType": "uint256",
          "name": "maxConcentration_",
          "type": "uint256"
        }
      ],
      "stateMutability": "view",
      "type": "function"
    },
    {
      "inputs": [],
      "name": "getPolicyManager",
      "outputs": [
        {
          "internalType": "address",
          "name": "policyManager_",
          "type": "address"
        }
      ],
      "stateMutability": "view",
      "type": "function"
    },
    {
      "inputs": [],
      "name": "getValueInterpreter",
      "outputs": [
        {
          "internalType": "address",
          "name": "valueInterpreter_",
          "type": "address"
        }
      ],
      "stateMutability": "view",
      "type": "function"
    },
    {
      "inputs": [],
      "name": "identifier",
      "outputs": [
        {
          "internalType": "string",
          "name": "identifier_",
          "type": "string"
        }
      ],
      "stateMutability": "pure",
      "type": "function"
    },
    {
      "inputs": [],
      "name": "implementedHooks",
      "outputs": [
        {
          "internalType": "enum IPolicyManager.PolicyHook[]",
          "name": "implementedHooks_",
          "type": "uint8[]"
        }
      ],
      "stateMutability": "view",
      "type": "function"
    },
    {
      "inputs": [
        {
          "internalType": "address",
          "name": "_comptrollerProxy",
          "type": "address"
        },
        {
          "internalType": "address",
          "name": "_vaultProxy",
          "type": "address"
        },
        {
          "internalType": "address[]",
          "name": "_assets",
          "type": "address[]"
        }
      ],
      "name": "passesRule",
      "outputs": [
        {
          "internalType": "bool",
          "name": "isValid_",
          "type": "bool"
        }
      ],
      "stateMutability": "nonpayable",
      "type": "function"
    },
    {
      "inputs": [
        {
          "internalType": "address",
          "name": "",
          "type": "address"
        },
        {
          "internalType": "address",
          "name": "",
          "type": "address"
        },
        {
          "internalType": "bytes",
          "name": "",
          "type": "bytes"
        }
      ],
      "name": "updateFundSettings",
      "outputs": [],
      "stateMutability": "nonpayable",
      "type": "function"
    },
    {
      "inputs": [
        {
          "internalType": "address",
          "name": "_comptrollerProxy",
          "type": "address"
        },
        {
          "internalType": "address",
          "name": "_vaultProxy",
          "type": "address"
        },
        {
          "internalType": "enum IPolicyManager.PolicyHook",
          "name": "",
          "type": "uint8"
        },
        {
          "internalType": "bytes",
          "name": "_encodedArgs",
          "type": "bytes"
        }
      ],
      "name": "validateRule",
      "outputs": [
        {
          "internalType": "bool",
          "name": "isValid_",
          "type": "bool"
        }
      ],
      "stateMutability": "nonpayable",
      "type": "function"
    }
  ],
  "transactionHash": "0xd6365874fd14902a07bc5beb25e9d174833d0c0e155ec159a107966570a73840",
  "args": [
    "0x9889DfAAb3AC441c8E211D7eEda131066c5fa6d2",
    "0x5c1c767FDb33A0FC0740831c6F4F1F3F162d90C9"
  ],
  "linkedData": {
    "type": "POLICY"
  },
  "solcInputHash": "616bcd197648f809b4b4e612fb09cc9a",
  "bytecode": "0x60c060405234801561001057600080fd5b506040516111153803806111158339818101604052604081101561003357600080fd5b5080516020909101516001600160601b0319606092831b8116608052911b1660a05260805160601c60a05160601c61108861008d600039806109a65280610b525250806105ef528061075e5280610a5852506110886000f3fe608060405234801561001057600080fd5b506004361061009e5760003560e01c80637998a1c4116100665780637998a1c4146102e8578063875fb4b3146103655780638945f19014610389578063cbf54bb214610410578063d44ad6cb146104685761009e565b8063010c745a146100a35780630f5f6b4f146101715780632192f872146101f15780633146d058146102295780635b8f1c5a14610257575b600080fd5b61015d600480360360608110156100b957600080fd5b6001600160a01b038235811692602081013590911691810190606081016040820135600160201b8111156100ec57600080fd5b8201836020820111156100fe57600080fd5b803590602001918460208302840111600160201b8311171561011f57600080fd5b919080806020026020016040519081016040528093929190818152602001838360200280828437600092019190915250929550610470945050505050565b604080519115158252519081900360200190f35b6101ef6004803603604081101561018757600080fd5b6001600160a01b038235169190810190604081016020820135600160201b8111156101b157600080fd5b8201836020820111156101c357600080fd5b803590602001918460018302840111600160201b831117156101e457600080fd5b5090925090506105e4565b005b6102176004803603602081101561020757600080fd5b50356001600160a01b0316610738565b60408051918252519081900360200190f35b6101ef6004803603604081101561023f57600080fd5b506001600160a01b0381358116916020013516610753565b61015d6004803603608081101561026d57600080fd5b6001600160a01b03823581169260208101359091169160ff6040830135169190810190608081016060820135600160201b8111156102aa57600080fd5b8201836020820111156102bc57600080fd5b803590602001918460018302840111600160201b831117156102dd57600080fd5b509092509050610903565b6102f0610979565b6040805160208082528351818301528351919283929083019185019080838360005b8381101561032a578181015183820152602001610312565b50505050905090810190601f1680156103575780820380516001836020036101000a031916815260200191505b509250505060405180910390f35b61036d6109a4565b604080516001600160a01b039092168252519081900360200190f35b6101ef6004803603606081101561039f57600080fd5b6001600160a01b038235811692602081013590911691810190606081016040820135600160201b8111156103d257600080fd5b8201836020820111156103e457600080fd5b803590602001918460018302840111600160201b8311171561040557600080fd5b5090925090506109c8565b6104186109ff565b60408051602080825283518183015283519192839290830191858101910280838360005b8381101561045457818101518382015260200161043c565b505050509050019250505060405180910390f35b61036d610a56565b6001600160a01b038316600081815260208181526040808320548151637134e1eb60e11b81529151939490938893869363e269c3d69260048083019392829003018186803b1580156104c157600080fd5b505afa1580156104d5573d6000803e3d6000fd5b505050506040513d60208110156104eb57600080fd5b505160408051637a89e49360e11b815260006004820181905282519394509283926001600160a01b0387169263f513c926926024808301939282900301818787803b15801561053957600080fd5b505af115801561054d573d6000803e3d6000fd5b505050506040513d604081101561056357600080fd5b508051602090910151909250905080610584576000955050505050506105dd565b60005b87518110156105d257600088828151811061059e57fe5b602002602001015190506105b58a86898785610a7a565b6105c95760009750505050505050506105dd565b50600101610587565b506001955050505050505b9392505050565b336001600160a01b037f0000000000000000000000000000000000000000000000000000000000000000161461064b5760405162461bcd60e51b815260040180806020018281038252602981526020018061102a6029913960400191505060405180910390fd5b60008282602081101561065d57600080fd5b503590508061069d5760405162461bcd60e51b8152600401808060200182810382526038815260200180610f3b6038913960400191505060405180910390fd5b670de0b6b3a76400008111156106e45760405162461bcd60e51b8152600401808060200182810382526034815260200180610faa6034913960400191505060405180910390fd5b6001600160a01b03841660008181526020818152604091829020849055815184815291517fef41a9a32cfab2f6519493409dfbed99450f7931c270d4f0b31bb40d159137e29281900390910190a250505050565b6001600160a01b031660009081526020819052604090205490565b336001600160a01b037f000000000000000000000000000000000000000000000000000000000000000016146107ba5760405162461bcd60e51b815260040180806020018281038252602981526020018061102a6029913960400191505060405180910390fd5b6108c48282836001600160a01b031663c4b973706040518163ffffffff1660e01b815260040160006040518083038186803b1580156107f857600080fd5b505afa15801561080c573d6000803e3d6000fd5b505050506040513d6000823e601f3d908101601f19168201604052602081101561083557600080fd5b8101908080516040519392919084600160201b82111561085457600080fd5b90830190602082018581111561086957600080fd5b82518660208202830111600160201b8211171561088557600080fd5b82525081516020918201928201910280838360005b838110156108b257818101518382015260200161089a565b50505050905001604052505050610470565b6108ff5760405162461bcd60e51b815260040180806020018281038252602b815260200180610fde602b913960400191505060405180910390fd5b5050565b6000606061094684848080601f016020809104026020016040519081016040528093929190818152602001838380828437600092019190915250610c1792505050565b50505092505050805160001415610961576001915050610970565b61096c878783610470565b9150505b95945050505050565b60408051808201909152601181527026a0ac2fa1a7a721a2a72a2920aa24a7a760791b602082015290565b7f000000000000000000000000000000000000000000000000000000000000000090565b60405162461bcd60e51b8152600401808060200182810382526037815260200180610f736037913960400191505060405180910390fd5b60408051600180825281830190925260609160208083019080368337019050509050600581600081518110610a3057fe5b60200260200101906005811115610a4357fe5b90816005811115610a5057fe5b90525090565b7f000000000000000000000000000000000000000000000000000000000000000090565b6000846001600160a01b0316826001600160a01b03161415610a9e57506001610970565b6000826001600160a01b03166370a08231886040518263ffffffff1660e01b815260040180826001600160a01b0316815260200191505060206040518083038186803b158015610aed57600080fd5b505afa158015610b01573d6000803e3d6000fd5b505050506040513d6020811015610b1757600080fd5b505160408051637733db7d60e01b81526001600160a01b038681166004830152602482018490528981166044830152825193945060009384937f000000000000000000000000000000000000000000000000000000000000000090921692637733db7d92606480830193919282900301818787803b158015610b9857600080fd5b505af1158015610bac573d6000803e3d6000fd5b505050506040513d6040811015610bc257600080fd5b5080516020909101519092509050801580610bf7575086610bf587610bef85670de0b6b3a7640000610e71565b90610ed3565b115b15610c085760009350505050610970565b50600198975050505050505050565b6000806060806060808680602001905160c0811015610c3557600080fd5b81516020830151604080850180519151939592948301929184600160201b821115610c5f57600080fd5b908301906020820185811115610c7457600080fd5b82518660208202830111600160201b82111715610c9057600080fd5b82525081516020918201928201910280838360005b83811015610cbd578181015183820152602001610ca5565b5050505090500160405260200180516040519392919084600160201b821115610ce557600080fd5b908301906020820185811115610cfa57600080fd5b82518660208202830111600160201b82111715610d1657600080fd5b82525081516020918201928201910280838360005b83811015610d43578181015183820152602001610d2b565b5050505090500160405260200180516040519392919084600160201b821115610d6b57600080fd5b908301906020820185811115610d8057600080fd5b82518660208202830111600160201b82111715610d9c57600080fd5b82525081516020918201928201910280838360005b83811015610dc9578181015183820152602001610db1565b5050505090500160405260200180516040519392919084600160201b821115610df157600080fd5b908301906020820185811115610e0657600080fd5b82518660208202830111600160201b82111715610e2257600080fd5b82525081516020918201928201910280838360005b83811015610e4f578181015183820152602001610e37565b5050505090500160405250505095509550955095509550955091939550919395565b600082610e8057506000610ecd565b82820282848281610e8d57fe5b0414610eca5760405162461bcd60e51b81526004018080602001828103825260218152602001806110096021913960400191505060405180910390fd5b90505b92915050565b6000808211610f29576040805162461bcd60e51b815260206004820152601a60248201527f536166654d6174683a206469766973696f6e206279207a65726f000000000000604482015290519081900360640190fd5b818381610f3257fe5b04939250505056fe61646446756e6453657474696e67733a206d6178436f6e63656e74726174696f6e206d7573742062652067726561746572207468616e203075706461746546756e6453657474696e67733a2055706461746573206e6f7420616c6c6f77656420666f72207468697320706f6c69637961646446756e6453657474696e67733a206d6178436f6e63656e74726174696f6e2063616e6e6f742065786365656420313030256163746976617465466f7246756e643a204d617820636f6e63656e74726174696f6e206578636565646564536166654d6174683a206d756c7469706c69636174696f6e206f766572666c6f774f6e6c792074686520506f6c6963794d616e616765722063616e206d616b6520746869732063616c6ca264697066735822122008ebc140546e430dbf2f0830142caae57804e9032d31448b4e6dc6104762b95064736f6c634300060c0033",
  "devdoc": {
    "kind": "dev",
    "methods": {
      "activateForFund(address,address)": {
        "details": "No need to authenticate access, as there are no state transitions",
        "params": {
          "_comptrollerProxy": "The fund's ComptrollerProxy address",
          "_vaultProxy": "The fund's VaultProxy address"
        }
      },
      "addFundSettings(address,bytes)": {
        "params": {
          "_comptrollerProxy": "The fund's ComptrollerProxy address",
          "_encodedSettings": "Encoded settings to apply to a fund"
        }
      },
      "getMaxConcentrationForFund(address)": {
        "params": {
          "_comptrollerProxy": "The ComptrollerProxy of the fund"
        },
        "returns": {
          "maxConcentration_": "The maxConcentration"
        }
      },
      "getPolicyManager()": {
        "returns": {
          "policyManager_": "The `POLICY_MANAGER` variable value"
        }
      },
      "getValueInterpreter()": {
        "returns": {
          "valueInterpreter_": "The `VALUE_INTERPRETER` variable value"
        }
      },
      "identifier()": {
        "returns": {
          "identifier_": "The identifer string"
        }
      },
      "implementedHooks()": {
        "returns": {
          "implementedHooks_": "The implemented PolicyHooks"
        }
      },
      "passesRule(address,address,address[])": {
        "details": "The fund's denomination asset is exempt from the policy limit.",
        "params": {
          "_assets": "The assets with which to check the rule",
          "_comptrollerProxy": "The fund's ComptrollerProxy address",
          "_vaultProxy": "The fund's VaultProxy address"
        },
        "returns": {
          "isValid_": "True if the rule passes"
        }
      },
      "updateFundSettings(address,address,bytes)": {
        "details": "Disallowed by default, can be overridden by the policy"
      },
      "validateRule(address,address,uint8,bytes)": {
        "params": {
          "_comptrollerProxy": "The fund's ComptrollerProxy address",
          "_encodedArgs": "Encoded args with which to validate the rule",
          "_vaultProxy": "The fund's VaultProxy address"
        },
        "returns": {
          "isValid_": "True if the rule passes"
        }
      }
    },
    "title": "MaxConcentration Contract",
    "version": 1
  },
  "userdoc": {
    "kind": "user",
    "methods": {
      "activateForFund(address,address)": {
        "notice": "Validates and initializes a policy as necessary prior to fund activation"
      },
      "addFundSettings(address,bytes)": {
        "notice": "Add the initial policy settings for a fund"
      },
      "getMaxConcentrationForFund(address)": {
        "notice": "Gets the maxConcentration for a given fund"
      },
      "getPolicyManager()": {
        "notice": "Gets the `POLICY_MANAGER` variable value"
      },
      "getValueInterpreter()": {
        "notice": "Gets the `VALUE_INTERPRETER` variable"
      },
      "identifier()": {
        "notice": "Provides a constant string identifier for a policy"
      },
      "implementedHooks()": {
        "notice": "Gets the implemented PolicyHooks for a policy"
      },
      "passesRule(address,address,address[])": {
        "notice": "Checks whether a particular condition passes the rule for a particular fund"
      },
      "updateFundSettings(address,address,bytes)": {
        "notice": "Updates the policy settings for a fund"
      },
      "validateRule(address,address,uint8,bytes)": {
        "notice": "Apply the rule with the specified parameters of a PolicyHook"
      }
    },
    "notice": "A policy that defines a configurable threshold for the concentration of any one asset in a fund's holdings",
    "version": 1
  },
  "storageLayout": {
    "storage": [
      {
        "astId": 31292,
        "contract": "contracts/release/extensions/policy-manager/policies/call-on-integration/MaxConcentration.sol:MaxConcentration",
        "label": "comptrollerProxyToMaxConcentration",
        "offset": 0,
        "slot": "0",
        "type": "t_mapping(t_address,t_uint256)"
      }
    ],
    "types": {
      "t_address": {
        "encoding": "inplace",
        "label": "address",
        "numberOfBytes": "20"
      },
      "t_mapping(t_address,t_uint256)": {
        "encoding": "mapping",
        "key": "t_address",
        "label": "mapping(address => uint256)",
        "numberOfBytes": "32",
        "value": "t_uint256"
      },
      "t_uint256": {
        "encoding": "inplace",
        "label": "uint256",
        "numberOfBytes": "32"
      }
    }
  }
}