{
  "address": "0x29BB4f6734D79182985A17261B90D5606c8a9694",
  "abi": [
    {
      "inputs": [
        {
          "internalType": "address",
          "name": "_feeManager",
          "type": "address"
        }
      ],
      "stateMutability": "nonpayable",
      "type": "constructor"
    },
    {
      "anonymous": false,
      "inputs": [
        {
          "indexed": true,
          "internalType": "address",
          "name": "comptrollerProxy",
          "type": "address"
        },
        {
          "indexed": false,
          "internalType": "uint256",
          "name": "highWaterMark",
          "type": "uint256"
        }
      ],
      "name": "ActivatedForFund",
      "type": "event"
    },
    {
      "anonymous": false,
      "inputs": [
        {
          "indexed": true,
          "internalType": "address",
          "name": "comptrollerProxy",
          "type": "address"
        },
        {
          "indexed": false,
          "internalType": "uint256",
          "name": "rate",
          "type": "uint256"
        },
        {
          "indexed": false,
          "internalType": "uint256",
          "name": "period",
          "type": "uint256"
        }
      ],
      "name": "FundSettingsAdded",
      "type": "event"
    },
    {
      "anonymous": false,
      "inputs": [
        {
          "indexed": true,
          "internalType": "address",
          "name": "comptrollerProxy",
          "type": "address"
        },
        {
          "indexed": false,
          "internalType": "uint256",
          "name": "prevSharePrice",
          "type": "uint256"
        },
        {
          "indexed": false,
          "internalType": "uint256",
          "name": "nextSharePrice",
          "type": "uint256"
        }
      ],
      "name": "LastSharePriceUpdated",
      "type": "event"
    },
    {
      "anonymous": false,
      "inputs": [
        {
          "indexed": true,
          "internalType": "address",
          "name": "comptrollerProxy",
          "type": "address"
        },
        {
          "indexed": false,
          "internalType": "uint256",
          "name": "prevHighWaterMark",
          "type": "uint256"
        },
        {
          "indexed": false,
          "internalType": "uint256",
          "name": "nextHighWaterMark",
          "type": "uint256"
        },
        {
          "indexed": false,
          "internalType": "uint256",
          "name": "aggregateValueDue",
          "type": "uint256"
        }
      ],
      "name": "PaidOut",
      "type": "event"
    },
    {
      "anonymous": false,
      "inputs": [
        {
          "indexed": true,
          "internalType": "address",
          "name": "comptrollerProxy",
          "type": "address"
        },
        {
          "indexed": false,
          "internalType": "uint256",
          "name": "prevAggregateValueDue",
          "type": "uint256"
        },
        {
          "indexed": false,
          "internalType": "uint256",
          "name": "nextAggregateValueDue",
          "type": "uint256"
        },
        {
          "indexed": false,
          "internalType": "int256",
          "name": "sharesOutstandingDiff",
          "type": "int256"
        }
      ],
      "name": "PerformanceUpdated",
      "type": "event"
    },
    {
      "inputs": [
        {
          "internalType": "address",
          "name": "_comptrollerProxy",
          "type": "address"
        },
        {
          "internalType": "address",
          "name": "",
          "type": "address"
        }
      ],
      "name": "activateForFund",
      "outputs": [],
      "stateMutability": "nonpayable",
      "type": "function"
    },
    {
      "inputs": [
        {
          "internalType": "address",
          "name": "_comptrollerProxy",
          "type": "address"
        },
        {
          "internalType": "bytes",
          "name": "_settingsData",
          "type": "bytes"
        }
      ],
      "name": "addFundSettings",
      "outputs": [],
      "stateMutability": "nonpayable",
      "type": "function"
    },
    {
      "inputs": [
        {
          "internalType": "address",
          "name": "_comptrollerProxy",
          "type": "address"
        }
      ],
      "name": "getFeeInfoForFund",
      "outputs": [
        {
          "components": [
            {
              "internalType": "uint256",
              "name": "rate",
              "type": "uint256"
            },
            {
              "internalType": "uint256",
              "name": "period",
              "type": "uint256"
            },
            {
              "internalType": "uint256",
              "name": "activated",
              "type": "uint256"
            },
            {
              "internalType": "uint256",
              "name": "lastPaid",
              "type": "uint256"
            },
            {
              "internalType": "uint256",
              "name": "highWaterMark",
              "type": "uint256"
            },
            {
              "internalType": "uint256",
              "name": "lastSharePrice",
              "type": "uint256"
            },
            {
              "internalType": "uint256",
              "name": "aggregateValueDue",
              "type": "uint256"
            }
          ],
          "internalType": "struct PerformanceFeeHWM.FeeInfo",
          "name": "feeInfo_",
          "type": "tuple"
        }
      ],
      "stateMutability": "view",
      "type": "function"
    },
    {
      "inputs": [],
      "name": "getFeeManager",
      "outputs": [
        {
          "internalType": "address",
          "name": "feeManager_",
          "type": "address"
        }
      ],
      "stateMutability": "view",
      "type": "function"
    },
    {
      "inputs": [],
      "name": "identifier",
      "outputs": [
        {
          "internalType": "string",
          "name": "identifier_",
          "type": "string"
        }
      ],
      "stateMutability": "pure",
      "type": "function"
    },
    {
      "inputs": [],
      "name": "implementedHooks",
      "outputs": [
        {
          "internalType": "enum IFeeManager.FeeHook[]",
          "name": "implementedHooksForSettle_",
          "type": "uint8[]"
        },
        {
          "internalType": "enum IFeeManager.FeeHook[]",
          "name": "implementedHooksForUpdate_",
          "type": "uint8[]"
        },
        {
          "internalType": "bool",
          "name": "usesGavOnSettle_",
          "type": "bool"
        },
        {
          "internalType": "bool",
          "name": "usesGavOnUpdate_",
          "type": "bool"
        }
      ],
      "stateMutability": "view",
      "type": "function"
    },
    {
      "inputs": [
        {
          "internalType": "address",
          "name": "_comptrollerProxy",
          "type": "address"
        },
        {
          "internalType": "address",
          "name": "",
          "type": "address"
        }
      ],
      "name": "payout",
      "outputs": [
        {
          "internalType": "bool",
          "name": "isPayable_",
          "type": "bool"
        }
      ],
      "stateMutability": "nonpayable",
      "type": "function"
    },
    {
      "inputs": [
        {
          "internalType": "address",
          "name": "_comptrollerProxy",
          "type": "address"
        }
      ],
      "name": "payoutAllowed",
      "outputs": [
        {
          "internalType": "bool",
          "name": "payoutAllowed_",
          "type": "bool"
        }
      ],
      "stateMutability": "view",
      "type": "function"
    },
    {
      "inputs": [
        {
          "internalType": "address",
          "name": "_comptrollerProxy",
          "type": "address"
        },
        {
          "internalType": "address",
          "name": "_vaultProxy",
          "type": "address"
        },
        {
          "internalType": "enum IFeeManager.FeeHook",
          "name": "",
          "type": "uint8"
        },
        {
          "internalType": "bytes",
          "name": "",
          "type": "bytes"
        },
        {
          "internalType": "uint256",
          "name": "_gav",
          "type": "uint256"
        }
      ],
      "name": "settle",
      "outputs": [
        {
          "internalType": "enum IFeeManager.SettlementType",
          "name": "settlementType_",
          "type": "uint8"
        },
        {
          "internalType": "address",
          "name": "",
          "type": "address"
        },
        {
          "internalType": "uint256",
          "name": "sharesDue_",
          "type": "uint256"
        }
      ],
      "stateMutability": "nonpayable",
      "type": "function"
    },
    {
      "inputs": [
        {
          "internalType": "address",
          "name": "_comptrollerProxy",
          "type": "address"
        },
        {
          "internalType": "address",
          "name": "_vaultProxy",
          "type": "address"
        },
        {
          "internalType": "enum IFeeManager.FeeHook",
          "name": "_hook",
          "type": "uint8"
        },
        {
          "internalType": "bytes",
          "name": "_settlementData",
          "type": "bytes"
        },
        {
          "internalType": "uint256",
          "name": "_gav",
          "type": "uint256"
        }
      ],
      "name": "update",
      "outputs": [],
      "stateMutability": "nonpayable",
      "type": "function"
    }
  ],
  "transactionHash": "0xa04a8cfb8466ff22de240225b688177842a73ddbaf8d2cac6c9c7d4995d72020",
  "args": [
    "0xc8A394A3537092D9728B5480070A1bF29c8F3e20"
  ],
  "linkedData": {
    "type": "FEE"
  },
  "solcInputHash": "616bcd197648f809b4b4e612fb09cc9a",
  "bytecode": "0x60a06040523480156200001157600080fd5b5060405162001e3238038062001e3283398101604081905262000034916200005d565b60601b6001600160601b031916608052620000b2565b8051620000578162000098565b92915050565b6000602082840312156200007057600080fd5b60006200007e84846200004a565b949350505050565b60006001600160a01b03821662000057565b620000a38162000086565b8114620000af57600080fd5b50565b60805160601c611d44620000ee6000398061026b52806103cf52806104eb5280610635528061077f5280610a0b52806110d25250611d446000f3fe608060405234801561001057600080fd5b506004361061009e5760003560e01c80637998a1c4116100665780637998a1c414610129578063877fd4731461013e578063b78b48131461015e578063cbf54bb214610171578063f2d63826146101895761009e565b806305be5783146100a35780630f5f6b4f146100cc578063233faf5f146100e15780633146d058146100f457806341892d7e14610107575b600080fd5b6100b66100b13660046113bf565b61019e565b6040516100c39190611ae9565b60405180910390f35b6100df6100da3660046114f5565b610260565b005b6100df6100ef366004611465565b6103c4565b6100df610102366004611435565b6104e0565b61011a610115366004611465565b610626565b6040516100c393929190611af7565b6101316106db565b6040516100c39190611b1f565b61015161014c3660046113bf565b610700565b6040516100c39190611bf0565b6100b661016c366004611435565b610772565b610179610881565b6040516100c39493929190611aa8565b610191610a09565b6040516100c39190611a7f565b60006101a86112ec565b506001600160a01b038216600090815260208181526040808320815160e08101835281548152600182015493810184905260028201549281018390526003820154606082015260048201546080820152600582015460a082015260069091015460c0820152929061021a904290610a2d565b905081811015610230576000935050505061025b565b600082828161023b57fe5b069050600061024a4283610a2d565b905080856060015110955050505050505b919050565b336001600160a01b037f000000000000000000000000000000000000000000000000000000000000000016146102b15760405162461bcd60e51b81526004016102a890611b70565b60405180910390fd5b6000806102c083850185611599565b91509150600082116102e45760405162461bcd60e51b81526004016102a890611bb0565b62278d008110156103075760405162461bcd60e51b81526004016102a890611b60565b6040805160e08101825283815260208082018481526000838501818152606085018281526080860183815260a0870184815260c088018581526001600160a01b038f168087529786905294899020975188559451600188015591516002870155516003860155516004850155905160058401555160069092019190915590517f9f856f74192181b265e61298e386477299c53e0cb24be55a84416f2af4ba4a61906103b59085908590611c0c565b60405180910390a25050505050565b336001600160a01b037f0000000000000000000000000000000000000000000000000000000000000000161461040c5760405162461bcd60e51b81526004016102a890611b70565b6001600160a01b038616600090815260208181526040808320600501548151601f8701849004840281018401909252858252929161046c918a918a918a918a908a90819084018382808284376000920191909152508a9250610a55915050565b90508181141561047d5750506104d8565b6001600160a01b03881660008181526020819052604090819020600501839055517f040fdaa9ed9dd9e4588f1f96145d5517471e7b518fb5d56d8504eb839f50b653906104cd9085908590611c0c565b60405180910390a250505b505050505050565b336001600160a01b037f000000000000000000000000000000000000000000000000000000000000000016146105285760405162461bcd60e51b81526004016102a890611b70565b6001600160a01b0382166000818152602081905260408082209051635a0b830960e11b81529092829163b417061290610565908490600401611ae9565b6040805180830381600087803b15801561057e57600080fd5b505af1158015610592573d6000803e3d6000fd5b505050506040513d601f19601f820116820180604052508101906105b69190611569565b91509150806105d75760405162461bcd60e51b81526004016102a890611b80565b60048301829055600583018290554260028401556040516001600160a01b038616907f67286096839b70891eb51e1532e51d6a709d69c808d1b7e24abcb24a39167d05906103b5908590611bfe565b60008080336001600160a01b037f000000000000000000000000000000000000000000000000000000000000000016146106725760405162461bcd60e51b81526004016102a890611b70565b83610685575060009150819050806106cf565b60006106928a8a87610d07565b9050806106aa576000806000935093509350506106cf565b60008113156106c257600493506000925090506106cf565b6005935060009250820390505b96509650969350505050565b60408051808201909152600b81526a504552464f524d414e434560a81b602082015290565b6107086112ec565b506001600160a01b031660009081526020818152604091829020825160e081018452815481526001820154928101929092526002810154928201929092526003820154606082015260048201546080820152600582015460a082015260069091015460c082015290565b6000336001600160a01b037f000000000000000000000000000000000000000000000000000000000000000016146107bc5760405162461bcd60e51b81526004016102a890611b70565b6107c58361019e565b6107d15750600061087b565b6001600160a01b038316600090815260208190526040812042600382015560048101546005820154919290916108079083610f1a565b6006840154909150801561081d57600060068501555b8282111561082d57600484018290555b866001600160a01b03167f807c2c73192f2d30961a7d01ec8dc57115a4cd9f9bd0434331beacb916c6a8cc84848460405161086a93929190611c27565b60405180910390a260019450505050505b92915050565b6040805160038082526080820190925260609182916000918291906020820185803683370190505093506000846000815181106108ba57fe5b602002602001019060058111156108cd57fe5b908160058111156108da57fe5b815250506001846001815181106108ed57fe5b6020026020010190600581111561090057fe5b9081600581111561090d57fe5b8152505060058460028151811061092057fe5b6020026020010190600581111561093357fe5b9081600581111561094057fe5b90525060408051600380825260808201909252906020820160608036833701905050925060008360008151811061097357fe5b6020026020010190600581111561098657fe5b9081600581111561099357fe5b815250506004836001815181106109a657fe5b602002602001019060058111156109b957fe5b908160058111156109c657fe5b815250506005836002815181106109d957fe5b602002602001019060058111156109ec57fe5b908160058111156109f957fe5b9052506001915081905090919293565b7f000000000000000000000000000000000000000000000000000000000000000090565b600082821115610a4f5760405162461bcd60e51b81526004016102a890611b40565b50900390565b600080866001600160a01b031663e269c3d66040518163ffffffff1660e01b815260040160206040518083038186803b158015610a9157600080fd5b505afa158015610aa5573d6000803e3d6000fd5b505050506040513d601f19601f82011682018060405250810190610ac991906113dd565b6001600160a01b031663313ce5676040518163ffffffff1660e01b815260040160206040518083038186803b158015610b0157600080fd5b505afa158015610b15573d6000803e3d6000fd5b505050506040513d601f19601f82011682018060405250810190610b3991906115c9565b60ff16600a0a905082610b4d579050610cfe565b60008690506000816001600160a01b03166318160ddd6040518163ffffffff1660e01b815260040160206040518083038186803b158015610b8d57600080fd5b505afa158015610ba1573d6000803e3d6000fd5b505050506040513d601f19601f82011682018060405250810190610bc5919061154b565b90506000610c4f836001600160a01b03166370a082318b6040518263ffffffff1660e01b8152600401610bf89190611a7f565b60206040518083038186803b158015610c1057600080fd5b505afa158015610c24573d6000803e3d6000fd5b505050506040513d601f19601f82011682018060405250810190610c48919061154b565b8390610a2d565b905080610c625783945050505050610cfe565b856005896005811115610c7157fe5b1415610ce0576000610c8289610f30565b9150610c9090508382610a2d565b925082610ca557859650505050505050610cfe565b6000610cbb85610cb58b85610f50565b90610f8a565b9050610cc78382610a2d565b925082610cdd5786975050505050505050610cfe565b50505b610cf682610cb583670de0b6b3a7640000610f50565b955050505050505b95945050505050565b6000808390506000816001600160a01b03166318160ddd6040518163ffffffff1660e01b815260040160206040518083038186803b158015610d4857600080fd5b505afa158015610d5c573d6000803e3d6000fd5b505050506040513d601f19601f82011682018060405250810190610d80919061154b565b905080610d9257600092505050610f13565b6040516370a0823160e01b81526000906001600160a01b038416906370a0823190610dc1908990600401611a7f565b60206040518083038186803b158015610dd957600080fd5b505afa158015610ded573d6000803e3d6000fd5b505050506040513d601f19601f82011682018060405250810190610e11919061154b565b905081811415610e275760009350505050610f13565b6001600160a01b0387166000908152602081815260408083206006810154825160e081018452825481526001830154948101949094526002820154928401929092526003810154606084015260048101546080840152600581015460a084015260c08301829052929091610ea3908b908790879086908d610fbc565b9750905081811415610ebe5760009650505050505050610f13565b808360060181905550896001600160a01b03167f74a80d6cce2a8c3a25bdba0cd5533d238d76eb996790fb2d4544372cc7f4e35683838a604051610f0493929190611c27565b60405180910390a25050505050505b9392505050565b6000818310610f2a57508161087b565b50919050565b60008082806020019051810190610f4791906113fb565b91509150915091565b600082610f5f5750600061087b565b82820282848281610f6c57fe5b0414610f135760405162461bcd60e51b81526004016102a890611ba0565b6000808211610fab5760405162461bcd60e51b81526004016102a890611b50565b818381610fb457fe5b049392505050565b60008080610fca8888610a2d565b90506000610fe482610cb587670de0b6b3a7640000610f50565b60a087015190915080821415611003578760009450945050505061102d565b6110198383838b8b600001518c60800151611038565b94506110278b8488886110b1565b93505050505b965096945050505050565b600080611074670de0b6b3a764000061106e8a611068611058888c610f1a565b611062898e610f1a565b90611181565b906111c7565b90611232565b9050600061108e670de0b6b3a764000061106e84886111c7565b90506110a4600061109f8884611296565b6112dc565b9998505050505050505050565b6000806110cb6110c18585610a2d565b610cb58588610f50565b90506111757f00000000000000000000000000000000000000000000000000000000000000006001600160a01b031663aa051c2c88306040518363ffffffff1660e01b815260040161111e929190611a8d565b60206040518083038186803b15801561113657600080fd5b505afa15801561114a573d6000803e3d6000fd5b505050506040513d601f19601f8201168201806040525081019061116e919061154b565b8290611181565b9150505b949350505050565b60008183038183128015906111965750838113155b806111ab57506000831280156111ab57508381135b610f135760405162461bcd60e51b81526004016102a890611bd0565b6000826111d65750600061087b565b826000191480156111ea5750600160ff1b82145b156112075760405162461bcd60e51b81526004016102a890611bc0565b8282028284828161121457fe5b0514610f135760405162461bcd60e51b81526004016102a890611bc0565b6000816112515760405162461bcd60e51b81526004016102a890611be0565b816000191480156112655750600160ff1b83145b156112825760405162461bcd60e51b81526004016102a890611b90565b600082848161128d57fe5b05949350505050565b60008282018183128015906112ab5750838112155b806112c057506000831280156112c057508381125b610f135760405162461bcd60e51b81526004016102a890611b30565b6000818312610f2a57508161087b565b6040518060e00160405280600081526020016000815260200160008152602001600081526020016000815260200160008152602001600081525090565b803561087b81611cd2565b805161087b81611cd2565b805161087b81611ce6565b60008083601f84011261135c57600080fd5b50813567ffffffffffffffff81111561137457600080fd5b60208301915083600182028301111561138c57600080fd5b9250929050565b803561087b81611cef565b803561087b81611cfc565b805161087b81611cfc565b805161087b81611d05565b6000602082840312156113d157600080fd5b60006111798484611329565b6000602082840312156113ef57600080fd5b60006111798484611334565b6000806040838503121561140e57600080fd5b600061141a8585611334565b925050602061142b858286016113a9565b9150509250929050565b6000806040838503121561144857600080fd5b60006114548585611329565b925050602061142b85828601611329565b60008060008060008060a0878903121561147e57600080fd5b600061148a8989611329565b965050602061149b89828a01611329565b95505060406114ac89828a01611393565b945050606087013567ffffffffffffffff8111156114c957600080fd5b6114d589828a0161134a565b935093505060806114e889828a0161139e565b9150509295509295509295565b60008060006040848603121561150a57600080fd5b60006115168686611329565b935050602084013567ffffffffffffffff81111561153357600080fd5b61153f8682870161134a565b92509250509250925092565b60006020828403121561155d57600080fd5b600061117984846113a9565b6000806040838503121561157c57600080fd5b600061158885856113a9565b925050602061142b8582860161133f565b600080604083850312156115ac57600080fd5b60006115b8858561139e565b925050602061142b8582860161139e565b6000602082840312156115db57600080fd5b600061117984846113b4565b60006115f3838361166c565b505060200190565b61160481611c55565b82525050565b600061161582611c48565b61161f8185611c4c565b935061162a83611c42565b8060005b8381101561165857815161164288826115e7565b975061164d83611c42565b92505060010161162e565b509495945050505050565b61160481611c60565b61160481611c84565b61160481611c6f565b600061168982611c48565b6116938185611c4c565b93506116a3818560208601611c8f565b6116ac81611cbb565b9093019392505050565b60006116c3602183611c4c565b7f5369676e6564536166654d6174683a206164646974696f6e206f766572666c6f8152607760f81b602082015260400192915050565b6000611706601e83611c4c565b7f536166654d6174683a207375627472616374696f6e206f766572666c6f770000815260200192915050565b600061173f601a83611c4c565b7f536166654d6174683a206469766973696f6e206279207a65726f000000000000815260200192915050565b6000611778603783611c4c565b7f61646446756e6453657474696e67733a20666565506572696f64206d7573742081527f62652067726561746572207468616e2033302064617973000000000000000000602082015260400192915050565b60006117d7602583611c4c565b7f4f6e6c7920746865204665654d616e6765722063616e206d616b6520746869738152640818d85b1b60da1b602082015260400192915050565b600061181e602483611c4c565b7f6163746976617465466f7246756e643a20496e76616c696420736861726520708152637269636560e01b602082015260400192915050565b6000611864602183611c4c565b7f5369676e6564536166654d6174683a206469766973696f6e206f766572666c6f8152607760f81b602082015260400192915050565b60006118a7602183611c4c565b7f536166654d6174683a206d756c7469706c69636174696f6e206f766572666c6f8152607760f81b602082015260400192915050565b60006118ea602f83611c4c565b7f61646446756e6453657474696e67733a2066656552617465206d75737420626581526e02067726561746572207468616e203608c1b602082015260400192915050565b600061193b602783611c4c565b7f5369676e6564536166654d6174683a206d756c7469706c69636174696f6e206f815266766572666c6f7760c81b602082015260400192915050565b6000611984602483611c4c565b7f5369676e6564536166654d6174683a207375627472616374696f6e206f766572815263666c6f7760e01b602082015260400192915050565b60006119ca602083611c4c565b7f5369676e6564536166654d6174683a206469766973696f6e206279207a65726f815260200192915050565b805160e0830190611a078482611675565b506020820151611a1a6020850182611675565b506040820151611a2d6040850182611675565b506060820151611a406060850182611675565b506080820151611a536080850182611675565b5060a0820151611a6660a0850182611675565b5060c0820151611a7960c0850182611675565b50505050565b6020810161087b82846115fb565b60408101611a9b82856115fb565b610f1360208301846115fb565b60808082528101611ab9818761160a565b90508181036020830152611acd818661160a565b9050611adc6040830185611663565b610cfe6060830184611663565b6020810161087b8284611663565b60608101611b05828661166c565b611b1260208301856115fb565b6111796040830184611675565b60208082528101610f13818461167e565b6020808252810161087b816116b6565b6020808252810161087b816116f9565b6020808252810161087b81611732565b6020808252810161087b8161176b565b6020808252810161087b816117ca565b6020808252810161087b81611811565b6020808252810161087b81611857565b6020808252810161087b8161189a565b6020808252810161087b816118dd565b6020808252810161087b8161192e565b6020808252810161087b81611977565b6020808252810161087b816119bd565b60e0810161087b82846119f6565b6020810161087b8284611675565b60408101611c1a8285611675565b610f136020830184611675565b60608101611c358286611675565b611b126020830185611675565b60200190565b5190565b90815260200190565b600061087b82611c72565b151590565b8061025b81611cc5565b90565b6001600160a01b031690565b60ff1690565b600061087b82611c65565b60005b83811015611caa578181015183820152602001611c92565b83811115611a795750506000910152565b601f01601f191690565b60068110611ccf57fe5b50565b611cdb81611c55565b8114611ccf57600080fd5b611cdb81611c60565b60068110611ccf57600080fd5b611cdb81611c6f565b611cdb81611c7e56fea2646970667358221220ba903e19d5436bd7948c3d05043ebdf30d7ed93a6fb3a7fb156367b59cf075c964736f6c634300060c0033",
  "devdoc": {
    "details": "This contract assumes that all shares in the VaultProxy are shares outstanding, which is fine for this release. Even if they are not, they are still shares that are only claimable by the fund owner.",
    "kind": "dev",
    "methods": {
      "activateForFund(address,address)": {
        "params": {
          "_comptrollerProxy": "The ComptrollerProxy of the fund"
        }
      },
      "addFundSettings(address,bytes)": {
        "details": "`highWaterMark`, `lastSharePrice`, and `activated` are set during activationfeePeriod: Minimum crystallization period is 30 Days",
        "params": {
          "_comptrollerProxy": "The ComptrollerProxy of the fund",
          "_settingsData": "Encoded settings to apply to the policy for the fund"
        }
      },
      "getFeeInfoForFund(address)": {
        "params": {
          "_comptrollerProxy": "The ComptrollerProxy contract of the fund"
        },
        "returns": {
          "feeInfo_": "The feeInfo"
        }
      },
      "getFeeManager()": {
        "returns": {
          "feeManager_": "The `FEE_MANAGER` variable value"
        }
      },
      "identifier()": {
        "returns": {
          "identifier_": "The identifier string"
        }
      },
      "implementedHooks()": {
        "details": "Used only during fee registration",
        "returns": {
          "implementedHooksForSettle_": "The hooks during which settle() is implemented",
          "implementedHooksForUpdate_": "The hooks during which update() is implemented",
          "usesGavOnSettle_": "True if GAV is used during the settle() implementation",
          "usesGavOnUpdate_": "True if GAV is used during the update() implementation"
        }
      },
      "payout(address,address)": {
        "params": {
          "_comptrollerProxy": "The ComptrollerProxy of the fund"
        },
        "returns": {
          "isPayable_": "True if shares outstanding can be paid out"
        }
      },
      "payoutAllowed(address)": {
        "details": "Payout is allowed if fees have not yet been settled in a crystallization period, and at least 1 crystallization period has passed since activation",
        "params": {
          "_comptrollerProxy": "The ComptrollerProxy of the fund"
        },
        "returns": {
          "payoutAllowed_": "True if the fee payment is due"
        }
      },
      "settle(address,address,uint8,bytes,uint256)": {
        "params": {
          "_comptrollerProxy": "The ComptrollerProxy of the fund",
          "_gav": "The GAV of the fund",
          "_vaultProxy": "The VaultProxy of the fund"
        },
        "returns": {
          "_1": "(unused) The payer of shares due",
          "settlementType_": "The type of settlement",
          "sharesDue_": "The amount of shares due"
        }
      },
      "update(address,address,uint8,bytes,uint256)": {
        "params": {
          "_comptrollerProxy": "The ComptrollerProxy of the fund",
          "_gav": "The GAV of the fund",
          "_hook": "The FeeHook being executed",
          "_settlementData": "Encoded args to use in calculating the settlement",
          "_vaultProxy": "The VaultProxy of the fund"
        }
      }
    },
    "title": "PerformanceFee Contract",
    "version": 1
  },
  "userdoc": {
    "kind": "user",
    "methods": {
      "activateForFund(address,address)": {
        "notice": "Activates the fee for a fund"
      },
      "addFundSettings(address,bytes)": {
        "notice": "Add the initial fee settings for a fund"
      },
      "getFeeInfoForFund(address)": {
        "notice": "Gets the feeInfo for a given fund"
      },
      "getFeeManager()": {
        "notice": "Gets the `FEE_MANAGER` variable"
      },
      "identifier()": {
        "notice": "Provides a constant string identifier for a fee"
      },
      "implementedHooks()": {
        "notice": "Gets the hooks that are implemented by the fee"
      },
      "payout(address,address)": {
        "notice": "Checks whether the shares outstanding for the fee can be paid out, and updates the info for the fee's last payout"
      },
      "payoutAllowed(address)": {
        "notice": "Checks whether the shares outstanding can be paid out"
      },
      "settle(address,address,uint8,bytes,uint256)": {
        "notice": "Settles the fee and calculates shares due"
      },
      "update(address,address,uint8,bytes,uint256)": {
        "notice": "Updates the fee state after all fees have finished settle()"
      }
    },
    "notice": "A performance-based fee with configurable rate and crystallization period, using a high watermark",
    "version": 1
  },
  "storageLayout": {
    "storage": [
      {
        "astId": 15860,
        "contract": "contracts/release/extensions/fee-manager/fees/PerformanceFeeHWM.sol:PerformanceFeeHWM",
        "label": "comptrollerProxyToFeeInfo",
        "offset": 0,
        "slot": "0",
        "type": "t_mapping(t_address,t_struct(FeeInfo)15846_storage)"
      }
    ],
    "types": {
      "t_address": {
        "encoding": "inplace",
        "label": "address",
        "numberOfBytes": "20"
      },
      "t_mapping(t_address,t_struct(FeeInfo)15846_storage)": {
        "encoding": "mapping",
        "key": "t_address",
        "label": "mapping(address => struct PerformanceFeeHWM.FeeInfo)",
        "numberOfBytes": "32",
        "value": "t_struct(FeeInfo)15846_storage"
      },
      "t_struct(FeeInfo)15846_storage": {
        "encoding": "inplace",
        "label": "struct PerformanceFeeHWM.FeeInfo",
        "members": [
          {
            "astId": 15833,
            "contract": "contracts/release/extensions/fee-manager/fees/PerformanceFeeHWM.sol:PerformanceFeeHWM",
            "label": "rate",
            "offset": 0,
            "slot": "0",
            "type": "t_uint256"
          },
          {
            "astId": 15835,
            "contract": "contracts/release/extensions/fee-manager/fees/PerformanceFeeHWM.sol:PerformanceFeeHWM",
            "label": "period",
            "offset": 0,
            "slot": "1",
            "type": "t_uint256"
          },
          {
            "astId": 15837,
            "contract": "contracts/release/extensions/fee-manager/fees/PerformanceFeeHWM.sol:PerformanceFeeHWM",
            "label": "activated",
            "offset": 0,
            "slot": "2",
            "type": "t_uint256"
          },
          {
            "astId": 15839,
            "contract": "contracts/release/extensions/fee-manager/fees/PerformanceFeeHWM.sol:PerformanceFeeHWM",
            "label": "lastPaid",
            "offset": 0,
            "slot": "3",
            "type": "t_uint256"
          },
          {
            "astId": 15841,
            "contract": "contracts/release/extensions/fee-manager/fees/PerformanceFeeHWM.sol:PerformanceFeeHWM",
            "label": "highWaterMark",
            "offset": 0,
            "slot": "4",
            "type": "t_uint256"
          },
          {
            "astId": 15843,
            "contract": "contracts/release/extensions/fee-manager/fees/PerformanceFeeHWM.sol:PerformanceFeeHWM",
            "label": "lastSharePrice",
            "offset": 0,
            "slot": "5",
            "type": "t_uint256"
          },
          {
            "astId": 15845,
            "contract": "contracts/release/extensions/fee-manager/fees/PerformanceFeeHWM.sol:PerformanceFeeHWM",
            "label": "aggregateValueDue",
            "offset": 0,
            "slot": "6",
            "type": "t_uint256"
          }
        ],
        "numberOfBytes": "224"
      },
      "t_uint256": {
        "encoding": "inplace",
        "label": "uint256",
        "numberOfBytes": "32"
      }
    }
  }
}