{
  "address": "0x9889DfAAb3AC441c8E211D7eEda131066c5fa6d2",
  "abi": [
    {
      "inputs": [
        {
          "internalType": "address",
          "name": "_fundDeployer",
          "type": "address"
        }
      ],
      "stateMutability": "nonpayable",
      "type": "constructor"
    },
    {
      "anonymous": false,
      "inputs": [
        {
          "indexed": true,
          "internalType": "address",
          "name": "policy",
          "type": "address"
        },
        {
          "indexed": true,
          "internalType": "string",
          "name": "identifier",
          "type": "string"
        }
      ],
      "name": "PolicyDeregistered",
      "type": "event"
    },
    {
      "anonymous": false,
      "inputs": [
        {
          "indexed": true,
          "internalType": "address",
          "name": "comptrollerProxy",
          "type": "address"
        },
        {
          "indexed": true,
          "internalType": "address",
          "name": "policy",
          "type": "address"
        }
      ],
      "name": "PolicyDisabledForFund",
      "type": "event"
    },
    {
      "anonymous": false,
      "inputs": [
        {
          "indexed": true,
          "internalType": "address",
          "name": "comptrollerProxy",
          "type": "address"
        },
        {
          "indexed": true,
          "internalType": "address",
          "name": "policy",
          "type": "address"
        },
        {
          "indexed": false,
          "internalType": "bytes",
          "name": "settingsData",
          "type": "bytes"
        }
      ],
      "name": "PolicyEnabledForFund",
      "type": "event"
    },
    {
      "anonymous": false,
      "inputs": [
        {
          "indexed": true,
          "internalType": "address",
          "name": "policy",
          "type": "address"
        },
        {
          "indexed": true,
          "internalType": "string",
          "name": "identifier",
          "type": "string"
        },
        {
          "indexed": false,
          "internalType": "enum IPolicyManager.PolicyHook[]",
          "name": "implementedHooks",
          "type": "uint8[]"
        }
      ],
      "name": "PolicyRegistered",
      "type": "event"
    },
    {
      "inputs": [
        {
          "internalType": "address",
          "name": "",
          "type": "address"
        },
        {
          "internalType": "uint256[]",
          "name": "",
          "type": "uint256[]"
        },
        {
          "internalType": "address[]",
          "name": "",
          "type": "address[]"
        }
      ],
      "name": "actionForRedeem",
      "outputs": [],
      "stateMutability": "nonpayable",
      "type": "function"
    },
    {
      "inputs": [
        {
          "internalType": "bool",
          "name": "_isMigratedFund",
          "type": "bool"
        }
      ],
      "name": "activateForFund",
      "outputs": [],
      "stateMutability": "nonpayable",
      "type": "function"
    },
    {
      "inputs": [],
      "name": "deactivateForFund",
      "outputs": [],
      "stateMutability": "nonpayable",
      "type": "function"
    },
    {
      "inputs": [
        {
          "internalType": "address[]",
          "name": "_policies",
          "type": "address[]"
        }
      ],
      "name": "deregisterPolicies",
      "outputs": [],
      "stateMutability": "nonpayable",
      "type": "function"
    },
    {
      "inputs": [
        {
          "internalType": "address",
          "name": "_comptrollerProxy",
          "type": "address"
        },
        {
          "internalType": "address",
          "name": "_policy",
          "type": "address"
        }
      ],
      "name": "disablePolicyForFund",
      "outputs": [],
      "stateMutability": "nonpayable",
      "type": "function"
    },
    {
      "inputs": [
        {
          "internalType": "address",
          "name": "_comptrollerProxy",
          "type": "address"
        },
        {
          "internalType": "address",
          "name": "_policy",
          "type": "address"
        },
        {
          "internalType": "bytes",
          "name": "_settingsData",
          "type": "bytes"
        }
      ],
      "name": "enablePolicyForFund",
      "outputs": [],
      "stateMutability": "nonpayable",
      "type": "function"
    },
    {
      "inputs": [
        {
          "internalType": "address",
          "name": "_comptrollerProxy",
          "type": "address"
        }
      ],
      "name": "getEnabledPoliciesForFund",
      "outputs": [
        {
          "internalType": "address[]",
          "name": "enabledPolicies_",
          "type": "address[]"
        }
      ],
      "stateMutability": "view",
      "type": "function"
    },
    {
      "inputs": [],
      "name": "getFundDeployer",
      "outputs": [
        {
          "internalType": "address",
          "name": "fundDeployer_",
          "type": "address"
        }
      ],
      "stateMutability": "view",
      "type": "function"
    },
    {
      "inputs": [],
      "name": "getOwner",
      "outputs": [
        {
          "internalType": "address",
          "name": "owner_",
          "type": "address"
        }
      ],
      "stateMutability": "view",
      "type": "function"
    },
    {
      "inputs": [],
      "name": "getRegisteredPolicies",
      "outputs": [
        {
          "internalType": "address[]",
          "name": "registeredPoliciesArray_",
          "type": "address[]"
        }
      ],
      "stateMutability": "view",
      "type": "function"
    },
    {
      "inputs": [
        {
          "internalType": "address",
          "name": "_comptrollerProxy",
          "type": "address"
        }
      ],
      "name": "getVaultProxyForFund",
      "outputs": [
        {
          "internalType": "address",
          "name": "vaultProxy_",
          "type": "address"
        }
      ],
      "stateMutability": "view",
      "type": "function"
    },
    {
      "inputs": [
        {
          "internalType": "address",
          "name": "_policy",
          "type": "address"
        },
        {
          "internalType": "enum IPolicyManager.PolicyHook",
          "name": "_hook",
          "type": "uint8"
        }
      ],
      "name": "policyImplementsHook",
      "outputs": [
        {
          "internalType": "bool",
          "name": "implementsHook_",
          "type": "bool"
        }
      ],
      "stateMutability": "view",
      "type": "function"
    },
    {
      "inputs": [
        {
          "internalType": "address",
          "name": "_comptrollerProxy",
          "type": "address"
        },
        {
          "internalType": "address",
          "name": "_policy",
          "type": "address"
        }
      ],
      "name": "policyIsEnabledForFund",
      "outputs": [
        {
          "internalType": "bool",
          "name": "isEnabled_",
          "type": "bool"
        }
      ],
      "stateMutability": "view",
      "type": "function"
    },
    {
      "inputs": [
        {
          "internalType": "address",
          "name": "_policy",
          "type": "address"
        }
      ],
      "name": "policyIsRegistered",
      "outputs": [
        {
          "internalType": "bool",
          "name": "isRegistered_",
          "type": "bool"
        }
      ],
      "stateMutability": "view",
      "type": "function"
    },
    {
      "inputs": [
        {
          "internalType": "address",
          "name": "",
          "type": "address"
        },
        {
          "internalType": "uint256",
          "name": "",
          "type": "uint256"
        },
        {
          "internalType": "bytes",
          "name": "",
          "type": "bytes"
        }
      ],
      "name": "receiveCallFromComptroller",
      "outputs": [],
      "stateMutability": "nonpayable",
      "type": "function"
    },
    {
      "inputs": [
        {
          "internalType": "address[]",
          "name": "_policies",
          "type": "address[]"
        }
      ],
      "name": "registerPolicies",
      "outputs": [],
      "stateMutability": "nonpayable",
      "type": "function"
    },
    {
      "inputs": [
        {
          "internalType": "bytes",
          "name": "_configData",
          "type": "bytes"
        }
      ],
      "name": "setConfigForFund",
      "outputs": [],
      "stateMutability": "nonpayable",
      "type": "function"
    },
    {
      "inputs": [
        {
          "internalType": "address",
          "name": "_comptrollerProxy",
          "type": "address"
        },
        {
          "internalType": "address",
          "name": "_policy",
          "type": "address"
        },
        {
          "internalType": "bytes",
          "name": "_settingsData",
          "type": "bytes"
        }
      ],
      "name": "updatePolicySettingsForFund",
      "outputs": [],
      "stateMutability": "nonpayable",
      "type": "function"
    },
    {
      "inputs": [
        {
          "internalType": "address",
          "name": "_comptrollerProxy",
          "type": "address"
        },
        {
          "internalType": "enum IPolicyManager.PolicyHook",
          "name": "_hook",
          "type": "uint8"
        },
        {
          "internalType": "bytes",
          "name": "_validationData",
          "type": "bytes"
        }
      ],
      "name": "validatePolicies",
      "outputs": [],
      "stateMutability": "nonpayable",
      "type": "function"
    }
  ],
  "transactionHash": "0x5909145f735da76feb338a4da7b37888d2f9772ccfc104c1c2ffd25af0f8ccc2",
  "args": [
    "0x5cBbA5484594598a660636eFb0A1AD953aFa4e32"
  ],
  "solcInputHash": "616bcd197648f809b4b4e612fb09cc9a",
  "bytecode": "0x60a06040523480156200001157600080fd5b506040516200271f3803806200271f83398101604081905262000034916200005d565b60601b6001600160601b031916608052620000b2565b8051620000578162000098565b92915050565b6000602082840312156200007057600080fd5b60006200007e84846200004a565b949350505050565b60006001600160a01b03821662000057565b620000a38162000086565b8114620000af57600080fd5b50565b60805160601c61264a620000d56000398061076952806109da525061264a6000f3fe608060405234801561001057600080fd5b50600436106101215760003560e01c806389cbe1d0116100ad578063a5c6e2b811610071578063a5c6e2b814610234578063bd8e959a14610254578063e8cf4d431461025c578063ee37ebcf1461026f578063fa5d06e31461028257610121565b806389cbe1d0146101de5780638af6d89e146101f1578063961363d91461021157806397c0ac87146102195780639c532bac1461022157610121565b806348f35209116100f457806348f352091461018a5780634ed28b3f1461019d578063557c944c146101b057806380d57063146101c3578063893d20e8146101d657610121565b80630442bad5146101265780631bee801e1461013b57806345d582e71461014e5780634679034614610161575b600080fd5b610139610134366004611a09565b610295565b005b610139610149366004611a3c565b61045b565b61013961015c3660046118bd565b610473565b61017461016f366004611879565b610554565b60405161018191906122d9565b60405180910390f35b6101396101983660046118f7565b610575565b6101396101ab3660046118f7565b61061d565b6101396101be36600461195e565b610707565b6101396101d1366004611b41565b61070c565b610174610765565b6101396101ec366004611b7d565b6107fd565b6102046101ff366004611879565b61087d565b60405161018191906123a0565b610204610943565b6101746109d8565b61013961022f366004611a6f565b6109fc565b6102476102423660046118bd565b610d04565b60405161018191906123c2565b610139610d2f565b61024761026a3660046119d9565b610da9565b61013961027d366004611a6f565b610df4565b610247610290366004611879565b610fb4565b60006102a085610554565b905060606102ad8661087d565b905060005b8151811015610452576102d88282815181106102ca57fe5b602002602001015187610da9565b6102e15761044a565b8181815181106102ed57fe5b60200260200101516001600160a01b0316635b8f1c5a88858989896040518663ffffffff1660e01b815260040161032895949392919061233a565b602060405180830381600087803b15801561034257600080fd5b505af1158015610356573d6000803e3d6000fd5b505050506040513d601f19601f8201168201806040525081019061037a9190611b5f565b82828151811061038657fe5b60200260200101516001600160a01b0316637998a1c46040518163ffffffff1660e01b815260040160006040518083038186803b1580156103c657600080fd5b505afa1580156103da573d6000803e3d6000fd5b505050506040513d6000823e601f3d908101601f191682016040526104029190810190611bb2565b60405160200161041291906122c2565b604051602081830303815290604052906104485760405162461bcd60e51b815260040161043f91906123d0565b60405180910390fd5b505b6001016102b2565b50505050505050565b60405162461bcd60e51b815260040161043f90612491565b8061047f816004610da9565b1580156104945750610492816005610da9565b155b6104b05760405162461bcd60e51b815260040161043f90612471565b82826104bc8282610d04565b6104d85760405162461bcd60e51b815260040161043f906124d1565b6104ea6104e486610554565b33610fc1565b6001600160a01b038516600090815260046020526040902061050c9085611062565b50836001600160a01b0316856001600160a01b03167fd7b03d2e8be34a451c0a51c07755427856dd05d0343003f8a7ab0f1af52e96c560405160405180910390a35050505050565b6001600160a01b03808216600090815260208190526040902054165b919050565b82610581816004610da9565b1580156105965750610594816005610da9565b155b6105b25760405162461bcd60e51b815260040161043f90612471565b60006105bd86610554565b90506105c98133610fc1565b61060a868686868080601f01602080910402602001604051908101604052809392919081815260200183838082843760009201919091525061107792505050565b61061586828761119e565b505050505050565b82610629816004610da9565b15801561063e575061063c816005610da9565b155b61065a5760405162461bcd60e51b815260040161043f90612471565b84846106668282610d04565b6106825760405162461bcd60e51b815260040161043f906124d1565b600061068d88610554565b90506106998133610fc1565b6040516308945f1960e41b81526001600160a01b03881690638945f190906106cb908b9085908b908b90600401612302565b600060405180830381600087803b1580156106e557600080fd5b505af11580156106f9573d6000803e3d6000fd5b505050505050505050505050565b505050565b6000610717336111fa565b9050811561076157606061072a3361087d565b905060005b815181101561075e57610756338484848151811061074957fe5b602002602001015161119e565b60010161072f565b50505b5050565b60007f00000000000000000000000000000000000000000000000000000000000000006001600160a01b031663893d20e86040518163ffffffff1660e01b815260040160206040518083038186803b1580156107c057600080fd5b505afa1580156107d4573d6000803e3d6000fd5b505050506040513d601f19601f820116820180604052508101906107f8919061189f565b905090565b60608061080c83850185611ab0565b9150915080518251146108315760405162461bcd60e51b815260040161043f90612451565b60005b82518110156108765761086e3384838151811061084d57fe5b602002602001015184848151811061086157fe5b6020026020010151611077565b600101610834565b5050505050565b6001600160a01b03811660009081526004602052604090206060906108a1906113a0565b6001600160401b03811180156108b657600080fd5b506040519080825280602002602001820160405280156108e0578160200160208202803683370190505b50905060005b815181101561093d576001600160a01b038316600090815260046020526040902061091190826113ab565b82828151811061091d57fe5b6001600160a01b03909216602092830291909101909101526001016108e6565b50919050565b606061094f60016113a0565b6001600160401b038111801561096457600080fd5b5060405190808252806020026020018201604052801561098e578160200160208202803683370190505b50905060005b81518110156109d4576109a86001826113ab565b8282815181106109b457fe5b6001600160a01b0390921660209283029190910190910152600101610994565b5090565b7f000000000000000000000000000000000000000000000000000000000000000090565b610a04610765565b6001600160a01b0316336001600160a01b031614610a345760405162461bcd60e51b815260040161043f90612421565b80610a515760405162461bcd60e51b815260040161043f90612441565b60005b8181101561070757610a80838383818110610a6b57fe5b90506020020160208101906102909190611879565b15610a9d5760405162461bcd60e51b815260040161043f90612411565b610ac9838383818110610aac57fe5b9050602002016020810190610ac19190611879565b6001906113b7565b506000838383818110610ad857fe5b9050602002016020810190610aed9190611879565b90506060816001600160a01b031663cbf54bb26040518163ffffffff1660e01b815260040160006040518083038186803b158015610b2a57600080fd5b505afa158015610b3e573d6000803e3d6000fd5b505050506040513d6000823e601f3d908101601f19168201604052610b669190810190611b0d565b905060005b8151811015610c0e57600160036000888888818110610b8657fe5b9050602002016020810190610b9b9190611879565b6001600160a01b03166001600160a01b031681526020019081526020016000206000848481518110610bc957fe5b60200260200101516005811115610bdc57fe5b6005811115610be757fe5b81526020810191909152604001600020805460ff1916911515919091179055600101610b6b565b50816001600160a01b0316637998a1c46040518163ffffffff1660e01b815260040160006040518083038186803b158015610c4857600080fd5b505afa158015610c5c573d6000803e3d6000fd5b505050506040513d6000823e601f3d908101601f19168201604052610c849190810190611bb2565b604051610c9191906122af565b6040518091039020858585818110610ca557fe5b9050602002016020810190610cba9190611879565b6001600160a01b03167f7fc39bd4ad1acc50e51318d02e8590c304ae9c0060c220cc780ea18720745c5283604051610cf291906123b1565b60405180910390a35050600101610a54565b6001600160a01b0382166000908152600460205260408120610d2690836113cc565b90505b92915050565b3360009081526020818152604080832080546001600160a01b031916905560049091528120610d5d906113a0565b90505b8015610da657336000908152600460205260409020610d9c90610d879060001984016113ab565b33600090815260046020526040902090611062565b5060001901610d60565b50565b6001600160a01b038216600090815260036020526040812081836005811115610dce57fe5b6005811115610dd957fe5b815260208101919091526040016000205460ff169392505050565b610dfc610765565b6001600160a01b0316336001600160a01b031614610e2c5760405162461bcd60e51b815260040161043f90612421565b80610e495760405162461bcd60e51b815260040161043f90612461565b60005b8181101561070757610e63838383818110610a6b57fe5b610e7f5760405162461bcd60e51b815260040161043f90612401565b610eab838383818110610e8e57fe5b9050602002016020810190610ea39190611879565b600190611062565b50828282818110610eb857fe5b9050602002016020810190610ecd9190611879565b6001600160a01b0316637998a1c46040518163ffffffff1660e01b815260040160006040518083038186803b158015610f0557600080fd5b505afa158015610f19573d6000803e3d6000fd5b505050506040513d6000823e601f3d908101601f19168201604052610f419190810190611bb2565b604051610f4e91906122af565b6040518091039020838383818110610f6257fe5b9050602002016020810190610f779190611879565b6001600160a01b03167f538f684b60a142c0b72b895be785c0aef10b373c6c5c4e8a7eb49baa244f64d360405160405180910390a3600101610e4c565b6000610d296001836113cc565b816001600160a01b031663893d20e86040518163ffffffff1660e01b815260040160206040518083038186803b158015610ffa57600080fd5b505afa15801561100e573d6000803e3d6000fd5b505050506040513d601f19601f82011682018060405250810190611032919061189f565b6001600160a01b0316816001600160a01b0316146107615760405162461bcd60e51b815260040161043f906124a1565b6000610d26836001600160a01b0384166113e1565b6110818383610d04565b1561109e5760405162461bcd60e51b815260040161043f906124b1565b6110a782610fb4565b6110c35760405162461bcd60e51b815260040161043f906124c1565b80511561112b57604051630f5f6b4f60e01b81526001600160a01b03831690630f5f6b4f906110f89086908590600401612380565b600060405180830381600087803b15801561111257600080fd5b505af1158015611126573d6000803e3d6000fd5b505050505b6001600160a01b038316600090815260046020526040902061114d90836113b7565b50816001600160a01b0316836001600160a01b03167faa4df4fe117c520783cfff01c11283496ff2999c77c2a9b800808251a9a0332a8360405161119191906123d0565b60405180910390a3505050565b604051630628da0b60e31b81526001600160a01b03821690633146d058906111cc90869086906004016122e7565b600060405180830381600087803b1580156111e657600080fd5b505af1158015610452573d6000803e3d6000fd5b6001600160a01b03818116600090815260208190526040812054909116156112345760405162461bcd60e51b815260040161043f906123f1565b816001600160a01b031663c98091876040518163ffffffff1660e01b815260040160206040518083038186803b15801561126d57600080fd5b505afa158015611281573d6000803e3d6000fd5b505050506040513d601f19601f820116820180604052508101906112a5919061189f565b90506001600160a01b0381166112cd5760405162461bcd60e51b815260040161043f90612431565b806001600160a01b0316635a53e3486040518163ffffffff1660e01b815260040160206040518083038186803b15801561130657600080fd5b505afa15801561131a573d6000803e3d6000fd5b505050506040513d601f19601f8201168201806040525081019061133e919061189f565b6001600160a01b0316826001600160a01b03161461136e5760405162461bcd60e51b815260040161043f90612481565b6001600160a01b03918216600090815260208190526040902080546001600160a01b0319169282169290921790915590565b6000610d29826114a7565b6000610d2683836114ab565b6000610d26836001600160a01b0384166114f0565b6000610d26836001600160a01b03841661153a565b6000818152600183016020526040812054801561149d578354600019808301919081019060009087908390811061141457fe5b906000526020600020015490508087600001848154811061143157fe5b60009182526020808320909101929092558281526001898101909252604090209084019055865487908061146157fe5b60019003818190600052602060002001600090559055866001016000878152602001908152602001600020600090556001945050505050610d29565b6000915050610d29565b5490565b815460009082106114ce5760405162461bcd60e51b815260040161043f906123e1565b8260000182815481106114dd57fe5b9060005260206000200154905092915050565b60006114fc838361153a565b61153257508154600181810184556000848152602080822090930184905584548482528286019093526040902091909155610d29565b506000610d29565b60009081526001919091016020526040902054151590565b8035610d29816125e1565b8051610d29816125e1565b60008083601f84011261157a57600080fd5b5081356001600160401b0381111561159157600080fd5b6020830191508360208202830111156115a957600080fd5b9250929050565b600082601f8301126115c157600080fd5b81356115d46115cf82612507565b6124e1565b915081818352602084019350602081019050838560208402820111156115f957600080fd5b60005b83811015611625578161160f8882611552565b84525060209283019291909101906001016115fc565b5050505092915050565b600082601f83011261164057600080fd5b813561164e6115cf82612507565b81815260209384019390925082018360005b83811015611625578135860161167688826117c3565b8452506020928301929190910190600101611660565b600082601f83011261169d57600080fd5b81516116ab6115cf82612507565b915081818352602084019350602081019050838560208402820111156116d057600080fd5b60005b8381101561162557816116e6888261181d565b84525060209283019291909101906001016116d3565b600082601f83011261170d57600080fd5b813561171b6115cf82612507565b9150818183526020840193506020810190508385602084028201111561174057600080fd5b60005b838110156116255781611756888261186e565b8452506020928301929190910190600101611743565b8035610d29816125f5565b8051610d29816125f5565b60008083601f84011261179457600080fd5b5081356001600160401b038111156117ab57600080fd5b6020830191508360018202830111156115a957600080fd5b600082601f8301126117d457600080fd5b81356117e26115cf82612527565b915080825260208301602083018583830111156117fe57600080fd5b611809838284612595565b50505092915050565b8035610d29816125fe565b8051610d29816125fe565b600082601f83011261183957600080fd5b81516118476115cf82612527565b9150808252602083016020830185838301111561186357600080fd5b6118098382846125a1565b8035610d298161260b565b60006020828403121561188b57600080fd5b60006118978484611552565b949350505050565b6000602082840312156118b157600080fd5b6000611897848461155d565b600080604083850312156118d057600080fd5b60006118dc8585611552565b92505060206118ed85828601611552565b9150509250929050565b6000806000806060858703121561190d57600080fd5b60006119198787611552565b945050602061192a87828801611552565b93505060408501356001600160401b0381111561194657600080fd5b61195287828801611782565b95989497509550505050565b60008060006060848603121561197357600080fd5b600061197f8686611552565b93505060208401356001600160401b0381111561199b57600080fd5b6119a7868287016116fc565b92505060408401356001600160401b038111156119c357600080fd5b6119cf868287016115b0565b9150509250925092565b600080604083850312156119ec57600080fd5b60006119f88585611552565b92505060206118ed85828601611812565b60008060008060608587031215611a1f57600080fd5b6000611a2b8787611552565b945050602061192a87828801611812565b60008060008060608587031215611a5257600080fd5b6000611a5e8787611552565b945050602061192a8782880161186e565b60008060208385031215611a8257600080fd5b82356001600160401b03811115611a9857600080fd5b611aa485828601611568565b92509250509250929050565b60008060408385031215611ac357600080fd5b82356001600160401b03811115611ad957600080fd5b611ae5858286016115b0565b92505060208301356001600160401b03811115611b0157600080fd5b6118ed8582860161162f565b600060208284031215611b1f57600080fd5b81516001600160401b03811115611b3557600080fd5b6118978482850161168c565b600060208284031215611b5357600080fd5b6000611897848461176c565b600060208284031215611b7157600080fd5b60006118978484611777565b60008060208385031215611b9057600080fd5b82356001600160401b03811115611ba657600080fd5b611aa485828601611782565b600060208284031215611bc457600080fd5b81516001600160401b03811115611bda57600080fd5b61189784828501611828565b6000611bf28383611c06565b505060200190565b6000611bf28383611d1f565b611c0f81612561565b82525050565b6000611c2082612554565b611c2a8185612558565b9350611c358361254e565b8060005b83811015611c63578151611c4d8882611be6565b9750611c588361254e565b925050600101611c39565b509495945050505050565b6000611c7982612554565b611c838185612558565b9350611c8e8361254e565b8060005b83811015611c63578151611ca68882611bfa565b9750611cb18361254e565b925050600101611c92565b611c0f8161256c565b6000611cd18385612558565b9350611cde838584612595565b611ce7836125cd565b9093019392505050565b6000611cfc82612554565b611d068185612558565b9350611d168185602086016125a1565b611ce7816125cd565b611c0f8161258a565b6000611d3382612554565b611d3d8185610570565b9350611d4d8185602086016125a1565b9290920192915050565b6000611d64602283612558565b7f456e756d657261626c655365743a20696e646578206f7574206f6620626f756e815261647360f01b602082015260400192915050565b6000611da8602583612558565b7f5f5f73657456616c6964617465645661756c7450726f78793a20416c726561648152641e481cd95d60da1b602082015260400192915050565b6000611def602c83612558565b7f64657265676973746572506f6c69636965733a20706f6c696379206973206e6f81526b1d081c9959da5cdd195c995960a21b602082015260400192915050565b6000611e3d602b83612558565b7f7265676973746572506f6c69636965733a20706f6c69637920616c726561647981526a081c9959da5cdd195c995960aa1b602082015260400192915050565b6000611e8a604983612558565b7f6f6e6c7946756e644465706c6f7965724f776e65723a204f6e6c79207468652081527f46756e644465706c6f796572206f776e65722063616e2063616c6c207468697360208201526810333ab731ba34b7b760b91b604082015260600192915050565b6000611efb602c83612558565b7f5f5f73657456616c6964617465645661756c7450726f78793a204d697373696e81526b67207661756c7450726f787960a01b602082015260400192915050565b6000611f49602b83612558565b7f7265676973746572506f6c69636965733a205f706f6c69636965732063616e6e81526a6f7420626520656d70747960a81b602082015260400192915050565b6000611f96604183612558565b7f736574436f6e666967466f7246756e643a20706f6c696369657320616e64207381527f657474696e677344617461206172726179206c656e6774687320756e657175616020820152601b60fa1b604082015260600192915050565b6000611fff602d83612558565b7f64657265676973746572506f6c69636965733a205f706f6c696369657320636181526c6e6e6f7420626520656d70747960981b602082015260400192915050565b600061204e602383612558565b7f6f6e6c79427579536861726573486f6f6b733a20446973616c6c6f77656420688152626f6f6b60e81b602082015260400192915050565b6000612093601983610570565b7f52756c65206576616c756174656420746f2066616c73653a2000000000000000815260190192915050565b60006120cc603583612558565b7f5f5f73657456616c6964617465645661756c7450726f78793a204e6f7420746881527432902b30bab63a283937bc3c9030b1b1b2b9b9b7b960591b602082015260400192915050565b6000612123603783612558565b7f7265636569766543616c6c46726f6d436f6d7074726f6c6c65723a20556e696d81527f706c656d656e74656420666f7220457874656e73696f6e000000000000000000602082015260400192915050565b6000612182602a83612558565b7f4f6e6c79207468652066756e64206f776e65722063616e2063616c6c207468698152693990333ab731ba34b7b760b11b602082015260400192915050565b60006121ce602d83612558565b7f5f5f656e61626c65506f6c696379466f7246756e643a20706f6c69637920616c81526c1c9958591e48195b98589b1959609a1b602082015260400192915050565b600061221d602f83612558565b7f5f5f656e61626c65506f6c696379466f7246756e643a20506f6c69637920697381526e081b9bdd081c9959da5cdd195c9959608a1b602082015260400192915050565b600061226e602c83612558565b7f6f6e6c79456e61626c6564506f6c696379466f7246756e643a20506f6c69637981526b081b9bdd08195b98589b195960a21b602082015260400192915050565b60006122bb8284611d28565b9392505050565b60006122cd82612086565b91506122bb8284611d28565b60208101610d298284611c06565b604081016122f58285611c06565b6122bb6020830184611c06565b606081016123108287611c06565b61231d6020830186611c06565b8181036040830152612330818486611cc5565b9695505050505050565b608081016123488288611c06565b6123556020830187611c06565b6123626040830186611d1f565b8181036060830152612375818486611cc5565b979650505050505050565b6040810161238e8285611c06565b81810360208301526118978184611cf1565b60208082528101610d268184611c15565b60208082528101610d268184611c6e565b60208101610d298284611cbc565b60208082528101610d268184611cf1565b60208082528101610d2981611d57565b60208082528101610d2981611d9b565b60208082528101610d2981611de2565b60208082528101610d2981611e30565b60208082528101610d2981611e7d565b60208082528101610d2981611eee565b60208082528101610d2981611f3c565b60208082528101610d2981611f89565b60208082528101610d2981611ff2565b60208082528101610d2981612041565b60208082528101610d29816120bf565b60208082528101610d2981612116565b60208082528101610d2981612175565b60208082528101610d29816121c1565b60208082528101610d2981612210565b60208082528101610d2981612261565b6040518181016001600160401b03811182821017156124ff57600080fd5b604052919050565b60006001600160401b0382111561251d57600080fd5b5060209081020190565b60006001600160401b0382111561253d57600080fd5b506020601f91909101601f19160190565b60200190565b5190565b90815260200190565b6000610d298261257b565b151590565b80610570816125d7565b6001600160a01b031690565b90565b6000610d2982612571565b82818337506000910152565b60005b838110156125bc5781810151838201526020016125a4565b8381111561075e5750506000910152565b601f01601f191690565b60068110610da657fe5b6125ea81612561565b8114610da657600080fd5b6125ea8161256c565b60068110610da657600080fd5b6125ea8161258756fea26469706673582212205779e00f0d59b416e947305a0a2eebcac92ba5d7374f8d605b69fb7e617de71364736f6c634300060c0033",
  "devdoc": {
    "kind": "dev",
    "methods": {
      "activateForFund(bool)": {
        "details": "Caller is expected to be a valid ComptrollerProxy, but there isn't a need to validate.",
        "params": {
          "_isMigratedFund": "True if the fund is migrating to this release"
        }
      },
      "deregisterPolicies(address[])": {
        "params": {
          "_policies": "Addresses of policies to be registered"
        }
      },
      "disablePolicyForFund(address,address)": {
        "params": {
          "_comptrollerProxy": "The ComptrollerProxy of the fund",
          "_policy": "The policy address to disable"
        }
      },
      "enablePolicyForFund(address,address,bytes)": {
        "details": "Disabling a policy does not delete fund config on the policy, so if a policy is disabled and then enabled again, its initial state will be the previous config. It is the policy's job to determine how to merge that config with the _settingsData param in this function.",
        "params": {
          "_comptrollerProxy": "The ComptrollerProxy of the fund",
          "_policy": "The policy address to enable",
          "_settingsData": "The encoded settings data with which to configure the policy"
        }
      },
      "getEnabledPoliciesForFund(address)": {
        "params": {
          "_comptrollerProxy": "The ComptrollerProxy of the fund"
        },
        "returns": {
          "enabledPolicies_": "An array of enabled policy addresses"
        }
      },
      "getFundDeployer()": {
        "returns": {
          "fundDeployer_": "The `FUND_DEPLOYER` variable value"
        }
      },
      "getOwner()": {
        "details": "Ownership is deferred to the owner of the FundDeployer contract",
        "returns": {
          "owner_": "The owner"
        }
      },
      "getRegisteredPolicies()": {
        "returns": {
          "registeredPoliciesArray_": "A list of all registered policy addresses"
        }
      },
      "getVaultProxyForFund(address)": {
        "params": {
          "_comptrollerProxy": "The ComptrollerProxy of the fund"
        },
        "returns": {
          "vaultProxy_": "The VaultProxy of the fund"
        }
      },
      "policyImplementsHook(address,uint8)": {
        "params": {
          "_hook": "The PolicyHook to check",
          "_policy": "The address of the policy to check"
        },
        "returns": {
          "implementsHook_": "True if the policy implements the hook"
        }
      },
      "policyIsEnabledForFund(address,address)": {
        "params": {
          "_comptrollerProxy": "The ComptrollerProxy of the fund to check",
          "_policy": "The address of the policy to check"
        },
        "returns": {
          "isEnabled_": "True if the policy is enabled for the fund"
        }
      },
      "policyIsRegistered(address)": {
        "params": {
          "_policy": "The address of the policy to check"
        },
        "returns": {
          "isRegistered_": "True if the policy is registered"
        }
      },
      "receiveCallFromComptroller(address,uint256,bytes)": {
        "details": "Unimplemented by default, may be overridden."
      },
      "registerPolicies(address[])": {
        "params": {
          "_policies": "Addresses of policies to be registered"
        }
      },
      "setConfigForFund(bytes)": {
        "details": "Only called during init() on ComptrollerProxy deployment",
        "params": {
          "_configData": "Encoded config data"
        }
      },
      "updatePolicySettingsForFund(address,address,bytes)": {
        "params": {
          "_comptrollerProxy": "The ComptrollerProxy of the fund",
          "_policy": "The Policy contract to update",
          "_settingsData": "The encoded settings data with which to update the policy config"
        }
      },
      "validatePolicies(address,uint8,bytes)": {
        "params": {
          "_comptrollerProxy": "The ComptrollerProxy of the fund",
          "_hook": "The PolicyHook for which to validate policies",
          "_validationData": "The encoded data with which to validate the filtered policies"
        }
      }
    },
    "title": "PolicyManager Contract",
    "version": 1
  },
  "userdoc": {
    "kind": "user",
    "methods": {
      "activateForFund(bool)": {
        "notice": "Validates and initializes policies as necessary prior to fund activation"
      },
      "deactivateForFund()": {
        "notice": "Deactivates policies for a fund by destroying storage"
      },
      "deregisterPolicies(address[])": {
        "notice": "Remove policies from the list of registered policies"
      },
      "disablePolicyForFund(address,address)": {
        "notice": "Disables a policy for a fund"
      },
      "enablePolicyForFund(address,address,bytes)": {
        "notice": "Enables a policy for a fund"
      },
      "getEnabledPoliciesForFund(address)": {
        "notice": "Get a list of enabled policies for a given fund"
      },
      "getFundDeployer()": {
        "notice": "Gets the `FUND_DEPLOYER` variable"
      },
      "getOwner()": {
        "notice": "Gets the owner of this contract"
      },
      "getRegisteredPolicies()": {
        "notice": "Get all registered policies"
      },
      "getVaultProxyForFund(address)": {
        "notice": "Gets the verified VaultProxy for a given ComptrollerProxy"
      },
      "policyImplementsHook(address,uint8)": {
        "notice": "Checks if a policy implements a particular hook"
      },
      "policyIsEnabledForFund(address,address)": {
        "notice": "Check if a policy is enabled for the fund"
      },
      "policyIsRegistered(address)": {
        "notice": "Check whether a policy is registered"
      },
      "receiveCallFromComptroller(address,uint256,bytes)": {
        "notice": "Receives calls from ComptrollerLib.callOnExtension() and dispatches the appropriate action"
      },
      "registerPolicies(address[])": {
        "notice": "Add policies to the list of registered policies"
      },
      "setConfigForFund(bytes)": {
        "notice": "Enable policies for use in a fund"
      },
      "updatePolicySettingsForFund(address,address,bytes)": {
        "notice": "Updates policy settings for a fund"
      },
      "validatePolicies(address,uint8,bytes)": {
        "notice": "Validates all policies that apply to a given hook for a fund"
      }
    },
    "notice": "Manages policies for funds",
    "version": 1
  },
  "storageLayout": {
    "storage": [
      {
        "astId": 31995,
        "contract": "contracts/release/extensions/policy-manager/PolicyManager.sol:PolicyManager",
        "label": "comptrollerProxyToVaultProxy",
        "offset": 0,
        "slot": "0",
        "type": "t_mapping(t_address,t_address)"
      },
      {
        "astId": 28779,
        "contract": "contracts/release/extensions/policy-manager/PolicyManager.sol:PolicyManager",
        "label": "registeredPolicies",
        "offset": 0,
        "slot": "1",
        "type": "t_struct(AddressSet)2091_storage"
      },
      {
        "astId": 28785,
        "contract": "contracts/release/extensions/policy-manager/PolicyManager.sol:PolicyManager",
        "label": "policyToHookToIsImplemented",
        "offset": 0,
        "slot": "3",
        "type": "t_mapping(t_address,t_mapping(t_enum(PolicyHook)28719,t_bool))"
      },
      {
        "astId": 28789,
        "contract": "contracts/release/extensions/policy-manager/PolicyManager.sol:PolicyManager",
        "label": "comptrollerProxyToPolicies",
        "offset": 0,
        "slot": "4",
        "type": "t_mapping(t_address,t_struct(AddressSet)2091_storage)"
      }
    ],
    "types": {
      "t_address": {
        "encoding": "inplace",
        "label": "address",
        "numberOfBytes": "20"
      },
      "t_array(t_bytes32)dyn_storage": {
        "base": "t_bytes32",
        "encoding": "dynamic_array",
        "label": "bytes32[]",
        "numberOfBytes": "32"
      },
      "t_bool": {
        "encoding": "inplace",
        "label": "bool",
        "numberOfBytes": "1"
      },
      "t_bytes32": {
        "encoding": "inplace",
        "label": "bytes32",
        "numberOfBytes": "32"
      },
      "t_enum(PolicyHook)28719": {
        "encoding": "inplace",
        "label": "enum IPolicyManager.PolicyHook",
        "numberOfBytes": "1"
      },
      "t_mapping(t_address,t_address)": {
        "encoding": "mapping",
        "key": "t_address",
        "label": "mapping(address => address)",
        "numberOfBytes": "32",
        "value": "t_address"
      },
      "t_mapping(t_address,t_mapping(t_enum(PolicyHook)28719,t_bool))": {
        "encoding": "mapping",
        "key": "t_address",
        "label": "mapping(address => mapping(enum IPolicyManager.PolicyHook => bool))",
        "numberOfBytes": "32",
        "value": "t_mapping(t_enum(PolicyHook)28719,t_bool)"
      },
      "t_mapping(t_address,t_struct(AddressSet)2091_storage)": {
        "encoding": "mapping",
        "key": "t_address",
        "label": "mapping(address => struct EnumerableSet.AddressSet)",
        "numberOfBytes": "32",
        "value": "t_struct(AddressSet)2091_storage"
      },
      "t_mapping(t_bytes32,t_uint256)": {
        "encoding": "mapping",
        "key": "t_bytes32",
        "label": "mapping(bytes32 => uint256)",
        "numberOfBytes": "32",
        "value": "t_uint256"
      },
      "t_mapping(t_enum(PolicyHook)28719,t_bool)": {
        "encoding": "mapping",
        "key": "t_enum(PolicyHook)28719",
        "label": "mapping(enum IPolicyManager.PolicyHook => bool)",
        "numberOfBytes": "32",
        "value": "t_bool"
      },
      "t_struct(AddressSet)2091_storage": {
        "encoding": "inplace",
        "label": "struct EnumerableSet.AddressSet",
        "members": [
          {
            "astId": 2090,
            "contract": "contracts/release/extensions/policy-manager/PolicyManager.sol:PolicyManager",
            "label": "_inner",
            "offset": 0,
            "slot": "0",
            "type": "t_struct(Set)1826_storage"
          }
        ],
        "numberOfBytes": "64"
      },
      "t_struct(Set)1826_storage": {
        "encoding": "inplace",
        "label": "struct EnumerableSet.Set",
        "members": [
          {
            "astId": 1821,
            "contract": "contracts/release/extensions/policy-manager/PolicyManager.sol:PolicyManager",
            "label": "_values",
            "offset": 0,
            "slot": "0",
            "type": "t_array(t_bytes32)dyn_storage"
          },
          {
            "astId": 1825,
            "contract": "contracts/release/extensions/policy-manager/PolicyManager.sol:PolicyManager",
            "label": "_indexes",
            "offset": 0,
            "slot": "1",
            "type": "t_mapping(t_bytes32,t_uint256)"
          }
        ],
        "numberOfBytes": "64"
      },
      "t_uint256": {
        "encoding": "inplace",
        "label": "uint256",
        "numberOfBytes": "32"
      }
    }
  }
}