{
  "address": "0xE8aDf4aC50E3B117095a418A0a384c10197D73d8",
  "abi": [
    {
      "inputs": [
        {
          "internalType": "address",
          "name": "_feeManager",
          "type": "address"
        },
        {
          "internalType": "address",
          "name": "_protocolFee",
          "type": "address"
        }
      ],
      "stateMutability": "nonpayable",
      "type": "constructor"
    },
    {
      "anonymous": false,
      "inputs": [
        {
          "indexed": true,
          "internalType": "address",
          "name": "comptrollerProxy",
          "type": "address"
        }
      ],
      "name": "ActivatedForMigratedFund",
      "type": "event"
    },
    {
      "anonymous": false,
      "inputs": [
        {
          "indexed": true,
          "internalType": "address",
          "name": "comptrollerProxy",
          "type": "address"
        },
        {
          "indexed": false,
          "internalType": "uint256",
          "name": "feeRate",
          "type": "uint256"
        }
      ],
      "name": "FundSettingsAdded",
      "type": "event"
    },
    {
      "anonymous": false,
      "inputs": [
        {
          "indexed": true,
          "internalType": "address",
          "name": "comptrollerProxy",
          "type": "address"
        },
        {
          "indexed": false,
          "internalType": "uint256",
          "name": "sharesQuantity",
          "type": "uint256"
        },
        {
          "indexed": false,
          "internalType": "uint256",
          "name": "secondsSinceSettlement",
          "type": "uint256"
        }
      ],
      "name": "Settled",
      "type": "event"
    },
    {
      "inputs": [
        {
          "internalType": "address",
          "name": "_comptrollerProxy",
          "type": "address"
        },
        {
          "internalType": "address",
          "name": "_vaultProxy",
          "type": "address"
        }
      ],
      "name": "activateForFund",
      "outputs": [],
      "stateMutability": "nonpayable",
      "type": "function"
    },
    {
      "inputs": [
        {
          "internalType": "address",
          "name": "_comptrollerProxy",
          "type": "address"
        },
        {
          "internalType": "bytes",
          "name": "",
          "type": "bytes"
        }
      ],
      "name": "addFundSettings",
      "outputs": [],
      "stateMutability": "nonpayable",
      "type": "function"
    },
    {
      "inputs": [
        {
          "internalType": "address",
          "name": "_comptrollerProxy",
          "type": "address"
        }
      ],
      "name": "getFeeInfoForFund",
      "outputs": [
        {
          "components": [
            {
              "internalType": "uint256",
              "name": "feeRate",
              "type": "uint256"
            },
            {
              "internalType": "uint256",
              "name": "lastSettled",
              "type": "uint256"
            }
          ],
          "internalType": "struct StreamingFee.FeeInfo",
          "name": "feeInfo_",
          "type": "tuple"
        }
      ],
      "stateMutability": "view",
      "type": "function"
    },
    {
      "inputs": [],
      "name": "identifier",
      "outputs": [
        {
          "internalType": "string",
          "name": "identifier_",
          "type": "string"
        }
      ],
      "stateMutability": "pure",
      "type": "function"
    },
    {
      "inputs": [],
      "name": "implementedHooks",
      "outputs": [
        {
          "internalType": "enum IFeeManager.FeeHook[]",
          "name": "implementedHooksForSettle_",
          "type": "uint8[]"
        },
        {
          "internalType": "enum IFeeManager.FeeHook[]",
          "name": "implementedHooksForUpdate_",
          "type": "uint8[]"
        },
        {
          "internalType": "bool",
          "name": "usesGavOnSettle_",
          "type": "bool"
        },
        {
          "internalType": "bool",
          "name": "usesGavOnUpdate_",
          "type": "bool"
        }
      ],
      "stateMutability": "pure",
      "type": "function"
    },
    {
      "inputs": [
        {
          "internalType": "address",
          "name": "_comptrollerProxy",
          "type": "address"
        },
        {
          "internalType": "address",
          "name": "_vaultProxy",
          "type": "address"
        },
        {
          "internalType": "enum IFeeManager.FeeHook",
          "name": "",
          "type": "uint8"
        },
        {
          "internalType": "bytes",
          "name": "",
          "type": "bytes"
        },
        {
          "internalType": "uint256",
          "name": "",
          "type": "uint256"
        }
      ],
      "name": "settle",
      "outputs": [
        {
          "internalType": "enum IFeeManager.SettlementType",
          "name": "settlementType_",
          "type": "uint8"
        },
        {
          "internalType": "address",
          "name": "",
          "type": "address"
        },
        {
          "internalType": "uint256",
          "name": "sharesDue_",
          "type": "uint256"
        }
      ],
      "stateMutability": "nonpayable",
      "type": "function"
    }
  ],
  "transactionHash": "0xcb4d3e7da6991cccda83061361e60962be7ef3664e1fc1b4e90c3fe193a1c214",
  "args": [
    "0xc8A394A3537092D9728B5480070A1bF29c8F3e20",
    "0x482a493EA47903a571b20E35B770aFfE06600a3D"
  ],
  "linkedData": {
    "type": "FEE"
  },
  "solcInputHash": "616bcd197648f809b4b4e612fb09cc9a",
  "bytecode": "0x60c060405234801561001057600080fd5b50604051610fd4380380610fd483398101604081905261002f9161005e565b6001600160601b0319606092831b811660a052911b166080526100c0565b8051610058816100a9565b92915050565b6000806040838503121561007157600080fd5b600061007d858561004d565b925050602061008e8582860161004d565b9150509250929050565b60006001600160a01b038216610058565b6100b281610098565b81146100bd57600080fd5b50565b60805160601c60a05160601c610ee16100f360003980610112528061028f528061039e52508061015c5250610ee16000f3fe608060405234801561001057600080fd5b50600436106100625760003560e01c80630f5f6b4f146100675780633146d0581461007c57806341892d7e1461008f5780637998a1c4146100ba578063877fd473146100cf578063cbf54bb2146100ef575b600080fd5b61007a610075366004610a25565b610107565b005b61007a61008a36600461095b565b610284565b6100a261009d366004610995565b61038f565b6040516100b193929190610d37565b60405180910390f35b6100c2610610565b6040516100b19190610d5f565b6100e26100dd366004610935565b610633565b6040516100b19190610dc0565b6100f7610670565b6040516100b19493929190610ced565b336001600160a01b037f000000000000000000000000000000000000000000000000000000000000000016146101585760405162461bcd60e51b815260040161014f90610d90565b60405180910390fd5b60007f00000000000000000000000000000000000000000000000000000000000000006001600160a01b031663df01be986040518163ffffffff1660e01b815260040160206040518083038186803b1580156101b357600080fd5b505afa1580156101c7573d6000803e3d6000fd5b505050506040513d601f19601f820116820180604052508101906101eb9190610a7b565b90506000811161020d5760405162461bcd60e51b815260040161014f90610db0565b604080518082018252828152600060208083018281526001600160a01b038916808452918390529184902092518355905160019092019190915590517f90b7d1516011c1da1279f3ae0ed052b1416e7c373d4ec40cf515aa53c5f839df90610276908490610dce565b60405180910390a250505050565b336001600160a01b037f000000000000000000000000000000000000000000000000000000000000000016146102cc5760405162461bcd60e51b815260040161014f90610d90565b6000816001600160a01b03166318160ddd6040518163ffffffff1660e01b815260040160206040518083038186803b15801561030757600080fd5b505afa15801561031b573d6000803e3d6000fd5b505050506040513d601f19601f8201168201806040525081019061033f9190610a7b565b111561038b576001600160a01b03821660008181526020819052604080822042600190910155517f8f1e8a779dce142f8b8b45e1747798edee9623be81f2f411496f3b49eb67bc369190a25b5050565b60008080336001600160a01b037f000000000000000000000000000000000000000000000000000000000000000016146103db5760405162461bcd60e51b815260040161014f90610d90565b6001600160a01b0389166000908152602081905260408120600181015490919061040690429061074d565b90508061041f5760008060009450945094505050610604565b60008a90506000816001600160a01b03166318160ddd6040518163ffffffff1660e01b815260040160206040518083038186803b15801561045f57600080fd5b505afa158015610473573d6000803e3d6000fd5b505050506040513d601f19601f820116820180604052508101906104979190610a7b565b90508015610585576000610527836001600160a01b03166370a082318f6040518263ffffffff1660e01b81526004016104d09190610cdf565b60206040518083038186803b1580156104e857600080fd5b505afa1580156104fc573d6000803e3d6000fd5b505050506040513d601f19601f820116820180604052508101906105209190610a7b565b839061074d565b90508015610583576105806b033b2e3c9fd0803ce800000061057a6105736b033b2e3c9fd0803ce800000061056d8a600001548a6b033b2e3c9fd0803ce800000061077a565b9061074d565b849061083a565b90610874565b95505b505b6001600160a01b038d166000818152602081905260409081902042600190910155517f468aeeec0e901c52363552a06c1e39331d44c3cc886eb200af127ded3f380f82906105d69088908790610ddc565b60405180910390a2846105f757600080600096509650965050505050610604565b6002600096509650505050505b96509650969350505050565b60408051808201909152600981526853545245414d494e4760b81b602082015290565b61063b6108a6565b506001600160a01b0381166000908152602081815260409182902082518084019093528054835260010154908201525b919050565b6040805160038082526080820190925260609182916000918291906020820185803683370190505093506000846000815181106106a957fe5b602002602001019060058111156106bc57fe5b908160058111156106c957fe5b815250506001846001815181106106dc57fe5b602002602001019060058111156106ef57fe5b908160058111156106fc57fe5b8152505060058460028151811061070f57fe5b6020026020010190600581111561072257fe5b9081600581111561072f57fe5b90525050604080516000808252602082019092529394909250829150565b60008282111561076f5760405162461bcd60e51b815260040161014f90610d70565b508082035b92915050565b600083801561081b5760018416801561079557859250610799565b8392505b50600283046002850494505b84156108155785860286878204146107bc57600080fd5b818101818110156107cc57600080fd5b858104975060028706156108085787850285898204141589151516156107f157600080fd5b8381018181101561080157600080fd5b8790049550505b50506002850494506107a5565b50610831565b83801561082b576000925061082f565b8392505b505b505b9392505050565b60008261084957506000610774565b8282028284828161085657fe5b04146108335760405162461bcd60e51b815260040161014f90610da0565b60008082116108955760405162461bcd60e51b815260040161014f90610d80565b81838161089e57fe5b049392505050565b604051806040016040528060008152602001600081525090565b803561077481610e81565b60008083601f8401126108dd57600080fd5b50813567ffffffffffffffff8111156108f557600080fd5b60208301915083600182028301111561090d57600080fd5b9250929050565b803561077481610e95565b803561077481610ea2565b805161077481610ea2565b60006020828403121561094757600080fd5b600061095384846108c0565b949350505050565b6000806040838503121561096e57600080fd5b600061097a85856108c0565b925050602061098b858286016108c0565b9150509250929050565b60008060008060008060a087890312156109ae57600080fd5b60006109ba89896108c0565b96505060206109cb89828a016108c0565b95505060406109dc89828a01610914565b945050606087013567ffffffffffffffff8111156109f957600080fd5b610a0589828a016108cb565b93509350506080610a1889828a0161091f565b9150509295509295509295565b600080600060408486031215610a3a57600080fd5b6000610a4686866108c0565b935050602084013567ffffffffffffffff811115610a6357600080fd5b610a6f868287016108cb565b92509250509250925092565b600060208284031215610a8d57600080fd5b6000610953848461092a565b6000610aa58383610b1e565b505060200190565b610ab681610e0a565b82525050565b6000610ac782610dfd565b610ad18185610e01565b9350610adc83610df7565b8060005b83811015610b0a578151610af48882610a99565b9750610aff83610df7565b925050600101610ae0565b509495945050505050565b610ab681610e15565b610ab681610e33565b6000610b3282610dfd565b610b3c8185610e01565b9350610b4c818560208601610e3e565b610b5581610e6a565b9093019392505050565b6000610b6c601e83610e01565b7f536166654d6174683a207375627472616374696f6e206f766572666c6f770000815260200192915050565b6000610ba5601a83610e01565b7f536166654d6174683a206469766973696f6e206279207a65726f000000000000815260200192915050565b6000610bde602583610e01565b7f4f6e6c7920746865204665654d616e6765722063616e206d616b6520746869738152640818d85b1b60da1b602082015260400192915050565b6000610c25602183610e01565b7f536166654d6174683a206d756c7469706c69636174696f6e206f766572666c6f8152607760f81b602082015260400192915050565b6000610c68602f83610e01565b7f61646446756e6453657474696e67733a2066656552617465206d75737420626581526e02067726561746572207468616e203608c1b602082015260400192915050565b80516040830190610cbd8482610cd6565b506020820151610cd06020850182610cd6565b50505050565b610ab681610e30565b602081016107748284610aad565b60808082528101610cfe8187610abc565b90508181036020830152610d128186610abc565b9050610d216040830185610b15565b610d2e6060830184610b15565b95945050505050565b60608101610d458286610b1e565b610d526020830185610aad565b6109536040830184610cd6565b602080825281016108338184610b27565b6020808252810161077481610b5f565b6020808252810161077481610b98565b6020808252810161077481610bd1565b6020808252810161077481610c18565b6020808252810161077481610c5b565b604081016107748284610cac565b602081016107748284610cd6565b60408101610dea8285610cd6565b6108336020830184610cd6565b60200190565b5190565b90815260200190565b600061077482610e24565b151590565b8061066b81610e74565b6001600160a01b031690565b90565b600061077482610e1a565b60005b83811015610e59578181015183820152602001610e41565b83811115610cd05750506000910152565b601f01601f191690565b60068110610e7e57fe5b50565b610e8a81610e0a565b8114610e7e57600080fd5b60068110610e7e57600080fd5b610e8a81610e3056fea2646970667358221220cc18a2ee32e7365b2cba38761107bd0bd6e9d90d0f94e648548cc49709260b3a64736f6c634300060c0033",
  "devdoc": {
    "kind": "dev",
    "methods": {
      "activateForFund(address,address)": {
        "params": {
          "_comptrollerProxy": "The ComptrollerProxy of the fund",
          "_vaultProxy": "The VaultProxy of the fund"
        }
      },
      "addFundSettings(address,bytes)": {
        "params": {
          "_comptrollerProxy": "The ComptrollerProxy of the fund"
        }
      },
      "getFeeInfoForFund(address)": {
        "params": {
          "_comptrollerProxy": "The ComptrollerProxy contract of the fund"
        },
        "returns": {
          "feeInfo_": "The feeInfo"
        }
      },
      "identifier()": {
        "returns": {
          "identifier_": "The identifier string"
        }
      },
      "implementedHooks()": {
        "details": "Used only during fee registration",
        "returns": {
          "implementedHooksForSettle_": "The hooks during which settle() is implemented",
          "implementedHooksForUpdate_": "The hooks during which update() is implemented",
          "usesGavOnSettle_": "True if GAV is used during the settle() implementation",
          "usesGavOnUpdate_": "True if GAV is used during the update() implementation"
        }
      },
      "settle(address,address,uint8,bytes,uint256)": {
        "params": {
          "_comptrollerProxy": "The ComptrollerProxy of the fund",
          "_vaultProxy": "The VaultProxy of the fund"
        },
        "returns": {
          "_1": "(unused) The payer of shares due",
          "settlementType_": "The type of settlement",
          "sharesDue_": "The amount of shares due"
        }
      }
    },
    "title": "StreamingFee Contract",
    "version": 1
  },
  "userdoc": {
    "kind": "user",
    "methods": {
      "activateForFund(address,address)": {
        "notice": "Activates the fee for a fund"
      },
      "addFundSettings(address,bytes)": {
        "notice": "Add the initial fee settings for a fund"
      },
      "getFeeInfoForFund(address)": {
        "notice": "Gets the feeInfo for a given fund"
      },
      "identifier()": {
        "notice": "Provides a constant string identifier for a fee"
      },
      "implementedHooks()": {
        "notice": "Gets the hooks that are implemented by the fee"
      },
      "settle(address,address,uint8,bytes,uint256)": {
        "notice": "Settle the fee and calculate shares due"
      }
    },
    "notice": "A Streaming fee with a configurable streaming fee rate",
    "version": 1
  },
  "storageLayout": {
    "storage": [
      {
        "astId": 18248,
        "contract": "contracts/release/extensions/fee-manager/fees/StreamingFee.sol:StreamingFee",
        "label": "comptrollerProxyToFeeInfo",
        "offset": 0,
        "slot": "0",
        "type": "t_mapping(t_address,t_struct(FeeInfo)18235_storage)"
      }
    ],
    "types": {
      "t_address": {
        "encoding": "inplace",
        "label": "address",
        "numberOfBytes": "20"
      },
      "t_mapping(t_address,t_struct(FeeInfo)18235_storage)": {
        "encoding": "mapping",
        "key": "t_address",
        "label": "mapping(address => struct StreamingFee.FeeInfo)",
        "numberOfBytes": "32",
        "value": "t_struct(FeeInfo)18235_storage"
      },
      "t_struct(FeeInfo)18235_storage": {
        "encoding": "inplace",
        "label": "struct StreamingFee.FeeInfo",
        "members": [
          {
            "astId": 18232,
            "contract": "contracts/release/extensions/fee-manager/fees/StreamingFee.sol:StreamingFee",
            "label": "feeRate",
            "offset": 0,
            "slot": "0",
            "type": "t_uint256"
          },
          {
            "astId": 18234,
            "contract": "contracts/release/extensions/fee-manager/fees/StreamingFee.sol:StreamingFee",
            "label": "lastSettled",
            "offset": 0,
            "slot": "1",
            "type": "t_uint256"
          }
        ],
        "numberOfBytes": "64"
      },
      "t_uint256": {
        "encoding": "inplace",
        "label": "uint256",
        "numberOfBytes": "32"
      }
    }
  }
}