{
  "address": "0x19f6FA80eCB8e524c7Eb0518Cf0cE864AD974ed6",
  "abi": [
    {
      "inputs": [
        {
          "internalType": "address",
          "name": "_integrationManager",
          "type": "address"
        },
        {
          "internalType": "address",
          "name": "_router",
          "type": "address"
        }
      ],
      "stateMutability": "nonpayable",
      "type": "constructor"
    },
    {
      "inputs": [],
      "name": "ADD_TRACKED_ASSETS_SELECTOR",
      "outputs": [
        {
          "internalType": "bytes4",
          "name": "",
          "type": "bytes4"
        }
      ],
      "stateMutability": "view",
      "type": "function"
    },
    {
      "inputs": [],
      "name": "APPROVE_ASSETS_SELECTOR",
      "outputs": [
        {
          "internalType": "bytes4",
          "name": "",
          "type": "bytes4"
        }
      ],
      "stateMutability": "view",
      "type": "function"
    },
    {
      "inputs": [],
      "name": "CLAIM_REWARDS_AND_REINVEST_SELECTOR",
      "outputs": [
        {
          "internalType": "bytes4",
          "name": "",
          "type": "bytes4"
        }
      ],
      "stateMutability": "view",
      "type": "function"
    },
    {
      "inputs": [],
      "name": "CLAIM_REWARDS_AND_SWAP_SELECTOR",
      "outputs": [
        {
          "internalType": "bytes4",
          "name": "",
          "type": "bytes4"
        }
      ],
      "stateMutability": "view",
      "type": "function"
    },
    {
      "inputs": [],
      "name": "CLAIM_REWARDS_SELECTOR",
      "outputs": [
        {
          "internalType": "bytes4",
          "name": "",
          "type": "bytes4"
        }
      ],
      "stateMutability": "view",
      "type": "function"
    },
    {
      "inputs": [],
      "name": "LEND_AND_STAKE_SELECTOR",
      "outputs": [
        {
          "internalType": "bytes4",
          "name": "",
          "type": "bytes4"
        }
      ],
      "stateMutability": "view",
      "type": "function"
    },
    {
      "inputs": [],
      "name": "LEND_SELECTOR",
      "outputs": [
        {
          "internalType": "bytes4",
          "name": "",
          "type": "bytes4"
        }
      ],
      "stateMutability": "view",
      "type": "function"
    },
    {
      "inputs": [],
      "name": "REDEEM_SELECTOR",
      "outputs": [
        {
          "internalType": "bytes4",
          "name": "",
          "type": "bytes4"
        }
      ],
      "stateMutability": "view",
      "type": "function"
    },
    {
      "inputs": [],
      "name": "STAKE_SELECTOR",
      "outputs": [
        {
          "internalType": "bytes4",
          "name": "",
          "type": "bytes4"
        }
      ],
      "stateMutability": "view",
      "type": "function"
    },
    {
      "inputs": [],
      "name": "TAKE_ORDER_SELECTOR",
      "outputs": [
        {
          "internalType": "bytes4",
          "name": "",
          "type": "bytes4"
        }
      ],
      "stateMutability": "view",
      "type": "function"
    },
    {
      "inputs": [],
      "name": "UNSTAKE_AND_REDEEM_SELECTOR",
      "outputs": [
        {
          "internalType": "bytes4",
          "name": "",
          "type": "bytes4"
        }
      ],
      "stateMutability": "view",
      "type": "function"
    },
    {
      "inputs": [],
      "name": "UNSTAKE_SELECTOR",
      "outputs": [
        {
          "internalType": "bytes4",
          "name": "",
          "type": "bytes4"
        }
      ],
      "stateMutability": "view",
      "type": "function"
    },
    {
      "inputs": [],
      "name": "getIntegrationManager",
      "outputs": [
        {
          "internalType": "address",
          "name": "integrationManager_",
          "type": "address"
        }
      ],
      "stateMutability": "view",
      "type": "function"
    },
    {
      "inputs": [],
      "name": "getUniswapV3Router",
      "outputs": [
        {
          "internalType": "address",
          "name": "router_",
          "type": "address"
        }
      ],
      "stateMutability": "view",
      "type": "function"
    },
    {
      "inputs": [],
      "name": "identifier",
      "outputs": [
        {
          "internalType": "string",
          "name": "identifier_",
          "type": "string"
        }
      ],
      "stateMutability": "pure",
      "type": "function"
    },
    {
      "inputs": [
        {
          "internalType": "bytes4",
          "name": "_selector",
          "type": "bytes4"
        },
        {
          "internalType": "bytes",
          "name": "_encodedCallArgs",
          "type": "bytes"
        }
      ],
      "name": "parseAssetsForMethod",
      "outputs": [
        {
          "internalType": "enum IIntegrationManager.SpendAssetsHandleType",
          "name": "spendAssetsHandleType_",
          "type": "uint8"
        },
        {
          "internalType": "address[]",
          "name": "spendAssets_",
          "type": "address[]"
        },
        {
          "internalType": "uint256[]",
          "name": "spendAssetAmounts_",
          "type": "uint256[]"
        },
        {
          "internalType": "address[]",
          "name": "incomingAssets_",
          "type": "address[]"
        },
        {
          "internalType": "uint256[]",
          "name": "minIncomingAssetAmounts_",
          "type": "uint256[]"
        }
      ],
      "stateMutability": "view",
      "type": "function"
    },
    {
      "inputs": [
        {
          "internalType": "address",
          "name": "",
          "type": "address"
        },
        {
          "internalType": "bytes",
          "name": "",
          "type": "bytes"
        },
        {
          "internalType": "bytes",
          "name": "",
          "type": "bytes"
        }
      ],
      "name": "swapForRedeem",
      "outputs": [],
      "stateMutability": "nonpayable",
      "type": "function"
    },
    {
      "inputs": [
        {
          "internalType": "address",
          "name": "_vaultProxy",
          "type": "address"
        },
        {
          "internalType": "bytes",
          "name": "_encodedCallArgs",
          "type": "bytes"
        },
        {
          "internalType": "bytes",
          "name": "",
          "type": "bytes"
        }
      ],
      "name": "takeOrder",
      "outputs": [],
      "stateMutability": "nonpayable",
      "type": "function"
    }
  ],
  "transactionHash": "0xb4a6a18fe019e35c1efc8da361914499680941cc51e8213f3cdf2d75251eb239",
  "args": [
    "0xC7720b242D037441a0e7C00CfE2ba6DB70b95DdC",
    "0x1dA4b9A4b36CB7D0FcC0CF297c37E45A59A9bf07"
  ],
  "linkedData": {
    "type": "ADAPTER"
  },
  "solcInputHash": "616bcd197648f809b4b4e612fb09cc9a",
  "bytecode": "0x60c06040523480156200001157600080fd5b506040516200182738038062001827833981016040819052620000349162000066565b6001600160601b0319606092831b8116608052911b1660a052620000d1565b80516200006081620000b7565b92915050565b600080604083850312156200007a57600080fd5b600062000088858562000053565b92505060206200009b8582860162000053565b9150509250929050565b60006001600160a01b03821662000060565b620000c281620000a5565b8114620000ce57600080fd5b50565b60805160601c60a05160601c61171d6200010a600039806106175280610730528061083f52508061021a5280610683525061171d6000f3fe608060405234801561001057600080fd5b50600436106101165760003560e01c8063863e5ad0116100a2578063e27a06b511610071578063e27a06b5146101e7578063e4d90478146101ef578063e7c45690146101f7578063f0753994146101ff578063f7d882b51461020757610116565b8063863e5ad0146101af5780639337baac146101b7578063b23228cf146101ca578063b9e3de44146101d257610116565b80633ffc1591116100e95780633ffc15911461015e57806340da225d146101665780635ca62b3c1461016e57806376cc7ac6146101765780637998a1c41461019a57610116565b806303e38a2b1461011b578063080456c114610130578063131461c01461014e578063257cb1a314610156575b600080fd5b61012e610129366004610ddf565b61020f565b005b6101386102c5565b6040516101459190611490565b60405180910390f35b6101386102e9565b61013861030d565b610138610331565b610138610355565b610138610379565b610189610184366004610f1c565b61039d565b60405161014595949392919061149e565b6101a26105a2565b60405161014591906114fa565b6101386105c6565b61012e6101c5366004610ddf565b6105ea565b6101386105f1565b6101da610615565b604051610145919061144c565b610138610639565b61013861065d565b6101da610681565b6101386106a5565b6101386106c9565b336001600160a01b037f000000000000000000000000000000000000000000000000000000000000000016146102605760405162461bcd60e51b81526004016102579061152b565b60405180910390fd5b6060806000806102a588888080601f0160208091040260200160405190810160405280939291908181526020018383808284376000920191909152506106ed92505050565b93509350935093506102ba8985858585610716565b505050505050505050565b7f8334eb99be0145865eba9889fca2ee920288090caefff4cc776038e20ad9259a81565b7f29fa046e79524c3c5ac4c01df692c35e217802b2b13b21121b76cf0ef02b138c81565b7f099f75155f0e997bf83a7993a71d5e7e7540bd386fe1e84643a09ce6b412521981565b7ffa7dd04da627f433da73c4355ead9c75682a67a8fc84d3f6170ef0922f402d2481565b7fb9dfbaccbe5cd2a84fdcf1d15f23ef25d23086f5afbaa99516065ed4a5bbc7a381565b7fdfd5ee0f6067928bf85a7c4430811282840bc99332dda3dab462c02bf95b67cc81565b600060608080806001600160e01b031988166303e38a2b60e01b146103d45760405162461bcd60e51b81526004016102579061150b565b6060806000806104198b8b8080601f0160208091040260200160405190810160405280939291908181526020018383808284376000920191909152506106ed92505050565b93509350935093506002845110156104435760405162461bcd60e51b81526004016102579061153b565b82516001018451146104675760405162461bcd60e51b81526004016102579061155b565b60408051600180825281830190925290602080830190803683370190505097508360008151811061049457fe5b6020026020010151886000815181106104a957fe5b6001600160a01b039290921660209283029190910182015260408051600180825281830190925291828101908036833701905050965081876000815181106104ed57fe5b6020908102919091010152604080516001808252818301909252908160200160208202803683370190505095508360018551038151811061052a57fe5b60200260200101518660008151811061053f57fe5b6001600160a01b0392909216602092830291909101820152604080516001808252818301909252918281019080368337019050509450808560008151811061058357fe5b6020026020010181815250506002985050505050939792965093509350565b60408051808201909152600a815269554e49535741505f563360b01b602082015290565b7f03e38a2bd7063d45c897edeafc330e71657502dd86434d3c37a489caf116af6981565b5050505050565b7f68e30677f607df46e87da13e15b637784cfa62374b653f35ab43d10361a2f83081565b7f000000000000000000000000000000000000000000000000000000000000000090565b7f848f3a590fb2f9795d1a275009c54c26c53833277c96b90e0ddd01753a1d590681565b7f3377e18acf9e83665eacd6af109261424fca32a298e2fc2e6095ba563fb8390e81565b7f000000000000000000000000000000000000000000000000000000000000000090565b7f1d51f49b5273d9ddbb643dc349fab8d36dbb470209c2ea71033bea49dd311c2781565b7fc29fa9dde84204c2908778afd0613d802d31cf046179b88f6d2b4a4e507ea2d581565b606080600080848060200190518101906107079190610e66565b93509350935093509193509193565b6107558460008151811061072657fe5b60200260200101517f0000000000000000000000000000000000000000000000000000000000000000846108e5565b606060005b85518110156107ff57600186510381146107bf578186828151811061077b57fe5b602002602001015186838151811061078f57fe5b60200260200101516040516020016107a993929190611419565b60405160208183030381529060405291506107f7565b818682815181106107cc57fe5b60200260200101516040516020016107e59291906113f7565b60405160208183030381529060405291505b60010161075a565b50610808610c27565b6040518060a00160405280838152602001886001600160a01b031681526020014260010181526020018581526020018481525090507f00000000000000000000000000000000000000000000000000000000000000006001600160a01b031663c04b8d59826040518263ffffffff1660e01b8152600401610889919061158b565b602060405180830381600087803b1580156108a357600080fd5b505af11580156108b7573d6000803e3d6000fd5b505050506040513d601f19601f820116820180604052508101906108db9190610f72565b5050505050505050565b604051636eb1769f60e11b815281906001600160a01b0385169063dd62ed3e90610915903090879060040161145a565b60206040518083038186803b15801561092d57600080fd5b505afa158015610941573d6000803e3d6000fd5b505050506040513d601f19601f820116820180604052508101906109659190610f72565b1015610981576109816001600160a01b03841683600019610986565b505050565b801580610a0e5750604051636eb1769f60e11b81526001600160a01b0384169063dd62ed3e906109bc903090869060040161145a565b60206040518083038186803b1580156109d457600080fd5b505afa1580156109e8573d6000803e3d6000fd5b505050506040513d601f19601f82011682018060405250810190610a0c9190610f72565b155b610a2a5760405162461bcd60e51b81526004016102579061157b565b6109818363095ea7b360e01b8484604051602401610a49929190611475565b60408051601f198184030181529190526020810180516001600160e01b03166001600160e01b0319909316929092179091526060610ad0826040518060400160405280602081526020017f5361666545524332303a206c6f772d6c6576656c2063616c6c206661696c6564815250856001600160a01b0316610b0a9092919063ffffffff16565b8051909150156109815780806020019051810190610aee9190610ef6565b6109815760405162461bcd60e51b81526004016102579061156b565b6060610b198484600085610b23565b90505b9392505050565b606082471015610b455760405162461bcd60e51b81526004016102579061151b565b610b4e85610be4565b610b6a5760405162461bcd60e51b81526004016102579061154b565b60006060866001600160a01b03168587604051610b8791906113eb565b60006040518083038185875af1925050503d8060008114610bc4576040519150601f19603f3d011682016040523d82523d6000602084013e610bc9565b606091505b5091509150610bd9828286610bee565b979650505050505050565b803b15155b919050565b60608315610bfd575081610b1c565b825115610c0d5782518084602001fd5b8160405162461bcd60e51b815260040161025791906114fa565b6040518060a001604052806060815260200160006001600160a01b031681526020016000815260200160008152602001600081525090565b8035610c6a816116af565b92915050565b8051610c6a816116af565b600082601f830112610c8c57600080fd5b8151610c9f610c9a826115c3565b61159c565b91508181835260208401935060208101905083856020840282011115610cc457600080fd5b60005b83811015610cf05781610cda8882610c70565b8452506020928301929190910190600101610cc7565b5050505092915050565b600082601f830112610d0b57600080fd5b8151610d19610c9a826115c3565b91508181835260208401935060208101905083856020840282011115610d3e57600080fd5b60005b83811015610cf05781610d548882610dc9565b8452506020928301929190910190600101610d41565b8051610c6a816116c3565b8035610c6a816116cc565b60008083601f840112610d9257600080fd5b50813567ffffffffffffffff811115610daa57600080fd5b602083019150836001820283011115610dc257600080fd5b9250929050565b8051610c6a816116d5565b8051610c6a816116de565b600080600080600060608688031215610df757600080fd5b6000610e038888610c5f565b955050602086013567ffffffffffffffff811115610e2057600080fd5b610e2c88828901610d80565b9450945050604086013567ffffffffffffffff811115610e4b57600080fd5b610e5788828901610d80565b92509250509295509295909350565b60008060008060808587031215610e7c57600080fd5b845167ffffffffffffffff811115610e9357600080fd5b610e9f87828801610c7b565b945050602085015167ffffffffffffffff811115610ebc57600080fd5b610ec887828801610cfa565b9350506040610ed987828801610dd4565b9250506060610eea87828801610dd4565b91505092959194509250565b600060208284031215610f0857600080fd5b6000610f148484610d6a565b949350505050565b600080600060408486031215610f3157600080fd5b6000610f3d8686610d75565b935050602084013567ffffffffffffffff811115610f5a57600080fd5b610f6686828701610d80565b92509250509250925092565b600060208284031215610f8457600080fd5b6000610f148484610dd4565b6000610f9c8383610fb0565b505060200190565b6000610f9c83836113e2565b610fb9816115f7565b82525050565b610fb9610fcb826115f7565b611670565b6000610fdb826115ea565b610fe581856115ee565b9350610ff0836115e4565b8060005b8381101561101e5781516110088882610f90565b9750611013836115e4565b925050600101610ff4565b509495945050505050565b6000611034826115ea565b61103e81856115ee565b9350611049836115e4565b8060005b8381101561101e5781516110618882610fa4565b975061106c836115e4565b92505060010161104d565b610fb981611607565b600061108b826115ea565b61109581856115ee565b93506110a5818560208601611640565b6110ae8161168c565b9093019392505050565b60006110c3826115ea565b6110cd8185610be9565b93506110dd818560208601611640565b9290920192915050565b610fb981611635565b60006110fd6027836115ee565b7f7061727365417373657473466f724d6574686f643a205f73656c6563746f72208152661a5b9d985b1a5960ca1b602082015260400192915050565b60006111466026836115ee565b7f416464726573733a20696e73756666696369656e742062616c616e636520666f8152651c8818d85b1b60d21b602082015260400192915050565b600061118e6032836115ee565b7f4f6e6c792074686520496e746567726174696f6e4d616e616765722063616e2081527131b0b636103a3434b990333ab731ba34b7b760711b602082015260400192915050565b60006111e26030836115ee565b7f7061727365417373657473466f724d6574686f643a207061746841646472657381526f39b2b99036bab9ba103132901f1e901960811b602082015260400192915050565b6000611234601d836115ee565b7f416464726573733a2063616c6c20746f206e6f6e2d636f6e7472616374000000815260200192915050565b600061126d6040836115ee565b7f7061727365417373657473466f724d6574686f643a20696e636f72726563742081527f70617468416464726573736573206f72207061746846656573206c656e677468602082015260400192915050565b60006112cc602a836115ee565b7f5361666545524332303a204552433230206f7065726174696f6e20646964206e8152691bdd081cdd58d8d9595960b21b602082015260400192915050565b60006113186036836115ee565b7f5361666545524332303a20617070726f76652066726f6d206e6f6e2d7a65726f81527520746f206e6f6e2d7a65726f20616c6c6f77616e636560501b602082015260400192915050565b805160a08084526000919084019061137b8282611080565b91505060208301516113906020860182610fb0565b5060408301516113a360408601826113e2565b5060608301516113b660608601826113e2565b5060808301516113c960808601826113e2565b509392505050565b610fb96113dd8261162a565b611681565b610fb981611632565b6000610b1c82846110b8565b600061140382856110b8565b915061140f8284610fbf565b5060140192915050565b600061142582866110b8565b91506114318285610fbf565b60148201915061144182846113d1565b506003019392505050565b60208101610c6a8284610fb0565b604081016114688285610fb0565b610b1c6020830184610fb0565b604081016114838285610fb0565b610b1c60208301846113e2565b60208101610c6a8284611077565b60a081016114ac82886110e7565b81810360208301526114be8187610fd0565b905081810360408301526114d28186611029565b905081810360608301526114e68185610fd0565b90508181036080830152610bd98184611029565b60208082528101610b1c8184611080565b60208082528101610c6a816110f0565b60208082528101610c6a81611139565b60208082528101610c6a81611181565b60208082528101610c6a816111d5565b60208082528101610c6a81611227565b60208082528101610c6a81611260565b60208082528101610c6a816112bf565b60208082528101610c6a8161130b565b60208082528101610b1c8184611363565b60405181810167ffffffffffffffff811182821017156115bb57600080fd5b604052919050565b600067ffffffffffffffff8211156115da57600080fd5b5060209081020190565b60200190565b5190565b90815260200190565b6000610c6a8261161e565b151590565b6001600160e01b03191690565b80610be9816116a2565b6001600160a01b031690565b62ffffff1690565b90565b6000610c6a82611614565b60005b8381101561165b578181015183820152602001611643565b8381111561166a576000848401525b50505050565b6000610c6a826000610c6a8261169c565b6000610c6a82611696565b601f01601f191690565b60e81b90565b60601b90565b600481106116ac57fe5b50565b6116b8816115f7565b81146116ac57600080fd5b6116b881611602565b6116b881611607565b6116b88161162a565b6116b88161163256fea26469706673582212205942d832e5dc4ff44dcc2654be1bb153157e757af40f41f416fe178e1df41de864736f6c634300060c0033",
  "devdoc": {
    "kind": "dev",
    "methods": {
      "getIntegrationManager()": {
        "returns": {
          "integrationManager_": "The `INTEGRATION_MANAGER` variable value"
        }
      },
      "getUniswapV3Router()": {
        "returns": {
          "router_": "The `UNISWAP_V3_ROUTER` variable value"
        }
      },
      "identifier()": {
        "returns": {
          "identifier_": "An identifier string"
        }
      },
      "parseAssetsForMethod(bytes4,bytes)": {
        "params": {
          "_encodedCallArgs": "The encoded parameters for the callOnIntegration",
          "_selector": "The function selector for the callOnIntegration"
        },
        "returns": {
          "incomingAssets_": "The assets to receive in the call",
          "minIncomingAssetAmounts_": "The min asset amounts to receive in the call",
          "spendAssetAmounts_": "The max asset amounts to spend in the call",
          "spendAssetsHandleType_": "A type that dictates how to handle granting the adapter access to spend assets (`None` by default)",
          "spendAssets_": "The assets to spend in the call"
        }
      },
      "takeOrder(address,bytes,bytes)": {
        "params": {
          "_encodedCallArgs": "Encoded order parameters",
          "_vaultProxy": "The VaultProxy of the calling fund"
        }
      }
    },
    "title": "UniswapV3SwapAdapter Contract",
    "version": 1
  },
  "userdoc": {
    "kind": "user",
    "methods": {
      "getIntegrationManager()": {
        "notice": "Gets the `INTEGRATION_MANAGER` variable"
      },
      "getUniswapV3Router()": {
        "notice": "Gets the `UNISWAP_V3_ROUTER` variable"
      },
      "identifier()": {
        "notice": "Provides a constant string identifier for an adapter"
      },
      "parseAssetsForMethod(bytes4,bytes)": {
        "notice": "Parses the expected assets to receive from a call on integration"
      },
      "takeOrder(address,bytes,bytes)": {
        "notice": "Trades assets on UniswapV3"
      }
    },
    "notice": "Adapter for interacting with UniswapV3 swaps",
    "version": 1
  },
  "storageLayout": {
    "storage": [],
    "types": null
  }
}