{
  "address": "0x53BeF80E0EBE5A89dfb67782b12435aBeB943754",
  "abi": [
    {
      "inputs": [
        {
          "internalType": "address",
          "name": "_integrationManager",
          "type": "address"
        },
        {
          "internalType": "address",
          "name": "_exchange",
          "type": "address"
        },
        {
          "internalType": "address",
          "name": "_fundDeployer",
          "type": "address"
        },
        {
          "internalType": "address[]",
          "name": "_allowedMakers",
          "type": "address[]"
        }
      ],
      "stateMutability": "nonpayable",
      "type": "constructor"
    },
    {
      "anonymous": false,
      "inputs": [
        {
          "indexed": true,
          "internalType": "address",
          "name": "account",
          "type": "address"
        }
      ],
      "name": "AllowedMakerAdded",
      "type": "event"
    },
    {
      "anonymous": false,
      "inputs": [
        {
          "indexed": true,
          "internalType": "address",
          "name": "account",
          "type": "address"
        }
      ],
      "name": "AllowedMakerRemoved",
      "type": "event"
    },
    {
      "inputs": [],
      "name": "ADD_TRACKED_ASSETS_SELECTOR",
      "outputs": [
        {
          "internalType": "bytes4",
          "name": "",
          "type": "bytes4"
        }
      ],
      "stateMutability": "view",
      "type": "function"
    },
    {
      "inputs": [],
      "name": "APPROVE_ASSETS_SELECTOR",
      "outputs": [
        {
          "internalType": "bytes4",
          "name": "",
          "type": "bytes4"
        }
      ],
      "stateMutability": "view",
      "type": "function"
    },
    {
      "inputs": [],
      "name": "CLAIM_REWARDS_AND_REINVEST_SELECTOR",
      "outputs": [
        {
          "internalType": "bytes4",
          "name": "",
          "type": "bytes4"
        }
      ],
      "stateMutability": "view",
      "type": "function"
    },
    {
      "inputs": [],
      "name": "CLAIM_REWARDS_AND_SWAP_SELECTOR",
      "outputs": [
        {
          "internalType": "bytes4",
          "name": "",
          "type": "bytes4"
        }
      ],
      "stateMutability": "view",
      "type": "function"
    },
    {
      "inputs": [],
      "name": "CLAIM_REWARDS_SELECTOR",
      "outputs": [
        {
          "internalType": "bytes4",
          "name": "",
          "type": "bytes4"
        }
      ],
      "stateMutability": "view",
      "type": "function"
    },
    {
      "inputs": [],
      "name": "LEND_AND_STAKE_SELECTOR",
      "outputs": [
        {
          "internalType": "bytes4",
          "name": "",
          "type": "bytes4"
        }
      ],
      "stateMutability": "view",
      "type": "function"
    },
    {
      "inputs": [],
      "name": "LEND_SELECTOR",
      "outputs": [
        {
          "internalType": "bytes4",
          "name": "",
          "type": "bytes4"
        }
      ],
      "stateMutability": "view",
      "type": "function"
    },
    {
      "inputs": [],
      "name": "REDEEM_SELECTOR",
      "outputs": [
        {
          "internalType": "bytes4",
          "name": "",
          "type": "bytes4"
        }
      ],
      "stateMutability": "view",
      "type": "function"
    },
    {
      "inputs": [],
      "name": "STAKE_SELECTOR",
      "outputs": [
        {
          "internalType": "bytes4",
          "name": "",
          "type": "bytes4"
        }
      ],
      "stateMutability": "view",
      "type": "function"
    },
    {
      "inputs": [],
      "name": "TAKE_ORDER_SELECTOR",
      "outputs": [
        {
          "internalType": "bytes4",
          "name": "",
          "type": "bytes4"
        }
      ],
      "stateMutability": "view",
      "type": "function"
    },
    {
      "inputs": [],
      "name": "UNSTAKE_AND_REDEEM_SELECTOR",
      "outputs": [
        {
          "internalType": "bytes4",
          "name": "",
          "type": "bytes4"
        }
      ],
      "stateMutability": "view",
      "type": "function"
    },
    {
      "inputs": [],
      "name": "UNSTAKE_SELECTOR",
      "outputs": [
        {
          "internalType": "bytes4",
          "name": "",
          "type": "bytes4"
        }
      ],
      "stateMutability": "view",
      "type": "function"
    },
    {
      "inputs": [
        {
          "internalType": "address[]",
          "name": "_accountsToAdd",
          "type": "address[]"
        }
      ],
      "name": "addAllowedMakers",
      "outputs": [],
      "stateMutability": "nonpayable",
      "type": "function"
    },
    {
      "inputs": [],
      "name": "getExchange",
      "outputs": [
        {
          "internalType": "address",
          "name": "exchange_",
          "type": "address"
        }
      ],
      "stateMutability": "view",
      "type": "function"
    },
    {
      "inputs": [],
      "name": "getFundDeployer",
      "outputs": [
        {
          "internalType": "address",
          "name": "fundDeployer_",
          "type": "address"
        }
      ],
      "stateMutability": "view",
      "type": "function"
    },
    {
      "inputs": [],
      "name": "getIntegrationManager",
      "outputs": [
        {
          "internalType": "address",
          "name": "integrationManager_",
          "type": "address"
        }
      ],
      "stateMutability": "view",
      "type": "function"
    },
    {
      "inputs": [],
      "name": "getOwner",
      "outputs": [
        {
          "internalType": "address",
          "name": "owner_",
          "type": "address"
        }
      ],
      "stateMutability": "view",
      "type": "function"
    },
    {
      "inputs": [],
      "name": "identifier",
      "outputs": [
        {
          "internalType": "string",
          "name": "identifier_",
          "type": "string"
        }
      ],
      "stateMutability": "pure",
      "type": "function"
    },
    {
      "inputs": [
        {
          "internalType": "address",
          "name": "_who",
          "type": "address"
        }
      ],
      "name": "isAllowedMaker",
      "outputs": [
        {
          "internalType": "bool",
          "name": "isAllowedMaker_",
          "type": "bool"
        }
      ],
      "stateMutability": "view",
      "type": "function"
    },
    {
      "inputs": [
        {
          "internalType": "bytes4",
          "name": "_selector",
          "type": "bytes4"
        },
        {
          "internalType": "bytes",
          "name": "_encodedCallArgs",
          "type": "bytes"
        }
      ],
      "name": "parseAssetsForMethod",
      "outputs": [
        {
          "internalType": "enum IIntegrationManager.SpendAssetsHandleType",
          "name": "spendAssetsHandleType_",
          "type": "uint8"
        },
        {
          "internalType": "address[]",
          "name": "spendAssets_",
          "type": "address[]"
        },
        {
          "internalType": "uint256[]",
          "name": "spendAssetAmounts_",
          "type": "uint256[]"
        },
        {
          "internalType": "address[]",
          "name": "incomingAssets_",
          "type": "address[]"
        },
        {
          "internalType": "uint256[]",
          "name": "minIncomingAssetAmounts_",
          "type": "uint256[]"
        }
      ],
      "stateMutability": "view",
      "type": "function"
    },
    {
      "inputs": [
        {
          "internalType": "address[]",
          "name": "_accountsToRemove",
          "type": "address[]"
        }
      ],
      "name": "removeAllowedMakers",
      "outputs": [],
      "stateMutability": "nonpayable",
      "type": "function"
    },
    {
      "inputs": [
        {
          "internalType": "address",
          "name": "",
          "type": "address"
        },
        {
          "internalType": "bytes",
          "name": "",
          "type": "bytes"
        },
        {
          "internalType": "bytes",
          "name": "",
          "type": "bytes"
        }
      ],
      "name": "swapForRedeem",
      "outputs": [],
      "stateMutability": "nonpayable",
      "type": "function"
    },
    {
      "inputs": [
        {
          "internalType": "address",
          "name": "_vaultProxy",
          "type": "address"
        },
        {
          "internalType": "bytes",
          "name": "_encodedCallArgs",
          "type": "bytes"
        },
        {
          "internalType": "bytes",
          "name": "_encodedAssetTransferArgs",
          "type": "bytes"
        }
      ],
      "name": "takeOrder",
      "outputs": [],
      "stateMutability": "nonpayable",
      "type": "function"
    }
  ],
  "transactionHash": "0x62697578debb9dc14cb66d868a514297f4760bdd44a3ccc9f722e7e0c4ee4a90",
  "args": [
    "0xC7720b242D037441a0e7C00CfE2ba6DB70b95DdC",
    "0x849e06a093b782457Cb4b8D09632a9A049d159d4",
    "0x5cBbA5484594598a660636eFb0A1AD953aFa4e32",
    []
  ],
  "linkedData": {
    "type": "ADAPTER"
  },
  "solcInputHash": "616bcd197648f809b4b4e612fb09cc9a",
  "bytecode": "0x60e06040523480156200001157600080fd5b506040516200305138038062003051833981016040819052620000349162000254565b6001600160601b0319606085811b821660805283811b821660a05284901b1660c0528051156200006957620000698162000073565b505050506200040c565b6000815111620000a05760405162461bcd60e51b815260040162000097906200036b565b60405180910390fd5b60005b81518110156200019657620000d2828281518110620000be57fe5b60200260200101516200019a60201b60201c565b15620000f25760405162461bcd60e51b815260040162000097906200037d565b60016000808484815181106200010457fe5b60200260200101516001600160a01b03166001600160a01b0316815260200190815260200160002060006101000a81548160ff0219169083151502179055508181815181106200015057fe5b60200260200101516001600160a01b03167f2e1c3b07a83c6d2606a67771e6dd5c25722baac28ecf38e8056fb820d88536a860405160405180910390a2600101620000a3565b5050565b6001600160a01b031660009081526020819052604090205460ff1690565b8051620001c581620003f2565b92915050565b600082601f830112620001dd57600080fd5b8151620001f4620001ee82620003b6565b6200038f565b915081818352602084019350602081019050838560208402820111156200021a57600080fd5b60005b838110156200024a5781620002338882620001b8565b84525060209283019291909101906001016200021d565b5050505092915050565b600080600080608085870312156200026b57600080fd5b6000620002798787620001b8565b94505060206200028c87828801620001b8565b93505060406200029f87828801620001b8565b92505060608501516001600160401b03811115620002bc57600080fd5b620002ca87828801620001cb565b91505092959194509250565b6000620002e5602883620003d7565b7f5f5f616464416c6c6f7765644d616b6572733a20456d707479205f6163636f758152671b9d1cd51bd0591960c21b602082015260400192915050565b600062000331602583620003d7565b7f5f5f616464416c6c6f7765644d616b6572733a2056616c756520616c726561648152641e481cd95d60da1b602082015260400192915050565b60208082528101620001c581620002d6565b60208082528101620001c58162000322565b6040518181016001600160401b0381118282101715620003ae57600080fd5b604052919050565b60006001600160401b03821115620003cd57600080fd5b5060209081020190565b90815260200190565b60006001600160a01b038216620001c5565b620003fd81620003e0565b81146200040957600080fd5b50565b60805160601c60a05160601c60c05160601c612bf1620004606000398061043a528061052352806108c95280610fad5280611245525080610cc35280610d605250806102a75280610f415250612bf16000f3fe608060405234801561001057600080fd5b506004361061014d5760003560e01c8063893d20e8116100c3578063e4d904781161007c578063e4d9047814610254578063e7c456901461025c578063f075399414610264578063f7d882b51461026c578063f807cd2214610274578063ff7ede371461027c5761014d565b8063893d20e8146102015780639337baac1461021657806397c0ac8714610229578063b23228cf14610231578063c960260d14610239578063e27a06b51461024c5761014d565b806340da225d1161011557806340da225d1461019d5780634ce13fb0146101a55780635ca62b3c146101b857806376cc7ac6146101c05780637998a1c4146101e4578063863e5ad0146101f95761014d565b806303e38a2b14610152578063080456c114610167578063131461c014610185578063257cb1a31461018d5780633ffc159114610195575b600080fd5b610165610160366004611d67565b61029c565b005b61016f6105d7565b60405161017c91906128a1565b60405180910390f35b61016f6105fb565b61016f61061f565b61016f610643565b61016f610667565b6101656101b3366004611e7e565b61068b565b61016f610703565b6101d36101ce366004611edd565b610727565b60405161017c9594939291906128af565b6101ec610c77565b60405161017c919061290b565b61016f610c9b565b610209610cbf565b60405161017c9190612827565b610165610224366004611d67565b610d57565b610209610d5e565b61016f610d82565b610165610247366004611e7e565b610da6565b61016f610ef7565b61016f610f1b565b610209610f3f565b61016f610f63565b61016f610f87565b610209610fab565b61028f61028a366004611d2b565b610fcf565b60405161017c9190612893565b336001600160a01b037f000000000000000000000000000000000000000000000000000000000000000016146102ed5760405162461bcd60e51b81526004016102e4906129ac565b60405180910390fd5b8482828080601f01602080910402602001604051908101604052809392919081815260200183838082843760009201829052509250606091508190508061033385610ff1565b92965090945092509050600184600381111561034b57fe5b14156103ad5760005b83518110156103ab576103a3873085848151811061036e57fe5b602002602001015187858151811061038257fe5b60200260200101516001600160a01b031661101b909392919063ffffffff16565b600101610354565b505b606060006103f08c8c8080601f01602080910402602001604051908101604052809392919081815260200183838082843760009201919091525061107992505050565b915091506103fc6118b7565b6104058361109a565b905061042c610418826101600151611214565b61042683610160015161121b565b846112d1565b60e0810151156104fe5760607f00000000000000000000000000000000000000000000000000000000000000006001600160a01b031663db123b1a6040518163ffffffff1660e01b815260040160006040518083038186803b15801561049157600080fd5b505afa1580156104a5573d6000803e3d6000fd5b505050506040513d6000823e601f3d908101601f191682016040526104cd9190810190611f32565b90506104fc6104db82611214565b6104e48361121b565b6104f78560a001518660e001518861136d565b6112d1565b505b60606105098461138b565b60405163b4be83d560e01b81529094506001600160a01b037f000000000000000000000000000000000000000000000000000000000000000016935063b4be83d5925061055f9150859087908690600401612a2c565b608060405180830381600087803b15801561057957600080fd5b505af115801561058d573d6000803e3d6000fd5b505050506040513d601f19601f820116820180604052508101906105b19190612050565b50505050506105c086826113b9565b6105ca86846113b9565b5050505050505050505050565b7f8334eb99be0145865eba9889fca2ee920288090caefff4cc776038e20ad9259a81565b7f29fa046e79524c3c5ac4c01df692c35e217802b2b13b21121b76cf0ef02b138c81565b7f099f75155f0e997bf83a7993a71d5e7e7540bd386fe1e84643a09ce6b412521981565b7ffa7dd04da627f433da73c4355ead9c75682a67a8fc84d3f6170ef0922f402d2481565b7fb9dfbaccbe5cd2a84fdcf1d15f23ef25d23086f5afbaa99516065ed4a5bbc7a381565b610693610cbf565b6001600160a01b0316336001600160a01b0316146106c35760405162461bcd60e51b81526004016102e49061292c565b6106ff82828080602002602001604051908101604052809392919081815260200183836020028082843760009201919091525061149892505050565b5050565b7fdfd5ee0f6067928bf85a7c4430811282840bc99332dda3dab462c02bf95b67cc81565b600060608080806001600160e01b031988166303e38a2b60e01b1461075e5760405162461bcd60e51b81526004016102e49061295c565b606060006107a189898080601f01602080910402602001604051908101604052809392919081815260200183838082843760009201919091525061107992505050565b915091506107ad6118b7565b6107b68361109a565b90506107c58160000151610fcf565b6107e15760405162461bcd60e51b81526004016102e490612a1c565b8060a001518211156108055760405162461bcd60e51b81526004016102e49061297c565b6000610815826101400151611214565b90506000610827836101600151611214565b60408051600180825281830190925291925060208083019080368337019050509650818760008151811061085757fe5b6001600160a01b03929092166020928302919091018201526040805160018082528183019092529182810190803683370190505095506108a08360a0015184608001518661136d565b866000815181106108ad57fe5b602090810291909101015260e083015115610be45760006109617f00000000000000000000000000000000000000000000000000000000000000006001600160a01b031663db123b1a6040518163ffffffff1660e01b815260040160006040518083038186803b15801561092057600080fd5b505afa158015610934573d6000803e3d6000fd5b505050506040513d6000823e601f3d908101601f1916820160405261095c9190810190611f32565b611214565b905060006109788560a001518660e001518861136d565b9050836001600160a01b0316826001600160a01b03161415610a7e5784608001518560e00151106109bb5760405162461bcd60e51b81526004016102e49061299c565b6040805160018082528183019092529060208083019080368337019050509a50828b6000815181106109e957fe5b6001600160a01b0392909216602092830291909101820152604080516001808252818301909252918281019080368337019050509950858a600081518110610a2d57fe5b602002602001018181525050610a608189600081518110610a4a57fe5b602002602001015161159f90919063ffffffff16565b88600081518110610a6d57fe5b602002602001018181525050610bdd565b826001600160a01b0316826001600160a01b03161415610b13576040805160018082528183019092529060208083019080368337019050509a50828b600081518110610ac657fe5b6001600160a01b0392909216602092830291909101820152604080516001808252818301909252918281019080368337019050509950610b0686826115cc565b8a600081518110610a6d57fe5b6040805160028082526060820183529091602083019080368337019050509a50828b600081518110610b4157fe5b60200260200101906001600160a01b031690816001600160a01b031681525050818b600181518110610b6f57fe5b6001600160a01b0392909216602092830291909101820152604080516002808252606082018352909290919083019080368337019050509950858a600081518110610bb657fe5b602002602001018181525050808a600181518110610bd057fe5b6020026020010181815250505b5050610c63565b60408051600180825281830190925290602080830190803683370190505098508089600081518110610c1257fe5b6001600160a01b03929092166020928302919091018201526040805160018082528183019092529182810190803683370190505097508388600081518110610c5657fe5b6020026020010181815250505b600299505050505050939792965093509350565b60408051808201909152600a8152692d22a927afa2ac2fab1960b11b602082015290565b7f03e38a2bd7063d45c897edeafc330e71657502dd86434d3c37a489caf116af6981565b60007f00000000000000000000000000000000000000000000000000000000000000006001600160a01b031663893d20e86040518163ffffffff1660e01b815260040160206040518083038186803b158015610d1a57600080fd5b505afa158015610d2e573d6000803e3d6000fd5b505050506040513d601f19601f82011682018060405250810190610d529190611d49565b905090565b5050505050565b7f000000000000000000000000000000000000000000000000000000000000000090565b7f68e30677f607df46e87da13e15b637784cfa62374b653f35ab43d10361a2f83081565b610dae610cbf565b6001600160a01b0316336001600160a01b031614610dde5760405162461bcd60e51b81526004016102e49061292c565b80610dfb5760405162461bcd60e51b81526004016102e49061291c565b60005b81811015610ef257610e2a838383818110610e1557fe5b905060200201602081019061028a9190611d2b565b610e465760405162461bcd60e51b81526004016102e490612a0c565b6000806000858585818110610e5757fe5b9050602002016020810190610e6c9190611d2b565b6001600160a01b031681526020810191909152604001600020805460ff1916911515919091179055828282818110610ea057fe5b9050602002016020810190610eb59190611d2b565b6001600160a01b03167f20bc817441764d1758bec8956a90bf0ba498c8c4098524577f7c068d3c9f8c3660405160405180910390a2600101610dfe565b505050565b7f848f3a590fb2f9795d1a275009c54c26c53833277c96b90e0ddd01753a1d590681565b7f3377e18acf9e83665eacd6af109261424fca32a298e2fc2e6095ba563fb8390e81565b7f000000000000000000000000000000000000000000000000000000000000000090565b7f1d51f49b5273d9ddbb643dc349fab8d36dbb470209c2ea71033bea49dd311c2781565b7fc29fa9dde84204c2908778afd0613d802d31cf046179b88f6d2b4a4e507ea2d581565b7f000000000000000000000000000000000000000000000000000000000000000090565b6001600160a01b03811660009081526020819052604090205460ff165b919050565b600060608060608480602001905181019061100c9190611fb6565b93509350935093509193509193565b611073846323b872dd60e01b85858560405160240161103c93929190612850565b60408051601f198184030181529190526020810180516001600160e01b03166001600160e01b0319909316929092179091526115f1565b50505050565b60606000828060200190518101906110919190611f66565b91509150915091565b6110a26118b7565b6110aa61193c565b6110b261195a565b6110ba611978565b6110c38561138b565b50925092509250604051806101800160405280846000600481106110e357fe5b60200201516001600160a01b031681526020018460016004811061110357fe5b60200201516001600160a01b031681526020018460026004811061112357fe5b60200201516001600160a01b031681526020018460036004811061114357fe5b60200201516001600160a01b031681526020018360006006811061116357fe5b602002015181526020018360016006811061117a57fe5b602002015181526020018360026006811061119157fe5b60200201518152602001836003600681106111a857fe5b60200201518152602001836004600681106111bf57fe5b60200201518152602001836005600681106111d657fe5b60200201518152602001826000600281106111ed57fe5b602002015181526020018260016002811061120457fe5b6020020151905295945050505050565b6024015190565b6020810151604051630c0e082160e31b81526000916001600160e01b031916906001600160a01b037f0000000000000000000000000000000000000000000000000000000000000000169063607041089061127a9084906004016128a1565b60206040518083038186803b15801561129257600080fd5b505afa1580156112a6573d6000803e3d6000fd5b505050506040513d601f19601f820116820180604052508101906112ca9190611d49565b9392505050565b604051636eb1769f60e11b815281906001600160a01b0385169063dd62ed3e906113019030908790600401612835565b60206040518083038186803b15801561131957600080fd5b505afa15801561132d573d6000803e3d6000fd5b505050506040513d601f19601f82011682018060405250810190611351919061206e565b1015610ef257610ef26001600160a01b03841683600019611680565b60006113838461137d8486611743565b9061177d565b949350505050565b61139361193c565b61139b61195a565b6113a3611978565b60608480602001905181019061100c9190611dec565b60005b8151811015610ef25760008282815181106113d357fe5b60200260200101516001600160a01b03166370a08231306040518263ffffffff1660e01b81526004016114069190612827565b60206040518083038186803b15801561141e57600080fd5b505afa158015611432573d6000803e3d6000fd5b505050506040513d601f19601f82011682018060405250810190611456919061206e565b9050801561148f5761148f848285858151811061146f57fe5b60200260200101516001600160a01b03166117af9092919063ffffffff16565b506001016113bc565b60008151116114b95760405162461bcd60e51b81526004016102e49061294c565b60005b81518110156106ff576114e18282815181106114d457fe5b6020026020010151610fcf565b156114fe5760405162461bcd60e51b81526004016102e4906129dc565b600160008084848151811061150f57fe5b60200260200101516001600160a01b03166001600160a01b0316815260200190815260200160002060006101000a81548160ff02191690831515021790555081818151811061155a57fe5b60200260200101516001600160a01b03167f2e1c3b07a83c6d2606a67771e6dd5c25722baac28ecf38e8056fb820d88536a860405160405180910390a26001016114bc565b6000828211156115c15760405162461bcd60e51b81526004016102e49061296c565b508082035b92915050565b6000828201838110156112ca5760405162461bcd60e51b81526004016102e49061293c565b6060611646826040518060400160405280602081526020017f5361666545524332303a206c6f772d6c6576656c2063616c6c206661696c6564815250856001600160a01b03166117ce9092919063ffffffff16565b805190915015610ef257808060200190518101906116649190611ebf565b610ef25760405162461bcd60e51b81526004016102e4906129ec565b8015806117085750604051636eb1769f60e11b81526001600160a01b0384169063dd62ed3e906116b69030908690600401612835565b60206040518083038186803b1580156116ce57600080fd5b505afa1580156116e2573d6000803e3d6000fd5b505050506040513d601f19601f82011682018060405250810190611706919061206e565b155b6117245760405162461bcd60e51b81526004016102e4906129fc565b610ef28363095ea7b360e01b848460405160240161103c929190612878565b600082611752575060006115c6565b8282028284828161175f57fe5b04146112ca5760405162461bcd60e51b81526004016102e4906129bc565b600080821161179e5760405162461bcd60e51b81526004016102e49061298c565b8183816117a757fe5b049392505050565b610ef28363a9059cbb60e01b848460405160240161103c929190612878565b60606113838484600085856117e285611878565b6117fe5760405162461bcd60e51b81526004016102e4906129cc565b60006060866001600160a01b0316858760405161181b919061281b565b60006040518083038185875af1925050503d8060008114611858576040519150601f19603f3d011682016040523d82523d6000602084013e61185d565b606091505b509150915061186d82828661187e565b979650505050505050565b3b151590565b6060831561188d5750816112ca565b82511561189d5782518084602001fd5b8160405162461bcd60e51b81526004016102e4919061290b565b60405180610180016040528060006001600160a01b0316815260200160006001600160a01b0316815260200160006001600160a01b0316815260200160006001600160a01b0316815260200160008152602001600081526020016000815260200160008152602001600081526020016000815260200160608152602001606081525090565b60405180608001604052806004906020820280368337509192915050565b6040518060c001604052806006906020820280368337509192915050565b60405180604001604052806002905b60608152602001906001900390816119875790505090565b80356115c681612b7f565b80516115c681612b7f565b600082601f8301126119c657600080fd5b60046119d96119d482612a84565b612a5e565b915081838560208402820111156119ef57600080fd5b60005b83811015611a1b5781611a0588826119aa565b84525060209283019291909101906001016119f2565b5050505092915050565b60008083601f840112611a3757600080fd5b5081356001600160401b03811115611a4e57600080fd5b602083019150836020820283011115611a6657600080fd5b9250929050565b600082601f830112611a7e57600080fd5b8151611a8c6119d482612aa1565b91508181835260208401935060208101905083856020840282011115611ab157600080fd5b60005b83811015611a1b5781611ac788826119aa565b8452506020928301929190910190600101611ab4565b600082601f830112611aee57600080fd5b6002611afc6119d482612a84565b9150818360005b83811015611a1b5781518601611b198882611c57565b8452506020928301929190910190600101611b03565b600082601f830112611b4057600080fd5b6006611b4e6119d482612a84565b91508183856020840282011115611b6457600080fd5b60005b83811015611a1b5781611b7a8882611d20565b8452506020928301929190910190600101611b67565b600082601f830112611ba157600080fd5b8151611baf6119d482612aa1565b91508181835260208401935060208101905083856020840282011115611bd457600080fd5b60005b83811015611a1b5781611bea8882611d20565b8452506020928301929190910190600101611bd7565b80516115c681612b93565b80356115c681612b9c565b60008083601f840112611c2857600080fd5b5081356001600160401b03811115611c3f57600080fd5b602083019150836001820283011115611a6657600080fd5b600082601f830112611c6857600080fd5b8151611c766119d482612ac1565b91508082526020830160208301858383011115611c9257600080fd5b611c9d838284612b3c565b50505092915050565b80516115c681612ba5565b600060808284031215611cc357600080fd5b611ccd6080612a5e565b90506000611cdb8484611d20565b8252506020611cec84848301611d20565b6020830152506040611d0084828501611d20565b6040830152506060611d1484828501611d20565b60608301525092915050565b80516115c681612bb2565b600060208284031215611d3d57600080fd5b6000611383848461199f565b600060208284031215611d5b57600080fd5b600061138384846119aa565b600080600080600060608688031215611d7f57600080fd5b6000611d8b888861199f565b95505060208601356001600160401b03811115611da757600080fd5b611db388828901611c16565b945094505060408601356001600160401b03811115611dd157600080fd5b611ddd88828901611c16565b92509250509295509295909350565b6000806000806101808587031215611e0357600080fd5b6000611e0f87876119b5565b9450506080611e2087828801611b2f565b9350506101408501516001600160401b03811115611e3d57600080fd5b611e4987828801611add565b9250506101608501516001600160401b03811115611e6657600080fd5b611e7287828801611c57565b91505092959194509250565b60008060208385031215611e9157600080fd5b82356001600160401b03811115611ea757600080fd5b611eb385828601611a25565b92509250509250929050565b600060208284031215611ed157600080fd5b60006113838484611c00565b600080600060408486031215611ef257600080fd5b6000611efe8686611c0b565b93505060208401356001600160401b03811115611f1a57600080fd5b611f2686828701611c16565b92509250509250925092565b600060208284031215611f4457600080fd5b81516001600160401b03811115611f5a57600080fd5b61138384828501611c57565b60008060408385031215611f7957600080fd5b82516001600160401b03811115611f8f57600080fd5b611f9b85828601611c57565b9250506020611fac85828601611d20565b9150509250929050565b60008060008060808587031215611fcc57600080fd5b6000611fd88787611ca6565b94505060208501516001600160401b03811115611ff457600080fd5b61200087828801611a6d565b93505060408501516001600160401b0381111561201c57600080fd5b61202887828801611b90565b92505060608501516001600160401b0381111561204457600080fd5b611e7287828801611a6d565b60006080828403121561206257600080fd5b60006113838484611cb1565b60006020828403121561208057600080fd5b60006113838484611d20565b600061209883836120ac565b505060200190565b60006120988383612812565b6120b581612afb565b82525050565b60006120c682612aee565b6120d08185612af2565b93506120db83612ae8565b8060005b838110156121095781516120f3888261208c565b97506120fe83612ae8565b9250506001016120df565b509495945050505050565b600061211f82612aee565b6121298185612af2565b935061213483612ae8565b8060005b8381101561210957815161214c88826120a0565b975061215783612ae8565b925050600101612138565b6120b581612b06565b6120b581612b0b565b600061217f82612aee565b6121898185612af2565b9350612199818560208601612b3c565b6121a281612b68565b9093019392505050565b60006121b782612aee565b6121c18185610fec565b93506121d1818560208601612b3c565b9290920192915050565b6120b581612b31565b60006121f1602c83612af2565b7f72656d6f7665416c6c6f7765644d616b6572733a20456d707479205f6163636f81526b756e7473546f52656d6f766560a01b602082015260400192915050565b600061223f604983612af2565b7f6f6e6c7946756e644465706c6f7965724f776e65723a204f6e6c79207468652081527f46756e644465706c6f796572206f776e65722063616e2063616c6c207468697360208201526810333ab731ba34b7b760b91b604082015260600192915050565b60006122b0601b83612af2565b7f536166654d6174683a206164646974696f6e206f766572666c6f770000000000815260200192915050565b60006122e9602883612af2565b7f5f5f616464416c6c6f7765644d616b6572733a20456d707479205f6163636f758152671b9d1cd51bd0591960c21b602082015260400192915050565b6000612333602783612af2565b7f7061727365417373657473466f724d6574686f643a205f73656c6563746f72208152661a5b9d985b1a5960ca1b602082015260400192915050565b600061237c601e83612af2565b7f536166654d6174683a207375627472616374696f6e206f766572666c6f770000815260200192915050565b60006123b5604483612af2565b7f7061727365417373657473466f724d6574686f643a2054616b6572206173736581527f742066696c6c20616d6f756e742067726561746572207468616e20617661696c60208201526361626c6560e01b604082015260600192915050565b6000612421601a83612af2565b7f536166654d6174683a206469766973696f6e206279207a65726f000000000000815260200192915050565b600061245a603783612af2565b7f7061727365417373657473466f724d6574686f643a204665652067726561746581527f72207468616e206d616b65724173736574416d6f756e74000000000000000000602082015260400192915050565b60006124b9603283612af2565b7f4f6e6c792074686520496e746567726174696f6e4d616e616765722063616e2081527131b0b636103a3434b990333ab731ba34b7b760711b602082015260400192915050565b600061250d602183612af2565b7f536166654d6174683a206d756c7469706c69636174696f6e206f766572666c6f8152607760f81b602082015260400192915050565b6000612550601d83612af2565b7f416464726573733a2063616c6c20746f206e6f6e2d636f6e7472616374000000815260200192915050565b6000612589602583612af2565b7f5f5f616464416c6c6f7765644d616b6572733a2056616c756520616c726561648152641e481cd95d60da1b602082015260400192915050565b60006125d0602a83612af2565b7f5361666545524332303a204552433230206f7065726174696f6e20646964206e8152691bdd081cdd58d8d9595960b21b602082015260400192915050565b600061261c603683612af2565b7f5361666545524332303a20617070726f76652066726f6d206e6f6e2d7a65726f81527520746f206e6f6e2d7a65726f20616c6c6f77616e636560501b602082015260400192915050565b6000612674603483612af2565b7f72656d6f7665416c6c6f7765644d616b6572733a204163636f756e74206973208152733737ba1030b71030b63637bbb2b21036b0b5b2b960611b602082015260400192915050565b60006126ca603083612af2565b7f7061727365417373657473466f724d6574686f643a204f72646572206d616b6581526f1c881a5cc81b9bdd08185b1b1bddd95960821b602082015260400192915050565b805160009061018084019061272485826120ac565b50602083015161273760208601826120ac565b50604083015161274a60408601826120ac565b50606083015161275d60608601826120ac565b5060808301516127706080860182612812565b5060a083015161278360a0860182612812565b5060c083015161279660c0860182612812565b5060e08301516127a960e0860182612812565b506101008301516127be610100860182612812565b506101208301516127d3610120860182612812565b506101408301518482036101408601526127ed8282612174565b9150506101608301518482036101608601526128098282612174565b95945050505050565b6120b581612b2e565b60006112ca82846121ac565b602081016115c682846120ac565b6040810161284382856120ac565b6112ca60208301846120ac565b6060810161285e82866120ac565b61286b60208301856120ac565b6113836040830184612812565b6040810161288682856120ac565b6112ca6020830184612812565b602081016115c68284612162565b602081016115c6828461216b565b60a081016128bd82886121db565b81810360208301526128cf81876120bb565b905081810360408301526128e38186612114565b905081810360608301526128f781856120bb565b9050818103608083015261186d8184612114565b602080825281016112ca8184612174565b602080825281016115c6816121e4565b602080825281016115c681612232565b602080825281016115c6816122a3565b602080825281016115c6816122dc565b602080825281016115c681612326565b602080825281016115c68161236f565b602080825281016115c6816123a8565b602080825281016115c681612414565b602080825281016115c68161244d565b602080825281016115c6816124ac565b602080825281016115c681612500565b602080825281016115c681612543565b602080825281016115c68161257c565b602080825281016115c6816125c3565b602080825281016115c68161260f565b602080825281016115c681612667565b602080825281016115c6816126bd565b60608082528101612a3d818661270f565b9050612a4c6020830185612812565b81810360408301526128098184612174565b6040518181016001600160401b0381118282101715612a7c57600080fd5b604052919050565b60006001600160401b03821115612a9a57600080fd5b5060200290565b60006001600160401b03821115612ab757600080fd5b5060209081020190565b60006001600160401b03821115612ad757600080fd5b506020601f91909101601f19160190565b60200190565b5190565b90815260200190565b60006115c682612b22565b151590565b6001600160e01b03191690565b80610fec81612b72565b6001600160a01b031690565b90565b60006115c682612b18565b60005b83811015612b57578181015183820152602001612b3f565b838111156110735750506000910152565b601f01601f191690565b60048110612b7c57fe5b50565b612b8881612afb565b8114612b7c57600080fd5b612b8881612b06565b612b8881612b0b565b60048110612b7c57600080fd5b612b8881612b2e56fea26469706673582212206f024d37d500c680c8e6e0503794e0aff79e262fbaf065fb9394f32aae75927f64736f6c634300060c0033",
  "devdoc": {
    "kind": "dev",
    "methods": {
      "addAllowedMakers(address[])": {
        "params": {
          "_accountsToAdd": "Accounts to add"
        }
      },
      "getExchange()": {
        "returns": {
          "exchange_": "The `EXCHANGE` variable value"
        }
      },
      "getFundDeployer()": {
        "returns": {
          "fundDeployer_": "The `FUND_DEPLOYER` variable value"
        }
      },
      "getIntegrationManager()": {
        "returns": {
          "integrationManager_": "The `INTEGRATION_MANAGER` variable value"
        }
      },
      "getOwner()": {
        "details": "Ownership is deferred to the owner of the FundDeployer contract",
        "returns": {
          "owner_": "The owner"
        }
      },
      "identifier()": {
        "returns": {
          "identifier_": "The identifer string"
        }
      },
      "isAllowedMaker(address)": {
        "params": {
          "_who": "The account to check"
        },
        "returns": {
          "isAllowedMaker_": "True if _who is an allowed maker"
        }
      },
      "parseAssetsForMethod(bytes4,bytes)": {
        "params": {
          "_encodedCallArgs": "The encoded parameters for the callOnIntegration",
          "_selector": "The function selector for the callOnIntegration"
        },
        "returns": {
          "incomingAssets_": "The assets to receive in the call",
          "minIncomingAssetAmounts_": "The min asset amounts to receive in the call",
          "spendAssetAmounts_": "The max asset amounts to spend in the call",
          "spendAssetsHandleType_": "A type that dictates how to handle granting the adapter access to spend assets (`None` by default)",
          "spendAssets_": "The assets to spend in the call"
        }
      },
      "removeAllowedMakers(address[])": {
        "params": {
          "_accountsToRemove": "Accounts to remove"
        }
      }
    },
    "title": "ZeroExV2Adapter Contract",
    "version": 1
  },
  "userdoc": {
    "kind": "user",
    "methods": {
      "addAllowedMakers(address[])": {
        "notice": "Adds accounts to the list of allowed 0x order makers"
      },
      "getExchange()": {
        "notice": "Gets the `EXCHANGE` variable value"
      },
      "getFundDeployer()": {
        "notice": "Gets the `FUND_DEPLOYER` variable"
      },
      "getIntegrationManager()": {
        "notice": "Gets the `INTEGRATION_MANAGER` variable"
      },
      "getOwner()": {
        "notice": "Gets the owner of this contract"
      },
      "identifier()": {
        "notice": "Provides a constant string identifier for an adapter"
      },
      "isAllowedMaker(address)": {
        "notice": "Checks whether an account is an allowed maker of 0x orders"
      },
      "parseAssetsForMethod(bytes4,bytes)": {
        "notice": "Parses the expected assets to receive from a call on integration"
      },
      "removeAllowedMakers(address[])": {
        "notice": "Removes accounts from the list of allowed 0x order makers"
      }
    },
    "notice": "Adapter to 0xV2 Exchange Contract",
    "version": 1
  },
  "storageLayout": {
    "storage": [
      {
        "astId": 26524,
        "contract": "contracts/release/extensions/integration-manager/integrations/adapters/ZeroExV2Adapter.sol:ZeroExV2Adapter",
        "label": "makerToIsAllowed",
        "offset": 0,
        "slot": "0",
        "type": "t_mapping(t_address,t_bool)"
      }
    ],
    "types": {
      "t_address": {
        "encoding": "inplace",
        "label": "address",
        "numberOfBytes": "20"
      },
      "t_bool": {
        "encoding": "inplace",
        "label": "bool",
        "numberOfBytes": "1"
      },
      "t_mapping(t_address,t_bool)": {
        "encoding": "mapping",
        "key": "t_address",
        "label": "mapping(address => bool)",
        "numberOfBytes": "32",
        "value": "t_bool"
      }
    }
  }
}